{
  "contractName": "Tasks",
  "abi": [
    {
      "inputs": [],
      "payable": false,
      "stateMutability": "nonpayable",
      "type": "constructor"
    },
    {
      "constant": true,
      "inputs": [],
      "name": "taskCount",
      "outputs": [
        {
          "internalType": "uint256",
          "name": "",
          "type": "uint256"
        }
      ],
      "payable": false,
      "stateMutability": "view",
      "type": "function"
    },
    {
      "constant": true,
      "inputs": [
        {
          "internalType": "uint256",
          "name": "",
          "type": "uint256"
        }
      ],
      "name": "tasks",
      "outputs": [
        {
          "internalType": "uint256",
          "name": "id",
          "type": "uint256"
        },
        {
          "internalType": "string",
          "name": "content",
          "type": "string"
        },
        {
          "internalType": "uint256",
          "name": "assetId",
          "type": "uint256"
        },
        {
          "internalType": "bool",
          "name": "completed",
          "type": "bool"
        },
        {
          "internalType": "address",
          "name": "signator",
          "type": "address"
        },
        {
          "internalType": "string",
          "name": "test",
          "type": "string"
        }
      ],
      "payable": false,
      "stateMutability": "view",
      "type": "function"
    },
    {
      "constant": false,
      "inputs": [
        {
          "internalType": "string",
          "name": "_taskcontent",
          "type": "string"
        },
        {
          "internalType": "uint256",
          "name": "assetId",
          "type": "uint256"
        },
        {
          "internalType": "address",
          "name": "signator",
          "type": "address"
        }
      ],
      "name": "createTask",
      "outputs": [],
      "payable": false,
      "stateMutability": "nonpayable",
      "type": "function"
    },
    {
      "constant": false,
      "inputs": [],
      "name": "setStart",
      "outputs": [],
      "payable": false,
      "stateMutability": "nonpayable",
      "type": "function"
    },
    {
      "constant": false,
      "inputs": [],
      "name": "setComplete",
      "outputs": [],
      "payable": false,
      "stateMutability": "nonpayable",
      "type": "function"
    },
    {
      "constant": false,
      "inputs": [],
      "name": "setCancelled",
      "outputs": [],
      "payable": false,
      "stateMutability": "nonpayable",
      "type": "function"
    },
    {
      "constant": true,
      "inputs": [],
      "name": "get_choice",
      "outputs": [
        {
          "internalType": "enum Tasks.States",
          "name": "",
          "type": "uint8"
        }
      ],
      "payable": false,
      "stateMutability": "view",
      "type": "function"
    },
    {
      "constant": true,
      "inputs": [],
      "name": "getdefaultvalue",
      "outputs": [
        {
          "internalType": "enum Tasks.States",
          "name": "",
          "type": "uint8"
        }
      ],
      "payable": false,
      "stateMutability": "pure",
      "type": "function"
    }
  ],
  "bytecode": "0x60806040526000805534801561001457600080fd5b506100706040518060400160405280600e81526020017f536f75726365204c6561746865720000000000000000000000000000000000008152506001735e7b2bbb14b8a9097a26a93982624067a1db11de61007560201b60201c565b610279565b60008081548092919060010191905055506040518060c0016040528060005481526020018481526020018381526020016000151581526020018273ffffffffffffffffffffffffffffffffffffffff1681526020016040518060400160405280600481526020017f7465737400000000000000000000000000000000000000000000000000000000815250815250600160008054815260200190815260200160002060008201518160000155602082015181600101908051906020019061013d9291906101d4565b506040820151816002015560608201518160030160006101000a81548160ff02191690831515021790555060808201518160030160016101000a81548173ffffffffffffffffffffffffffffffffffffffff021916908373ffffffffffffffffffffffffffffffffffffffff16021790555060a08201518160040190805190602001906101cb9291906101d4565b50905050505050565b828054600181600116156101000203166002900490600052602060002090601f016020900481019282601f1061021557805160ff1916838001178555610243565b82800160010185558215610243579182015b82811115610242578251825591602001919060010190610227565b5b5090506102509190610254565b5090565b61027691905b8082111561027257600081600090555060010161025a565b5090565b90565b6107cd806102886000396000f3fe608060405234801561001057600080fd5b50600436106100885760003560e01c80638d9776721161005b5780638d977672146101b2578063b6cb58a514610311578063bd72e4fc1461032f578063ec8a3cff1461035b57610088565b8063042708171461008d5780633055d7901461017257806335975a371461017c578063630f703514610186575b600080fd5b610170600480360360608110156100a357600080fd5b81019080803590602001906401000000008111156100c057600080fd5b8201836020820111156100d257600080fd5b803590602001918460018302840111640100000000831117156100f457600080fd5b91908080601f016020809104026020016040519081016040528093929190818152602001838380828437600081840152601f19601f82011690508083019250505050505050919291929080359060200190929190803573ffffffffffffffffffffffffffffffffffffffff169060200190929190505050610365565b005b61017a6104c4565b005b6101846104e9565b005b61018e61050f565b6040518082600381111561019e57fe5b60ff16815260200191505060405180910390f35b6101de600480360360208110156101c857600080fd5b8101908080359060200190929190505050610526565b6040518087815260200180602001868152602001851515151581526020018473ffffffffffffffffffffffffffffffffffffffff1673ffffffffffffffffffffffffffffffffffffffff16815260200180602001838103835288818151815260200191508051906020019080838360005b8381101561026a57808201518184015260208101905061024f565b50505050905090810190601f1680156102975780820380516001836020036101000a031916815260200191505b50838103825284818151815260200191508051906020019080838360005b838110156102d05780820151818401526020810190506102b5565b50505050905090810190601f1680156102fd5780820380516001836020036101000a031916815260200191505b509850505050505050505060405180910390f35b6103196106bf565b6040518082815260200191505060405180910390f35b6103376106c5565b6040518082600381111561034757fe5b60ff16815260200191505060405180910390f35b6103636106cd565b005b60008081548092919060010191905055506040518060c0016040528060005481526020018481526020018381526020016000151581526020018273ffffffffffffffffffffffffffffffffffffffff1681526020016040518060400160405280600481526020017f7465737400000000000000000000000000000000000000000000000000000000815250815250600160008054815260200190815260200160002060008201518160000155602082015181600101908051906020019061042d9291906106f3565b506040820151816002015560608201518160030160006101000a81548160ff02191690831515021790555060808201518160030160016101000a81548173ffffffffffffffffffffffffffffffffffffffff021916908373ffffffffffffffffffffffffffffffffffffffff16021790555060a08201518160040190805190602001906104bb9291906106f3565b50905050505050565b60028060006101000a81548160ff021916908360038111156104e257fe5b0217905550565b6001600260006101000a81548160ff0219169083600381111561050857fe5b0217905550565b6000600260009054906101000a900460ff16905090565b6001602052806000526040600020600091509050806000015490806001018054600181600116156101000203166002900480601f0160208091040260200160405190810160405280929190818152602001828054600181600116156101000203166002900480156105d85780601f106105ad576101008083540402835291602001916105d8565b820191906000526020600020905b8154815290600101906020018083116105bb57829003601f168201915b5050505050908060020154908060030160009054906101000a900460ff16908060030160019054906101000a900473ffffffffffffffffffffffffffffffffffffffff1690806004018054600181600116156101000203166002900480601f0160208091040260200160405190810160405280929190818152602001828054600181600116156101000203166002900480156106b55780601f1061068a576101008083540402835291602001916106b5565b820191906000526020600020905b81548152906001019060200180831161069857829003601f168201915b5050505050905086565b60005481565b600080905090565b6003600260006101000a81548160ff021916908360038111156106ec57fe5b0217905550565b828054600181600116156101000203166002900490600052602060002090601f016020900481019282601f1061073457805160ff1916838001178555610762565b82800160010185558215610762579182015b82811115610761578251825591602001919060010190610746565b5b50905061076f9190610773565b5090565b61079591905b80821115610791576000816000905550600101610779565b5090565b9056fea265627a7a72315820bc8317c44d913d1749689f2a863f4a94ac8c5c006d0a7400ff1ddb238a39c93d64736f6c63430005100032",
  "source": "pragma solidity >=0.4.25 <0.7.0;\n\n// This is just a task contract.\ncontract Tasks {\n    // state variable to keep track of the number of tasks.\n    uint256 public taskCount = 0;\n\n    //allows to use id as key to find tasks (basically search asset by id)\n    mapping(uint256 => Task) public tasks;\n\n    //constructor\n    //executed once when a contract is created and it initialises contract state.\n    constructor() public {\n        createTask( \"Source Leather\",1,0x5E7b2Bbb14B8a9097A26A93982624067A1dB11dE);\n    }\n\n    //https://www.tutorialspoint.com/solidity/solidity_enums.htm\n    //used this is learn the sturcutre of how to use enums and\n    //create functions for accessing their values\n    enum States {Pending, InProgress, Cancelled, Complete }\n    States choice;\n    States constant defaultChoice = States.Pending;\n\n    //definition of a data type of Task using structs\n    struct Task {\n        //attributes of the struct\n        uint256 id;\n        string content;\n        uint256 assetId;\n        bool completed;\n        address signator;\n        string test;\n    }\n\n    //create a task\n    function createTask(string memory _taskcontent, uint256 assetId, address signator) public {\n        taskCount++;\n        tasks[taskCount] = Task(taskCount, _taskcontent, assetId, false, signator, \"test\");\n    }\n\n\n    // Defining a function to set value of inprogress to state enum\n    function setStart() public{\n        choice = States.InProgress;\n    }\n    // Defining a function to set value of complete to state enum\n    function setComplete() public{\n        choice = States.Complete;\n    }\n    // Defining a function to set value of cancelled to state enum\n    function setCancelled() public{\n        choice = States.Cancelled;\n    }\n    // Defining a function to return value of choice \n    function get_choice() public view returns (States) {\n      return choice;\n    }\n    // Defining function to return default value\n    function getdefaultvalue() public pure returns(States) {  \n        return defaultChoice;  \n    } \n\n\n\n}\n",
  "sourcePath": "/Users/tobiadewunmi/Desktop/unbolt/UnBolt/contracts/Tasks.sol",
  "compiler": {
    "name": "solc",
    "version": "0.5.16+commit.9c3226ce.Emscripten.clang"
  },
  "schemaVersion": "3.4.6",
  "updatedAt": "2022-03-21T16:23:34.148Z",
  "networkType": "ethereum",
  "devdoc": {
    "methods": {}
  },
  "userdoc": {
    "methods": {}
  }
}