{
  "contractName": "Assets",
  "abi": [
    {
      "inputs": [],
      "payable": false,
      "stateMutability": "nonpayable",
      "type": "constructor"
    },
    {
      "constant": true,
      "inputs": [],
      "name": "assetCount",
      "outputs": [
        {
          "internalType": "uint256",
          "name": "",
          "type": "uint256"
        }
      ],
      "payable": false,
      "stateMutability": "view",
      "type": "function"
    },
    {
      "constant": true,
      "inputs": [
        {
          "internalType": "uint256",
          "name": "",
          "type": "uint256"
        }
      ],
      "name": "assets",
      "outputs": [
        {
          "internalType": "uint256",
          "name": "id",
          "type": "uint256"
        },
        {
          "internalType": "string",
          "name": "assetName",
          "type": "string"
        },
        {
          "internalType": "uint256",
          "name": "quantity",
          "type": "uint256"
        },
        {
          "internalType": "bool",
          "name": "completed",
          "type": "bool"
        }
      ],
      "payable": false,
      "stateMutability": "view",
      "type": "function"
    },
    {
      "constant": false,
      "inputs": [
        {
          "internalType": "string",
          "name": "_assetName",
          "type": "string"
        },
        {
          "internalType": "uint256",
          "name": "quantity",
          "type": "uint256"
        }
      ],
      "name": "createAsset",
      "outputs": [],
      "payable": false,
      "stateMutability": "nonpayable",
      "type": "function"
    }
  ],
  "bytecode": "0x60806040526000805534801561001457600080fd5b5061005c6040518060400160405280600a81526020017f4265726b656e20426167000000000000000000000000000000000000000000008152506103e861006160201b60201c565b6101a9565b6000808154809291906001019190505550604051806080016040528060005481526020018381526020018281526020016000151581525060016000805481526020019081526020016000206000820151816000015560208201518160010190805190602001906100d2929190610104565b506040820151816002015560608201518160030160006101000a81548160ff0219169083151502179055509050505050565b828054600181600116156101000203166002900490600052602060002090601f016020900481019282601f1061014557805160ff1916838001178555610173565b82800160010185558215610173579182015b82811115610172578251825591602001919060010190610157565b5b5090506101809190610184565b5090565b6101a691905b808211156101a257600081600090555060010161018a565b5090565b90565b610441806101b86000396000f3fe608060405234801561001057600080fd5b50600436106100415760003560e01c8063cf35bdd014610046578063db9cc41014610106578063eafe7a74146101cb575b600080fd5b6100726004803603602081101561005c57600080fd5b81019080803590602001909291905050506101e9565b604051808581526020018060200184815260200183151515158152602001828103825285818151815260200191508051906020019080838360005b838110156100c85780820151818401526020810190506100ad565b50505050905090810190601f1680156100f55780820380516001836020036101000a031916815260200191505b509550505050505060405180910390f35b6101c96004803603604081101561011c57600080fd5b810190808035906020019064010000000081111561013957600080fd5b82018360208201111561014b57600080fd5b8035906020019184600183028401116401000000008311171561016d57600080fd5b91908080601f016020809104026020016040519081016040528093929190818152602001838380828437600081840152601f19601f820116905080830192505050505050509192919290803590602001909291905050506102be565b005b6101d3610361565b6040518082815260200191505060405180910390f35b6001602052806000526040600020600091509050806000015490806001018054600181600116156101000203166002900480601f01602080910402602001604051908101604052809291908181526020018280546001816001161561010002031660029004801561029b5780601f106102705761010080835404028352916020019161029b565b820191906000526020600020905b81548152906001019060200180831161027e57829003601f168201915b5050505050908060020154908060030160009054906101000a900460ff16905084565b60008081548092919060010191905055506040518060800160405280600054815260200183815260200182815260200160001515815250600160008054815260200190815260200160002060008201518160000155602082015181600101908051906020019061032f929190610367565b506040820151816002015560608201518160030160006101000a81548160ff0219169083151502179055509050505050565b60005481565b828054600181600116156101000203166002900490600052602060002090601f016020900481019282601f106103a857805160ff19168380011785556103d6565b828001600101855582156103d6579182015b828111156103d55782518255916020019190600101906103ba565b5b5090506103e391906103e7565b5090565b61040991905b808211156104055760008160009055506001016103ed565b5090565b9056fea265627a7a72315820ef107c16f7aeadce76101cbafb288deb5ad7db7ffea8400e5cc6434d57adb9e364736f6c63430005100032",
  "source": "pragma solidity >=0.4.25 <0.7.0;\n\n// This is just an asset contract.\ncontract Assets {\n    // state variable to keep track of the number of assets.\n    uint256 public assetCount = 0;\n\n    //allows to use id as key to find assets (basically search asset by id)\n    mapping(uint256 => Asset) public assets;\n\n    //constructor\n    //executed once when a contract is created and it initialises contract state.\n    constructor() public {\n        createAsset(\"Berken Bag\", 1000);\n    }\n\n    //definition of a data type of Asset using structs\n    struct Asset {\n        //attributes of the struct\n        uint256 id;\n        string assetName;\n        uint256 quantity;\n        bool completed;\n    }\n\n    //create an asset\n    function createAsset(string memory _assetName, uint256 quantity) public {\n        assetCount++;\n        assets[assetCount] = Asset(assetCount, _assetName, quantity, false);\n    }\n\n}\n\n//To access in truffle console \n// truffle compile\n// truffle migrate --reset\n// truffle console\n\n// asset = await Assets.deployed()\n// assetOne = await asset.assets(1)\n// assetOne.id.toNumber()",
  "sourcePath": "/Users/tobiadewunmi/Desktop/unbolt/UnBolt/contracts/Assets.sol",
  "compiler": {
    "name": "solc",
    "version": "0.5.16+commit.9c3226ce.Emscripten.clang"
  },
  "schemaVersion": "3.4.6",
  "updatedAt": "2022-03-23T16:42:15.302Z",
  "networkType": "ethereum",
  "devdoc": {
    "methods": {}
  },
  "userdoc": {
    "methods": {}
  }
}