{
  "contractName": "Assets",
  "abi": [
    {
      "inputs": [],
      "stateMutability": "payable",
      "type": "constructor"
    },
    {
      "anonymous": false,
      "inputs": [
        {
          "indexed": true,
          "internalType": "uint256",
          "name": "id",
          "type": "uint256"
        },
        {
          "indexed": true,
          "internalType": "string",
          "name": "_assetName",
          "type": "string"
        },
        {
          "indexed": false,
          "internalType": "string",
          "name": "_description",
          "type": "string"
        },
        {
          "indexed": false,
          "internalType": "uint256",
          "name": "_quantity",
          "type": "uint256"
        },
        {
          "indexed": false,
          "internalType": "bool",
          "name": "completed",
          "type": "bool"
        },
        {
          "indexed": true,
          "internalType": "address",
          "name": "creator",
          "type": "address"
        }
      ],
      "name": "AssetCreated",
      "type": "event"
    },
    {
      "anonymous": false,
      "inputs": [
        {
          "indexed": true,
          "internalType": "bool",
          "name": "newValue",
          "type": "bool"
        }
      ],
      "name": "CompletedAssetValueChanged",
      "type": "event"
    },
    {
      "inputs": [],
      "name": "assetCount",
      "outputs": [
        {
          "internalType": "uint256",
          "name": "",
          "type": "uint256"
        }
      ],
      "stateMutability": "view",
      "type": "function"
    },
    {
      "inputs": [
        {
          "internalType": "uint256",
          "name": "",
          "type": "uint256"
        }
      ],
      "name": "assets",
      "outputs": [
        {
          "internalType": "uint256",
          "name": "id",
          "type": "uint256"
        },
        {
          "internalType": "string",
          "name": "assetName",
          "type": "string"
        },
        {
          "internalType": "string",
          "name": "description",
          "type": "string"
        },
        {
          "internalType": "uint256",
          "name": "creationTime",
          "type": "uint256"
        },
        {
          "internalType": "uint256",
          "name": "compltionTime",
          "type": "uint256"
        },
        {
          "internalType": "uint256",
          "name": "quantity",
          "type": "uint256"
        },
        {
          "internalType": "bool",
          "name": "completed",
          "type": "bool"
        },
        {
          "internalType": "address",
          "name": "creator",
          "type": "address"
        }
      ],
      "stateMutability": "view",
      "type": "function"
    },
    {
      "inputs": [
        {
          "internalType": "address",
          "name": "",
          "type": "address"
        },
        {
          "internalType": "uint256",
          "name": "",
          "type": "uint256"
        }
      ],
      "name": "userAssetMap",
      "outputs": [
        {
          "internalType": "uint256",
          "name": "id",
          "type": "uint256"
        },
        {
          "internalType": "string",
          "name": "assetName",
          "type": "string"
        },
        {
          "internalType": "string",
          "name": "description",
          "type": "string"
        },
        {
          "internalType": "uint256",
          "name": "creationTime",
          "type": "uint256"
        },
        {
          "internalType": "uint256",
          "name": "compltionTime",
          "type": "uint256"
        },
        {
          "internalType": "uint256",
          "name": "quantity",
          "type": "uint256"
        },
        {
          "internalType": "bool",
          "name": "completed",
          "type": "bool"
        },
        {
          "internalType": "address",
          "name": "creator",
          "type": "address"
        }
      ],
      "stateMutability": "view",
      "type": "function"
    },
    {
      "inputs": [
        {
          "internalType": "string[5]",
          "name": "_assetNames",
          "type": "string[5]"
        },
        {
          "internalType": "string[5]",
          "name": "_description",
          "type": "string[5]"
        },
        {
          "internalType": "uint16[5]",
          "name": "_quantities",
          "type": "uint16[5]"
        }
      ],
      "name": "createAssets",
      "outputs": [
        {
          "internalType": "bool",
          "name": "",
          "type": "bool"
        }
      ],
      "stateMutability": "nonpayable",
      "type": "function"
    },
    {
      "inputs": [
        {
          "internalType": "string",
          "name": "_assetName",
          "type": "string"
        },
        {
          "internalType": "string",
          "name": "_description",
          "type": "string"
        },
        {
          "internalType": "uint256",
          "name": "_quantity",
          "type": "uint256"
        }
      ],
      "name": "createAsset",
      "outputs": [
        {
          "internalType": "bool",
          "name": "",
          "type": "bool"
        }
      ],
      "stateMutability": "nonpayable",
      "type": "function"
    },
    {
      "inputs": [],
      "name": "getAssets",
      "outputs": [
        {
          "components": [
            {
              "internalType": "uint256",
              "name": "id",
              "type": "uint256"
            },
            {
              "internalType": "string",
              "name": "assetName",
              "type": "string"
            },
            {
              "internalType": "string",
              "name": "description",
              "type": "string"
            },
            {
              "internalType": "uint256",
              "name": "creationTime",
              "type": "uint256"
            },
            {
              "internalType": "uint256",
              "name": "compltionTime",
              "type": "uint256"
            },
            {
              "internalType": "uint256",
              "name": "quantity",
              "type": "uint256"
            },
            {
              "internalType": "bool",
              "name": "completed",
              "type": "bool"
            },
            {
              "internalType": "address",
              "name": "creator",
              "type": "address"
            }
          ],
          "internalType": "struct Assets.Asset[]",
          "name": "",
          "type": "tuple[]"
        }
      ],
      "stateMutability": "view",
      "type": "function"
    },
    {
      "inputs": [
        {
          "internalType": "address",
          "name": "_userAddress",
          "type": "address"
        }
      ],
      "name": "getUserAssets",
      "outputs": [
        {
          "components": [
            {
              "internalType": "uint256",
              "name": "id",
              "type": "uint256"
            },
            {
              "internalType": "string",
              "name": "assetName",
              "type": "string"
            },
            {
              "internalType": "string",
              "name": "description",
              "type": "string"
            },
            {
              "internalType": "uint256",
              "name": "creationTime",
              "type": "uint256"
            },
            {
              "internalType": "uint256",
              "name": "compltionTime",
              "type": "uint256"
            },
            {
              "internalType": "uint256",
              "name": "quantity",
              "type": "uint256"
            },
            {
              "internalType": "bool",
              "name": "completed",
              "type": "bool"
            },
            {
              "internalType": "address",
              "name": "creator",
              "type": "address"
            }
          ],
          "internalType": "struct Assets.Asset[]",
          "name": "",
          "type": "tuple[]"
        }
      ],
      "stateMutability": "view",
      "type": "function"
    },
    {
      "inputs": [
        {
          "internalType": "uint256[]",
          "name": "_assetIds",
          "type": "uint256[]"
        }
      ],
      "name": "toggleAssetsCompleted",
      "outputs": [
        {
          "internalType": "bool",
          "name": "",
          "type": "bool"
        }
      ],
      "stateMutability": "nonpayable",
      "type": "function"
    },
    {
      "inputs": [
        {
          "internalType": "uint256",
          "name": "_id",
          "type": "uint256"
        }
      ],
      "name": "toggleAssetCompleted",
      "outputs": [
        {
          "internalType": "bool",
          "name": "newCompletionStatus",
          "type": "bool"
        }
      ],
      "stateMutability": "nonpayable",
      "type": "function"
    }
  ],
  "bytecode": "0x60806040526001600055611697806100186000396000f3fe608060405234801561001057600080fd5b50600436106100a35760003560e01c80637c6d372611610076578063cf35bdd01161005b578063cf35bdd014610149578063eafe7a741461015c578063f2bdc0351461017357600080fd5b80637c6d3726146101235780637cd270fb1461013657600080fd5b80631c0034a6146100a85780634e1347a7146100d857806367e4ac2c146100fb578063765ff06114610110575b600080fd5b6100bb6100b6366004611046565b610186565b6040516100cf9897969594939291906110cc565b60405180910390f35b6100eb6100e6366004611131565b610309565b60405190151581526020016100cf565b61010361078f565b6040516100cf919061114a565b61010361011e366004611219565b610964565b6100eb61013136600461138e565b610b4c565b6100eb610144366004611453565b610bcd565b6100bb610157366004611131565b610c68565b61016560005481565b6040519081526020016100cf565b6100eb6101813660046114f9565b610c9d565b600260205281600052604060002081815481106101a257600080fd5b9060005260206000209060070201600091509150508060000154908060010180546101cc90611566565b80601f01602080910402602001604051908101604052809291908181526020018280546101f890611566565b80156102455780601f1061021a57610100808354040283529160200191610245565b820191906000526020600020905b81548152906001019060200180831161022857829003601f168201915b50505050509080600201805461025a90611566565b80601f016020809104026020016040519081016040528092919081815260200182805461028690611566565b80156102d35780601f106102a8576101008083540402835291602001916102d3565b820191906000526020600020905b8154815290600101906020018083116102b657829003601f168201915b505050506003830154600484015460058501546006909501549394919390925060ff81169061010090046001600160a01b031688565b6001546000908211156103635760405162461bcd60e51b815260206004820152600e60248201527f4964206e6f74206372656174656400000000000000000000000000000000000060448201526064015b60405180910390fd5b6000600161037181856115b6565b81548110610381576103816115cd565b906000526020600020906007020160405180610100016040529081600082015481526020016001820180546103b590611566565b80601f01602080910402602001604051908101604052809291908181526020018280546103e190611566565b801561042e5780601f106104035761010080835404028352916020019161042e565b820191906000526020600020905b81548152906001019060200180831161041157829003601f168201915b5050505050815260200160028201805461044790611566565b80601f016020809104026020016040519081016040528092919081815260200182805461047390611566565b80156104c05780601f10610495576101008083540402835291602001916104c0565b820191906000526020600020905b8154815290600101906020018083116104a357829003601f168201915b505050918352505060038201546020820152600482015460408201526005820154606082015260069091015460ff81161515608083015261010090046001600160a01b031660a09091015260c08101805115908190529250905080600161052781866115b6565b81548110610537576105376115cd565b906000526020600020906007020160008201518160000155602082015181600101908051906020019061056b929190610f91565b5060408201518051610587916002840191602090910190610f91565b50606082015160038201556080820151600482015560a0820151600582015560c08201516006909101805460e0909301516001600160a01b03166101000274ffffffffffffffffffffffffffffffffffffffff00199215159290921674ffffffffffffffffffffffffffffffffffffffffff1990931692909217179055600061060f33610964565b905060005b6001825161062291906115b6565b8160ff1610156106665784828260ff1681518110610642576106426115cd565b6020026020010151600001510315610666578061065e816115e3565b915050610614565b336000908152600260205260409020805484919060ff841690811061068d5761068d6115cd565b90600052602060002090600702016000820151816000015560208201518160010190805190602001906106c1929190610f91565b50604082015180516106dd916002840191602090910190610f91565b50606082015160038201556080820151600482015560a0820151600582015560c08201516006909101805460e0909301516001600160a01b03166101000274ffffffffffffffffffffffffffffffffffffffff00199215159290921674ffffffffffffffffffffffffffffffffffffffffff1990931692909217179055604051841515907ff22cbfb622d75dcf8b8a0f945daa607fe2e0c01b5938db80499d4daf538ac1e490600090a2505050919050565b60606001805480602002602001604051908101604052809291908181526020016000905b8282101561095b578382906000526020600020906007020160405180610100016040529081600082015481526020016001820180546107f190611566565b80601f016020809104026020016040519081016040528092919081815260200182805461081d90611566565b801561086a5780601f1061083f5761010080835404028352916020019161086a565b820191906000526020600020905b81548152906001019060200180831161084d57829003601f168201915b5050505050815260200160028201805461088390611566565b80601f01602080910402602001604051908101604052809291908181526020018280546108af90611566565b80156108fc5780601f106108d1576101008083540402835291602001916108fc565b820191906000526020600020905b8154815290600101906020018083116108df57829003601f168201915b50505091835250506003820154602080830191909152600483015460408301526005830154606083015260069092015460ff81161515608083015261010090046001600160a01b031660a09091015290825260019290920191016107b3565b50505050905090565b6001600160a01b03811660009081526002602090815260408083208054825181850281018501909352808352606094859484015b82821015610b40578382906000526020600020906007020160405180610100016040529081600082015481526020016001820180546109d690611566565b80601f0160208091040260200160405190810160405280929190818152602001828054610a0290611566565b8015610a4f5780601f10610a2457610100808354040283529160200191610a4f565b820191906000526020600020905b815481529060010190602001808311610a3257829003601f168201915b50505050508152602001600282018054610a6890611566565b80601f0160208091040260200160405190810160405280929190818152602001828054610a9490611566565b8015610ae15780601f10610ab657610100808354040283529160200191610ae1565b820191906000526020600020905b815481529060010190602001808311610ac457829003601f168201915b50505091835250506003820154602080830191909152600483015460408301526005830154606083015260069092015460ff81161515608083015261010090046001600160a01b031660a0909101529082526001929092019101610998565b50929695505050505050565b6000600560005b818160ff161015610bc157610bb8868260ff1660058110610b7657610b766115cd565b6020020151868360ff1660058110610b9057610b906115cd565b6020020151868460ff1660058110610baa57610baa6115cd565b602002015161ffff16610c9d565b50600101610b53565b50600195945050505050565b805160009060068110610c225760405162461bcd60e51b815260206004820152601860248201527f546f6f206d616e79206173736574732073656c65637465640000000000000000604482015260640161035a565b60005b818160ff161015610c5e57610c55848260ff1681518110610c4857610c486115cd565b6020026020010151610309565b50600101610c25565b5060019392505050565b60018181548110610c7857600080fd5b600091825260209091206007909102018054600182018054919350906101cc90611566565b6000610cf260405180610100016040528060008152602001606081526020016060815260200160008152602001600081526020016000815260200160001515815260200160006001600160a01b031681525090565b60008054825260208083018781526040840187905242606085015260a084018690523360e08501526001805480820182559352835160079093027fb10e2d527612073b26eecdfd717e6a320cf44b4afac2b0732d9fcbe2b7fa0cf6810193845590518051859493610d87937fb10e2d527612073b26eecdfd717e6a320cf44b4afac2b0732d9fcbe2b7fa0cf701920190610f91565b5060408201518051610da3916002840191602090910190610f91565b50606082015160038201556080820151600482015560a0820151600582015560c08201516006909101805460e0909301516001600160a01b03166101000274ffffffffffffffffffffffffffffffffffffffff00199215159290921674ffffffffffffffffffffffffffffffffffffffffff19909316929092171790553360009081526002602090815260408220805460018181018355918452928290208451600790940201928355838201518051859493610e63938501920190610f91565b5060408201518051610e7f916002840191602090910190610f91565b50606082015160038201556080820151600482015560a0820151600582015560c08201516006909101805460e0909301516001600160a01b03166101000274ffffffffffffffffffffffffffffffffffffffff00199215159290921674ffffffffffffffffffffffffffffffffffffffffff1990931692909217179055600080548190610f0b90611602565b919050819055508060e001516001600160a01b03168160200151604051610f32919061161b565b604051809103902082600001517fc332eb430b0efd9f7423746a02f070eff066ac3b735eb56a3b502e5dd2039d4f84604001518560a001518660c00151604051610f7e93929190611637565b60405180910390a4506001949350505050565b828054610f9d90611566565b90600052602060002090601f016020900481019282610fbf5760008555611005565b82601f10610fd857805160ff1916838001178555611005565b82800160010185558215611005579182015b82811115611005578251825591602001919060010190610fea565b50611011929150611015565b5090565b5b808211156110115760008155600101611016565b80356001600160a01b038116811461104157600080fd5b919050565b6000806040838503121561105957600080fd5b6110628361102a565b946020939093013593505050565b60005b8381101561108b578181015183820152602001611073565b8381111561109a576000848401525b50505050565b600081518084526110b8816020860160208601611070565b601f01601f19169290920160200192915050565b60006101008a83528060208401526110e68184018b6110a0565b905082810360408401526110fa818a6110a0565b60608401989098525050608081019490945260a0840192909252151560c08301526001600160a01b031660e0909101529392505050565b60006020828403121561114357600080fd5b5035919050565b60006020808301818452808551808352604092508286019150828160051b87010184880160005b8381101561120b57603f1989840301855281516101008151855288820151818a8701526111a0828701826110a0565b91505087820151858203898701526111b882826110a0565b606084810151908801526080808501519088015260a0808501519088015260c08085015115159088015260e0938401516001600160a01b0316939096019290925250509386019390860190600101611171565b509098975050505050505050565b60006020828403121561122b57600080fd5b6112348261102a565b9392505050565b634e487b7160e01b600052604160045260246000fd5b60405160a0810167ffffffffffffffff811182821017156112745761127461123b565b60405290565b604051601f8201601f1916810167ffffffffffffffff811182821017156112a3576112a361123b565b604052919050565b600082601f8301126112bc57600080fd5b813567ffffffffffffffff8111156112d6576112d661123b565b6112e9601f8201601f191660200161127a565b8181528460208386010111156112fe57600080fd5b816020850160208301376000918101602001919091529392505050565b600082601f83011261132c57600080fd5b611334611251565b8060a084018581111561134657600080fd5b845b8181101561138357803567ffffffffffffffff8111156113685760008081fd5b611374888289016112ab565b85525060209384019301611348565b509095945050505050565b600080600060e084860312156113a357600080fd5b833567ffffffffffffffff808211156113bb57600080fd5b6113c78783880161131b565b94506020915081860135818111156113de57600080fd5b6113ea8882890161131b565b9450505085605f8601126113fd57600080fd5b611405611251565b8060e087018881111561141757600080fd5b604088015b8181101561144457803561ffff811681146114375760008081fd5b845292840192840161141c565b50508093505050509250925092565b6000602080838503121561146657600080fd5b823567ffffffffffffffff8082111561147e57600080fd5b818501915085601f83011261149257600080fd5b8135818111156114a4576114a461123b565b8060051b91506114b584830161127a565b81815291830184019184810190888411156114cf57600080fd5b938501935b838510156114ed578435825293850193908501906114d4565b98975050505050505050565b60008060006060848603121561150e57600080fd5b833567ffffffffffffffff8082111561152657600080fd5b611532878388016112ab565b9450602086013591508082111561154857600080fd5b50611555868287016112ab565b925050604084013590509250925092565b600181811c9082168061157a57607f821691505b60208210810361159a57634e487b7160e01b600052602260045260246000fd5b50919050565b634e487b7160e01b600052601160045260246000fd5b6000828210156115c8576115c86115a0565b500390565b634e487b7160e01b600052603260045260246000fd5b600060ff821660ff81036115f9576115f96115a0565b60010192915050565b600060018201611614576116146115a0565b5060010190565b6000825161162d818460208701611070565b9190910192915050565b60608152600061164a60608301866110a0565b60208301949094525090151560409091015291905056fea26469706673582212206c12490b9d711f7e3eec5cf94e948547e4a2e7307cfe41d8629e8990d9cd338a64736f6c634300080d0033",
  "immutableReferences": {},
  "source": "// SPDX-License-Identifier: GPL-3.0\npragma solidity >=0.8.7;\n// pragma experimental ABIEncoderV2;\n\n//This is an asset contract.\ncontract Assets{\n    uint256 public assetCount = 1; //state variable to keep track of the number of assets.\n    Asset[] public assets; //allows to use id as key to find assets (basically search asset by id)\n    \n    // //mappping each address  with an array of assets (assets each user has created)\n    mapping(address => Asset[]) public userAssetMap;\n\n    //constructor - executed once when a contract is created and it initialises contract state.\n    constructor () payable { \n        // createAssets(\n        //     [\"Berken Bag\", \"PS4\", \"Iphone 6\",\"Xbox 1\",\"Issey Miyake Top\"],\n        //     [\"Pink Bag\", \"Blue Ps4\", \"Pink Iphone\", \"500GB\", \"Home Plissee jacket\"],\n        //     [1000, 4500, 6500,1500,19000]\n        //     );\n    }\n\n    //definition of a data type of Asset using structs\n    struct Asset {\n        //attributes of the struct\n        uint256 id;\n        string assetName; \n        string description; \n        uint256 creationTime;\n        uint256 compltionTime;\n        // enum Status; \n        uint256 quantity;\n        bool completed;\n        address creator;\n    }\n   \n    //creation of events\n    event AssetCreated(uint256 indexed id,string indexed _assetName, string _description,uint256 _quantity, bool completed,address indexed creator);\n    event CompletedAssetValueChanged(bool indexed newValue); \n\n\n    //create multiple assets at once. \n    //Used inn constructor but cann also be implemnted onn front end, \n    //this is one call and saves gas rather than using 5 seperate calls to create asset\n   function createAssets(string[5] memory _assetNames,string[5] memory _description ,uint16[5] memory _quantities) public returns (bool) {\n        uint256  assetLength = _assetNames.length;\n        require(assetLength == _quantities.length, \"Wrong client data\");\n        require(assetLength < 10, \"Wrong number of assets\");\n\n        for(uint8 i=0; i < assetLength;) {\n            \n        createAsset(_assetNames[i],_description[i], _quantities[i]);\n        unchecked {\n            // There is neve going where it underflows \n            // There is never going to be where it overflow \n            ++i;\n        }\n\n        }\n        return true;\n    }\n\n    //create an asset\n    function createAsset(string memory _assetName,string memory _description, uint256 _quantity) public returns (bool){\n        // Checks\n        // Effects \n        Asset memory newAsset; //an empty temporary Asset object\n        // adding the function paramenter values to it then\n        newAsset.id = assetCount;\n        newAsset.assetName = _assetName;\n        newAsset.description = _description;\n        newAsset.creationTime = block.timestamp; //store the unix timestamp of when this function was called\n        newAsset.quantity = _quantity;\n        // newAsset.completed = false; // using solidity language default value for primitives to my advantage\n        newAsset.creator = msg.sender;\n        assets.push(newAsset); // Push the newAsset struct into the asset array\n        userAssetMap[msg.sender].push(newAsset);  // Push the newAsset struct into the asset array related to an eth address\n        // Interaction\n        ++assetCount;\n\n        //emit event to stack\n        emit AssetCreated(\n            newAsset.id,\n            newAsset.assetName,\n            newAsset.description,\n            newAsset.quantity,\n            newAsset.completed,\n            newAsset.creator\n            );\n\n        return true;\n    }\n\n    function getAssets() public view returns (Asset[] memory){\n        return assets;\n    }\n\n    // try calling userAssetMap on it own in front end and see if each idnex is needed!!\n    function getUserAssets(address _userAddress) public view returns (Asset[] memory){\n        Asset[] memory tempAsset;\n        tempAsset = userAssetMap[_userAddress];\n\n        return tempAsset;\n    }\n\n\n    //toggle multiple assets at once. \n    //this is one call and saves gas rather toggling assets complete once at a time\n   function toggleAssetsCompleted(uint256[] memory _assetIds) public returns (bool) {\n        uint256  assetLength = _assetIds.length;\n        require(assetLength < 6, \"Too many assets selected\");\n\n        for(uint8 i=0; i < assetLength;) {\n            \n        toggleAssetCompleted(_assetIds[i]);\n        unchecked {\n            // There is neve going where it underflows \n            // There is never going to be where it overflow \n            ++i;\n        }\n\n        }\n        return true;\n    }\n\n    //change the toggle completed variable to the opposide of current value\n    // should only works if all tasks associated with the asset are completed (need to work on this!)\n    function toggleAssetCompleted(uint256 _id) public returns (bool newCompletionStatus){\n        require(assets.length >= _id, \"Id not created\");\n        Asset memory _asset = assets[ _id - 1];\n        newCompletionStatus = !_asset.completed;\n        _asset.completed = newCompletionStatus;\n        assets[_id - 1] = _asset;\n\n        // find the index of the asset in the userAssetMap\n        Asset[] memory _allAssets = getUserAssets(msg.sender);\n        uint8 index = 0;\n        for (index; index < _allAssets.length-1; index++) {\n            if (_allAssets[index].id == _id) {\n                index = index;\n                break;\n            } \n        }\n        //make these changes in the userAssetMap\n        // userAssetMap[msg.sender][0] = _asset;\n        userAssetMap[msg.sender][index] = _asset;\n\n      \n\n        //toggle asset complete in the userAssetMap\n        emit CompletedAssetValueChanged(newCompletionStatus);\n    }\n\n}\n\n//This is just a task contract.\n// Tasks which inherts from Assets (all functions and variables from Assets can be accessed int Tasks)\ncontract Tasks is Assets{ //make assets the parent contract\n    uint256 public taskCount = 1;//state variable to keep track of the number of assets.\n    Task[] public tasks;//allows to use id as key to find tasks (basically search task by id)\n\n    //mappping each asset (id) with an array of Tasks it is made up of\n    mapping(uint256 => Task[]) public assetTaskMap;\n\n    //constructor - executed once when a contract is created and it initialises contract state.\n\n      constructor () payable { \n        // createTasks(\n        //     [\"Source Leather\", \"Transport to Factory\", \"Assemble the plastic\"],\n        //     [\"Make sure it is the best quality mushroom leather\", \"Make to deliver before 2/03/2022\", \"Make sure to use blue plastic!\"],\n        //     [1, 1, 3],\n        //     [0x5E7b2Bbb14B8a9097A26A93982624067A1dB11dE, 0x5E7b2Bbb14B8a9097A26A93982624067A1dB11dE,0x5B38Da6a701c568545dCfcB03FcB875f56beddC4]\n        //     );\n    }\n\n    //definition of a data type of Task using structs\n    struct Task {\n        //attributes of the struct\n        uint256 id;\n        string content;\n        string creator_note; //the task creators message \n        string intermediary_note; // the signators message (e.g message on why things are behind schedule)\n        uint256 creationTime;\n        uint256 compltionTime;\n        bool completed;\n        address signator;\n        Asset asset; //an Asset object/struct what is associated with the task\n    }\n\n    event Sender(address indexed who, address indexed signator );\n    event TaskCreated(uint indexed id,address indexed who, string indexed content);\n    event CompletedTaskValueChanged(bool indexed newValue);\n\n    //create multiple tasks at once. \n    //Used in constructor but cann also be implemnted onn front end, \n    //this is one call and saves gas rather than using 3 seperate calls to create tasks\n    function createTasks(string[3] memory _taskContents,string[3] memory _notes ,uint8[3] memory _assetIds, address[3] memory _adresses) public returns (bool) {\n        uint256  taskLength = _taskContents.length;\n        require(taskLength == _assetIds.length, \"Wrong client data\");\n        require(taskLength < 5, \"Wrong number of tasks\");\n\n        for(uint8 i=0; i < taskLength;) {\n            createTask(_taskContents[i],_notes[i], _assetIds[i], _adresses[i]);\n            unchecked {\n                // There is neve going where it underflows \n                // There is never going to be where it overflow \n                ++i;\n            }\n\n        }\n    return true;\n    }\n\n    //create a task\n    function createTask(string memory _taskContent,string memory _note, uint256 _assetId, address _signator) public returns (bool){        \n        \n        //get asset assoicated with current task and make sure \n        //the function is being called by the asset creator\n        Asset memory currAsset;  //create empty temporary Asset\n        currAsset = assets[_assetId-1]; //get the associated asset value to store temporary asset\n        // require(msg.sender == currAsset.creator, \"This function is restricted to the asset creator\"); \n\n        //create an empty temporary Task object adding the function paramenter values to it then\n        //it is pushed into the the array of assets\n        Task memory newTask; \n        newTask.id = taskCount;\n        newTask.content = _taskContent;\n        newTask.creator_note = _note;\n        // newTask.intermediary_note = '';\n        newTask.creationTime = block.timestamp;\n        // newTask.completed = false;\n        newTask.signator = _signator;\n        newTask.asset = assets[_assetId-1];\n        tasks.push(newTask); // Push the newTask struct into the task array\n        // map newly created task to its associated assed based on the \"_assedID\"\n        assetTaskMap[_assetId-1].push(newTask); // each assetid maps to a task[]\n        taskCount++;\n\n        emit TaskCreated(\n            newTask.id,\n            newTask.signator,\n            newTask.content\n            );\n        return true;\n    }\n\n    // //get all tasks \n    // function getAllTasks() public view returns (Task[] memory){\n    //     return tasks;\n    // }\n\n    //get all tasks associated with a certain asset (by using assetID)\n   function getAssetTasks( uint256 _assetID) public view returns (Task[] memory){\n        Task[] memory _tasks = assetTaskMap[_assetID-1];\n        return _tasks;\n    }\n\n    // add a message for a task being perfromed (signators message)\n    function addDescription(uint _TaskId,string memory _note ) public returns (bool){\n        Task memory _task = tasks[_TaskId-1];\n        emit Sender(\n            msg.sender,\n            _task.signator\n            );\n        require(msg.sender == _task.signator, \"This function is restricted to the signator\");\n\n        _task.intermediary_note = _note;\n        tasks[_TaskId-1] = _task;\n\n        //make same change inn assetTaskMap\n        // find the index of the task in the assetTaskMap\n        Task[] memory _allTasks = getAssetTasks(_task.asset.id);\n        uint8 index = 0;\n        for (index; index < _allTasks.length-1; index++) {\n            if (_allTasks[index].id == _TaskId) {\n                index = index;\n                break;\n            } \n        }\n        //make these changes in the asset task map\n        // assetTaskMap[_task.asset.id][0] = _task;\n        assetTaskMap[_task.asset.id-1][index] = _task;\n\n\n        \n        return true;\n    }\n\n    //change the toggle completed variable to the opposide of current value\n    function toggleTaskCompleted(uint _id) public returns (bool){\n        Task memory _task = tasks[_id-1];\n        // require(msg.sender == _task.signator, \"This function is restricted to the signator\");\n        _task.completed = !_task.completed;\n        tasks[_id-1] = _task;\n\n\n        // find the index of the task in the assetTaskMap\n        Task[] memory _allTasks = getAssetTasks(_task.asset.id);\n        uint8 index = 0;\n        for (index; index < _allTasks.length-1; index++) {\n            if (_allTasks[index].id == _id) {\n                index = index;\n                break;\n            } \n        }\n        //make these changes in the asset task map\n        // assetTaskMap[_task.asset.id][0] = _task;\n        assetTaskMap[_task.asset.id-1][index] = _task;\n\n      \n        // // Task[] memory _allTasks = getAssetTasks(_task.asset.id);\n        \n        \n\n        emit CompletedTaskValueChanged(!_task.completed);\n        return !_task.completed;  // retruns the new value \n    }\n}\n\n//when a contract inherits from these two only 1 contract is created on the blockchain which is this one\ncontract Unbolt is Tasks{  //inheritance\n\n    constructor () payable { \n        createAssets(\n            [\"Berken Bag\", \"PS4\", \"Iphone 6\",\"Xbox 1\",\"Issey Miyake Top\"],\n            [\"Pink Bag\", \"Blue Ps4\", \"Pink Iphone\", \"500GB\", \"Home Plissee jacket\"],\n            [1000, 4500, 6500,1500,19000]\n        );\n        // createTask(\"contennt\", \"note\", 1, 0x5B38Da6a701c568545dCfcB03FcB875f56beddC4);\n        createTasks(\n            [\"Source Leather\", \"Transport to Factory\", \"Assemble the plastic\"],\n            [\"Make sure it is the best quality mushroom leather\", \"Make to deliver before 2/03/2022\", \"Make sure to use blue plastic!\"],\n            [1, 1, 3],\n            [0x5E7b2Bbb14B8a9097A26A93982624067A1dB11dE, 0x5E7b2Bbb14B8a9097A26A93982624067A1dB11dE,0x5B38Da6a701c568545dCfcB03FcB875f56beddC4]\n        );\n    }\n\n\n}\n\n// unbolt = await Tasks.deployed()\n// unbolt = await Unbolt.deployed()\n\n// 0xA169AcB9061aEAd2a8A6B06ffE008F75f3d70b70\n\n\n\n// https://ethereum.stackexchange.com/questions/25968/how-do-i-control-compiler-settings-with-truffle\n// \"Unbolt\" ran out of gas. Something in the constructor (ex: infinite loop) caused gas estimation to fail. Try:\n//    * Making your contract constructor more efficient (done)\n//    * Setting the gas manually in your config or as a deployment parameter\n//    * Using the solc optimizer settings in 'truffle-config.js' (done)\n//    * Setting a higher network block limit if you are on a\n//      private network or test client (like ganache).",
  "sourcePath": "/Users/tobiadewunmi/Desktop/unbolt/src/truffle/contracts/UnBoltV2.sol",
  "compiler": {
    "name": "solc",
    "version": "0.8.13+commit.abaa5c0e.Emscripten.clang"
  },
  "schemaVersion": "3.4.6",
  "updatedAt": "2022-05-14T22:26:46.859Z",
  "devdoc": {
    "kind": "dev",
    "methods": {},
    "version": 1
  },
  "userdoc": {
    "kind": "user",
    "methods": {},
    "version": 1
  }
}