{
  "contractName": "Assets",
  "abi": [
    {
      "inputs": [],
      "payable": false,
      "stateMutability": "nonpayable",
      "type": "constructor"
    },
    {
      "constant": true,
      "inputs": [],
      "name": "assetCount",
      "outputs": [
        {
          "internalType": "uint256",
          "name": "",
          "type": "uint256"
        }
      ],
      "payable": false,
      "stateMutability": "view",
      "type": "function"
    },
    {
      "constant": true,
      "inputs": [
        {
          "internalType": "uint256",
          "name": "",
          "type": "uint256"
        }
      ],
      "name": "assets",
      "outputs": [
        {
          "internalType": "uint256",
          "name": "id",
          "type": "uint256"
        },
        {
          "internalType": "string",
          "name": "assetName",
          "type": "string"
        },
        {
          "internalType": "uint256",
          "name": "quantity",
          "type": "uint256"
        },
        {
          "internalType": "bool",
          "name": "completed",
          "type": "bool"
        },
        {
          "internalType": "address",
          "name": "creator",
          "type": "address"
        }
      ],
      "payable": false,
      "stateMutability": "view",
      "type": "function"
    },
    {
      "constant": false,
      "inputs": [
        {
          "internalType": "string",
          "name": "_assetName",
          "type": "string"
        },
        {
          "internalType": "uint256",
          "name": "_quantity",
          "type": "uint256"
        }
      ],
      "name": "createAsset",
      "outputs": [
        {
          "internalType": "bool",
          "name": "",
          "type": "bool"
        }
      ],
      "payable": false,
      "stateMutability": "nonpayable",
      "type": "function"
    },
    {
      "constant": true,
      "inputs": [],
      "name": "getAssets",
      "outputs": [
        {
          "components": [
            {
              "internalType": "uint256",
              "name": "id",
              "type": "uint256"
            },
            {
              "internalType": "string",
              "name": "assetName",
              "type": "string"
            },
            {
              "internalType": "uint256",
              "name": "quantity",
              "type": "uint256"
            },
            {
              "internalType": "bool",
              "name": "completed",
              "type": "bool"
            },
            {
              "internalType": "address",
              "name": "creator",
              "type": "address"
            }
          ],
          "internalType": "struct Assets.Asset[]",
          "name": "",
          "type": "tuple[]"
        }
      ],
      "payable": false,
      "stateMutability": "view",
      "type": "function"
    }
  ],
  "bytecode": "0x6080604052600080553480156200001557600080fd5b506200005f6040518060400160405280600a81526020017f4265726b656e20426167000000000000000000000000000000000000000000008152506103e86200018e60201b60201c565b50620000a96040518060400160405280600381526020017f50533400000000000000000000000000000000000000000000000000000000008152506111946200018e60201b60201c565b50620000f36040518060400160405280600881526020017f4970686f6e6520360000000000000000000000000000000000000000000000008152506119646200018e60201b60201c565b506200013d6040518060400160405280600681526020017f58626f78203100000000000000000000000000000000000000000000000000008152506105dc6200018e60201b60201c565b50620001876040518060400160405280601081526020017f4973736579204d6979616b6520546f7000000000000000000000000000000000815250614a386200018e60201b60201c565b50620003df565b60008060008154809291906001019190505550620001ab620002e9565b60005481600001818152505083816020018190525082816040018181525050600081606001901515908115158152505033816080019073ffffffffffffffffffffffffffffffffffffffff16908173ffffffffffffffffffffffffffffffffffffffff1681525050600181908060018154018082558091505090600182039060005260206000209060040201600090919290919091506000820151816000015560208201518160010190805190602001906200026992919062000330565b506040820151816002015560608201518160030160006101000a81548160ff02191690831515021790555060808201518160030160016101000a81548173ffffffffffffffffffffffffffffffffffffffff021916908373ffffffffffffffffffffffffffffffffffffffff160217905550505050600191505092915050565b6040518060a00160405280600081526020016060815260200160008152602001600015158152602001600073ffffffffffffffffffffffffffffffffffffffff1681525090565b828054600181600116156101000203166002900490600052602060002090601f016020900481019282601f106200037357805160ff1916838001178555620003a4565b82800160010185558215620003a4579182015b82811115620003a357825182559160200191906001019062000386565b5b509050620003b39190620003b7565b5090565b620003dc91905b80821115620003d8576000816000905550600101620003be565b5090565b90565b610adf80620003ef6000396000f3fe608060405234801561001057600080fd5b506004361061004c5760003560e01c806367e4ac2c14610051578063cf35bdd01461006f578063db9cc410146100a3578063eafe7a74146100d3575b600080fd5b6100596100f1565b6040516100669190610879565b60405180910390f35b61008960048036036100849190810190610685565b610277565b60405161009a9594939291906108d1565b60405180910390f35b6100bd60048036036100b89190810190610631565b61037f565b6040516100ca919061089b565b60405180910390f35b6100db6104d6565b6040516100e891906108b6565b60405180910390f35b60606001805480602002602001604051908101604052809291908181526020016000905b8282101561026e57838290600052602060002090600402016040518060a001604052908160008201548152602001600182018054600181600116156101000203166002900480601f0160208091040260200160405190810160405280929190818152602001828054600181600116156101000203166002900480156101db5780601f106101b0576101008083540402835291602001916101db565b820191906000526020600020905b8154815290600101906020018083116101be57829003601f168201915b50505050508152602001600282015481526020016003820160009054906101000a900460ff161515151581526020016003820160019054906101000a900473ffffffffffffffffffffffffffffffffffffffff1673ffffffffffffffffffffffffffffffffffffffff1673ffffffffffffffffffffffffffffffffffffffff168152505081526020019060010190610115565b50505050905090565b6001818154811061028457fe5b9060005260206000209060040201600091509050806000015490806001018054600181600116156101000203166002900480601f0160208091040260200160405190810160405280929190818152602001828054600181600116156101000203166002900480156103365780601f1061030b57610100808354040283529160200191610336565b820191906000526020600020905b81548152906001019060200180831161031957829003601f168201915b5050505050908060020154908060030160009054906101000a900460ff16908060030160019054906101000a900473ffffffffffffffffffffffffffffffffffffffff16905085565b6000806000815480929190600101919050555061039a6104dc565b60005481600001818152505083816020018190525082816040018181525050600081606001901515908115158152505033816080019073ffffffffffffffffffffffffffffffffffffffff16908173ffffffffffffffffffffffffffffffffffffffff168152505060018190806001815401808255809150509060018203906000526020600020906004020160009091929091909150600082015181600001556020820151816001019080519060200190610456929190610523565b506040820151816002015560608201518160030160006101000a81548160ff02191690831515021790555060808201518160030160016101000a81548173ffffffffffffffffffffffffffffffffffffffff021916908373ffffffffffffffffffffffffffffffffffffffff160217905550505050600191505092915050565b60005481565b6040518060a00160405280600081526020016060815260200160008152602001600015158152602001600073ffffffffffffffffffffffffffffffffffffffff1681525090565b828054600181600116156101000203166002900490600052602060002090601f016020900481019282601f1061056457805160ff1916838001178555610592565b82800160010185558215610592579182015b82811115610591578251825591602001919060010190610576565b5b50905061059f91906105a3565b5090565b6105c591905b808211156105c15760008160009055506001016105a9565b5090565b90565b600082601f8301126105d957600080fd5b81356105ec6105e782610958565b61092b565b9150808252602083016020830185838301111561060857600080fd5b610613838284610a32565b50505092915050565b60008135905061062b81610a85565b92915050565b6000806040838503121561064457600080fd5b600083013567ffffffffffffffff81111561065e57600080fd5b61066a858286016105c8565b925050602061067b8582860161061c565b9150509250929050565b60006020828403121561069757600080fd5b60006106a58482850161061c565b91505092915050565b60006106ba83836107e5565b905092915050565b6106cb816109ea565b82525050565b6106da816109ea565b82525050565b60006106eb82610994565b6106f581856109b7565b93508360208202850161070785610984565b8060005b85811015610743578484038952815161072485826106ae565b945061072f836109aa565b925060208a0199505060018101905061070b565b50829750879550505050505092915050565b61075e816109fc565b82525050565b61076d816109fc565b82525050565b600061077e8261099f565b61078881856109c8565b9350610798818560208601610a41565b6107a181610a74565b840191505092915050565b60006107b78261099f565b6107c181856109d9565b93506107d1818560208601610a41565b6107da81610a74565b840191505092915050565b600060a0830160008301516107fd600086018261085b565b50602083015184820360208601526108158282610773565b915050604083015161082a604086018261085b565b50606083015161083d6060860182610755565b50608083015161085060808601826106c2565b508091505092915050565b61086481610a28565b82525050565b61087381610a28565b82525050565b6000602082019050818103600083015261089381846106e0565b905092915050565b60006020820190506108b06000830184610764565b92915050565b60006020820190506108cb600083018461086a565b92915050565b600060a0820190506108e6600083018861086a565b81810360208301526108f881876107ac565b9050610907604083018661086a565b6109146060830185610764565b61092160808301846106d1565b9695505050505050565b6000604051905081810181811067ffffffffffffffff8211171561094e57600080fd5b8060405250919050565b600067ffffffffffffffff82111561096f57600080fd5b601f19601f8301169050602081019050919050565b6000819050602082019050919050565b600081519050919050565b600081519050919050565b6000602082019050919050565b600082825260208201905092915050565b600082825260208201905092915050565b600082825260208201905092915050565b60006109f582610a08565b9050919050565b60008115159050919050565b600073ffffffffffffffffffffffffffffffffffffffff82169050919050565b6000819050919050565b82818337600083830152505050565b60005b83811015610a5f578082015181840152602081019050610a44565b83811115610a6e576000848401525b50505050565b6000601f19601f8301169050919050565b610a8e81610a28565b8114610a9957600080fd5b5056fea365627a7a72315820c04bb26e2a7c5ba7d4399e22250fb45e63b815f1be4866e4ee6d266e26e4030b6c6578706572696d656e74616cf564736f6c63430005100040",
  "source": "// SPDX-License-Identifier: GPL-3.0\n\npragma solidity >=0.4.25 <0.7.0;\npragma experimental ABIEncoderV2;\n\n\ncontract Assets{\n    //state variable to keep track of the number of assets.\n    uint256 public assetCount = 0;\n    //creating an array of type Asset which is a struct (allows calling of asset(0,1,2..assetCount))\n    Asset[] public assets;\n\n \n    constructor() public {\n        createAsset(\"Berken Bag\", 1000);\n        createAsset(\"PS4\", 4500);\n        createAsset(\"Iphone 6\", 6500);\n        createAsset(\"Xbox 1\", 1500);\n        createAsset(\"Issey Miyake Top\", 19000);\n    }\n\n    struct Asset {\n        //attributes of the struct\n        uint256 id;\n        string assetName;  //bytes32 to allow for comparism\n        uint256 quantity;\n        bool completed;\n        address creator;\n    }\n   \n    //create an asset\n    function createAsset(string memory _assetName, uint256 _quantity) public returns (bool){\n        assetCount++;\n        Asset memory newAsset;\n\n        newAsset.id = assetCount;\n        newAsset.assetName = _assetName;\n        newAsset.quantity = _quantity;\n        newAsset.completed = false;\n        newAsset.creator = msg.sender;\n        assets.push(newAsset); // Push the newAsset struct...into the asset array\n        return true;\n    }\n\n    function getAssets() public view returns (Asset[] memory){\n        return assets;\n    }\n\n\n\n}\n\n\ncontract Tasks is Assets{ //make assets the parent contract\n\n    //state variable to keep track of the number of assets.\n    uint256 public taskCount = 0;\n    \n    //creating an array of type Asset which is a struct (allows calling of asset(0,1,2..assetCount))\n    Task[] public tasks;\n\n    mapping(uint256 => Asset) public taskAssetMap;\n    mapping(uint256 => Task[]) public assetTaskMap;\n\n\n    constructor() public {\n        createTask( \"Source Leather\",\"Make sure it is the best quality mushroom leather\",1,0x5E7b2Bbb14B8a9097A26A93982624067A1dB11dE);\n        createTask( \"Transport to Factory\",\"Make to deliver before 2/03/2022\",1,0x5E7b2Bbb14B8a9097A26A93982624067A1dB11dE);\n    }\n\n    //definition of a data type of Task using structs\n    struct Task {\n        //attributes of the struct\n        uint256 id;\n        string content;\n        string creator_note; // the signators message \n        string intermediary_note; //the task creators message \n        bool completed;\n        address signator;\n        Asset asset;\n    }\n\n\n    //create a task\n    function createTask(string memory _taskContent,string memory _note, uint256 _assetId, address _signator) public returns (bool){\n        taskCount++;\n        Task memory newTask;\n        newTask.id = taskCount;\n        newTask.content = _taskContent;\n        newTask.creator_note = _note;\n        newTask.intermediary_note = '';\n        newTask.completed = false;\n        newTask.signator = _signator;\n        newTask.asset = assets[_assetId-1];\n        tasks.push(newTask); // Push the newAsset struct...into the asset array\n\n        // map assets to tasks\n        Asset memory currAsset;  //create empty temporary asset\n        currAsset = assets[_assetId-1]; //get asset value to store temporary asst\n        taskAssetMap[taskCount]=currAsset; // each taskcount/taskid should map to the asset struct\n        assetTaskMap[_assetId-1].push(newTask); // each assetid should map to the task[] struct\n\n        return true;\n    }\n\n    //get all tasks \n    function getAllTasks() public view returns (Task[] memory){\n        return tasks;\n    }\n\n    //get all tasks associated with a certain asset (by using assetID)\n   function getAssetTasks( uint256 _assetID) public view returns (Task[] memory){\n        Task[] memory _tasks = assetTaskMap[_assetID];\n        return _tasks;\n    }\n\n}\n\n//when a contract inherits from these two only 1 contract is created on the blockchain which is this one\ncontract Unbolt is Tasks{  //inheritance\n\n//change the toggle completed variable to the opposide of current value\n// should only works if all tasks associated with the asset are completed\nfunction toggleAssetCompleted(uint _id) public {\n    Asset memory _asset = assets[_id-1];\n    // Task[] memory _tasks = getAssetTasks(_id);\n    _asset.completed = !_asset.completed;\n    assets[_id-1] = _asset;\n}\n\n//change the toggle completed variable to the opposide of current value\nfunction toggleTaskCompleted(uint _id) public returns (uint256){\n    Task memory _task = tasks[_id-1];\n    // require(msg.sender == _task.signator, \"This function is restricted to the signator\");\n    _task.completed = !_task.completed;\n    tasks[_id-1] = _task;\n\n\n    bool result;\n    uint256 _i = 0;\n    Task[] memory _tasks = getAssetTasks(_id);\n\n    // check if any of the task in task[] has a value of false for its \"completed\" value\n    while ( _i != _tasks.length) {\n        // if (_tasks[_i].completed == true) {\n        //         result = true;\n        //         _i++;\n        //     } else {\n        //         result = false;\n        //         break;\n        //     }\n        _i++;\n    }\n\n    // require(result == true);\n    // toggleAssetCompleted(_task.asset.id);\n\n    // return result;\n    return _i;\n}\n\n\n\n}\n",
  "sourcePath": "/Users/tobiadewunmi/Desktop/unbolt/src/truffle/contracts/Test.sol",
  "compiler": {
    "name": "solc",
    "version": "0.5.16+commit.9c3226ce.Emscripten.clang"
  },
  "schemaVersion": "3.4.6",
  "updatedAt": "2022-04-28T12:43:14.466Z",
  "networkType": "ethereum",
  "devdoc": {
    "methods": {}
  },
  "userdoc": {
    "methods": {}
  }
}