{
  "contractName": "Assets",
  "abi": [
    {
      "inputs": [],
      "payable": false,
      "stateMutability": "nonpayable",
      "type": "constructor"
    },
    {
      "anonymous": false,
      "inputs": [
        {
          "indexed": true,
          "internalType": "uint256",
          "name": "id",
          "type": "uint256"
        },
        {
          "indexed": true,
          "internalType": "string",
          "name": "_assetName",
          "type": "string"
        },
        {
          "indexed": false,
          "internalType": "uint256",
          "name": "_quantity",
          "type": "uint256"
        },
        {
          "indexed": false,
          "internalType": "bool",
          "name": "completed",
          "type": "bool"
        },
        {
          "indexed": true,
          "internalType": "address",
          "name": "creator",
          "type": "address"
        }
      ],
      "name": "AssetCreated",
      "type": "event"
    },
    {
      "anonymous": false,
      "inputs": [
        {
          "indexed": true,
          "internalType": "bool",
          "name": "newValue",
          "type": "bool"
        }
      ],
      "name": "CompletedAssetValueChanged",
      "type": "event"
    },
    {
      "constant": true,
      "inputs": [],
      "name": "assetCount",
      "outputs": [
        {
          "internalType": "uint256",
          "name": "",
          "type": "uint256"
        }
      ],
      "payable": false,
      "stateMutability": "view",
      "type": "function"
    },
    {
      "constant": true,
      "inputs": [
        {
          "internalType": "uint256",
          "name": "",
          "type": "uint256"
        }
      ],
      "name": "assets",
      "outputs": [
        {
          "internalType": "uint256",
          "name": "id",
          "type": "uint256"
        },
        {
          "internalType": "string",
          "name": "assetName",
          "type": "string"
        },
        {
          "internalType": "uint256",
          "name": "quantity",
          "type": "uint256"
        },
        {
          "internalType": "bool",
          "name": "completed",
          "type": "bool"
        },
        {
          "internalType": "address",
          "name": "creator",
          "type": "address"
        }
      ],
      "payable": false,
      "stateMutability": "view",
      "type": "function"
    },
    {
      "constant": false,
      "inputs": [
        {
          "internalType": "string",
          "name": "_assetName",
          "type": "string"
        },
        {
          "internalType": "uint256",
          "name": "_quantity",
          "type": "uint256"
        }
      ],
      "name": "createAsset",
      "outputs": [
        {
          "internalType": "bool",
          "name": "",
          "type": "bool"
        }
      ],
      "payable": false,
      "stateMutability": "nonpayable",
      "type": "function"
    },
    {
      "constant": true,
      "inputs": [],
      "name": "getAssets",
      "outputs": [
        {
          "components": [
            {
              "internalType": "uint256",
              "name": "id",
              "type": "uint256"
            },
            {
              "internalType": "string",
              "name": "assetName",
              "type": "string"
            },
            {
              "internalType": "uint256",
              "name": "quantity",
              "type": "uint256"
            },
            {
              "internalType": "bool",
              "name": "completed",
              "type": "bool"
            },
            {
              "internalType": "address",
              "name": "creator",
              "type": "address"
            }
          ],
          "internalType": "struct Assets.Asset[]",
          "name": "",
          "type": "tuple[]"
        }
      ],
      "payable": false,
      "stateMutability": "view",
      "type": "function"
    },
    {
      "constant": false,
      "inputs": [
        {
          "internalType": "uint256",
          "name": "_id",
          "type": "uint256"
        }
      ],
      "name": "toggleAssetCompleted",
      "outputs": [
        {
          "internalType": "bool",
          "name": "",
          "type": "bool"
        }
      ],
      "payable": false,
      "stateMutability": "nonpayable",
      "type": "function"
    }
  ],
  "bytecode": "0x6080604052600080553480156200001557600080fd5b506200005f6040518060400160405280600a81526020017f4265726b656e20426167000000000000000000000000000000000000000000008152506103e86200018e60201b60201c565b50620000a96040518060400160405280600381526020017f50533400000000000000000000000000000000000000000000000000000000008152506111946200018e60201b60201c565b50620000f36040518060400160405280600881526020017f4970686f6e6520360000000000000000000000000000000000000000000000008152506119646200018e60201b60201c565b506200013d6040518060400160405280600681526020017f58626f78203100000000000000000000000000000000000000000000000000008152506105dc6200018e60201b60201c565b50620001876040518060400160405280601081526020017f4973736579204d6979616b6520546f7000000000000000000000000000000000815250614a386200018e60201b60201c565b506200055f565b60008060008154809291906001019190505550620001ab62000368565b60005481600001818152505083816020018190525082816040018181525050600081606001901515908115158152505033816080019073ffffffffffffffffffffffffffffffffffffffff16908173ffffffffffffffffffffffffffffffffffffffff16815250506001819080600181540180825580915050906001820390600052602060002090600402016000909192909190915060008201518160000155602082015181600101908051906020019062000269929190620003af565b506040820151816002015560608201518160030160006101000a81548160ff02191690831515021790555060808201518160030160016101000a81548173ffffffffffffffffffffffffffffffffffffffff021916908373ffffffffffffffffffffffffffffffffffffffff160217905550505050806080015173ffffffffffffffffffffffffffffffffffffffff1681602001516040516200030d9190620004b7565b604051809103902082600001517fed68b4d9811f1cc9d71803185e81d102b0b8d82e68c4ff7dd93ad3ab1d41f87f8460400151856060015160405162000355929190620004d0565b60405180910390a4600191505092915050565b6040518060a00160405280600081526020016060815260200160008152602001600015158152602001600073ffffffffffffffffffffffffffffffffffffffff1681525090565b828054600181600116156101000203166002900490600052602060002090601f016020900481019282601f10620003f257805160ff191683800117855562000423565b8280016001018555821562000423579182015b828111156200042257825182559160200191906001019062000405565b5b50905062000432919062000436565b5090565b6200045b91905b80821115620004575760008160009055506001016200043d565b5090565b90565b620004698162000513565b82525050565b60006200047c82620004fd565b62000488818562000508565b93506200049a81856020860162000529565b80840191505092915050565b620004b1816200051f565b82525050565b6000620004c582846200046f565b915081905092915050565b6000604082019050620004e76000830185620004a6565b620004f660208301846200045e565b9392505050565b600081519050919050565b600081905092915050565b60008115159050919050565b6000819050919050565b60005b83811015620005495780820151818401526020810190506200052c565b8381111562000559576000848401525b50505050565b610e7c806200056f6000396000f3fe608060405234801561001057600080fd5b50600436106100575760003560e01c80634e1347a71461005c57806367e4ac2c1461008c578063cf35bdd0146100aa578063db9cc410146100de578063eafe7a741461010e575b600080fd5b610076600480360361007191908101906109a6565b61012c565b6040516100839190610c04565b60405180910390f35b610094610397565b6040516100a19190610be2565b60405180910390f35b6100c460048036036100bf91908101906109a6565b61051d565b6040516100d5959493929190610c63565b60405180910390f35b6100f860048036036100f39190810190610952565b610625565b6040516101059190610c04565b60405180910390f35b6101166107f7565b6040516101239190610c1f565b60405180910390f35b60006101366107fd565b60018084038154811061014557fe5b90600052602060002090600402016040518060a001604052908160008201548152602001600182018054600181600116156101000203166002900480601f0160208091040260200160405190810160405280929190818152602001828054600181600116156101000203166002900480156102015780601f106101d657610100808354040283529160200191610201565b820191906000526020600020905b8154815290600101906020018083116101e457829003601f168201915b50505050508152602001600282015481526020016003820160009054906101000a900460ff161515151581526020016003820160019054906101000a900473ffffffffffffffffffffffffffffffffffffffff1673ffffffffffffffffffffffffffffffffffffffff1673ffffffffffffffffffffffffffffffffffffffff16815250509050806060015115816060019015159081151581525050806001808503815481106102ac57fe5b90600052602060002090600402016000820151816000015560208201518160010190805190602001906102e0929190610844565b506040820151816002015560608201518160030160006101000a81548160ff02191690831515021790555060808201518160030160016101000a81548173ffffffffffffffffffffffffffffffffffffffff021916908373ffffffffffffffffffffffffffffffffffffffff16021790555090505080606001511515157ff22cbfb622d75dcf8b8a0f945daa607fe2e0c01b5938db80499d4daf538ac1e460405160405180910390a2806060015115915050919050565b60606001805480602002602001604051908101604052809291908181526020016000905b8282101561051457838290600052602060002090600402016040518060a001604052908160008201548152602001600182018054600181600116156101000203166002900480601f0160208091040260200160405190810160405280929190818152602001828054600181600116156101000203166002900480156104815780601f1061045657610100808354040283529160200191610481565b820191906000526020600020905b81548152906001019060200180831161046457829003601f168201915b50505050508152602001600282015481526020016003820160009054906101000a900460ff161515151581526020016003820160019054906101000a900473ffffffffffffffffffffffffffffffffffffffff1673ffffffffffffffffffffffffffffffffffffffff1673ffffffffffffffffffffffffffffffffffffffff1681525050815260200190600101906103bb565b50505050905090565b6001818154811061052a57fe5b9060005260206000209060040201600091509050806000015490806001018054600181600116156101000203166002900480601f0160208091040260200160405190810160405280929190818152602001828054600181600116156101000203166002900480156105dc5780601f106105b1576101008083540402835291602001916105dc565b820191906000526020600020905b8154815290600101906020018083116105bf57829003601f168201915b5050505050908060020154908060030160009054906101000a900460ff16908060030160019054906101000a900473ffffffffffffffffffffffffffffffffffffffff16905085565b600080600081548092919060010191905055506106406107fd565b60005481600001818152505083816020018190525082816040018181525050600081606001901515908115158152505033816080019073ffffffffffffffffffffffffffffffffffffffff16908173ffffffffffffffffffffffffffffffffffffffff1681525050600181908060018154018082558091505090600182039060005260206000209060040201600090919290919091506000820151816000015560208201518160010190805190602001906106fc929190610844565b506040820151816002015560608201518160030160006101000a81548160ff02191690831515021790555060808201518160030160016101000a81548173ffffffffffffffffffffffffffffffffffffffff021916908373ffffffffffffffffffffffffffffffffffffffff160217905550505050806080015173ffffffffffffffffffffffffffffffffffffffff16816020015160405161079e9190610bcb565b604051809103902082600001517fed68b4d9811f1cc9d71803185e81d102b0b8d82e68c4ff7dd93ad3ab1d41f87f846040015185606001516040516107e4929190610c3a565b60405180910390a4600191505092915050565b60005481565b6040518060a00160405280600081526020016060815260200160008152602001600015158152602001600073ffffffffffffffffffffffffffffffffffffffff1681525090565b828054600181600116156101000203166002900490600052602060002090601f016020900481019282601f1061088557805160ff19168380011785556108b3565b828001600101855582156108b3579182015b828111156108b2578251825591602001919060010190610897565b5b5090506108c091906108c4565b5090565b6108e691905b808211156108e25760008160009055506001016108ca565b5090565b90565b600082601f8301126108fa57600080fd5b813561090d61090882610cea565b610cbd565b9150808252602083016020830185838301111561092957600080fd5b610934838284610dcf565b50505092915050565b60008135905061094c81610e22565b92915050565b6000806040838503121561096557600080fd5b600083013567ffffffffffffffff81111561097f57600080fd5b61098b858286016108e9565b925050602061099c8582860161093d565b9150509250929050565b6000602082840312156109b857600080fd5b60006109c68482850161093d565b91505092915050565b60006109db8383610b37565b905092915050565b6109ec81610d87565b82525050565b6109fb81610d87565b82525050565b6000610a0c82610d26565b610a168185610d49565b935083602082028501610a2885610d16565b8060005b85811015610a645784840389528151610a4585826109cf565b9450610a5083610d3c565b925060208a01995050600181019050610a2c565b50829750879550505050505092915050565b610a7f81610d99565b82525050565b610a8e81610d99565b82525050565b6000610a9f82610d31565b610aa98185610d5a565b9350610ab9818560208601610dde565b610ac281610e11565b840191505092915050565b6000610ad882610d31565b610ae28185610d6b565b9350610af2818560208601610dde565b610afb81610e11565b840191505092915050565b6000610b1182610d31565b610b1b8185610d7c565b9350610b2b818560208601610dde565b80840191505092915050565b600060a083016000830151610b4f6000860182610bad565b5060208301518482036020860152610b678282610a94565b9150506040830151610b7c6040860182610bad565b506060830151610b8f6060860182610a76565b506080830151610ba260808601826109e3565b508091505092915050565b610bb681610dc5565b82525050565b610bc581610dc5565b82525050565b6000610bd78284610b06565b915081905092915050565b60006020820190508181036000830152610bfc8184610a01565b905092915050565b6000602082019050610c196000830184610a85565b92915050565b6000602082019050610c346000830184610bbc565b92915050565b6000604082019050610c4f6000830185610bbc565b610c5c6020830184610a85565b9392505050565b600060a082019050610c786000830188610bbc565b8181036020830152610c8a8187610acd565b9050610c996040830186610bbc565b610ca66060830185610a85565b610cb360808301846109f2565b9695505050505050565b6000604051905081810181811067ffffffffffffffff82111715610ce057600080fd5b8060405250919050565b600067ffffffffffffffff821115610d0157600080fd5b601f19601f8301169050602081019050919050565b6000819050602082019050919050565b600081519050919050565b600081519050919050565b6000602082019050919050565b600082825260208201905092915050565b600082825260208201905092915050565b600082825260208201905092915050565b600081905092915050565b6000610d9282610da5565b9050919050565b60008115159050919050565b600073ffffffffffffffffffffffffffffffffffffffff82169050919050565b6000819050919050565b82818337600083830152505050565b60005b83811015610dfc578082015181840152602081019050610de1565b83811115610e0b576000848401525b50505050565b6000601f19601f8301169050919050565b610e2b81610dc5565b8114610e3657600080fd5b5056fea365627a7a723158200d38ef560922fdfd6a1e324ab71a8b4c44cde2132ace8c49adb8c845a77259546c6578706572696d656e74616cf564736f6c63430005100040",
  "source": "// SPDX-License-Identifier: GPL-3.0\npragma solidity >=0.4.25 <0.7.0;\npragma experimental ABIEncoderV2;\n\n//This is an asset contract.\ncontract Assets{\n    uint256 public assetCount = 0; //state variable to keep track of the number of assets.\n    Asset[] public assets; //allows to use id as key to find assets (basically search asset by id)\n    \n    // //mappping each asset (id) with an array of assets it is made up of\n    // mapping(uint256 => Task[]) public userAssetMap;\n\n    //constructor - executed once when a contract is created and it initialises contract state.\n    constructor() public { \n        createAsset(\"Berken Bag\", 1000);\n        createAsset(\"PS4\", 4500);\n        createAsset(\"Iphone 6\", 6500);\n        createAsset(\"Xbox 1\", 1500);\n        createAsset(\"Issey Miyake Top\", 19000);\n    }\n\n    //definition of a data type of Asset using structs\n    struct Asset {\n        //attributes of the struct\n        uint256 id;\n        string assetName; \n        uint256 quantity;\n        bool completed;\n        address creator;\n    }\n   \n    //creation of events\n    event AssetCreated(uint256 indexed id,string indexed _assetName, uint256 _quantity, bool completed,address indexed creator);\n    event CompletedAssetValueChanged(bool indexed newValue); \n\n    //create an asset\n    // function createAsset(string calldata _assetName, uint256 _quantity) external returns (bool){\n    function createAsset(string memory _assetName, uint256 _quantity) public returns (bool){\n        assetCount++;\n        Asset memory newAsset; //an empty temporary Asset object\n        // adding the function paramenter values to it then\n        newAsset.id = assetCount;\n        newAsset.assetName = _assetName;\n        newAsset.quantity = _quantity;\n        newAsset.completed = false;\n        newAsset.creator = msg.sender;\n        assets.push(newAsset); // Push the newAsset struct into the asset array\n        \n        //emit event to stack\n        emit AssetCreated(newAsset.id,newAsset.assetName,newAsset.quantity,newAsset.completed,newAsset.creator);\n        return true;\n    }\n\n    function getAssets() public view returns (Asset[] memory){\n        return assets;\n    }\n\n    // function getUserid(address _userAddress) public view returns (uint){\n    //     Asset\n    // }\n\n    // function getUserAssets(address _userAddress) public view returns (Asset[] memory){\n    //     Asset[] memory tempAsset;\n\n    //     for (uint i=0; i<assets.length; i++){\n    //         Asset memory newAsset; //an empty temporary Asset object\n    //         if(assets[i].creator == _userAddress ){\n    //             tempAsset.push(assets[i]);\n    //         }\n    //     }\n    //     return tempAsset;\n\n    // }\n\n    //change the toggle completed variable to the opposide of current value\n    // should only works if all tasks associated with the asset are completed (need to work on this!)\n    function toggleAssetCompleted(uint _id) public returns (bool){\n        Asset memory _asset = assets[_id-1];\n        _asset.completed = !_asset.completed;\n        assets[_id-1] = _asset;\n\n        emit CompletedAssetValueChanged(!_asset.completed);\n        //maybe use !!_asset.completed insted of true and false when trying to automatically complete and asset!!\n        return !_asset.completed;  // retruns the new value \n    }\n\n}\n\n//This is just a task contract.\n// Tasks which inherts from Assets (all functions and variables from Assets can be accessed int Tasks)\ncontract Tasks is Assets{ //make assets the parent contract\n\n    //state variable to keep track of the number of assets.\n    uint256 public taskCount = 0;\n    \n    //allows to use id as key to find tasks (basically search task by id)\n    Task[] public tasks;\n\n    // mapping(uint256 => Asset) public taskAssetMap;\n\n    //mappping each asset (id) with an array of Tasks it is made up of\n    mapping(uint256 => Task[]) public assetTaskMap;\n\n    //constructor - executed once when a contract is created and it initialises contract state.\n    constructor() public {\n        createTask( \"Source Leather\",\"Make sure it is the best quality mushroom leather\",1,0x5E7b2Bbb14B8a9097A26A93982624067A1dB11dE);\n        createTask( \"Transport to Factory\",\"Make to deliver before 2/03/2022\",1,0x5E7b2Bbb14B8a9097A26A93982624067A1dB11dE);\n        createTask( \"Assemble the plastic\",\"Make sure to use blue plastic!\",3,0x5B38Da6a701c568545dCfcB03FcB875f56beddC4);\n    }\n\n    //definition of a data type of Task using structs\n    struct Task {\n        //attributes of the struct\n        uint256 id;\n        string content;\n        string creator_note; //the task creators message \n        string intermediary_note; // the signators message (e.g message on why things are behind schedule)\n        bool completed;\n        address signator;\n        Asset asset; //an Asset object/struct what is associated with the task\n    }\n\n    event Sender(address indexed who, address indexed signator );\n    event TaskCreated(uint indexed id,address indexed who, string indexed content);\n    event CompletedTaskValueChanged(bool indexed newValue);\n    //create a task\n    function createTask(string memory _taskContent,string memory _note, uint256 _assetId, address _signator) public returns (bool){        \n        \n        //get asset assoicated with current task and make sure \n        //the function is being called by the asset creator\n        Asset memory currAsset;  //create empty temporary Asset\n        currAsset = assets[_assetId-1]; //get the associated asset value to store temporary asset\n        require(msg.sender == currAsset.creator, \"This function is restricted to the asset creator\"); \n\n        taskCount++;\n        //create an empty temporary Task object adding the function paramenter values to it then\n        //it is pushed into the the array of assets\n        Task memory newTask; \n        newTask.id = taskCount;\n        newTask.content = _taskContent;\n        newTask.creator_note = _note;\n        newTask.intermediary_note = '';\n        newTask.completed = false;\n        newTask.signator = _signator;\n        newTask.asset = assets[_assetId-1];\n        tasks.push(newTask); // Push the newTask struct into the task array\n\n        // map newly created task to its associated assed based on the \"_assedID\"\n        assetTaskMap[_assetId-1].push(newTask); // each assetid maps to a task[]\n\n        emit TaskCreated(newTask.id,newTask.signator,newTask.content);\n        return true;\n    }\n\n    //get all tasks \n    function getAllTasks() public view returns (Task[] memory){\n        return tasks;\n    }\n\n    //get all tasks associated with a certain asset (by using assetID)\n   function getAssetTasks( uint256 _assetID) public view returns (Task[] memory){\n        Task[] memory _tasks = assetTaskMap[_assetID-1];\n        return _tasks;\n    }\n\n    // add a message for a task being perfromed (signators message)\n    function addDescription(uint _id,string memory _note ) public{\n        Task memory _task = tasks[_id-1];\n        emit Sender(msg.sender,_task.signator);\n        require(msg.sender == _task.signator, \"This function is restricted to the signator\");\n        _task.intermediary_note = _note;\n        tasks[_id-1] = _task;\n    }\n\n    //change the toggle completed variable to the opposide of current value\n    function toggleTaskCompleted(uint _id) public returns (bool){\n        Task memory _task = tasks[_id-1];\n        // require(msg.sender == _task.signator, \"This function is restricted to the signator\");\n        _task.completed = !_task.completed;\n        tasks[_id-1] = _task;\n\n\n        //find the index of the task in the assetTaskMap\n        Task[] memory _allTasks = getAssetTasks(_task.asset.id);\n        uint8 index = 0;\n        for (index; index < _allTasks.length-1; index++) {\n            if (_allTasks[index].id == _id) {\n                index = index;\n                break;\n            } \n        }\n        //make these changes in the asset task map\n        // assetTaskMap[_task.asset.id-1][0] = _task;\n        assetTaskMap[_task.asset.id-1][index] = _task;\n\n      \n        // Task[] memory _allTasks = getAssetTasks(_task.asset.id);\n        \n        \n\n        emit CompletedTaskValueChanged(!_task.completed);\n        return !_task.completed;  // retruns the new value \n    }\n}\n\n// //when a contract inherits from these two only 1 contract is created on the blockchain which is this one\n// contract Unbolt is Tasks{  //inheritance\n\n// }\n\n\n// task1 = await unbolt.tasks(0)\n// task2 = await unbolt.tasks(1)\n// unbolt.toggleTaskCompleted(1)\n// unbolt.toggleTaskCompleted(2)\n\n// createTask( \"ass name1\",\"asset content\",3,0x5B38Da6a701c568545dCfcB03FcB875f56beddC4);\n// createTask( \"task of this\",\"task noted from creator\",3,0x5B38Da6a701c568545dCfcB03FcB875f56beddC4);\n",
  "sourcePath": "/Users/tobiadewunmi/Desktop/unbolt/src/truffle/contracts/UnBolt.sol",
  "compiler": {
    "name": "solc",
    "version": "0.5.16+commit.9c3226ce.Emscripten.clang"
  },
  "schemaVersion": "3.4.6",
  "updatedAt": "2022-05-05T07:24:40.377Z",
  "networkType": "ethereum",
  "devdoc": {
    "methods": {}
  },
  "userdoc": {
    "methods": {}
  }
}