{
  "contractName": "Assets",
  "abi": [
    {
      "anonymous": false,
      "inputs": [
        {
          "indexed": true,
          "internalType": "uint256",
          "name": "id",
          "type": "uint256"
        },
        {
          "indexed": true,
          "internalType": "string",
          "name": "_assetName",
          "type": "string"
        },
        {
          "indexed": false,
          "internalType": "string",
          "name": "_description",
          "type": "string"
        },
        {
          "indexed": false,
          "internalType": "uint256",
          "name": "_quantity",
          "type": "uint256"
        },
        {
          "indexed": false,
          "internalType": "bool",
          "name": "completed",
          "type": "bool"
        },
        {
          "indexed": true,
          "internalType": "address",
          "name": "creator",
          "type": "address"
        }
      ],
      "name": "AssetCreated",
      "type": "event"
    },
    {
      "anonymous": false,
      "inputs": [
        {
          "indexed": true,
          "internalType": "bool",
          "name": "newValue",
          "type": "bool"
        }
      ],
      "name": "CancelledAsset",
      "type": "event"
    },
    {
      "anonymous": false,
      "inputs": [
        {
          "indexed": true,
          "internalType": "bool",
          "name": "newValue",
          "type": "bool"
        }
      ],
      "name": "CompletedAssetValueChanged",
      "type": "event"
    },
    {
      "inputs": [],
      "name": "assetCount",
      "outputs": [
        {
          "internalType": "uint256",
          "name": "",
          "type": "uint256"
        }
      ],
      "stateMutability": "view",
      "type": "function"
    },
    {
      "inputs": [
        {
          "internalType": "uint256",
          "name": "",
          "type": "uint256"
        }
      ],
      "name": "assets",
      "outputs": [
        {
          "internalType": "uint256",
          "name": "id",
          "type": "uint256"
        },
        {
          "internalType": "string",
          "name": "assetName",
          "type": "string"
        },
        {
          "internalType": "string",
          "name": "description",
          "type": "string"
        },
        {
          "internalType": "uint256",
          "name": "creationTime",
          "type": "uint256"
        },
        {
          "internalType": "uint256",
          "name": "completionTime",
          "type": "uint256"
        },
        {
          "internalType": "bool",
          "name": "cancelled",
          "type": "bool"
        },
        {
          "internalType": "uint256",
          "name": "quantity",
          "type": "uint256"
        },
        {
          "internalType": "bool",
          "name": "completed",
          "type": "bool"
        },
        {
          "internalType": "address",
          "name": "creator",
          "type": "address"
        }
      ],
      "stateMutability": "view",
      "type": "function"
    },
    {
      "inputs": [
        {
          "internalType": "address",
          "name": "",
          "type": "address"
        },
        {
          "internalType": "uint256",
          "name": "",
          "type": "uint256"
        }
      ],
      "name": "userAssetMap",
      "outputs": [
        {
          "internalType": "uint256",
          "name": "id",
          "type": "uint256"
        },
        {
          "internalType": "string",
          "name": "assetName",
          "type": "string"
        },
        {
          "internalType": "string",
          "name": "description",
          "type": "string"
        },
        {
          "internalType": "uint256",
          "name": "creationTime",
          "type": "uint256"
        },
        {
          "internalType": "uint256",
          "name": "completionTime",
          "type": "uint256"
        },
        {
          "internalType": "bool",
          "name": "cancelled",
          "type": "bool"
        },
        {
          "internalType": "uint256",
          "name": "quantity",
          "type": "uint256"
        },
        {
          "internalType": "bool",
          "name": "completed",
          "type": "bool"
        },
        {
          "internalType": "address",
          "name": "creator",
          "type": "address"
        }
      ],
      "stateMutability": "view",
      "type": "function"
    },
    {
      "inputs": [
        {
          "internalType": "string[5]",
          "name": "_assetNames",
          "type": "string[5]"
        },
        {
          "internalType": "string[5]",
          "name": "_description",
          "type": "string[5]"
        },
        {
          "internalType": "uint16[5]",
          "name": "_quantities",
          "type": "uint16[5]"
        }
      ],
      "name": "createAssets",
      "outputs": [
        {
          "internalType": "bool",
          "name": "",
          "type": "bool"
        }
      ],
      "stateMutability": "nonpayable",
      "type": "function"
    },
    {
      "inputs": [
        {
          "internalType": "string",
          "name": "_assetName",
          "type": "string"
        },
        {
          "internalType": "string",
          "name": "_description",
          "type": "string"
        },
        {
          "internalType": "uint256",
          "name": "_quantity",
          "type": "uint256"
        }
      ],
      "name": "createAsset",
      "outputs": [
        {
          "internalType": "bool",
          "name": "",
          "type": "bool"
        }
      ],
      "stateMutability": "nonpayable",
      "type": "function"
    },
    {
      "inputs": [],
      "name": "getAssets",
      "outputs": [
        {
          "components": [
            {
              "internalType": "uint256",
              "name": "id",
              "type": "uint256"
            },
            {
              "internalType": "string",
              "name": "assetName",
              "type": "string"
            },
            {
              "internalType": "string",
              "name": "description",
              "type": "string"
            },
            {
              "internalType": "uint256",
              "name": "creationTime",
              "type": "uint256"
            },
            {
              "internalType": "uint256",
              "name": "completionTime",
              "type": "uint256"
            },
            {
              "internalType": "bool",
              "name": "cancelled",
              "type": "bool"
            },
            {
              "internalType": "uint256",
              "name": "quantity",
              "type": "uint256"
            },
            {
              "internalType": "bool",
              "name": "completed",
              "type": "bool"
            },
            {
              "internalType": "address",
              "name": "creator",
              "type": "address"
            }
          ],
          "internalType": "struct Assets.Asset[]",
          "name": "",
          "type": "tuple[]"
        }
      ],
      "stateMutability": "view",
      "type": "function"
    },
    {
      "inputs": [
        {
          "internalType": "address",
          "name": "_userAddress",
          "type": "address"
        }
      ],
      "name": "getUserAssets",
      "outputs": [
        {
          "components": [
            {
              "internalType": "uint256",
              "name": "id",
              "type": "uint256"
            },
            {
              "internalType": "string",
              "name": "assetName",
              "type": "string"
            },
            {
              "internalType": "string",
              "name": "description",
              "type": "string"
            },
            {
              "internalType": "uint256",
              "name": "creationTime",
              "type": "uint256"
            },
            {
              "internalType": "uint256",
              "name": "completionTime",
              "type": "uint256"
            },
            {
              "internalType": "bool",
              "name": "cancelled",
              "type": "bool"
            },
            {
              "internalType": "uint256",
              "name": "quantity",
              "type": "uint256"
            },
            {
              "internalType": "bool",
              "name": "completed",
              "type": "bool"
            },
            {
              "internalType": "address",
              "name": "creator",
              "type": "address"
            }
          ],
          "internalType": "struct Assets.Asset[]",
          "name": "",
          "type": "tuple[]"
        }
      ],
      "stateMutability": "view",
      "type": "function"
    },
    {
      "inputs": [
        {
          "internalType": "uint256[]",
          "name": "_assetIds",
          "type": "uint256[]"
        }
      ],
      "name": "toggleAssetsCompleted",
      "outputs": [
        {
          "internalType": "bool",
          "name": "",
          "type": "bool"
        }
      ],
      "stateMutability": "nonpayable",
      "type": "function"
    },
    {
      "inputs": [
        {
          "internalType": "uint256",
          "name": "_id",
          "type": "uint256"
        }
      ],
      "name": "toggleAssetCompleted",
      "outputs": [
        {
          "internalType": "bool",
          "name": "newCompletionStatus",
          "type": "bool"
        }
      ],
      "stateMutability": "nonpayable",
      "type": "function"
    }
  ],
  "bytecode": "0x6080604052600160005534801561001557600080fd5b50611752806100256000396000f3fe608060405234801561001057600080fd5b50600436106100a35760003560e01c80637c6d372611610076578063cf35bdd01161005b578063cf35bdd01461014a578063eafe7a741461015d578063f2bdc0351461017457600080fd5b80637c6d3726146101245780637cd270fb1461013757600080fd5b80631c0034a6146100a85780634e1347a7146100d957806367e4ac2c146100fc578063765ff06114610111575b600080fd5b6100bb6100b63660046110eb565b610187565b6040516100d099989796959493929190611171565b60405180910390f35b6100ec6100e73660046111df565b610314565b60405190151581526020016100d0565b6101046107d9565b6040516100d091906111f8565b61010461011f3660046112d4565b6109bf565b6100ec610132366004611449565b610bb8565b6100ec61014536600461150e565b610c39565b6100bb6101583660046111df565b610cd4565b61016660005481565b6040519081526020016100d0565b6100ec6101823660046115b4565b610d09565b600260205281600052604060002081815481106101a357600080fd5b9060005260206000209060080201600091509150508060000154908060010180546101cd90611621565b80601f01602080910402602001604051908101604052809291908181526020018280546101f990611621565b80156102465780601f1061021b57610100808354040283529160200191610246565b820191906000526020600020905b81548152906001019060200180831161022957829003601f168201915b50505050509080600201805461025b90611621565b80601f016020809104026020016040519081016040528092919081815260200182805461028790611621565b80156102d45780601f106102a9576101008083540402835291602001916102d4565b820191906000526020600020905b8154815290600101906020018083116102b757829003601f168201915b50505060038401546004850154600586015460068701546007909701549596929591945060ff90811693508116906001600160a01b036101009091041689565b60015460009082111561036e5760405162461bcd60e51b815260206004820152600e60248201527f4964206e6f74206372656174656400000000000000000000000000000000000060448201526064015b60405180910390fd5b6000600161037c8185611671565b8154811061038c5761038c611688565b906000526020600020906008020160405180610120016040529081600082015481526020016001820180546103c090611621565b80601f01602080910402602001604051908101604052809291908181526020018280546103ec90611621565b80156104395780601f1061040e57610100808354040283529160200191610439565b820191906000526020600020905b81548152906001019060200180831161041c57829003601f168201915b5050505050815260200160028201805461045290611621565b80601f016020809104026020016040519081016040528092919081815260200182805461047e90611621565b80156104cb5780601f106104a0576101008083540402835291602001916104cb565b820191906000526020600020905b8154815290600101906020018083116104ae57829003601f168201915b50505091835250506003820154602082015260048201546040820152600582015460ff9081161515606083015260068301546080830152600790920154918216151560a08201526101009091046001600160a01b031660c09091015260e0810180511590819052925090508060016105438186611671565b8154811061055357610553611688565b9060005260206000209060080201600082015181600001556020820151816001019080519060200190610587929190611036565b50604082015180516105a3916002840191602090910190611036565b50606082015160038201556080820151600482015560a082015160058201805460ff191691151591909117905560c0820151600682015560e0820151600790910180546101009384015174ffffffffffffffffffffffffffffffffffffffffff1990911692151574ffffffffffffffffffffffffffffffffffffffff001916929092176001600160a01b039092169092021790556000610642336109bf565b905060005b600182516106559190611671565b8160ff1610156106995784828260ff168151811061067557610675611688565b602002602001015160000151031561069957806106918161169e565b915050610647565b336000908152600260205260409020805484919060ff84169081106106c0576106c0611688565b90600052602060002090600802016000820151816000015560208201518160010190805190602001906106f4929190611036565b5060408201518051610710916002840191602090910190611036565b50606082015160038201556080820151600482015560a082015160058201805460ff191691151591909117905560c0820151600682015560e0820151600790910180546101009384015174ffffffffffffffffffffffffffffffffffffffffff1990911692151574ffffffffffffffffffffffffffffffffffffffff001916929092176001600160a01b03909216909202179055604051841515907ff22cbfb622d75dcf8b8a0f945daa607fe2e0c01b5938db80499d4daf538ac1e490600090a2505050919050565b60606001805480602002602001604051908101604052809291908181526020016000905b828210156109b65783829060005260206000209060080201604051806101200160405290816000820154815260200160018201805461083b90611621565b80601f016020809104026020016040519081016040528092919081815260200182805461086790611621565b80156108b45780601f10610889576101008083540402835291602001916108b4565b820191906000526020600020905b81548152906001019060200180831161089757829003601f168201915b505050505081526020016002820180546108cd90611621565b80601f01602080910402602001604051908101604052809291908181526020018280546108f990611621565b80156109465780601f1061091b57610100808354040283529160200191610946565b820191906000526020600020905b81548152906001019060200180831161092957829003601f168201915b5050509183525050600382015460208083019190915260048301546040830152600583015460ff9081161515606084015260068401546080840152600790930154928316151560a08301526101009092046001600160a01b031660c09091015290825260019290920191016107fd565b50505050905090565b6001600160a01b03811660009081526002602090815260408083208054825181850281018501909352808352606094859484015b82821015610bac57838290600052602060002090600802016040518061012001604052908160008201548152602001600182018054610a3190611621565b80601f0160208091040260200160405190810160405280929190818152602001828054610a5d90611621565b8015610aaa5780601f10610a7f57610100808354040283529160200191610aaa565b820191906000526020600020905b815481529060010190602001808311610a8d57829003601f168201915b50505050508152602001600282018054610ac390611621565b80601f0160208091040260200160405190810160405280929190818152602001828054610aef90611621565b8015610b3c5780601f10610b1157610100808354040283529160200191610b3c565b820191906000526020600020905b815481529060010190602001808311610b1f57829003601f168201915b5050509183525050600382015460208083019190915260048301546040830152600583015460ff9081161515606084015260068401546080840152600790930154928316151560a08301526101009092046001600160a01b031660c09091015290825260019290920191016109f3565b50929695505050505050565b6000600560005b818160ff161015610c2d57610c24868260ff1660058110610be257610be2611688565b6020020151868360ff1660058110610bfc57610bfc611688565b6020020151868460ff1660058110610c1657610c16611688565b602002015161ffff16610d09565b50600101610bbf565b50600195945050505050565b805160009060068110610c8e5760405162461bcd60e51b815260206004820152601860248201527f546f6f206d616e79206173736574732073656c656374656400000000000000006044820152606401610365565b60005b818160ff161015610cca57610cc1848260ff1681518110610cb457610cb4611688565b6020026020010151610314565b50600101610c91565b5060019392505050565b60018181548110610ce457600080fd5b600091825260209091206008909102018054600182018054919350906101cd90611621565b6000610d6760405180610120016040528060008152602001606081526020016060815260200160008152602001600081526020016000151581526020016000815260200160001515815260200160006001600160a01b031681525090565b60008054825260208083018781526040840187905242606085015260c08401869052336101008501526001805480820182559352835160089093027fb10e2d527612073b26eecdfd717e6a320cf44b4afac2b0732d9fcbe2b7fa0cf6810193845590518051859493610dfd937fb10e2d527612073b26eecdfd717e6a320cf44b4afac2b0732d9fcbe2b7fa0cf701920190611036565b5060408201518051610e19916002840191602090910190611036565b50606082015160038201556080820151600482015560a082015160058201805460ff191691151591909117905560c0820151600682015560e0820151600790910180546101009384015174ffffffffffffffffffffffffffffffffffffffffff1990911692151574ffffffffffffffffffffffffffffffffffffffff001916929092176001600160a01b039092169092021790553360009081526002602090815260408220805460018181018355918452928290208451600890940201928355838201518051859493610ef0938501920190611036565b5060408201518051610f0c916002840191602090910190611036565b50606082015160038201556080820151600482015560a082015160058201805460ff191691151591909117905560c0820151600682015560e0820151600790910180546101009384015174ffffffffffffffffffffffffffffffffffffffffff1990911692151574ffffffffffffffffffffffffffffffffffffffff001916929092176001600160a01b03909216909202179055600080548190610faf906116bd565b919050819055508061010001516001600160a01b03168160200151604051610fd791906116d6565b604051809103902082600001517fc332eb430b0efd9f7423746a02f070eff066ac3b735eb56a3b502e5dd2039d4f84604001518560c001518660e00151604051611023939291906116f2565b60405180910390a4506001949350505050565b82805461104290611621565b90600052602060002090601f01602090048101928261106457600085556110aa565b82601f1061107d57805160ff19168380011785556110aa565b828001600101855582156110aa579182015b828111156110aa57825182559160200191906001019061108f565b506110b69291506110ba565b5090565b5b808211156110b657600081556001016110bb565b80356001600160a01b03811681146110e657600080fd5b919050565b600080604083850312156110fe57600080fd5b611107836110cf565b946020939093013593505050565b60005b83811015611130578181015183820152602001611118565b8381111561113f576000848401525b50505050565b6000815180845261115d816020860160208601611115565b601f01601f19169290920160200192915050565b60006101208b835280602084015261118b8184018c611145565b9050828103604084015261119f818b611145565b60608401999099525050608081019590955292151560a085015260c0840191909152151560e08301526001600160a01b0316610100909101529392505050565b6000602082840312156111f157600080fd5b5035919050565b60006020808301818452808551808352604092508286019150828160051b87010184880160005b838110156112c657603f1989840301855281516101208151855288820151818a87015261124e82870182611145565b91505087820151858203898701526112668282611145565b606084810151908801526080808501519088015260a08085015115159088015260c0808501519088015260e080850151151590880152610100938401516001600160a01b031693909601929092525050938601939086019060010161121f565b509098975050505050505050565b6000602082840312156112e657600080fd5b6112ef826110cf565b9392505050565b634e487b7160e01b600052604160045260246000fd5b60405160a0810167ffffffffffffffff8111828210171561132f5761132f6112f6565b60405290565b604051601f8201601f1916810167ffffffffffffffff8111828210171561135e5761135e6112f6565b604052919050565b600082601f83011261137757600080fd5b813567ffffffffffffffff811115611391576113916112f6565b6113a4601f8201601f1916602001611335565b8181528460208386010111156113b957600080fd5b816020850160208301376000918101602001919091529392505050565b600082601f8301126113e757600080fd5b6113ef61130c565b8060a084018581111561140157600080fd5b845b8181101561143e57803567ffffffffffffffff8111156114235760008081fd5b61142f88828901611366565b85525060209384019301611403565b509095945050505050565b600080600060e0848603121561145e57600080fd5b833567ffffffffffffffff8082111561147657600080fd5b611482878388016113d6565b945060209150818601358181111561149957600080fd5b6114a5888289016113d6565b9450505085605f8601126114b857600080fd5b6114c061130c565b8060e08701888111156114d257600080fd5b604088015b818110156114ff57803561ffff811681146114f25760008081fd5b84529284019284016114d7565b50508093505050509250925092565b6000602080838503121561152157600080fd5b823567ffffffffffffffff8082111561153957600080fd5b818501915085601f83011261154d57600080fd5b81358181111561155f5761155f6112f6565b8060051b9150611570848301611335565b818152918301840191848101908884111561158a57600080fd5b938501935b838510156115a85784358252938501939085019061158f565b98975050505050505050565b6000806000606084860312156115c957600080fd5b833567ffffffffffffffff808211156115e157600080fd5b6115ed87838801611366565b9450602086013591508082111561160357600080fd5b5061161086828701611366565b925050604084013590509250925092565b600181811c9082168061163557607f821691505b60208210810361165557634e487b7160e01b600052602260045260246000fd5b50919050565b634e487b7160e01b600052601160045260246000fd5b6000828210156116835761168361165b565b500390565b634e487b7160e01b600052603260045260246000fd5b600060ff821660ff81036116b4576116b461165b565b60010192915050565b6000600182016116cf576116cf61165b565b5060010190565b600082516116e8818460208701611115565b9190910192915050565b6060815260006117056060830186611145565b60208301949094525090151560409091015291905056fea26469706673582212207ea39a818c6e336dd6aaf67d5e52cf7e9f1df281407808d246f5de1db489c08c64736f6c634300080e0033",
  "immutableReferences": {},
  "source": "// SPDX-License-Identifier: GPL-3.0\npragma solidity >=0.8.7;\n// pragma experimental ABIEncoderV2;\n\n//This is an asset contract.\ncontract Assets{\n    uint256 public assetCount = 1; //state variable to keep track of the number of assets.\n    Asset[] public assets; //allows to use id as key to find assets (basically search asset by id)\n    \n    // //mappping each address  with an array of assets (assets each user has created)\n    mapping(address => Asset[]) public userAssetMap;\n\n\n    //definition of a data type of Asset using structs\n    struct Asset {\n        //attributes of the struct\n        uint256 id;\n        string assetName; \n        string description; \n        uint256 creationTime;\n        uint256 completionTime;\n        bool cancelled;\n        uint256 quantity;\n        bool completed;\n        address creator;\n    }\n   \n    //creation of events\n    event AssetCreated(uint256 indexed id,string indexed _assetName, string _description,uint256 _quantity, bool completed,address indexed creator);\n    event CompletedAssetValueChanged(bool indexed newValue); \n    event CancelledAsset(bool indexed newValue); \n\n    //create multiple assets at once. \n    //Used inn constructor but cann also be implemnted onn front end, \n    //this is one call and saves gas rather than using 5 seperate calls to create asset\n   function createAssets(string[5] memory _assetNames,string[5] memory _description ,uint16[5] memory _quantities) public returns (bool) {\n        uint256  assetLength = _assetNames.length;\n        require(assetLength == _quantities.length, \"Wrong client data\");\n        require(assetLength < 10, \"Wrong number of assets\");\n\n        for(uint8 i=0; i < assetLength;) {\n            \n        createAsset(_assetNames[i],_description[i], _quantities[i]);\n        unchecked {\n            // There is neve going where it underflows \n            // There is never going to be where it overflow \n            ++i;\n        }\n\n        }\n        return true;\n    }\n\n    //create an asset\n    function createAsset(string memory _assetName,string memory _description, uint256 _quantity) public returns (bool){\n        // Checks\n        // Effects \n        Asset memory newAsset; //an empty temporary Asset object\n        // adding the function paramenter values to it then\n        newAsset.id = assetCount;\n        newAsset.assetName = _assetName;\n        newAsset.description = _description;\n        newAsset.creationTime = block.timestamp; //store the unix timestamp of when this function was called\n        newAsset.quantity = _quantity;\n        // newAsset.completed = false; // using solidity language default value for primitives to my advantage\n        newAsset.creator = msg.sender;\n        assets.push(newAsset); // Push the newAsset struct into the asset array\n        userAssetMap[msg.sender].push(newAsset);  // Push the newAsset struct into the asset array related to an eth address\n        // Interaction\n        ++assetCount;\n\n        //emit event to stack\n        emit AssetCreated(\n            newAsset.id,\n            newAsset.assetName,\n            newAsset.description,\n            newAsset.quantity,\n            newAsset.completed,\n            newAsset.creator\n            );\n\n        return true;\n    }\n\n    function getAssets() public view returns (Asset[] memory){\n        return assets;\n    }\n\n    // try calling userAssetMap on it own in front end and see if each idnex is needed!!\n    function getUserAssets(address _userAddress) public view returns (Asset[] memory){\n        Asset[] memory tempAsset;\n        tempAsset = userAssetMap[_userAddress];\n\n        return tempAsset;\n    }\n\n\n    //toggle multiple assets at once. \n    //this is one call and saves gas rather toggling assets complete once at a time\n   function toggleAssetsCompleted(uint256[] memory _assetIds) public returns (bool) {\n        uint256  assetLength = _assetIds.length;\n        require(assetLength < 6, \"Too many assets selected\");\n\n        for(uint8 i=0; i < assetLength;) {\n            \n        toggleAssetCompleted(_assetIds[i]);\n        unchecked {\n            // There is neve going where it underflows \n            // There is never going to be where it overflow \n            ++i;\n        }\n\n        }\n        return true;\n    }\n\n    //change the toggle completed variable to the opposide of current value\n    // should only works if all tasks associated with the asset are completed (need to work on this!)\n    function toggleAssetCompleted(uint256 _id) public returns (bool newCompletionStatus){\n        require(assets.length >= _id, \"Id not created\");\n        Asset memory _asset = assets[ _id - 1];\n        newCompletionStatus = !_asset.completed;\n        _asset.completed = newCompletionStatus;\n        assets[_id - 1] = _asset;\n\n        // find the index of the asset in the userAssetMap\n        Asset[] memory _allAssets = getUserAssets(msg.sender);\n        uint8 index = 0;\n        for (index; index < _allAssets.length-1; index++) {\n            if (_allAssets[index].id == _id) {\n                index = index;\n                break;\n            } \n        }\n        //make these changes in the userAssetMap\n        userAssetMap[msg.sender][index] = _asset;\n        //toggle asset complete in the userAssetMap\n        emit CompletedAssetValueChanged(newCompletionStatus);\n    }\n\n\n//     //cancel multiple assets at once. \n//     //this is one call and saves gas rather cancelling assets one at a time\n//    function cancelAssets(uint256[] memory _assetIds) public returns (bool) {\n//         uint256  assetLength = _assetIds.length;\n//         require(assetLength < 6, \"Too many assets selected\");\n\n//         for(uint8 i=0; i < assetLength;) {\n            \n//         cancelAsset(_assetIds[i]);\n//         unchecked {\n//             // There is neve going where it underflows \n//             // There is never going to be where it overflow \n//             ++i;\n//         }\n\n//         }\n//         return true;\n//     }\n\n//     //change the cancelled variable to true\n//     function cancelAsset(uint256 _id) public returns (bool newCancelledStatus){\n//         require(assets.length >= _id, \"Id not created\");\n//         Asset memory _asset = assets[ _id - 1];\n//         newCancelledStatus = !_asset.cancelled;\n//         _asset.cancelled = newCancelledStatus;\n//         assets[_id - 1] = _asset;\n\n//         // find the index of the asset in the userAssetMap\n//         Asset[] memory _allAssets = getUserAssets(msg.sender);\n//         uint8 index = 0;\n//         for (index; index < _allAssets.length-1; index++) {\n//             if (_allAssets[index].id == _id) {\n//                 index = index;\n//                 break;\n//             } \n//         }\n//         //make these changes in the userAssetMap\n//         userAssetMap[msg.sender][index] = _asset;\n//         //cancel asset in the userAssetMap\n//         emit CancelledAsset(newCancelledStatus);\n//     }\n\n}\n\n//This is just a task contract.\n// Tasks which inherts from Assets (all functions and variables from Assets can be accessed int Tasks)\ncontract Tasks is Assets{ //make assets the parent contract\n\n    uint256 public taskCount = 1;//state variable to keep track of the number of assets.\n    Task[] public tasks;//allows to use id as key to find tasks (basically search task by id)\n\n    //mappping each asset (id) with an array of Tasks it is made up of\n    mapping(uint256 => Task[]) public assetTaskMap;\n\n    //constructor - executed once when a contract is created and it initialises contract state.\n    // constructor () payable {}\n\n    //definition of a data type of Task using structs\n    struct Task {\n        //attributes of the struct\n        uint256 id;\n        string content;\n        string creator_note; //the task creators message \n        string intermediary_note; // the signators message (e.g message on why things are behind schedule)\n        uint256 creationTime;\n        uint256 completionTime;\n        bool completed;\n        address signator;\n        Asset asset; //an Asset object/struct what is associated with the task\n    }\n\n    event Sender(address indexed who, address indexed signator );\n    event TaskCreated(uint indexed id,address indexed who, string indexed content);\n    event CompletedTaskValueChanged(bool indexed newValue);\n\n    //create multiple tasks at once. \n    //Used in constructor but cann also be implemnted onn front end, \n    //this is one call and saves gas rather than using 3 seperate calls to create tasks\n    function createTasks(string[3] memory _taskContents,string[3] memory _notes ,uint8[3] memory _assetIds, address[3] memory _adresses) public returns (bool) {\n        uint256  taskLength = _taskContents.length;\n        require(taskLength == _assetIds.length, \"Wrong client data\");\n        require(taskLength < 5, \"Wrong number of tasks\");\n\n        for(uint8 i=0; i < taskLength;) {\n            createTask(_taskContents[i],_notes[i], _assetIds[i], _adresses[i]);\n            unchecked {\n                // There is neve going where it underflows \n                // There is never going to be where it overflow \n                ++i;\n            }\n\n        }\n    return true;\n    }\n\n    //create a task\n    function createTask(string memory _taskContent,string memory _note, uint256 _assetId, address _signator) public returns (bool){        \n        \n        //get asset assoicated with current task and make sure \n        //the function is being called by the asset creator\n        Asset memory currAsset;  //create empty temporary Asset\n        currAsset = assets[_assetId-1]; //get the associated asset value to store temporary asset\n        // require(msg.sender == currAsset.creator, \"This function is restricted to the asset creator\"); \n\n        //create an empty temporary Task object adding the function paramenter values to it then\n        //it is pushed into the the array of assets\n        Task memory newTask; \n        newTask.id = taskCount;\n        newTask.content = _taskContent;\n        newTask.creator_note = _note;\n        // newTask.intermediary_note = '';\n        newTask.creationTime = block.timestamp;\n        // newTask.completed = false;\n        newTask.signator = _signator;\n        newTask.asset = assets[_assetId-1];\n        tasks.push(newTask); // Push the newTask struct into the task array\n        // map newly created task to its associated assed based on the \"_assedID\"\n        assetTaskMap[_assetId-1].push(newTask); // each assetid maps to a task[]\n        taskCount++;\n\n        emit TaskCreated(\n            newTask.id,\n            newTask.signator,\n            newTask.content\n            );\n        return true;\n    }\n\n\n    //get all tasks associated with a certain asset (by using assetID)\n   function getAssetTasks( uint256 _assetID) public view returns (Task[] memory){\n        Task[] memory _tasks = assetTaskMap[_assetID-1];\n        return _tasks;\n    }\n\n    // add a message for a task being perfromed (signators message)\n    function addDescription(uint _TaskId,string memory _note ) public returns (bool){\n        Task memory _task = tasks[_TaskId-1];\n        emit Sender(\n            msg.sender,\n            _task.signator\n            );\n        require(msg.sender == _task.signator, \"This function is restricted to the signator\");\n\n        _task.intermediary_note = _note;\n        tasks[_TaskId-1] = _task;\n\n        //make same change inn assetTaskMap\n        // find the index of the task in the assetTaskMap\n        Task[] memory _allTasks = getAssetTasks(_task.asset.id);\n        uint8 index = 0;\n        for (index; index < _allTasks.length-1; index++) {\n            if (_allTasks[index].id == _TaskId) {\n                index = index;\n                break;\n            } \n        }\n        //make these changes in the asset task map\n        assetTaskMap[_task.asset.id-1][index] = _task;\n\n\n        \n        return true;\n    }\n\n    //change the toggle completed variable to the opposide of current value\n    function toggleTaskCompleted(uint _id) public returns (bool){\n        Task memory _task = tasks[_id-1];\n        // require(msg.sender == _task.signator, \"This function is restricted to the signator\");\n        _task.completed = !_task.completed;\n        tasks[_id-1] = _task;\n\n\n        // find the index of the task in the assetTaskMap\n        Task[] memory _allTasks = getAssetTasks(_task.asset.id);\n        uint8 index = 0;\n        for (index; index < _allTasks.length-1; index++) {\n            if (_allTasks[index].id == _id) {\n                index = index;\n                break;\n            } \n        }\n        //make these changes in the asset task map\n        assetTaskMap[_task.asset.id-1][index] = _task;\n\n        emit CompletedTaskValueChanged(!_task.completed);\n        return !_task.completed;  // retruns the new value \n    }\n}\n\n//when a contract inherits from these two only 1 contract is created on the blockchain which is this one\ncontract Unbolt is Tasks{  //inheritance\n\n    constructor () payable { \n        createAssets(\n            [\"Berken Bag\", \"PS4\", \"Iphone 6\",\"Xbox 1\",\"Issey Miyake Top\"],\n            [\"Pink Bag\", \"Blue Ps4\", \"Pink Iphone\", \"500GB\", \"Home Plissee jacket\"],\n            [1000, 4500, 6500,1500,19000]\n        );\n\n        createTasks(\n            [\"Source Leather\", \"Transport to Factory\", \"Assemble the plastic\"],\n            [\"Make sure it is the best quality mushroom leather\", \"Make to deliver before 2/03/2022\", \"Make sure to use blue plastic!\"],\n            [1, 1, 3],\n            [0x5E7b2Bbb14B8a9097A26A93982624067A1dB11dE, 0x5E7b2Bbb14B8a9097A26A93982624067A1dB11dE,0x5B38Da6a701c568545dCfcB03FcB875f56beddC4]\n        );\n    }\n\n\n}\n\n",
  "sourcePath": "/Users/tobiadewunmi/Desktop/unbolt/src/truffle/contracts/UnBoltV2.sol",
  "compiler": {
    "name": "solc",
    "version": "0.8.14+commit.80d49f37.Emscripten.clang"
  },
  "schemaVersion": "3.4.6",
  "updatedAt": "2022-05-22T12:35:47.620Z",
  "devdoc": {
    "kind": "dev",
    "methods": {},
    "version": 1
  },
  "userdoc": {
    "kind": "user",
    "methods": {},
    "version": 1
  }
}