{
  "contractName": "Tasks",
  "abi": [
    {
      "inputs": [],
      "payable": false,
      "stateMutability": "nonpayable",
      "type": "constructor"
    },
    {
      "anonymous": false,
      "inputs": [
        {
          "indexed": true,
          "internalType": "uint256",
          "name": "id",
          "type": "uint256"
        },
        {
          "indexed": true,
          "internalType": "string",
          "name": "_assetName",
          "type": "string"
        },
        {
          "indexed": false,
          "internalType": "uint256",
          "name": "_quantity",
          "type": "uint256"
        },
        {
          "indexed": false,
          "internalType": "bool",
          "name": "completed",
          "type": "bool"
        },
        {
          "indexed": true,
          "internalType": "address",
          "name": "creator",
          "type": "address"
        }
      ],
      "name": "AssetCreated",
      "type": "event"
    },
    {
      "anonymous": false,
      "inputs": [
        {
          "indexed": true,
          "internalType": "bool",
          "name": "newValue",
          "type": "bool"
        }
      ],
      "name": "CompletedAssetValueChanged",
      "type": "event"
    },
    {
      "anonymous": false,
      "inputs": [
        {
          "indexed": true,
          "internalType": "bool",
          "name": "newValue",
          "type": "bool"
        }
      ],
      "name": "CompletedTaskValueChanged",
      "type": "event"
    },
    {
      "anonymous": false,
      "inputs": [
        {
          "indexed": true,
          "internalType": "address",
          "name": "who",
          "type": "address"
        },
        {
          "indexed": true,
          "internalType": "address",
          "name": "signator",
          "type": "address"
        }
      ],
      "name": "Sender",
      "type": "event"
    },
    {
      "anonymous": false,
      "inputs": [
        {
          "indexed": true,
          "internalType": "uint256",
          "name": "id",
          "type": "uint256"
        },
        {
          "indexed": true,
          "internalType": "address",
          "name": "who",
          "type": "address"
        },
        {
          "indexed": true,
          "internalType": "string",
          "name": "content",
          "type": "string"
        }
      ],
      "name": "TaskCreated",
      "type": "event"
    },
    {
      "constant": true,
      "inputs": [],
      "name": "assetCount",
      "outputs": [
        {
          "internalType": "uint256",
          "name": "",
          "type": "uint256"
        }
      ],
      "payable": false,
      "stateMutability": "view",
      "type": "function"
    },
    {
      "constant": true,
      "inputs": [
        {
          "internalType": "uint256",
          "name": "",
          "type": "uint256"
        },
        {
          "internalType": "uint256",
          "name": "",
          "type": "uint256"
        }
      ],
      "name": "assetTaskMap",
      "outputs": [
        {
          "internalType": "uint256",
          "name": "id",
          "type": "uint256"
        },
        {
          "internalType": "string",
          "name": "content",
          "type": "string"
        },
        {
          "internalType": "string",
          "name": "creator_note",
          "type": "string"
        },
        {
          "internalType": "string",
          "name": "intermediary_note",
          "type": "string"
        },
        {
          "internalType": "bool",
          "name": "completed",
          "type": "bool"
        },
        {
          "internalType": "address",
          "name": "signator",
          "type": "address"
        },
        {
          "components": [
            {
              "internalType": "uint256",
              "name": "id",
              "type": "uint256"
            },
            {
              "internalType": "string",
              "name": "assetName",
              "type": "string"
            },
            {
              "internalType": "uint256",
              "name": "quantity",
              "type": "uint256"
            },
            {
              "internalType": "bool",
              "name": "completed",
              "type": "bool"
            },
            {
              "internalType": "address",
              "name": "creator",
              "type": "address"
            }
          ],
          "internalType": "struct Assets.Asset",
          "name": "asset",
          "type": "tuple"
        }
      ],
      "payable": false,
      "stateMutability": "view",
      "type": "function"
    },
    {
      "constant": true,
      "inputs": [
        {
          "internalType": "uint256",
          "name": "",
          "type": "uint256"
        }
      ],
      "name": "assets",
      "outputs": [
        {
          "internalType": "uint256",
          "name": "id",
          "type": "uint256"
        },
        {
          "internalType": "string",
          "name": "assetName",
          "type": "string"
        },
        {
          "internalType": "uint256",
          "name": "quantity",
          "type": "uint256"
        },
        {
          "internalType": "bool",
          "name": "completed",
          "type": "bool"
        },
        {
          "internalType": "address",
          "name": "creator",
          "type": "address"
        }
      ],
      "payable": false,
      "stateMutability": "view",
      "type": "function"
    },
    {
      "constant": false,
      "inputs": [
        {
          "internalType": "string",
          "name": "_assetName",
          "type": "string"
        },
        {
          "internalType": "uint256",
          "name": "_quantity",
          "type": "uint256"
        }
      ],
      "name": "createAsset",
      "outputs": [
        {
          "internalType": "bool",
          "name": "",
          "type": "bool"
        }
      ],
      "payable": false,
      "stateMutability": "nonpayable",
      "type": "function"
    },
    {
      "constant": true,
      "inputs": [],
      "name": "getAssets",
      "outputs": [
        {
          "components": [
            {
              "internalType": "uint256",
              "name": "id",
              "type": "uint256"
            },
            {
              "internalType": "string",
              "name": "assetName",
              "type": "string"
            },
            {
              "internalType": "uint256",
              "name": "quantity",
              "type": "uint256"
            },
            {
              "internalType": "bool",
              "name": "completed",
              "type": "bool"
            },
            {
              "internalType": "address",
              "name": "creator",
              "type": "address"
            }
          ],
          "internalType": "struct Assets.Asset[]",
          "name": "",
          "type": "tuple[]"
        }
      ],
      "payable": false,
      "stateMutability": "view",
      "type": "function"
    },
    {
      "constant": true,
      "inputs": [],
      "name": "taskCount",
      "outputs": [
        {
          "internalType": "uint256",
          "name": "",
          "type": "uint256"
        }
      ],
      "payable": false,
      "stateMutability": "view",
      "type": "function"
    },
    {
      "constant": true,
      "inputs": [
        {
          "internalType": "uint256",
          "name": "",
          "type": "uint256"
        }
      ],
      "name": "tasks",
      "outputs": [
        {
          "internalType": "uint256",
          "name": "id",
          "type": "uint256"
        },
        {
          "internalType": "string",
          "name": "content",
          "type": "string"
        },
        {
          "internalType": "string",
          "name": "creator_note",
          "type": "string"
        },
        {
          "internalType": "string",
          "name": "intermediary_note",
          "type": "string"
        },
        {
          "internalType": "bool",
          "name": "completed",
          "type": "bool"
        },
        {
          "internalType": "address",
          "name": "signator",
          "type": "address"
        },
        {
          "components": [
            {
              "internalType": "uint256",
              "name": "id",
              "type": "uint256"
            },
            {
              "internalType": "string",
              "name": "assetName",
              "type": "string"
            },
            {
              "internalType": "uint256",
              "name": "quantity",
              "type": "uint256"
            },
            {
              "internalType": "bool",
              "name": "completed",
              "type": "bool"
            },
            {
              "internalType": "address",
              "name": "creator",
              "type": "address"
            }
          ],
          "internalType": "struct Assets.Asset",
          "name": "asset",
          "type": "tuple"
        }
      ],
      "payable": false,
      "stateMutability": "view",
      "type": "function"
    },
    {
      "constant": false,
      "inputs": [
        {
          "internalType": "uint256",
          "name": "_id",
          "type": "uint256"
        }
      ],
      "name": "toggleAssetCompleted",
      "outputs": [
        {
          "internalType": "bool",
          "name": "",
          "type": "bool"
        }
      ],
      "payable": false,
      "stateMutability": "nonpayable",
      "type": "function"
    },
    {
      "constant": false,
      "inputs": [
        {
          "internalType": "string",
          "name": "_taskContent",
          "type": "string"
        },
        {
          "internalType": "string",
          "name": "_note",
          "type": "string"
        },
        {
          "internalType": "uint256",
          "name": "_assetId",
          "type": "uint256"
        },
        {
          "internalType": "address",
          "name": "_signator",
          "type": "address"
        }
      ],
      "name": "createTask",
      "outputs": [
        {
          "internalType": "bool",
          "name": "",
          "type": "bool"
        }
      ],
      "payable": false,
      "stateMutability": "nonpayable",
      "type": "function"
    },
    {
      "constant": true,
      "inputs": [],
      "name": "getAllTasks",
      "outputs": [
        {
          "components": [
            {
              "internalType": "uint256",
              "name": "id",
              "type": "uint256"
            },
            {
              "internalType": "string",
              "name": "content",
              "type": "string"
            },
            {
              "internalType": "string",
              "name": "creator_note",
              "type": "string"
            },
            {
              "internalType": "string",
              "name": "intermediary_note",
              "type": "string"
            },
            {
              "internalType": "bool",
              "name": "completed",
              "type": "bool"
            },
            {
              "internalType": "address",
              "name": "signator",
              "type": "address"
            },
            {
              "components": [
                {
                  "internalType": "uint256",
                  "name": "id",
                  "type": "uint256"
                },
                {
                  "internalType": "string",
                  "name": "assetName",
                  "type": "string"
                },
                {
                  "internalType": "uint256",
                  "name": "quantity",
                  "type": "uint256"
                },
                {
                  "internalType": "bool",
                  "name": "completed",
                  "type": "bool"
                },
                {
                  "internalType": "address",
                  "name": "creator",
                  "type": "address"
                }
              ],
              "internalType": "struct Assets.Asset",
              "name": "asset",
              "type": "tuple"
            }
          ],
          "internalType": "struct Tasks.Task[]",
          "name": "",
          "type": "tuple[]"
        }
      ],
      "payable": false,
      "stateMutability": "view",
      "type": "function"
    },
    {
      "constant": true,
      "inputs": [
        {
          "internalType": "uint256",
          "name": "_assetID",
          "type": "uint256"
        }
      ],
      "name": "getAssetTasks",
      "outputs": [
        {
          "components": [
            {
              "internalType": "uint256",
              "name": "id",
              "type": "uint256"
            },
            {
              "internalType": "string",
              "name": "content",
              "type": "string"
            },
            {
              "internalType": "string",
              "name": "creator_note",
              "type": "string"
            },
            {
              "internalType": "string",
              "name": "intermediary_note",
              "type": "string"
            },
            {
              "internalType": "bool",
              "name": "completed",
              "type": "bool"
            },
            {
              "internalType": "address",
              "name": "signator",
              "type": "address"
            },
            {
              "components": [
                {
                  "internalType": "uint256",
                  "name": "id",
                  "type": "uint256"
                },
                {
                  "internalType": "string",
                  "name": "assetName",
                  "type": "string"
                },
                {
                  "internalType": "uint256",
                  "name": "quantity",
                  "type": "uint256"
                },
                {
                  "internalType": "bool",
                  "name": "completed",
                  "type": "bool"
                },
                {
                  "internalType": "address",
                  "name": "creator",
                  "type": "address"
                }
              ],
              "internalType": "struct Assets.Asset",
              "name": "asset",
              "type": "tuple"
            }
          ],
          "internalType": "struct Tasks.Task[]",
          "name": "",
          "type": "tuple[]"
        }
      ],
      "payable": false,
      "stateMutability": "view",
      "type": "function"
    },
    {
      "constant": false,
      "inputs": [
        {
          "internalType": "uint256",
          "name": "_id",
          "type": "uint256"
        },
        {
          "internalType": "string",
          "name": "_note",
          "type": "string"
        }
      ],
      "name": "addDescription",
      "outputs": [],
      "payable": false,
      "stateMutability": "nonpayable",
      "type": "function"
    },
    {
      "constant": false,
      "inputs": [
        {
          "internalType": "uint256",
          "name": "_id",
          "type": "uint256"
        }
      ],
      "name": "toggleTaskCompleted",
      "outputs": [
        {
          "internalType": "bool",
          "name": "",
          "type": "bool"
        }
      ],
      "payable": false,
      "stateMutability": "nonpayable",
      "type": "function"
    }
  ],
  "bytecode": "0x60806040526000805560006002553480156200001a57600080fd5b50620000646040518060400160405280600a81526020017f4265726b656e20426167000000000000000000000000000000000000000000008152506103e86200033360201b60201c565b50620000ae6040518060400160405280600381526020017f50533400000000000000000000000000000000000000000000000000000000008152506111946200033360201b60201c565b50620000f86040518060400160405280600881526020017f4970686f6e6520360000000000000000000000000000000000000000000000008152506119646200033360201b60201c565b50620001426040518060400160405280600681526020017f58626f78203100000000000000000000000000000000000000000000000000008152506105dc6200033360201b60201c565b506200018c6040518060400160405280601081526020017f4973736579204d6979616b6520546f7000000000000000000000000000000000815250614a386200033360201b60201c565b50620002046040518060400160405280600e81526020017f536f75726365204c65617468657200000000000000000000000000000000000081525060405180606001604052806031815260200162004a54603191396001735e7b2bbb14b8a9097a26a93982624067a1db11de6200050d60201b60201c565b50620002986040518060400160405280601481526020017f5472616e73706f727420746f20466163746f72790000000000000000000000008152506040518060400160405280602081526020017f4d616b6520746f2064656c69766572206265666f726520322f30332f323032328152506001735e7b2bbb14b8a9097a26a93982624067a1db11de6200050d60201b60201c565b506200032c6040518060400160405280601481526020017f417373656d626c652074686520706c61737469630000000000000000000000008152506040518060400160405280601e81526020017f4d616b65207375726520746f2075736520626c756520706c61737469632100008152506003735b38da6a701c568545dcfcb03fcb875f56beddc46200050d60201b60201c565b5062000fe3565b600080600081548092919060010191905055506200035062000cad565b60005481600001818152505083816020018190525082816040018181525050600081606001901515908115158152505033816080019073ffffffffffffffffffffffffffffffffffffffff16908173ffffffffffffffffffffffffffffffffffffffff1681525050600181908060018154018082558091505090600182039060005260206000209060040201600090919290919091506000820151816000015560208201518160010190805190602001906200040e92919062000cf4565b506040820151816002015560608201518160030160006101000a81548160ff02191690831515021790555060808201518160030160016101000a81548173ffffffffffffffffffffffffffffffffffffffff021916908373ffffffffffffffffffffffffffffffffffffffff160217905550505050806080015173ffffffffffffffffffffffffffffffffffffffff168160200151604051620004b2919062000f08565b604051809103902082600001517fed68b4d9811f1cc9d71803185e81d102b0b8d82e68c4ff7dd93ad3ab1d41f87f84604001518560600151604051620004fa92919062000f43565b60405180910390a4600191505092915050565b60006200051962000cad565b6001808503815481106200052957fe5b90600052602060002090600402016040518060a001604052908160008201548152602001600182018054600181600116156101000203166002900480601f016020809104026020016040519081016040528092919081815260200182805460018160011615610100020316600290048015620005e95780601f10620005bd57610100808354040283529160200191620005e9565b820191906000526020600020905b815481529060010190602001808311620005cb57829003601f168201915b50505050508152602001600282015481526020016003820160009054906101000a900460ff161515151581526020016003820160019054906101000a900473ffffffffffffffffffffffffffffffffffffffff1673ffffffffffffffffffffffffffffffffffffffff1673ffffffffffffffffffffffffffffffffffffffff16815250509050806080015173ffffffffffffffffffffffffffffffffffffffff163373ffffffffffffffffffffffffffffffffffffffff1614620006e4576040517f08c379a0000000000000000000000000000000000000000000000000000000008152600401620006db9062000f21565b60405180910390fd5b6002600081548092919060010191905055506200070062000d7b565b6002548160000181815250508681602001819052508581604001819052506040518060200160405280600081525081606001819052506000816080019015159081151581525050838160a0019073ffffffffffffffffffffffffffffffffffffffff16908173ffffffffffffffffffffffffffffffffffffffff16815250506001808603815481106200078f57fe5b90600052602060002090600402016040518060a001604052908160008201548152602001600182018054600181600116156101000203166002900480601f0160208091040260200160405190810160405280929190818152602001828054600181600116156101000203166002900480156200084f5780601f1062000823576101008083540402835291602001916200084f565b820191906000526020600020905b8154815290600101906020018083116200083157829003601f168201915b50505050508152602001600282015481526020016003820160009054906101000a900460ff161515151581526020016003820160019054906101000a900473ffffffffffffffffffffffffffffffffffffffff1673ffffffffffffffffffffffffffffffffffffffff1673ffffffffffffffffffffffffffffffffffffffff16815250508160c00181905250600381908060018154018082558091505090600182039060005260206000209060090201600090919290919091506000820151816000015560208201518160010190805190602001906200093192919062000cf4565b5060408201518160020190805190602001906200095092919062000cf4565b5060608201518160030190805190602001906200096f92919062000cf4565b5060808201518160040160006101000a81548160ff02191690831515021790555060a08201518160040160016101000a81548173ffffffffffffffffffffffffffffffffffffffff021916908373ffffffffffffffffffffffffffffffffffffffff16021790555060c08201518160050160008201518160000155602082015181600101908051906020019062000a0892919062000cf4565b506040820151816002015560608201518160030160006101000a81548160ff02191690831515021790555060808201518160030160016101000a81548173ffffffffffffffffffffffffffffffffffffffff021916908373ffffffffffffffffffffffffffffffffffffffff160217905550505050505060046000600187038152602001908152602001600020819080600181540180825580915050906001820390600052602060002090600902016000909192909190915060008201518160000155602082015181600101908051906020019062000ae992919062000cf4565b50604082015181600201908051906020019062000b0892919062000cf4565b50606082015181600301908051906020019062000b2792919062000cf4565b5060808201518160040160006101000a81548160ff02191690831515021790555060a08201518160040160016101000a81548173ffffffffffffffffffffffffffffffffffffffff021916908373ffffffffffffffffffffffffffffffffffffffff16021790555060c08201518160050160008201518160000155602082015181600101908051906020019062000bc092919062000cf4565b506040820151816002015560608201518160030160006101000a81548160ff02191690831515021790555060808201518160030160016101000a81548173ffffffffffffffffffffffffffffffffffffffff021916908373ffffffffffffffffffffffffffffffffffffffff1602179055505050505050806020015160405162000c4b919062000f08565b60405180910390208160a0015173ffffffffffffffffffffffffffffffffffffffff1682600001517f5b2493258cbc7169ad9389516998320ce25dc27637cea28ddd0d033af122bfa660405160405180910390a4600192505050949350505050565b6040518060a00160405280600081526020016060815260200160008152602001600015158152602001600073ffffffffffffffffffffffffffffffffffffffff1681525090565b828054600181600116156101000203166002900490600052602060002090601f016020900481019282601f1062000d3757805160ff191683800117855562000d68565b8280016001018555821562000d68579182015b8281111562000d6757825182559160200191906001019062000d4a565b5b50905062000d77919062000dd8565b5090565b6040518060e0016040528060008152602001606081526020016060815260200160608152602001600015158152602001600073ffffffffffffffffffffffffffffffffffffffff16815260200162000dd262000e00565b81525090565b62000dfd91905b8082111562000df957600081600090555060010162000ddf565b5090565b90565b6040518060a00160405280600081526020016060815260200160008152602001600015158152602001600073ffffffffffffffffffffffffffffffffffffffff1681525090565b62000e528162000f97565b82525050565b600062000e658262000f70565b62000e71818562000f8c565b935062000e8381856020860162000fad565b80840191505092915050565b600062000e9e60308362000f7b565b91507f546869732066756e6374696f6e206973207265737472696374656420746f207460008301527f68652061737365742063726561746f72000000000000000000000000000000006020830152604082019050919050565b62000f028162000fa3565b82525050565b600062000f16828462000e58565b915081905092915050565b6000602082019050818103600083015262000f3c8162000e8f565b9050919050565b600060408201905062000f5a600083018562000ef7565b62000f69602083018462000e47565b9392505050565b600081519050919050565b600082825260208201905092915050565b600081905092915050565b60008115159050919050565b6000819050919050565b60005b8381101562000fcd57808201518184015260208101905062000fb0565b8381111562000fdd576000848401525b50505050565b613a618062000ff36000396000f3fe608060405234801561001057600080fd5b50600436106100cf5760003560e01c80638d9776721161008c578063b6cb58a511610066578063b6cb58a514610258578063cf35bdd014610276578063db9cc410146102aa578063eafe7a74146102da576100cf565b80638d977672146101d057806390902da514610206578063b51f79e31461023c576100cf565b80631a55cc48146100d45780631f69a009146101045780634e1347a7146101345780636140dd601461016457806367e4ac2c14610194578063779900b4146101b2575b600080fd5b6100ee60048036036100e9919081019061305b565b6102f8565b6040516100fb91906136ce565b60405180910390f35b61011e60048036036101199190810190613142565b610a75565b60405161012b91906136ac565b60405180910390f35b61014e60048036036101499190810190613142565b610e8b565b60405161015b91906136ce565b60405180910390f35b61017e60048036036101799190810190613142565b6110f6565b60405161018b91906136ce565b60405180910390f35b61019c6118b7565b6040516101a9919061368a565b60405180910390f35b6101ba611a3d565b6040516101c791906136ac565b60405180910390f35b6101ea60048036036101e59190810190613142565b611e38565b6040516101fd979695949392919061376d565b60405180910390f35b610220600480360361021b91908101906131bf565b6121ad565b604051610233979695949392919061376d565b60405180910390f35b6102566004803603610251919081019061316b565b61252f565b005b610260612b69565b60405161026d9190613729565b60405180910390f35b610290600480360361028b9190810190613142565b612b6f565b6040516102a19594939291906137f8565b60405180910390f35b6102c460048036036102bf91908101906130ee565b612c77565b6040516102d191906136ce565b60405180910390f35b6102e2612e49565b6040516102ef9190613729565b60405180910390f35b6000610302612e4f565b60018085038154811061031157fe5b90600052602060002090600402016040518060a001604052908160008201548152602001600182018054600181600116156101000203166002900480601f0160208091040260200160405190810160405280929190818152602001828054600181600116156101000203166002900480156103cd5780601f106103a2576101008083540402835291602001916103cd565b820191906000526020600020905b8154815290600101906020018083116103b057829003601f168201915b50505050508152602001600282015481526020016003820160009054906101000a900460ff161515151581526020016003820160019054906101000a900473ffffffffffffffffffffffffffffffffffffffff1673ffffffffffffffffffffffffffffffffffffffff1673ffffffffffffffffffffffffffffffffffffffff16815250509050806080015173ffffffffffffffffffffffffffffffffffffffff163373ffffffffffffffffffffffffffffffffffffffff16146104c5576040517f08c379a00000000000000000000000000000000000000000000000000000000081526004016104bc90613709565b60405180910390fd5b6002600081548092919060010191905055506104df612e96565b6002548160000181815250508681602001819052508581604001819052506040518060200160405280600081525081606001819052506000816080019015159081151581525050838160a0019073ffffffffffffffffffffffffffffffffffffffff16908173ffffffffffffffffffffffffffffffffffffffff168152505060018086038154811061056d57fe5b90600052602060002090600402016040518060a001604052908160008201548152602001600182018054600181600116156101000203166002900480601f0160208091040260200160405190810160405280929190818152602001828054600181600116156101000203166002900480156106295780601f106105fe57610100808354040283529160200191610629565b820191906000526020600020905b81548152906001019060200180831161060c57829003601f168201915b50505050508152602001600282015481526020016003820160009054906101000a900460ff161515151581526020016003820160019054906101000a900473ffffffffffffffffffffffffffffffffffffffff1673ffffffffffffffffffffffffffffffffffffffff1673ffffffffffffffffffffffffffffffffffffffff16815250508160c0018190525060038190806001815401808255809150509060018203906000526020600020906009020160009091929091909150600082015181600001556020820151816001019080519060200190610709929190612ef1565b506040820151816002019080519060200190610726929190612ef1565b506060820151816003019080519060200190610743929190612ef1565b5060808201518160040160006101000a81548160ff02191690831515021790555060a08201518160040160016101000a81548173ffffffffffffffffffffffffffffffffffffffff021916908373ffffffffffffffffffffffffffffffffffffffff16021790555060c0820151816005016000820151816000015560208201518160010190805190602001906107da929190612ef1565b506040820151816002015560608201518160030160006101000a81548160ff02191690831515021790555060808201518160030160016101000a81548173ffffffffffffffffffffffffffffffffffffffff021916908373ffffffffffffffffffffffffffffffffffffffff16021790555050505050506004600060018703815260200190815260200160002081908060018154018082558091505090600182039060005260206000209060090201600090919290919091506000820151816000015560208201518160010190805190602001906108b9929190612ef1565b5060408201518160020190805190602001906108d6929190612ef1565b5060608201518160030190805190602001906108f3929190612ef1565b5060808201518160040160006101000a81548160ff02191690831515021790555060a08201518160040160016101000a81548173ffffffffffffffffffffffffffffffffffffffff021916908373ffffffffffffffffffffffffffffffffffffffff16021790555060c08201518160050160008201518160000155602082015181600101908051906020019061098a929190612ef1565b506040820151816002015560608201518160030160006101000a81548160ff02191690831515021790555060808201518160030160016101000a81548173ffffffffffffffffffffffffffffffffffffffff021916908373ffffffffffffffffffffffffffffffffffffffff16021790555050505050508060200151604051610a139190613673565b60405180910390208160a0015173ffffffffffffffffffffffffffffffffffffffff1682600001517f5b2493258cbc7169ad9389516998320ce25dc27637cea28ddd0d033af122bfa660405160405180910390a4600192505050949350505050565b60608060046000600185038152602001908152602001600020805480602002602001604051908101604052809291908181526020016000905b82821015610e7c57838290600052602060002090600902016040518060e001604052908160008201548152602001600182018054600181600116156101000203166002900480601f016020809104026020016040519081016040528092919081815260200182805460018160011615610100020316600290048015610b745780601f10610b4957610100808354040283529160200191610b74565b820191906000526020600020905b815481529060010190602001808311610b5757829003601f168201915b50505050508152602001600282018054600181600116156101000203166002900480601f016020809104026020016040519081016040528092919081815260200182805460018160011615610100020316600290048015610c165780601f10610beb57610100808354040283529160200191610c16565b820191906000526020600020905b815481529060010190602001808311610bf957829003601f168201915b50505050508152602001600382018054600181600116156101000203166002900480601f016020809104026020016040519081016040528092919081815260200182805460018160011615610100020316600290048015610cb85780601f10610c8d57610100808354040283529160200191610cb8565b820191906000526020600020905b815481529060010190602001808311610c9b57829003601f168201915b505050505081526020016004820160009054906101000a900460ff161515151581526020016004820160019054906101000a900473ffffffffffffffffffffffffffffffffffffffff1673ffffffffffffffffffffffffffffffffffffffff1673ffffffffffffffffffffffffffffffffffffffff168152602001600582016040518060a001604052908160008201548152602001600182018054600181600116156101000203166002900480601f016020809104026020016040519081016040528092919081815260200182805460018160011615610100020316600290048015610de55780601f10610dba57610100808354040283529160200191610de5565b820191906000526020600020905b815481529060010190602001808311610dc857829003601f168201915b50505050508152602001600282015481526020016003820160009054906101000a900460ff161515151581526020016003820160019054906101000a900473ffffffffffffffffffffffffffffffffffffffff1673ffffffffffffffffffffffffffffffffffffffff1673ffffffffffffffffffffffffffffffffffffffff16815250508152505081526020019060010190610aae565b50505050905080915050919050565b6000610e95612e4f565b600180840381548110610ea457fe5b90600052602060002090600402016040518060a001604052908160008201548152602001600182018054600181600116156101000203166002900480601f016020809104026020016040519081016040528092919081815260200182805460018160011615610100020316600290048015610f605780601f10610f3557610100808354040283529160200191610f60565b820191906000526020600020905b815481529060010190602001808311610f4357829003601f168201915b50505050508152602001600282015481526020016003820160009054906101000a900460ff161515151581526020016003820160019054906101000a900473ffffffffffffffffffffffffffffffffffffffff1673ffffffffffffffffffffffffffffffffffffffff1673ffffffffffffffffffffffffffffffffffffffff168152505090508060600151158160600190151590811515815250508060018085038154811061100b57fe5b906000526020600020906004020160008201518160000155602082015181600101908051906020019061103f929190612ef1565b506040820151816002015560608201518160030160006101000a81548160ff02191690831515021790555060808201518160030160016101000a81548173ffffffffffffffffffffffffffffffffffffffff021916908373ffffffffffffffffffffffffffffffffffffffff16021790555090505080606001511515157ff22cbfb622d75dcf8b8a0f945daa607fe2e0c01b5938db80499d4daf538ac1e460405160405180910390a2806060015115915050919050565b6000611100612e96565b6003600184038154811061111057fe5b90600052602060002090600902016040518060e001604052908160008201548152602001600182018054600181600116156101000203166002900480601f0160208091040260200160405190810160405280929190818152602001828054600181600116156101000203166002900480156111cc5780601f106111a1576101008083540402835291602001916111cc565b820191906000526020600020905b8154815290600101906020018083116111af57829003601f168201915b50505050508152602001600282018054600181600116156101000203166002900480601f01602080910402602001604051908101604052809291908181526020018280546001816001161561010002031660029004801561126e5780601f106112435761010080835404028352916020019161126e565b820191906000526020600020905b81548152906001019060200180831161125157829003601f168201915b50505050508152602001600382018054600181600116156101000203166002900480601f0160208091040260200160405190810160405280929190818152602001828054600181600116156101000203166002900480156113105780601f106112e557610100808354040283529160200191611310565b820191906000526020600020905b8154815290600101906020018083116112f357829003601f168201915b505050505081526020016004820160009054906101000a900460ff161515151581526020016004820160019054906101000a900473ffffffffffffffffffffffffffffffffffffffff1673ffffffffffffffffffffffffffffffffffffffff1673ffffffffffffffffffffffffffffffffffffffff168152602001600582016040518060a001604052908160008201548152602001600182018054600181600116156101000203166002900480601f01602080910402602001604051908101604052809291908181526020018280546001816001161561010002031660029004801561143d5780601f106114125761010080835404028352916020019161143d565b820191906000526020600020905b81548152906001019060200180831161142057829003601f168201915b50505050508152602001600282015481526020016003820160009054906101000a900460ff161515151581526020016003820160019054906101000a900473ffffffffffffffffffffffffffffffffffffffff1673ffffffffffffffffffffffffffffffffffffffff1673ffffffffffffffffffffffffffffffffffffffff168152505081525050905080608001511581608001901515908115158152505080600360018503815481106114ed57fe5b9060005260206000209060090201600082015181600001556020820151816001019080519060200190611521929190612ef1565b50604082015181600201908051906020019061153e929190612ef1565b50606082015181600301908051906020019061155b929190612ef1565b5060808201518160040160006101000a81548160ff02191690831515021790555060a08201518160040160016101000a81548173ffffffffffffffffffffffffffffffffffffffff021916908373ffffffffffffffffffffffffffffffffffffffff16021790555060c0820151816005016000820151816000015560208201518160010190805190602001906115f2929190612ef1565b506040820151816002015560608201518160030160006101000a81548160ff02191690831515021790555060808201518160030160016101000a81548173ffffffffffffffffffffffffffffffffffffffff021916908373ffffffffffffffffffffffffffffffffffffffff1602179055505050905050606061167c8260c0015160000151610a75565b905060008090505b60018251038160ff1610156116ca5784828260ff16815181106116a357fe5b60200260200101516000015114156116bd578090506116ca565b8080600101915050611684565b826004600060018660c00151600001510381526020019081526020016000208260ff16815481106116f757fe5b906000526020600020906009020160008201518160000155602082015181600101908051906020019061172b929190612ef1565b506040820151816002019080519060200190611748929190612ef1565b506060820151816003019080519060200190611765929190612ef1565b5060808201518160040160006101000a81548160ff02191690831515021790555060a08201518160040160016101000a81548173ffffffffffffffffffffffffffffffffffffffff021916908373ffffffffffffffffffffffffffffffffffffffff16021790555060c0820151816005016000820151816000015560208201518160010190805190602001906117fc929190612ef1565b506040820151816002015560608201518160030160006101000a81548160ff02191690831515021790555060808201518160030160016101000a81548173ffffffffffffffffffffffffffffffffffffffff021916908373ffffffffffffffffffffffffffffffffffffffff160217905550505090505082608001511515157fdc3b9f81fbc5ccc1135e0011003cd9da4e4edd29dc106ca34c8d3724b9eb4a3e60405160405180910390a28260800151159350505050919050565b60606001805480602002602001604051908101604052809291908181526020016000905b82821015611a3457838290600052602060002090600402016040518060a001604052908160008201548152602001600182018054600181600116156101000203166002900480601f0160208091040260200160405190810160405280929190818152602001828054600181600116156101000203166002900480156119a15780601f10611976576101008083540402835291602001916119a1565b820191906000526020600020905b81548152906001019060200180831161198457829003601f168201915b50505050508152602001600282015481526020016003820160009054906101000a900460ff161515151581526020016003820160019054906101000a900473ffffffffffffffffffffffffffffffffffffffff1673ffffffffffffffffffffffffffffffffffffffff1673ffffffffffffffffffffffffffffffffffffffff1681525050815260200190600101906118db565b50505050905090565b60606003805480602002602001604051908101604052809291908181526020016000905b82821015611e2f57838290600052602060002090600902016040518060e001604052908160008201548152602001600182018054600181600116156101000203166002900480601f016020809104026020016040519081016040528092919081815260200182805460018160011615610100020316600290048015611b275780601f10611afc57610100808354040283529160200191611b27565b820191906000526020600020905b815481529060010190602001808311611b0a57829003601f168201915b50505050508152602001600282018054600181600116156101000203166002900480601f016020809104026020016040519081016040528092919081815260200182805460018160011615610100020316600290048015611bc95780601f10611b9e57610100808354040283529160200191611bc9565b820191906000526020600020905b815481529060010190602001808311611bac57829003601f168201915b50505050508152602001600382018054600181600116156101000203166002900480601f016020809104026020016040519081016040528092919081815260200182805460018160011615610100020316600290048015611c6b5780601f10611c4057610100808354040283529160200191611c6b565b820191906000526020600020905b815481529060010190602001808311611c4e57829003601f168201915b505050505081526020016004820160009054906101000a900460ff161515151581526020016004820160019054906101000a900473ffffffffffffffffffffffffffffffffffffffff1673ffffffffffffffffffffffffffffffffffffffff1673ffffffffffffffffffffffffffffffffffffffff168152602001600582016040518060a001604052908160008201548152602001600182018054600181600116156101000203166002900480601f016020809104026020016040519081016040528092919081815260200182805460018160011615610100020316600290048015611d985780601f10611d6d57610100808354040283529160200191611d98565b820191906000526020600020905b815481529060010190602001808311611d7b57829003601f168201915b50505050508152602001600282015481526020016003820160009054906101000a900460ff161515151581526020016003820160019054906101000a900473ffffffffffffffffffffffffffffffffffffffff1673ffffffffffffffffffffffffffffffffffffffff1673ffffffffffffffffffffffffffffffffffffffff16815250508152505081526020019060010190611a61565b50505050905090565b60038181548110611e4557fe5b9060005260206000209060090201600091509050806000015490806001018054600181600116156101000203166002900480601f016020809104026020016040519081016040528092919081815260200182805460018160011615610100020316600290048015611ef75780601f10611ecc57610100808354040283529160200191611ef7565b820191906000526020600020905b815481529060010190602001808311611eda57829003601f168201915b505050505090806002018054600181600116156101000203166002900480601f016020809104026020016040519081016040528092919081815260200182805460018160011615610100020316600290048015611f955780601f10611f6a57610100808354040283529160200191611f95565b820191906000526020600020905b815481529060010190602001808311611f7857829003601f168201915b505050505090806003018054600181600116156101000203166002900480601f0160208091040260200160405190810160405280929190818152602001828054600181600116156101000203166002900480156120335780601f1061200857610100808354040283529160200191612033565b820191906000526020600020905b81548152906001019060200180831161201657829003601f168201915b5050505050908060040160009054906101000a900460ff16908060040160019054906101000a900473ffffffffffffffffffffffffffffffffffffffff1690806005016040518060a001604052908160008201548152602001600182018054600181600116156101000203166002900480601f0160208091040260200160405190810160405280929190818152602001828054600181600116156101000203166002900480156121245780601f106120f957610100808354040283529160200191612124565b820191906000526020600020905b81548152906001019060200180831161210757829003601f168201915b50505050508152602001600282015481526020016003820160009054906101000a900460ff161515151581526020016003820160019054906101000a900473ffffffffffffffffffffffffffffffffffffffff1673ffffffffffffffffffffffffffffffffffffffff1673ffffffffffffffffffffffffffffffffffffffff1681525050905087565b600460205281600052604060002081815481106121c657fe5b906000526020600020906009020160009150915050806000015490806001018054600181600116156101000203166002900480601f0160208091040260200160405190810160405280929190818152602001828054600181600116156101000203166002900480156122795780601f1061224e57610100808354040283529160200191612279565b820191906000526020600020905b81548152906001019060200180831161225c57829003601f168201915b505050505090806002018054600181600116156101000203166002900480601f0160208091040260200160405190810160405280929190818152602001828054600181600116156101000203166002900480156123175780601f106122ec57610100808354040283529160200191612317565b820191906000526020600020905b8154815290600101906020018083116122fa57829003601f168201915b505050505090806003018054600181600116156101000203166002900480601f0160208091040260200160405190810160405280929190818152602001828054600181600116156101000203166002900480156123b55780601f1061238a576101008083540402835291602001916123b5565b820191906000526020600020905b81548152906001019060200180831161239857829003601f168201915b5050505050908060040160009054906101000a900460ff16908060040160019054906101000a900473ffffffffffffffffffffffffffffffffffffffff1690806005016040518060a001604052908160008201548152602001600182018054600181600116156101000203166002900480601f0160208091040260200160405190810160405280929190818152602001828054600181600116156101000203166002900480156124a65780601f1061247b576101008083540402835291602001916124a6565b820191906000526020600020905b81548152906001019060200180831161248957829003601f168201915b50505050508152602001600282015481526020016003820160009054906101000a900460ff161515151581526020016003820160019054906101000a900473ffffffffffffffffffffffffffffffffffffffff1673ffffffffffffffffffffffffffffffffffffffff1673ffffffffffffffffffffffffffffffffffffffff1681525050905087565b612537612e96565b6003600184038154811061254757fe5b90600052602060002090600902016040518060e001604052908160008201548152602001600182018054600181600116156101000203166002900480601f0160208091040260200160405190810160405280929190818152602001828054600181600116156101000203166002900480156126035780601f106125d857610100808354040283529160200191612603565b820191906000526020600020905b8154815290600101906020018083116125e657829003601f168201915b50505050508152602001600282018054600181600116156101000203166002900480601f0160208091040260200160405190810160405280929190818152602001828054600181600116156101000203166002900480156126a55780601f1061267a576101008083540402835291602001916126a5565b820191906000526020600020905b81548152906001019060200180831161268857829003601f168201915b50505050508152602001600382018054600181600116156101000203166002900480601f0160208091040260200160405190810160405280929190818152602001828054600181600116156101000203166002900480156127475780601f1061271c57610100808354040283529160200191612747565b820191906000526020600020905b81548152906001019060200180831161272a57829003601f168201915b505050505081526020016004820160009054906101000a900460ff161515151581526020016004820160019054906101000a900473ffffffffffffffffffffffffffffffffffffffff1673ffffffffffffffffffffffffffffffffffffffff1673ffffffffffffffffffffffffffffffffffffffff168152602001600582016040518060a001604052908160008201548152602001600182018054600181600116156101000203166002900480601f0160208091040260200160405190810160405280929190818152602001828054600181600116156101000203166002900480156128745780601f1061284957610100808354040283529160200191612874565b820191906000526020600020905b81548152906001019060200180831161285757829003601f168201915b50505050508152602001600282015481526020016003820160009054906101000a900460ff161515151581526020016003820160019054906101000a900473ffffffffffffffffffffffffffffffffffffffff1673ffffffffffffffffffffffffffffffffffffffff1673ffffffffffffffffffffffffffffffffffffffff16815250508152505090508060a0015173ffffffffffffffffffffffffffffffffffffffff163373ffffffffffffffffffffffffffffffffffffffff167f2960695afa2609b7591ca0b79d5586f853e610ce0515852f7a5ced78fd32ade960405160405180910390a38060a0015173ffffffffffffffffffffffffffffffffffffffff163373ffffffffffffffffffffffffffffffffffffffff16146129ce576040517f08c379a00000000000000000000000000000000000000000000000000000000081526004016129c5906136e9565b60405180910390fd5b81816060018190525080600360018503815481106129e857fe5b9060005260206000209060090201600082015181600001556020820151816001019080519060200190612a1c929190612ef1565b506040820151816002019080519060200190612a39929190612ef1565b506060820151816003019080519060200190612a56929190612ef1565b5060808201518160040160006101000a81548160ff02191690831515021790555060a08201518160040160016101000a81548173ffffffffffffffffffffffffffffffffffffffff021916908373ffffffffffffffffffffffffffffffffffffffff16021790555060c082015181600501600082015181600001556020820151816001019080519060200190612aed929190612ef1565b506040820151816002015560608201518160030160006101000a81548160ff02191690831515021790555060808201518160030160016101000a81548173ffffffffffffffffffffffffffffffffffffffff021916908373ffffffffffffffffffffffffffffffffffffffff1602179055505050905050505050565b60025481565b60018181548110612b7c57fe5b9060005260206000209060040201600091509050806000015490806001018054600181600116156101000203166002900480601f016020809104026020016040519081016040528092919081815260200182805460018160011615610100020316600290048015612c2e5780601f10612c0357610100808354040283529160200191612c2e565b820191906000526020600020905b815481529060010190602001808311612c1157829003601f168201915b5050505050908060020154908060030160009054906101000a900460ff16908060030160019054906101000a900473ffffffffffffffffffffffffffffffffffffffff16905085565b60008060008154809291906001019190505550612c92612e4f565b60005481600001818152505083816020018190525082816040018181525050600081606001901515908115158152505033816080019073ffffffffffffffffffffffffffffffffffffffff16908173ffffffffffffffffffffffffffffffffffffffff168152505060018190806001815401808255809150509060018203906000526020600020906004020160009091929091909150600082015181600001556020820151816001019080519060200190612d4e929190612ef1565b506040820151816002015560608201518160030160006101000a81548160ff02191690831515021790555060808201518160030160016101000a81548173ffffffffffffffffffffffffffffffffffffffff021916908373ffffffffffffffffffffffffffffffffffffffff160217905550505050806080015173ffffffffffffffffffffffffffffffffffffffff168160200151604051612df09190613673565b604051809103902082600001517fed68b4d9811f1cc9d71803185e81d102b0b8d82e68c4ff7dd93ad3ab1d41f87f84604001518560600151604051612e36929190613744565b60405180910390a4600191505092915050565b60005481565b6040518060a00160405280600081526020016060815260200160008152602001600015158152602001600073ffffffffffffffffffffffffffffffffffffffff1681525090565b6040518060e0016040528060008152602001606081526020016060815260200160608152602001600015158152602001600073ffffffffffffffffffffffffffffffffffffffff168152602001612eeb612f71565b81525090565b828054600181600116156101000203166002900490600052602060002090601f016020900481019282601f10612f3257805160ff1916838001178555612f60565b82800160010185558215612f60579182015b82811115612f5f578251825591602001919060010190612f44565b5b509050612f6d9190612fb8565b5090565b6040518060a00160405280600081526020016060815260200160008152602001600015158152602001600073ffffffffffffffffffffffffffffffffffffffff1681525090565b612fda91905b80821115612fd6576000816000905550600101612fbe565b5090565b90565b600081359050612fec816139f0565b92915050565b600082601f83011261300357600080fd5b81356130166130118261387f565b613852565b9150808252602083016020830185838301111561303257600080fd5b61303d83828461399d565b50505092915050565b60008135905061305581613a07565b92915050565b6000806000806080858703121561307157600080fd5b600085013567ffffffffffffffff81111561308b57600080fd5b61309787828801612ff2565b945050602085013567ffffffffffffffff8111156130b457600080fd5b6130c087828801612ff2565b93505060406130d187828801613046565b92505060606130e287828801612fdd565b91505092959194509250565b6000806040838503121561310157600080fd5b600083013567ffffffffffffffff81111561311b57600080fd5b61312785828601612ff2565b925050602061313885828601613046565b9150509250929050565b60006020828403121561315457600080fd5b600061316284828501613046565b91505092915050565b6000806040838503121561317e57600080fd5b600061318c85828601613046565b925050602083013567ffffffffffffffff8111156131a957600080fd5b6131b585828601612ff2565b9150509250929050565b600080604083850312156131d257600080fd5b60006131e085828601613046565b92505060206131f185828601613046565b9150509250929050565b600061320783836134b8565b905092915050565b600061321b83836135a4565b905092915050565b61322c81613955565b82525050565b61323b81613955565b82525050565b600061324c826138cb565b6132568185613906565b935083602082028501613268856138ab565b8060005b858110156132a4578484038952815161328585826131fb565b9450613290836138ec565b925060208a0199505060018101905061326c565b50829750879550505050505092915050565b60006132c1826138d6565b6132cb8185613917565b9350836020820285016132dd856138bb565b8060005b8581101561331957848403895281516132fa858261320f565b9450613305836138f9565b925060208a019950506001810190506132e1565b50829750879550505050505092915050565b61333481613967565b82525050565b61334381613967565b82525050565b6000613354826138e1565b61335e8185613928565b935061336e8185602086016139ac565b613377816139df565b840191505092915050565b600061338d826138e1565b6133978185613939565b93506133a78185602086016139ac565b6133b0816139df565b840191505092915050565b60006133c6826138e1565b6133d0818561394a565b93506133e08185602086016139ac565b80840191505092915050565b60006133f9602b83613939565b91507f546869732066756e6374696f6e206973207265737472696374656420746f207460008301527f6865207369676e61746f720000000000000000000000000000000000000000006020830152604082019050919050565b600061345f603083613939565b91507f546869732066756e6374696f6e206973207265737472696374656420746f207460008301527f68652061737365742063726561746f72000000000000000000000000000000006020830152604082019050919050565b600060a0830160008301516134d06000860182613655565b50602083015184820360208601526134e88282613349565b91505060408301516134fd6040860182613655565b506060830151613510606086018261332b565b5060808301516135236080860182613223565b508091505092915050565b600060a0830160008301516135466000860182613655565b506020830151848203602086015261355e8282613349565b91505060408301516135736040860182613655565b506060830151613586606086018261332b565b5060808301516135996080860182613223565b508091505092915050565b600060e0830160008301516135bc6000860182613655565b50602083015184820360208601526135d48282613349565b915050604083015184820360408601526135ee8282613349565b915050606083015184820360608601526136088282613349565b915050608083015161361d608086018261332b565b5060a083015161363060a0860182613223565b5060c083015184820360c086015261364882826134b8565b9150508091505092915050565b61365e81613993565b82525050565b61366d81613993565b82525050565b600061367f82846133bb565b915081905092915050565b600060208201905081810360008301526136a48184613241565b905092915050565b600060208201905081810360008301526136c681846132b6565b905092915050565b60006020820190506136e3600083018461333a565b92915050565b60006020820190508181036000830152613702816133ec565b9050919050565b6000602082019050818103600083015261372281613452565b9050919050565b600060208201905061373e6000830184613664565b92915050565b60006040820190506137596000830185613664565b613766602083018461333a565b9392505050565b600060e082019050613782600083018a613664565b81810360208301526137948189613382565b905081810360408301526137a88188613382565b905081810360608301526137bc8187613382565b90506137cb608083018661333a565b6137d860a0830185613232565b81810360c08301526137ea818461352e565b905098975050505050505050565b600060a08201905061380d6000830188613664565b818103602083015261381f8187613382565b905061382e6040830186613664565b61383b606083018561333a565b6138486080830184613232565b9695505050505050565b6000604051905081810181811067ffffffffffffffff8211171561387557600080fd5b8060405250919050565b600067ffffffffffffffff82111561389657600080fd5b601f19601f8301169050602081019050919050565b6000819050602082019050919050565b6000819050602082019050919050565b600081519050919050565b600081519050919050565b600081519050919050565b6000602082019050919050565b6000602082019050919050565b600082825260208201905092915050565b600082825260208201905092915050565b600082825260208201905092915050565b600082825260208201905092915050565b600081905092915050565b600061396082613973565b9050919050565b60008115159050919050565b600073ffffffffffffffffffffffffffffffffffffffff82169050919050565b6000819050919050565b82818337600083830152505050565b60005b838110156139ca5780820151818401526020810190506139af565b838111156139d9576000848401525b50505050565b6000601f19601f8301169050919050565b6139f981613955565b8114613a0457600080fd5b50565b613a1081613993565b8114613a1b57600080fd5b5056fea365627a7a72315820ab71389f221870571f6fdd3516e766905a93f793dce79eda9e45d485422c161a6c6578706572696d656e74616cf564736f6c634300051000404d616b652073757265206974206973207468652062657374207175616c697479206d757368726f6f6d206c656174686572",
  "source": "// SPDX-License-Identifier: GPL-3.0\npragma solidity >=0.4.25 <0.7.0;\npragma experimental ABIEncoderV2;\n\n//This is an asset contract.\ncontract Assets{\n    uint256 public assetCount = 0; //state variable to keep track of the number of assets.\n    Asset[] public assets; //allows to use id as key to find assets (basically search asset by id)\n    \n    // //mappping each asset (id) with an array of assets it is made up of\n    // mapping(uint256 => Task[]) public userAssetMap;\n\n    //constructor - executed once when a contract is created and it initialises contract state.\n    constructor() public { \n        createAsset(\"Berken Bag\", 1000);\n        createAsset(\"PS4\", 4500);\n        createAsset(\"Iphone 6\", 6500);\n        createAsset(\"Xbox 1\", 1500);\n        createAsset(\"Issey Miyake Top\", 19000);\n    }\n\n    //definition of a data type of Asset using structs\n    struct Asset {\n        //attributes of the struct\n        uint256 id;\n        string assetName; \n        uint256 quantity;\n        bool completed;\n        address creator;\n    }\n   \n    //creation of events\n    event AssetCreated(uint256 indexed id,string indexed _assetName, uint256 _quantity, bool completed,address indexed creator);\n    event CompletedAssetValueChanged(bool indexed newValue); \n\n    //create an asset\n    // function createAsset(string calldata _assetName, uint256 _quantity) external returns (bool){\n    function createAsset(string memory _assetName, uint256 _quantity) public returns (bool){\n        assetCount++;\n        Asset memory newAsset; //an empty temporary Asset object\n        // adding the function paramenter values to it then\n        newAsset.id = assetCount;\n        newAsset.assetName = _assetName;\n        newAsset.quantity = _quantity;\n        newAsset.completed = false;\n        newAsset.creator = msg.sender;\n        assets.push(newAsset); // Push the newAsset struct into the asset array\n        \n        //emit event to stack\n        emit AssetCreated(newAsset.id,newAsset.assetName,newAsset.quantity,newAsset.completed,newAsset.creator);\n        return true;\n    }\n\n    function getAssets() public view returns (Asset[] memory){\n        return assets;\n    }\n\n    // function getUserid(address _userAddress) public view returns (uint){\n    //     Asset\n    // }\n\n    // function getUserAssets(address _userAddress) public view returns (Asset[] memory){\n    //     Asset[] memory tempAsset;\n\n    //     for (uint i=0; i<assets.length; i++){\n    //         Asset memory newAsset; //an empty temporary Asset object\n    //         if(assets[i].creator == _userAddress ){\n    //             tempAsset.push(assets[i]);\n    //         }\n    //     }\n    //     return tempAsset;\n\n    // }\n\n    //change the toggle completed variable to the opposide of current value\n    // should only works if all tasks associated with the asset are completed (need to work on this!)\n    function toggleAssetCompleted(uint _id) public returns (bool){\n        Asset memory _asset = assets[_id-1];\n        _asset.completed = !_asset.completed;\n        assets[_id-1] = _asset;\n\n        emit CompletedAssetValueChanged(!_asset.completed);\n        //maybe use !!_asset.completed insted of true and false when trying to automatically complete and asset!!\n        return !_asset.completed;  // retruns the new value \n    }\n\n}\n\n//This is just a task contract.\n// Tasks which inherts from Assets (all functions and variables from Assets can be accessed int Tasks)\ncontract Tasks is Assets{ //make assets the parent contract\n\n    //state variable to keep track of the number of assets.\n    uint256 public taskCount = 0;\n    \n    //allows to use id as key to find tasks (basically search task by id)\n    Task[] public tasks;\n\n    // mapping(uint256 => Asset) public taskAssetMap;\n\n    //mappping each asset (id) with an array of Tasks it is made up of\n    mapping(uint256 => Task[]) public assetTaskMap;\n\n    //constructor - executed once when a contract is created and it initialises contract state.\n    constructor() public {\n        createTask( \"Source Leather\",\"Make sure it is the best quality mushroom leather\",1,0x5E7b2Bbb14B8a9097A26A93982624067A1dB11dE);\n        createTask( \"Transport to Factory\",\"Make to deliver before 2/03/2022\",1,0x5E7b2Bbb14B8a9097A26A93982624067A1dB11dE);\n        createTask( \"Assemble the plastic\",\"Make sure to use blue plastic!\",3,0x5B38Da6a701c568545dCfcB03FcB875f56beddC4);\n    }\n\n    //definition of a data type of Task using structs\n    struct Task {\n        //attributes of the struct\n        uint256 id;\n        string content;\n        string creator_note; //the task creators message \n        string intermediary_note; // the signators message (e.g message on why things are behind schedule)\n        bool completed;\n        address signator;\n        Asset asset; //an Asset object/struct what is associated with the task\n    }\n\n    event Sender(address indexed who, address indexed signator );\n    event TaskCreated(uint indexed id,address indexed who, string indexed content);\n    event CompletedTaskValueChanged(bool indexed newValue);\n    //create a task\n    function createTask(string memory _taskContent,string memory _note, uint256 _assetId, address _signator) public returns (bool){        \n        \n        //get asset assoicated with current task and make sure \n        //the function is being called by the asset creator\n        Asset memory currAsset;  //create empty temporary Asset\n        currAsset = assets[_assetId-1]; //get the associated asset value to store temporary asset\n        require(msg.sender == currAsset.creator, \"This function is restricted to the asset creator\"); \n\n        taskCount++;\n        //create an empty temporary Task object adding the function paramenter values to it then\n        //it is pushed into the the array of assets\n        Task memory newTask; \n        newTask.id = taskCount;\n        newTask.content = _taskContent;\n        newTask.creator_note = _note;\n        newTask.intermediary_note = '';\n        newTask.completed = false;\n        newTask.signator = _signator;\n        newTask.asset = assets[_assetId-1];\n        tasks.push(newTask); // Push the newTask struct into the task array\n\n        // map newly created task to its associated assed based on the \"_assedID\"\n        assetTaskMap[_assetId-1].push(newTask); // each assetid maps to a task[]\n\n        emit TaskCreated(newTask.id,newTask.signator,newTask.content);\n        return true;\n    }\n\n    //get all tasks \n    function getAllTasks() public view returns (Task[] memory){\n        return tasks;\n    }\n\n    //get all tasks associated with a certain asset (by using assetID)\n   function getAssetTasks( uint256 _assetID) public view returns (Task[] memory){\n        Task[] memory _tasks = assetTaskMap[_assetID-1];\n        return _tasks;\n    }\n\n    // add a message for a task being perfromed (signators message)\n    function addDescription(uint _id,string memory _note ) public{\n        Task memory _task = tasks[_id-1];\n        emit Sender(msg.sender,_task.signator);\n        require(msg.sender == _task.signator, \"This function is restricted to the signator\");\n        _task.intermediary_note = _note;\n        tasks[_id-1] = _task;\n    }\n\n    //change the toggle completed variable to the opposide of current value\n    function toggleTaskCompleted(uint _id) public returns (bool){\n        Task memory _task = tasks[_id-1];\n        // require(msg.sender == _task.signator, \"This function is restricted to the signator\");\n        _task.completed = !_task.completed;\n        tasks[_id-1] = _task;\n\n\n        //find the index of the task in the assetTaskMap\n        Task[] memory _allTasks = getAssetTasks(_task.asset.id);\n        uint8 index = 0;\n        for (index; index < _allTasks.length-1; index++) {\n            if (_allTasks[index].id == _id) {\n                index = index;\n                break;\n            } \n        }\n        //make these changes in the asset task map\n        // assetTaskMap[_task.asset.id-1][0] = _task;\n        assetTaskMap[_task.asset.id-1][index] = _task;\n\n      \n        // Task[] memory _allTasks = getAssetTasks(_task.asset.id);\n        \n        \n\n        emit CompletedTaskValueChanged(!_task.completed);\n        return !_task.completed;  // retruns the new value \n    }\n}\n\n// //when a contract inherits from these two only 1 contract is created on the blockchain which is this one\n// contract Unbolt is Tasks{  //inheritance\n\n// }\n\n\n// task1 = await unbolt.tasks(0)\n// task2 = await unbolt.tasks(1)\n// unbolt.toggleTaskCompleted(1)\n// unbolt.toggleTaskCompleted(2)\n\n// createTask( \"ass name1\",\"asset content\",3,0x5B38Da6a701c568545dCfcB03FcB875f56beddC4);\n// createTask( \"task of this\",\"task noted from creator\",3,0x5B38Da6a701c568545dCfcB03FcB875f56beddC4);\n",
  "sourcePath": "/Users/tobiadewunmi/Desktop/unbolt/src/truffle/contracts/UnBolt.sol",
  "compiler": {
    "name": "solc",
    "version": "0.5.16+commit.9c3226ce.Emscripten.clang"
  },
  "schemaVersion": "3.4.6",
  "updatedAt": "2022-05-05T07:24:40.364Z",
  "networkType": "ethereum",
  "devdoc": {
    "methods": {}
  },
  "userdoc": {
    "methods": {}
  }
}