{
  "contractName": "Tasks",
  "abi": [
    {
      "inputs": [],
      "payable": false,
      "stateMutability": "nonpayable",
      "type": "constructor"
    },
    {
      "constant": true,
      "inputs": [],
      "name": "taskCount",
      "outputs": [
        {
          "internalType": "uint256",
          "name": "",
          "type": "uint256"
        }
      ],
      "payable": false,
      "stateMutability": "view",
      "type": "function"
    },
    {
      "constant": true,
      "inputs": [
        {
          "internalType": "uint256",
          "name": "",
          "type": "uint256"
        }
      ],
      "name": "tasks",
      "outputs": [
        {
          "internalType": "uint256",
          "name": "id",
          "type": "uint256"
        },
        {
          "internalType": "string",
          "name": "content",
          "type": "string"
        },
        {
          "internalType": "uint256",
          "name": "assetId",
          "type": "uint256"
        },
        {
          "internalType": "bool",
          "name": "completed",
          "type": "bool"
        },
        {
          "internalType": "address",
          "name": "signator",
          "type": "address"
        }
      ],
      "payable": false,
      "stateMutability": "view",
      "type": "function"
    },
    {
      "constant": false,
      "inputs": [
        {
          "internalType": "string",
          "name": "_taskcontent",
          "type": "string"
        },
        {
          "internalType": "uint256",
          "name": "assetId",
          "type": "uint256"
        },
        {
          "internalType": "address",
          "name": "signator",
          "type": "address"
        }
      ],
      "name": "createTask",
      "outputs": [],
      "payable": false,
      "stateMutability": "nonpayable",
      "type": "function"
    },
    {
      "constant": false,
      "inputs": [
        {
          "internalType": "uint256",
          "name": "_id",
          "type": "uint256"
        }
      ],
      "name": "toggleCompleted",
      "outputs": [],
      "payable": false,
      "stateMutability": "nonpayable",
      "type": "function"
    },
    {
      "constant": false,
      "inputs": [],
      "name": "setStart",
      "outputs": [],
      "payable": false,
      "stateMutability": "nonpayable",
      "type": "function"
    },
    {
      "constant": false,
      "inputs": [],
      "name": "setComplete",
      "outputs": [],
      "payable": false,
      "stateMutability": "nonpayable",
      "type": "function"
    },
    {
      "constant": false,
      "inputs": [],
      "name": "setCancelled",
      "outputs": [],
      "payable": false,
      "stateMutability": "nonpayable",
      "type": "function"
    },
    {
      "constant": true,
      "inputs": [],
      "name": "get_choice",
      "outputs": [
        {
          "internalType": "enum Tasks.States",
          "name": "",
          "type": "uint8"
        }
      ],
      "payable": false,
      "stateMutability": "view",
      "type": "function"
    },
    {
      "constant": true,
      "inputs": [],
      "name": "getdefaultvalue",
      "outputs": [
        {
          "internalType": "enum Tasks.States",
          "name": "",
          "type": "uint8"
        }
      ],
      "payable": false,
      "stateMutability": "pure",
      "type": "function"
    }
  ],
  "bytecode": "0x60806040526000805534801561001457600080fd5b506100706040518060400160405280600e81526020017f536f75726365204c6561746865720000000000000000000000000000000000008152506001735e7b2bbb14b8a9097a26a93982624067a1db11de6100d060201b60201c565b6100cb6040518060400160405280601481526020017f5472616e73706f727420746f20466163746f72790000000000000000000000008152506001735e7b2bbb14b8a9097a26a93982624067a1db11de6100d060201b60201c565b61027c565b60008081548092919060010191905055506040518060a0016040528060005481526020018481526020018381526020016000151581526020018273ffffffffffffffffffffffffffffffffffffffff16815250600160008054815260200190815260200160002060008201518160000155602082015181600101908051906020019061015d9291906101d7565b506040820151816002015560608201518160030160006101000a81548160ff02191690831515021790555060808201518160030160016101000a81548173ffffffffffffffffffffffffffffffffffffffff021916908373ffffffffffffffffffffffffffffffffffffffff160217905550905050505050565b828054600181600116156101000203166002900490600052602060002090601f016020900481019282601f1061021857805160ff1916838001178555610246565b82800160010185558215610246579182015b8281111561024557825182559160200191906001019061022a565b5b5090506102539190610257565b5090565b61027991905b8082111561027557600081600090555060010161025d565b5090565b90565b6109028061028b6000396000f3fe608060405234801561001057600080fd5b50600436106100935760003560e01c8063630f703511610066578063630f7035146101bf5780638d977672146101eb578063b6cb58a5146102de578063bd72e4fc146102fc578063ec8a3cff1461032857610093565b806304270817146100985780633055d7901461017d57806335975a3714610187578063455f502414610191575b600080fd5b61017b600480360360608110156100ae57600080fd5b81019080803590602001906401000000008111156100cb57600080fd5b8201836020820111156100dd57600080fd5b803590602001918460018302840111640100000000831117156100ff57600080fd5b91908080601f016020809104026020016040519081016040528093929190818152602001838380828437600081840152601f19601f82011690508083019250505050505050919291929080359060200190929190803573ffffffffffffffffffffffffffffffffffffffff169060200190929190505050610332565b005b610185610439565b005b61018f61045e565b005b6101bd600480360360208110156101a757600080fd5b8101908080359060200190929190505050610484565b005b6101c761069b565b604051808260038111156101d757fe5b60ff16815260200191505060405180910390f35b6102176004803603602081101561020157600080fd5b81019080803590602001909291905050506106b2565b6040518086815260200180602001858152602001841515151581526020018373ffffffffffffffffffffffffffffffffffffffff1673ffffffffffffffffffffffffffffffffffffffff168152602001828103825286818151815260200191508051906020019080838360005b8381101561029f578082015181840152602081019050610284565b50505050905090810190601f1680156102cc5780820380516001836020036101000a031916815260200191505b50965050505050505060405180910390f35b6102e66107ad565b6040518082815260200191505060405180910390f35b6103046107b3565b6040518082600381111561031457fe5b60ff16815260200191505060405180910390f35b6103306107bb565b005b60008081548092919060010191905055506040518060a0016040528060005481526020018481526020018381526020016000151581526020018273ffffffffffffffffffffffffffffffffffffffff1681525060016000805481526020019081526020016000206000820151816000015560208201518160010190805190602001906103bf9291906107e1565b506040820151816002015560608201518160030160006101000a81548160ff02191690831515021790555060808201518160030160016101000a81548173ffffffffffffffffffffffffffffffffffffffff021916908373ffffffffffffffffffffffffffffffffffffffff160217905550905050505050565b60028060006101000a81548160ff0219169083600381111561045757fe5b0217905550565b6001600260006101000a81548160ff0219169083600381111561047d57fe5b0217905550565b61048c610861565b600160008381526020019081526020016000206040518060a001604052908160008201548152602001600182018054600181600116156101000203166002900480601f01602080910402602001604051908101604052809291908181526020018280546001816001161561010002031660029004801561054d5780601f106105225761010080835404028352916020019161054d565b820191906000526020600020905b81548152906001019060200180831161053057829003601f168201915b50505050508152602001600282015481526020016003820160009054906101000a900460ff161515151581526020016003820160019054906101000a900473ffffffffffffffffffffffffffffffffffffffff1673ffffffffffffffffffffffffffffffffffffffff1673ffffffffffffffffffffffffffffffffffffffff1681525050905080606001511581606001901515908115158152505080600160008481526020019081526020016000206000820151816000015560208201518160010190805190602001906106229291906107e1565b506040820151816002015560608201518160030160006101000a81548160ff02191690831515021790555060808201518160030160016101000a81548173ffffffffffffffffffffffffffffffffffffffff021916908373ffffffffffffffffffffffffffffffffffffffff1602179055509050505050565b6000600260009054906101000a900460ff16905090565b6001602052806000526040600020600091509050806000015490806001018054600181600116156101000203166002900480601f0160208091040260200160405190810160405280929190818152602001828054600181600116156101000203166002900480156107645780601f1061073957610100808354040283529160200191610764565b820191906000526020600020905b81548152906001019060200180831161074757829003601f168201915b5050505050908060020154908060030160009054906101000a900460ff16908060030160019054906101000a900473ffffffffffffffffffffffffffffffffffffffff16905085565b60005481565b600080905090565b6003600260006101000a81548160ff021916908360038111156107da57fe5b0217905550565b828054600181600116156101000203166002900490600052602060002090601f016020900481019282601f1061082257805160ff1916838001178555610850565b82800160010185558215610850579182015b8281111561084f578251825591602001919060010190610834565b5b50905061085d91906108a8565b5090565b6040518060a00160405280600081526020016060815260200160008152602001600015158152602001600073ffffffffffffffffffffffffffffffffffffffff1681525090565b6108ca91905b808211156108c65760008160009055506001016108ae565b5090565b9056fea265627a7a723158208ac822a4270441f777a35e792107611686a14240cb3cc633ccf7ea103c744a6b64736f6c63430005100032",
  "source": "pragma solidity >=0.4.25 <0.7.0;\n\n// This is just a task contract.\ncontract Tasks {\n    // state variable to keep track of the number of tasks.\n    uint256 public taskCount = 0;\n\n    //allows to use id as key to find tasks (basically search task by id)\n    mapping(uint256 => Task) public tasks;\n\n    //constructor\n    //executed once when a contract is created and it initialises contract state.\n    constructor() public {\n        createTask( \"Source Leather\",1,0x5E7b2Bbb14B8a9097A26A93982624067A1dB11dE);\n        createTask( \"Transport to Factory\",1,0x5E7b2Bbb14B8a9097A26A93982624067A1dB11dE);\n    }\n\n    //https://www.tutorialspoint.com/solidity/solidity_enums.htm\n    //used this is learn the sturcutre of how to use enums and\n    //create functions for accessing their values\n    enum States {Pending, InProgress, Cancelled, Complete }\n    States choice;\n    States constant defaultChoice = States.Pending;\n\n    //definition of a data type of Task using structs\n    struct Task {\n        //attributes of the struct\n        uint256 id;\n        string content;\n        uint256 assetId;\n        bool completed;\n        address signator;\n    }\n\n    //create a task\n    function createTask(string memory _taskcontent, uint256 assetId, address signator) public {\n        taskCount++;\n        tasks[taskCount] = Task(taskCount, _taskcontent, assetId, false, signator);\n    }\n    function toggleCompleted(uint _id) public {\n        Task memory _task = tasks[_id];\n        _task.completed = !_task.completed;\n        tasks[_id] = _task;\n  }\n\n\n    // Defining a function to set value of inprogress to state enum\n    function setStart() public{\n        choice = States.InProgress;\n    }\n    // Defining a function to set value of complete to state enum\n    function setComplete() public{\n        choice = States.Complete;\n    }\n    // Defining a function to set value of cancelled to state enum\n    function setCancelled() public{\n        choice = States.Cancelled;\n    }\n    // Defining a function to return value of choice \n    function get_choice() public view returns (States) {\n      return choice;\n    }\n    // Defining function to return default value\n    function getdefaultvalue() public pure returns(States) {  \n        return defaultChoice;  \n    } \n\n}\n\n//To access in truffle console \n// truffle compile\n// truffle migrate --reset\n// truffle console\n\n// task = await Tasks.deployed()\n// taskOne = await task.tasks(1)\n// taskOne.id.toNumber()\n// taskOne.signator\n// taskOne.completed",
  "sourcePath": "/Users/tobiadewunmi/Desktop/unbolt/src/truffle/contracts/Tasks.sol",
  "compiler": {
    "name": "solc",
    "version": "0.5.16+commit.9c3226ce.Emscripten.clang"
  },
  "schemaVersion": "3.4.6",
  "updatedAt": "2022-04-06T14:13:27.276Z",
  "networkType": "ethereum",
  "devdoc": {
    "methods": {}
  },
  "userdoc": {
    "methods": {}
  }
}