{
  "contractName": "Tasks",
  "abi": [
    {
      "anonymous": false,
      "inputs": [
        {
          "indexed": true,
          "internalType": "uint256",
          "name": "id",
          "type": "uint256"
        },
        {
          "indexed": true,
          "internalType": "string",
          "name": "_assetName",
          "type": "string"
        },
        {
          "indexed": false,
          "internalType": "string",
          "name": "_description",
          "type": "string"
        },
        {
          "indexed": false,
          "internalType": "uint256",
          "name": "_quantity",
          "type": "uint256"
        },
        {
          "indexed": false,
          "internalType": "bool",
          "name": "completed",
          "type": "bool"
        },
        {
          "indexed": true,
          "internalType": "address",
          "name": "creator",
          "type": "address"
        }
      ],
      "name": "AssetCreated",
      "type": "event"
    },
    {
      "anonymous": false,
      "inputs": [
        {
          "indexed": true,
          "internalType": "bool",
          "name": "newValue",
          "type": "bool"
        }
      ],
      "name": "CancelledAsset",
      "type": "event"
    },
    {
      "anonymous": false,
      "inputs": [
        {
          "indexed": true,
          "internalType": "bool",
          "name": "newValue",
          "type": "bool"
        }
      ],
      "name": "CompletedAssetValueChanged",
      "type": "event"
    },
    {
      "anonymous": false,
      "inputs": [
        {
          "indexed": true,
          "internalType": "bool",
          "name": "newValue",
          "type": "bool"
        }
      ],
      "name": "CompletedTaskValueChanged",
      "type": "event"
    },
    {
      "anonymous": false,
      "inputs": [
        {
          "indexed": true,
          "internalType": "address",
          "name": "who",
          "type": "address"
        },
        {
          "indexed": true,
          "internalType": "address",
          "name": "signator",
          "type": "address"
        }
      ],
      "name": "Sender",
      "type": "event"
    },
    {
      "anonymous": false,
      "inputs": [
        {
          "indexed": true,
          "internalType": "uint256",
          "name": "id",
          "type": "uint256"
        },
        {
          "indexed": true,
          "internalType": "address",
          "name": "who",
          "type": "address"
        },
        {
          "indexed": true,
          "internalType": "string",
          "name": "content",
          "type": "string"
        }
      ],
      "name": "TaskCreated",
      "type": "event"
    },
    {
      "inputs": [],
      "name": "assetCount",
      "outputs": [
        {
          "internalType": "uint256",
          "name": "",
          "type": "uint256"
        }
      ],
      "stateMutability": "view",
      "type": "function"
    },
    {
      "inputs": [
        {
          "internalType": "uint256",
          "name": "",
          "type": "uint256"
        },
        {
          "internalType": "uint256",
          "name": "",
          "type": "uint256"
        }
      ],
      "name": "assetTaskMap",
      "outputs": [
        {
          "internalType": "uint256",
          "name": "id",
          "type": "uint256"
        },
        {
          "internalType": "string",
          "name": "content",
          "type": "string"
        },
        {
          "internalType": "string",
          "name": "creator_note",
          "type": "string"
        },
        {
          "internalType": "string",
          "name": "intermediary_note",
          "type": "string"
        },
        {
          "internalType": "uint256",
          "name": "creationTime",
          "type": "uint256"
        },
        {
          "internalType": "uint256",
          "name": "completionTime",
          "type": "uint256"
        },
        {
          "internalType": "bool",
          "name": "completed",
          "type": "bool"
        },
        {
          "internalType": "address",
          "name": "signator",
          "type": "address"
        },
        {
          "components": [
            {
              "internalType": "uint256",
              "name": "id",
              "type": "uint256"
            },
            {
              "internalType": "string",
              "name": "assetName",
              "type": "string"
            },
            {
              "internalType": "string",
              "name": "description",
              "type": "string"
            },
            {
              "internalType": "uint256",
              "name": "creationTime",
              "type": "uint256"
            },
            {
              "internalType": "uint256",
              "name": "completionTime",
              "type": "uint256"
            },
            {
              "internalType": "bool",
              "name": "cancelled",
              "type": "bool"
            },
            {
              "internalType": "uint256",
              "name": "quantity",
              "type": "uint256"
            },
            {
              "internalType": "bool",
              "name": "completed",
              "type": "bool"
            },
            {
              "internalType": "address",
              "name": "creator",
              "type": "address"
            }
          ],
          "internalType": "struct Assets.Asset",
          "name": "asset",
          "type": "tuple"
        }
      ],
      "stateMutability": "view",
      "type": "function"
    },
    {
      "inputs": [
        {
          "internalType": "uint256",
          "name": "",
          "type": "uint256"
        }
      ],
      "name": "assets",
      "outputs": [
        {
          "internalType": "uint256",
          "name": "id",
          "type": "uint256"
        },
        {
          "internalType": "string",
          "name": "assetName",
          "type": "string"
        },
        {
          "internalType": "string",
          "name": "description",
          "type": "string"
        },
        {
          "internalType": "uint256",
          "name": "creationTime",
          "type": "uint256"
        },
        {
          "internalType": "uint256",
          "name": "completionTime",
          "type": "uint256"
        },
        {
          "internalType": "bool",
          "name": "cancelled",
          "type": "bool"
        },
        {
          "internalType": "uint256",
          "name": "quantity",
          "type": "uint256"
        },
        {
          "internalType": "bool",
          "name": "completed",
          "type": "bool"
        },
        {
          "internalType": "address",
          "name": "creator",
          "type": "address"
        }
      ],
      "stateMutability": "view",
      "type": "function"
    },
    {
      "inputs": [
        {
          "internalType": "string",
          "name": "_assetName",
          "type": "string"
        },
        {
          "internalType": "string",
          "name": "_description",
          "type": "string"
        },
        {
          "internalType": "uint256",
          "name": "_quantity",
          "type": "uint256"
        }
      ],
      "name": "createAsset",
      "outputs": [
        {
          "internalType": "bool",
          "name": "",
          "type": "bool"
        }
      ],
      "stateMutability": "nonpayable",
      "type": "function"
    },
    {
      "inputs": [
        {
          "internalType": "string[5]",
          "name": "_assetNames",
          "type": "string[5]"
        },
        {
          "internalType": "string[5]",
          "name": "_description",
          "type": "string[5]"
        },
        {
          "internalType": "uint16[5]",
          "name": "_quantities",
          "type": "uint16[5]"
        }
      ],
      "name": "createAssets",
      "outputs": [
        {
          "internalType": "bool",
          "name": "",
          "type": "bool"
        }
      ],
      "stateMutability": "nonpayable",
      "type": "function"
    },
    {
      "inputs": [],
      "name": "getAssets",
      "outputs": [
        {
          "components": [
            {
              "internalType": "uint256",
              "name": "id",
              "type": "uint256"
            },
            {
              "internalType": "string",
              "name": "assetName",
              "type": "string"
            },
            {
              "internalType": "string",
              "name": "description",
              "type": "string"
            },
            {
              "internalType": "uint256",
              "name": "creationTime",
              "type": "uint256"
            },
            {
              "internalType": "uint256",
              "name": "completionTime",
              "type": "uint256"
            },
            {
              "internalType": "bool",
              "name": "cancelled",
              "type": "bool"
            },
            {
              "internalType": "uint256",
              "name": "quantity",
              "type": "uint256"
            },
            {
              "internalType": "bool",
              "name": "completed",
              "type": "bool"
            },
            {
              "internalType": "address",
              "name": "creator",
              "type": "address"
            }
          ],
          "internalType": "struct Assets.Asset[]",
          "name": "",
          "type": "tuple[]"
        }
      ],
      "stateMutability": "view",
      "type": "function"
    },
    {
      "inputs": [
        {
          "internalType": "address",
          "name": "_userAddress",
          "type": "address"
        }
      ],
      "name": "getUserAssets",
      "outputs": [
        {
          "components": [
            {
              "internalType": "uint256",
              "name": "id",
              "type": "uint256"
            },
            {
              "internalType": "string",
              "name": "assetName",
              "type": "string"
            },
            {
              "internalType": "string",
              "name": "description",
              "type": "string"
            },
            {
              "internalType": "uint256",
              "name": "creationTime",
              "type": "uint256"
            },
            {
              "internalType": "uint256",
              "name": "completionTime",
              "type": "uint256"
            },
            {
              "internalType": "bool",
              "name": "cancelled",
              "type": "bool"
            },
            {
              "internalType": "uint256",
              "name": "quantity",
              "type": "uint256"
            },
            {
              "internalType": "bool",
              "name": "completed",
              "type": "bool"
            },
            {
              "internalType": "address",
              "name": "creator",
              "type": "address"
            }
          ],
          "internalType": "struct Assets.Asset[]",
          "name": "",
          "type": "tuple[]"
        }
      ],
      "stateMutability": "view",
      "type": "function"
    },
    {
      "inputs": [],
      "name": "taskCount",
      "outputs": [
        {
          "internalType": "uint256",
          "name": "",
          "type": "uint256"
        }
      ],
      "stateMutability": "view",
      "type": "function"
    },
    {
      "inputs": [
        {
          "internalType": "uint256",
          "name": "",
          "type": "uint256"
        }
      ],
      "name": "tasks",
      "outputs": [
        {
          "internalType": "uint256",
          "name": "id",
          "type": "uint256"
        },
        {
          "internalType": "string",
          "name": "content",
          "type": "string"
        },
        {
          "internalType": "string",
          "name": "creator_note",
          "type": "string"
        },
        {
          "internalType": "string",
          "name": "intermediary_note",
          "type": "string"
        },
        {
          "internalType": "uint256",
          "name": "creationTime",
          "type": "uint256"
        },
        {
          "internalType": "uint256",
          "name": "completionTime",
          "type": "uint256"
        },
        {
          "internalType": "bool",
          "name": "completed",
          "type": "bool"
        },
        {
          "internalType": "address",
          "name": "signator",
          "type": "address"
        },
        {
          "components": [
            {
              "internalType": "uint256",
              "name": "id",
              "type": "uint256"
            },
            {
              "internalType": "string",
              "name": "assetName",
              "type": "string"
            },
            {
              "internalType": "string",
              "name": "description",
              "type": "string"
            },
            {
              "internalType": "uint256",
              "name": "creationTime",
              "type": "uint256"
            },
            {
              "internalType": "uint256",
              "name": "completionTime",
              "type": "uint256"
            },
            {
              "internalType": "bool",
              "name": "cancelled",
              "type": "bool"
            },
            {
              "internalType": "uint256",
              "name": "quantity",
              "type": "uint256"
            },
            {
              "internalType": "bool",
              "name": "completed",
              "type": "bool"
            },
            {
              "internalType": "address",
              "name": "creator",
              "type": "address"
            }
          ],
          "internalType": "struct Assets.Asset",
          "name": "asset",
          "type": "tuple"
        }
      ],
      "stateMutability": "view",
      "type": "function"
    },
    {
      "inputs": [
        {
          "internalType": "uint256",
          "name": "_id",
          "type": "uint256"
        }
      ],
      "name": "toggleAssetCompleted",
      "outputs": [
        {
          "internalType": "bool",
          "name": "newCompletionStatus",
          "type": "bool"
        }
      ],
      "stateMutability": "nonpayable",
      "type": "function"
    },
    {
      "inputs": [
        {
          "internalType": "uint256[]",
          "name": "_assetIds",
          "type": "uint256[]"
        }
      ],
      "name": "toggleAssetsCompleted",
      "outputs": [
        {
          "internalType": "bool",
          "name": "",
          "type": "bool"
        }
      ],
      "stateMutability": "nonpayable",
      "type": "function"
    },
    {
      "inputs": [
        {
          "internalType": "address",
          "name": "",
          "type": "address"
        },
        {
          "internalType": "uint256",
          "name": "",
          "type": "uint256"
        }
      ],
      "name": "userAssetMap",
      "outputs": [
        {
          "internalType": "uint256",
          "name": "id",
          "type": "uint256"
        },
        {
          "internalType": "string",
          "name": "assetName",
          "type": "string"
        },
        {
          "internalType": "string",
          "name": "description",
          "type": "string"
        },
        {
          "internalType": "uint256",
          "name": "creationTime",
          "type": "uint256"
        },
        {
          "internalType": "uint256",
          "name": "completionTime",
          "type": "uint256"
        },
        {
          "internalType": "bool",
          "name": "cancelled",
          "type": "bool"
        },
        {
          "internalType": "uint256",
          "name": "quantity",
          "type": "uint256"
        },
        {
          "internalType": "bool",
          "name": "completed",
          "type": "bool"
        },
        {
          "internalType": "address",
          "name": "creator",
          "type": "address"
        }
      ],
      "stateMutability": "view",
      "type": "function"
    },
    {
      "inputs": [
        {
          "internalType": "string[3]",
          "name": "_taskContents",
          "type": "string[3]"
        },
        {
          "internalType": "string[3]",
          "name": "_notes",
          "type": "string[3]"
        },
        {
          "internalType": "uint8[3]",
          "name": "_assetIds",
          "type": "uint8[3]"
        },
        {
          "internalType": "address[3]",
          "name": "_adresses",
          "type": "address[3]"
        }
      ],
      "name": "createTasks",
      "outputs": [
        {
          "internalType": "bool",
          "name": "",
          "type": "bool"
        }
      ],
      "stateMutability": "nonpayable",
      "type": "function"
    },
    {
      "inputs": [
        {
          "internalType": "string",
          "name": "_taskContent",
          "type": "string"
        },
        {
          "internalType": "string",
          "name": "_note",
          "type": "string"
        },
        {
          "internalType": "uint256",
          "name": "_assetId",
          "type": "uint256"
        },
        {
          "internalType": "address",
          "name": "_signator",
          "type": "address"
        }
      ],
      "name": "createTask",
      "outputs": [
        {
          "internalType": "bool",
          "name": "",
          "type": "bool"
        }
      ],
      "stateMutability": "nonpayable",
      "type": "function"
    },
    {
      "inputs": [
        {
          "internalType": "uint256",
          "name": "_assetID",
          "type": "uint256"
        }
      ],
      "name": "getAssetTasks",
      "outputs": [
        {
          "components": [
            {
              "internalType": "uint256",
              "name": "id",
              "type": "uint256"
            },
            {
              "internalType": "string",
              "name": "content",
              "type": "string"
            },
            {
              "internalType": "string",
              "name": "creator_note",
              "type": "string"
            },
            {
              "internalType": "string",
              "name": "intermediary_note",
              "type": "string"
            },
            {
              "internalType": "uint256",
              "name": "creationTime",
              "type": "uint256"
            },
            {
              "internalType": "uint256",
              "name": "completionTime",
              "type": "uint256"
            },
            {
              "internalType": "bool",
              "name": "completed",
              "type": "bool"
            },
            {
              "internalType": "address",
              "name": "signator",
              "type": "address"
            },
            {
              "components": [
                {
                  "internalType": "uint256",
                  "name": "id",
                  "type": "uint256"
                },
                {
                  "internalType": "string",
                  "name": "assetName",
                  "type": "string"
                },
                {
                  "internalType": "string",
                  "name": "description",
                  "type": "string"
                },
                {
                  "internalType": "uint256",
                  "name": "creationTime",
                  "type": "uint256"
                },
                {
                  "internalType": "uint256",
                  "name": "completionTime",
                  "type": "uint256"
                },
                {
                  "internalType": "bool",
                  "name": "cancelled",
                  "type": "bool"
                },
                {
                  "internalType": "uint256",
                  "name": "quantity",
                  "type": "uint256"
                },
                {
                  "internalType": "bool",
                  "name": "completed",
                  "type": "bool"
                },
                {
                  "internalType": "address",
                  "name": "creator",
                  "type": "address"
                }
              ],
              "internalType": "struct Assets.Asset",
              "name": "asset",
              "type": "tuple"
            }
          ],
          "internalType": "struct Tasks.Task[]",
          "name": "",
          "type": "tuple[]"
        }
      ],
      "stateMutability": "view",
      "type": "function"
    },
    {
      "inputs": [
        {
          "internalType": "uint256",
          "name": "_TaskId",
          "type": "uint256"
        },
        {
          "internalType": "string",
          "name": "_note",
          "type": "string"
        }
      ],
      "name": "addDescription",
      "outputs": [
        {
          "internalType": "bool",
          "name": "",
          "type": "bool"
        }
      ],
      "stateMutability": "nonpayable",
      "type": "function"
    },
    {
      "inputs": [
        {
          "internalType": "uint256",
          "name": "_id",
          "type": "uint256"
        }
      ],
      "name": "toggleTaskCompleted",
      "outputs": [
        {
          "internalType": "bool",
          "name": "",
          "type": "bool"
        }
      ],
      "stateMutability": "nonpayable",
      "type": "function"
    }
  ],
  "bytecode": "0x60806040526001600055600160035534801561001a57600080fd5b50613db68061002a6000396000f3fe608060405234801561001057600080fd5b506004361061011b5760003560e01c80637cd270fb116100b2578063b6cb58a511610081578063cf35bdd011610066578063cf35bdd01461027c578063eafe7a741461028f578063f2bdc0351461029857600080fd5b8063b6cb58a514610252578063c5c28d9a1461026957600080fd5b80637cd270fb146101f15780638d9776721461020457806390902da51461022c578063b51f79e31461023f57600080fd5b80636140dd60116100ee5780636140dd60146101a357806367e4ac2c146101b6578063765ff061146101cb5780637c6d3726146101de57600080fd5b80631a55cc48146101205780631c0034a6146101485780631f69a009146101705780634e1347a714610190575b600080fd5b61013361012e366004613409565b6102ab565b60405190151581526020015b60405180910390f35b61015b610156366004613487565b610a98565b60405161013f9998979695949392919061350d565b61018361017e36600461357b565b610c25565b60405161013f9190613634565b61013361019e36600461357b565b611040565b6101336101b136600461357b565b6114cf565b6101be611cac565b60405161013f919061373b565b6101be6101d936600461379d565b611e92565b6101336101ec366004613832565b61207f565b6101336101ff3660046138f7565b612100565b61021761021236600461357b565b61219b565b60405161013f9998979695949392919061399d565b61021761023a366004613a27565b612529565b61013361024d366004613a49565b61256f565b61025b60035481565b60405190815260200161013f565b610133610277366004613b44565b612dda565b61015b61028a36600461357b565b612e75565b61025b60005481565b6101336102a6366004613c18565b612eaa565b600061030960405180610120016040528060008152602001606081526020016060815260200160008152602001600081526020016000151581526020016000815260200160001515815260200160006001600160a01b031681525090565b60016103158186613c9b565b8154811061032557610325613cb2565b9060005260206000209060080201604051806101200160405290816000820154815260200160018201805461035990613cc8565b80601f016020809104026020016040519081016040528092919081815260200182805461038590613cc8565b80156103d25780601f106103a7576101008083540402835291602001916103d2565b820191906000526020600020905b8154815290600101906020018083116103b557829003601f168201915b505050505081526020016002820180546103eb90613cc8565b80601f016020809104026020016040519081016040528092919081815260200182805461041790613cc8565b80156104645780601f1061043957610100808354040283529160200191610464565b820191906000526020600020905b81548152906001019060200180831161044757829003601f168201915b50505091835250506003820154602082015260048201546040820152600582015460ff9081161515606083015260068301546080830152600790920154918216151560a08201526101009091046001600160a01b031660c09091015290506104ca6131a1565b600354815260208101879052604081018690524260808201526001600160a01b03841660e082015260016104fe8187613c9b565b8154811061050e5761050e613cb2565b9060005260206000209060080201604051806101200160405290816000820154815260200160018201805461054290613cc8565b80601f016020809104026020016040519081016040528092919081815260200182805461056e90613cc8565b80156105bb5780601f10610590576101008083540402835291602001916105bb565b820191906000526020600020905b81548152906001019060200180831161059e57829003601f168201915b505050505081526020016002820180546105d490613cc8565b80601f016020809104026020016040519081016040528092919081815260200182805461060090613cc8565b801561064d5780601f106106225761010080835404028352916020019161064d565b820191906000526020600020905b81548152906001019060200180831161063057829003601f168201915b505050918352505060038201546020808301919091526004808401546040840152600584015460ff9081161515606085015260068501546080850152600790940154938416151560a08401526001600160a01b03610100948590041660c0909301929092529184019290925281546001810183556000929092528251600f9092027f8a35acfbc15ff81a39ae7d344fd709f28e8600b4aa8c65c6b64bfe7fe36bd19b810192835583820151805185949361072b937f8a35acfbc15ff81a39ae7d344fd709f28e8600b4aa8c65c6b64bfe7fe36bd19c01920190613251565b5060408201518051610747916002840191602090910190613251565b5060608201518051610763916003840191602090910190613251565b506080820151600482015560a0820151600582015560c082015160068201805460e08501516001600160a81b0319909116921515610100600160a81b031916929092176101006001600160a01b03909316830217905582015180516007830190815560208083015180516107dd9260088701920190613251565b50604082015180516107f9916002840191602090910190613251565b50606082015160038201556080820151600482015560a08201516005808301805460ff19169215159290921790915560c0830151600683015560e083015160079092018054610100948501516001600160a81b0319909116931515610100600160a81b031916939093176001600160a01b0390931690930291909117909155915060009050610889600188613c9b565b81526020808201929092526040016000908120805460018181018355918352918390208451600f9093020191825583830151805185946108cd938501920190613251565b50604082015180516108e9916002840191602090910190613251565b5060608201518051610905916003840191602090910190613251565b506080820151600482015560a0820151600582015560c082015160068201805460e08501516001600160a81b0319909116921515610100600160a81b031916929092176101006001600160a01b039093168302179055820151805160078301908155602080830151805161097f9260088701920190613251565b506040820151805161099b916002840191602090910190613251565b5060608201516003828101919091556080830151600483015560a083015160058301805460ff191691151591909117905560c0830151600683015560e083015160079092018054610100948501516001600160a81b0319909116931515610100600160a81b031916939093176001600160a01b03909316909302919091179091558054925090506000610a2d83613d02565b91905055508060200151604051610a449190613d1b565b60405180910390208160e001516001600160a01b031682600001517f5b2493258cbc7169ad9389516998320ce25dc27637cea28ddd0d033af122bfa660405160405180910390a45060019695505050505050565b60026020528160005260406000208181548110610ab457600080fd5b906000526020600020906008020160009150915050806000015490806001018054610ade90613cc8565b80601f0160208091040260200160405190810160405280929190818152602001828054610b0a90613cc8565b8015610b575780601f10610b2c57610100808354040283529160200191610b57565b820191906000526020600020905b815481529060010190602001808311610b3a57829003601f168201915b505050505090806002018054610b6c90613cc8565b80601f0160208091040260200160405190810160405280929190818152602001828054610b9890613cc8565b8015610be55780601f10610bba57610100808354040283529160200191610be5565b820191906000526020600020905b815481529060010190602001808311610bc857829003601f168201915b50505060038401546004850154600586015460068701546007909701549596929591945060ff90811693508116906001600160a01b036101009091041689565b60606000600581610c37600186613c9b565b8152602001908152602001600020805480602002602001604051908101604052809291908181526020016000905b8282101561103457838290600052602060002090600f02016040518061012001604052908160008201548152602001600182018054610ca390613cc8565b80601f0160208091040260200160405190810160405280929190818152602001828054610ccf90613cc8565b8015610d1c5780601f10610cf157610100808354040283529160200191610d1c565b820191906000526020600020905b815481529060010190602001808311610cff57829003601f168201915b50505050508152602001600282018054610d3590613cc8565b80601f0160208091040260200160405190810160405280929190818152602001828054610d6190613cc8565b8015610dae5780601f10610d8357610100808354040283529160200191610dae565b820191906000526020600020905b815481529060010190602001808311610d9157829003601f168201915b50505050508152602001600382018054610dc790613cc8565b80601f0160208091040260200160405190810160405280929190818152602001828054610df390613cc8565b8015610e405780601f10610e1557610100808354040283529160200191610e40565b820191906000526020600020905b815481529060010190602001808311610e2357829003601f168201915b505050918352505060048201546020808301919091526005830154604080840191909152600684015460ff81161515606085015261010090046001600160a01b0316608084015280516101208101909152600784018054825260088501805460a0909501949293919291840191610eb690613cc8565b80601f0160208091040260200160405190810160405280929190818152602001828054610ee290613cc8565b8015610f2f5780601f10610f0457610100808354040283529160200191610f2f565b820191906000526020600020905b815481529060010190602001808311610f1257829003601f168201915b50505050508152602001600282018054610f4890613cc8565b80601f0160208091040260200160405190810160405280929190818152602001828054610f7490613cc8565b8015610fc15780601f10610f9657610100808354040283529160200191610fc1565b820191906000526020600020905b815481529060010190602001808311610fa457829003601f168201915b5050509183525050600382015460208083019190915260048301546040830152600583015460ff9081161515606084015260068401546080840152600790930154928316151560a08301526101009092046001600160a01b031660c0909101529152918352506001929092019101610c65565b50929695505050505050565b60015460009082111561109a5760405162461bcd60e51b815260206004820152600e60248201527f4964206e6f74206372656174656400000000000000000000000000000000000060448201526064015b60405180910390fd5b600060016110a88185613c9b565b815481106110b8576110b8613cb2565b906000526020600020906008020160405180610120016040529081600082015481526020016001820180546110ec90613cc8565b80601f016020809104026020016040519081016040528092919081815260200182805461111890613cc8565b80156111655780601f1061113a57610100808354040283529160200191611165565b820191906000526020600020905b81548152906001019060200180831161114857829003601f168201915b5050505050815260200160028201805461117e90613cc8565b80601f01602080910402602001604051908101604052809291908181526020018280546111aa90613cc8565b80156111f75780601f106111cc576101008083540402835291602001916111f7565b820191906000526020600020905b8154815290600101906020018083116111da57829003601f168201915b50505091835250506003820154602082015260048201546040820152600582015460ff9081161515606083015260068301546080830152600790920154918216151560a08201526101009091046001600160a01b031660c09091015260e08101805115908190529250905080600161126f8186613c9b565b8154811061127f5761127f613cb2565b90600052602060002090600802016000820151816000015560208201518160010190805190602001906112b3929190613251565b50604082015180516112cf916002840191602090910190613251565b50606082015160038201556080820151600482015560a082015160058201805460ff191691151591909117905560c0820151600682015560e082015160079091018054610100938401516001600160a81b0319909116921515610100600160a81b031916929092176001600160a01b03909216909202179055600061135333611e92565b905060005b600182516113669190613c9b565b8160ff1610156113aa5784828260ff168151811061138657611386613cb2565b60200260200101516000015103156113aa57806113a281613d37565b915050611358565b336000908152600260205260409020805484919060ff84169081106113d1576113d1613cb2565b9060005260206000209060080201600082015181600001556020820151816001019080519060200190611405929190613251565b5060408201518051611421916002840191602090910190613251565b50606082015160038201556080820151600482015560a082015160058201805460ff191691151591909117905560c0820151600682015560e082015160079091018054610100938401516001600160a81b0319909116921515610100600160a81b031916929092176001600160a01b03909216909202179055604051841515907ff22cbfb622d75dcf8b8a0f945daa607fe2e0c01b5938db80499d4daf538ac1e490600090a2505050919050565b60008060046114df600185613c9b565b815481106114ef576114ef613cb2565b90600052602060002090600f0201604051806101200160405290816000820154815260200160018201805461152390613cc8565b80601f016020809104026020016040519081016040528092919081815260200182805461154f90613cc8565b801561159c5780601f106115715761010080835404028352916020019161159c565b820191906000526020600020905b81548152906001019060200180831161157f57829003601f168201915b505050505081526020016002820180546115b590613cc8565b80601f01602080910402602001604051908101604052809291908181526020018280546115e190613cc8565b801561162e5780601f106116035761010080835404028352916020019161162e565b820191906000526020600020905b81548152906001019060200180831161161157829003601f168201915b5050505050815260200160038201805461164790613cc8565b80601f016020809104026020016040519081016040528092919081815260200182805461167390613cc8565b80156116c05780601f10611695576101008083540402835291602001916116c0565b820191906000526020600020905b8154815290600101906020018083116116a357829003601f168201915b505050918352505060048201546020808301919091526005830154604080840191909152600684015460ff81161515606085015261010090046001600160a01b0316608084015280516101208101909152600784018054825260088501805460a090950194929391929184019161173690613cc8565b80601f016020809104026020016040519081016040528092919081815260200182805461176290613cc8565b80156117af5780601f10611784576101008083540402835291602001916117af565b820191906000526020600020905b81548152906001019060200180831161179257829003601f168201915b505050505081526020016002820180546117c890613cc8565b80601f01602080910402602001604051908101604052809291908181526020018280546117f490613cc8565b80156118415780601f1061181657610100808354040283529160200191611841565b820191906000526020600020905b81548152906001019060200180831161182457829003601f168201915b5050509183525050600382015460208201526004808301546040830152600583015460ff9081161515606084015260068401546080840152600790930154928316151560a08301526101009092046001600160a01b031660c0918201529190925283018051159052919250829190506118bb600186613c9b565b815481106118cb576118cb613cb2565b90600052602060002090600f02016000820151816000015560208201518160010190805190602001906118ff929190613251565b506040820151805161191b916002840191602090910190613251565b5060608201518051611937916003840191602090910190613251565b506080820151600482015560a0820151600582015560c082015160068201805460e08501516001600160a81b0319909116921515610100600160a81b031916929092176101006001600160a01b03909316830217905582015180516007830190815560208083015180516119b19260088701920190613251565b50604082015180516119cd916002840191602090910190613251565b50606082015160038201556080820151600482015560a082015160058201805491151560ff1990921691909117905560c0820151600682015560e082015160079091018054610100938401516001600160a01b03168402610100600160a81b0319931515939093166001600160a81b0319909116179190911790558301515160009250611a5a9150610c25565b905060005b60018251611a6d9190613c9b565b8160ff161015611ab15784828260ff1681518110611a8d57611a8d613cb2565b6020026020010151600001510315611ab15780611aa981613d37565b915050611a5f565b8260056000600186610100015160000151611acc9190613c9b565b81526020019081526020016000208260ff1681548110611aee57611aee613cb2565b90600052602060002090600f0201600082015181600001556020820151816001019080519060200190611b22929190613251565b5060408201518051611b3e916002840191602090910190613251565b5060608201518051611b5a916003840191602090910190613251565b506080820151600482015560a0820151600582015560c082015160068201805460e08501516001600160a81b0319909116921515610100600160a81b031916929092176101006001600160a01b0390931683021790558201518051600783019081556020808301518051611bd49260088701920190613251565b5060408201518051611bf0916002840191602090910190613251565b50606082015160038201556080820151600482015560a082015160058201805460ff191691151591909117905560c080830151600683015560e083015160079092018054610100948501516001600160a81b0319909116931515610100600160a81b031916939093176001600160a01b0390931690930291909117909155850151604051901592507fdc3b9f81fbc5ccc1135e0011003cd9da4e4edd29dc106ca34c8d3724b9eb4a3e9150600090a2505060c001511592915050565b60606001805480602002602001604051908101604052809291908181526020016000905b82821015611e8957838290600052602060002090600802016040518061012001604052908160008201548152602001600182018054611d0e90613cc8565b80601f0160208091040260200160405190810160405280929190818152602001828054611d3a90613cc8565b8015611d875780601f10611d5c57610100808354040283529160200191611d87565b820191906000526020600020905b815481529060010190602001808311611d6a57829003601f168201915b50505050508152602001600282018054611da090613cc8565b80601f0160208091040260200160405190810160405280929190818152602001828054611dcc90613cc8565b8015611e195780601f10611dee57610100808354040283529160200191611e19565b820191906000526020600020905b815481529060010190602001808311611dfc57829003601f168201915b5050509183525050600382015460208083019190915260048301546040830152600583015460ff9081161515606084015260068401546080840152600790930154928316151560a08301526101009092046001600160a01b031660c0909101529082526001929092019101611cd0565b50505050905090565b6001600160a01b03811660009081526002602090815260408083208054825181850281018501909352808352606094859484015b8282101561103457838290600052602060002090600802016040518061012001604052908160008201548152602001600182018054611f0490613cc8565b80601f0160208091040260200160405190810160405280929190818152602001828054611f3090613cc8565b8015611f7d5780601f10611f5257610100808354040283529160200191611f7d565b820191906000526020600020905b815481529060010190602001808311611f6057829003601f168201915b50505050508152602001600282018054611f9690613cc8565b80601f0160208091040260200160405190810160405280929190818152602001828054611fc290613cc8565b801561200f5780601f10611fe45761010080835404028352916020019161200f565b820191906000526020600020905b815481529060010190602001808311611ff257829003601f168201915b5050509183525050600382015460208083019190915260048301546040830152600583015460ff9081161515606084015260068401546080840152600790930154928316151560a08301526101009092046001600160a01b031660c0909101529082526001929092019101611ec6565b6000600560005b818160ff1610156120f4576120eb868260ff16600581106120a9576120a9613cb2565b6020020151868360ff16600581106120c3576120c3613cb2565b6020020151868460ff16600581106120dd576120dd613cb2565b602002015161ffff16612eaa565b50600101612086565b50600195945050505050565b8051600090600681106121555760405162461bcd60e51b815260206004820152601860248201527f546f6f206d616e79206173736574732073656c656374656400000000000000006044820152606401611091565b60005b818160ff16101561219157612188848260ff168151811061217b5761217b613cb2565b6020026020010151611040565b50600101612158565b5060019392505050565b600481815481106121ab57600080fd5b60009182526020909120600f909102018054600182018054919350906121d090613cc8565b80601f01602080910402602001604051908101604052809291908181526020018280546121fc90613cc8565b80156122495780601f1061221e57610100808354040283529160200191612249565b820191906000526020600020905b81548152906001019060200180831161222c57829003601f168201915b50505050509080600201805461225e90613cc8565b80601f016020809104026020016040519081016040528092919081815260200182805461228a90613cc8565b80156122d75780601f106122ac576101008083540402835291602001916122d7565b820191906000526020600020905b8154815290600101906020018083116122ba57829003601f168201915b5050505050908060030180546122ec90613cc8565b80601f016020809104026020016040519081016040528092919081815260200182805461231890613cc8565b80156123655780601f1061233a57610100808354040283529160200191612365565b820191906000526020600020905b81548152906001019060200180831161234857829003601f168201915b5050505060048301546005840154600685015460408051610120810190915260078701805482526008880180549798959794965060ff8416956101009094046001600160a01b0316946020840191906123bd90613cc8565b80601f01602080910402602001604051908101604052809291908181526020018280546123e990613cc8565b80156124365780601f1061240b57610100808354040283529160200191612436565b820191906000526020600020905b81548152906001019060200180831161241957829003601f168201915b5050505050815260200160028201805461244f90613cc8565b80601f016020809104026020016040519081016040528092919081815260200182805461247b90613cc8565b80156124c85780601f1061249d576101008083540402835291602001916124c8565b820191906000526020600020905b8154815290600101906020018083116124ab57829003601f168201915b50505091835250506003820154602082015260048201546040820152600582015460ff9081161515606083015260068301546080830152600790920154918216151560a08201526101009091046001600160a01b031660c090910152905089565b6005602052816000526040600020818154811061254557600080fd5b90600052602060002090600f0201600091509150508060000154908060010180546121d090613cc8565b600080600461257f600186613c9b565b8154811061258f5761258f613cb2565b90600052602060002090600f020160405180610120016040529081600082015481526020016001820180546125c390613cc8565b80601f01602080910402602001604051908101604052809291908181526020018280546125ef90613cc8565b801561263c5780601f106126115761010080835404028352916020019161263c565b820191906000526020600020905b81548152906001019060200180831161261f57829003601f168201915b5050505050815260200160028201805461265590613cc8565b80601f016020809104026020016040519081016040528092919081815260200182805461268190613cc8565b80156126ce5780601f106126a3576101008083540402835291602001916126ce565b820191906000526020600020905b8154815290600101906020018083116126b157829003601f168201915b505050505081526020016003820180546126e790613cc8565b80601f016020809104026020016040519081016040528092919081815260200182805461271390613cc8565b80156127605780601f1061273557610100808354040283529160200191612760565b820191906000526020600020905b81548152906001019060200180831161274357829003601f168201915b505050918352505060048201546020808301919091526005830154604080840191909152600684015460ff81161515606085015261010090046001600160a01b0316608084015280516101208101909152600784018054825260088501805460a09095019492939192918401916127d690613cc8565b80601f016020809104026020016040519081016040528092919081815260200182805461280290613cc8565b801561284f5780601f106128245761010080835404028352916020019161284f565b820191906000526020600020905b81548152906001019060200180831161283257829003601f168201915b5050505050815260200160028201805461286890613cc8565b80601f016020809104026020016040519081016040528092919081815260200182805461289490613cc8565b80156128e15780601f106128b6576101008083540402835291602001916128e1565b820191906000526020600020905b8154815290600101906020018083116128c457829003601f168201915b5050509183525050600382015460208201526004820154604080830191909152600583015460ff9081161515606084015260068401546080840152600790930154928316151560a08301526001600160a01b03610100909304831660c0909201919091529190925260e0840151905193945016913391507f2960695afa2609b7591ca0b79d5586f853e610ce0515852f7a5ced78fd32ade990600090a38060e001516001600160a01b0316336001600160a01b031614612a095760405162461bcd60e51b815260206004820152602b60248201527f546869732066756e6374696f6e206973207265737472696374656420746f207460448201527f6865207369676e61746f720000000000000000000000000000000000000000006064820152608401611091565b60608101839052806004612a1e600187613c9b565b81548110612a2e57612a2e613cb2565b90600052602060002090600f0201600082015181600001556020820151816001019080519060200190612a62929190613251565b5060408201518051612a7e916002840191602090910190613251565b5060608201518051612a9a916003840191602090910190613251565b506080820151600482015560a0820151600582015560c082015160068201805460e08501516001600160a81b0319909116921515610100600160a81b031916929092176101006001600160a01b0390931683021790558201518051600783019081556020808301518051612b149260088701920190613251565b5060408201518051612b30916002840191602090910190613251565b50606082015160038201556080820151600482015560a082015160058201805491151560ff1990921691909117905560c0820151600682015560e082015160079091018054610100938401516001600160a01b03168402610100600160a81b0319931515939093166001600160a81b0319909116179190911790558301515160009250612bbd9150610c25565b905060005b60018251612bd09190613c9b565b8160ff161015612c145785828260ff1681518110612bf057612bf0613cb2565b6020026020010151600001510315612c145780612c0c81613d37565b915050612bc2565b8260056000600186610100015160000151612c2f9190613c9b565b81526020019081526020016000208260ff1681548110612c5157612c51613cb2565b90600052602060002090600f0201600082015181600001556020820151816001019080519060200190612c85929190613251565b5060408201518051612ca1916002840191602090910190613251565b5060608201518051612cbd916003840191602090910190613251565b506080820151600482015560a0820151600582015560c082015160068201805460e08501516001600160a81b0319909116921515610100600160a81b031916929092176101006001600160a01b0390931683021790558201518051600783019081556020808301518051612d379260088701920190613251565b5060408201518051612d53916002840191602090910190613251565b50606082015160038201556080820151600482015560a082015160058201805460ff191691151591909117905560c0820151600682015560e082015160079091018054610100938401516001600160a81b0319909116921515610100600160a81b031916929092176001600160a01b03909216909202179055506001979650505050505050565b6000600360005b818160ff161015612e6857612e5f878260ff1660038110612e0457612e04613cb2565b6020020151878360ff1660038110612e1e57612e1e613cb2565b6020020151878460ff1660038110612e3857612e38613cb2565b602002015160ff16878560ff1660038110612e5557612e55613cb2565b60200201516102ab565b50600101612de1565b5060019695505050505050565b60018181548110612e8557600080fd5b60009182526020909120600890910201805460018201805491935090610ade90613cc8565b6000612f0860405180610120016040528060008152602001606081526020016060815260200160008152602001600081526020016000151581526020016000815260200160001515815260200160006001600160a01b031681525090565b60008054825260208083018781526040840187905242606085015260c08401869052336101008501526001805480820182559352835160089093027fb10e2d527612073b26eecdfd717e6a320cf44b4afac2b0732d9fcbe2b7fa0cf6810193845590518051859493612f9e937fb10e2d527612073b26eecdfd717e6a320cf44b4afac2b0732d9fcbe2b7fa0cf701920190613251565b5060408201518051612fba916002840191602090910190613251565b50606082015160038201556080820151600482015560a082015160058201805460ff191691151591909117905560c0820151600682015560e082015160079091018054610100938401516001600160a81b0319909116921515610100600160a81b031916929092176001600160a01b039092169092021790553360009081526002602090815260408220805460018181018355918452928290208451600890940201928355838201518051859493613076938501920190613251565b5060408201518051613092916002840191602090910190613251565b50606082015160038201556080820151600482015560a082015160058201805460ff191691151591909117905560c0820151600682015560e082015160079091018054610100938401516001600160a81b0319909116921515610100600160a81b031916929092176001600160a01b0390921690920217905560008054819061311a90613d02565b919050819055508061010001516001600160a01b031681602001516040516131429190613d1b565b604051809103902082600001517fc332eb430b0efd9f7423746a02f070eff066ac3b735eb56a3b502e5dd2039d4f84604001518560c001518660e0015160405161318e93929190613d56565b60405180910390a4506001949350505050565b60405180610120016040528060008152602001606081526020016060815260200160608152602001600081526020016000815260200160001515815260200160006001600160a01b0316815260200161324c60405180610120016040528060008152602001606081526020016060815260200160008152602001600081526020016000151581526020016000815260200160001515815260200160006001600160a01b031681525090565b905290565b82805461325d90613cc8565b90600052602060002090601f01602090048101928261327f57600085556132c5565b82601f1061329857805160ff19168380011785556132c5565b828001600101855582156132c5579182015b828111156132c55782518255916020019190600101906132aa565b506132d19291506132d5565b5090565b5b808211156132d157600081556001016132d6565b634e487b7160e01b600052604160045260246000fd5b60405160a0810167ffffffffffffffff81118282101715613323576133236132ea565b60405290565b6040516060810167ffffffffffffffff81118282101715613323576133236132ea565b604051601f8201601f1916810167ffffffffffffffff81118282101715613375576133756132ea565b604052919050565b600082601f83011261338e57600080fd5b813567ffffffffffffffff8111156133a8576133a86132ea565b6133bb601f8201601f191660200161334c565b8181528460208386010111156133d057600080fd5b816020850160208301376000918101602001919091529392505050565b80356001600160a01b038116811461340457600080fd5b919050565b6000806000806080858703121561341f57600080fd5b843567ffffffffffffffff8082111561343757600080fd5b6134438883890161337d565b9550602087013591508082111561345957600080fd5b506134668782880161337d565b9350506040850135915061347c606086016133ed565b905092959194509250565b6000806040838503121561349a57600080fd5b6134a3836133ed565b946020939093013593505050565b60005b838110156134cc5781810151838201526020016134b4565b838111156134db576000848401525b50505050565b600081518084526134f98160208601602086016134b1565b601f01601f19169290920160200192915050565b60006101208b83528060208401526135278184018c6134e1565b9050828103604084015261353b818b6134e1565b60608401999099525050608081019590955292151560a085015260c0840191909152151560e08301526001600160a01b0316610100909101529392505050565b60006020828403121561358d57600080fd5b5035919050565b60006101208251845260208301518160208601526135b4828601826134e1565b915050604083015184820360408601526135ce82826134e1565b915050606083015160608501526080830151608085015260a08301516135f860a086018215159052565b5060c083015160c085015260e083015161361660e086018215159052565b50610100928301516001600160a01b03169390920192909252919050565b60006020808301818452808551808352604092508286019150828160051b87010184880160005b8381101561372d57603f1989840301855281516101208151855288820151818a87015261368a828701826134e1565b91505087820151858203898701526136a282826134e1565b915050606080830151868303828801526136bc83826134e1565b92505050608080830151818701525060a080830151818701525060c0808301516136e98288018215159052565b505060e0828101516001600160a01b03169086015261010091820151858203928601929092526137198183613594565b96890196945050509086019060010161365b565b509098975050505050505050565b6000602080830181845280855180835260408601915060408160051b870101925083870160005b8281101561379057603f1988860301845261377e858351613594565b94509285019290850190600101613762565b5092979650505050505050565b6000602082840312156137af57600080fd5b6137b8826133ed565b9392505050565b600082601f8301126137d057600080fd5b6137d8613300565b8060a08401858111156137ea57600080fd5b845b8181101561382757803567ffffffffffffffff81111561380c5760008081fd5b6138188882890161337d565b855250602093840193016137ec565b509095945050505050565b600080600060e0848603121561384757600080fd5b833567ffffffffffffffff8082111561385f57600080fd5b61386b878388016137bf565b945060209150818601358181111561388257600080fd5b61388e888289016137bf565b9450505085605f8601126138a157600080fd5b6138a9613300565b8060e08701888111156138bb57600080fd5b604088015b818110156138e857803561ffff811681146138db5760008081fd5b84529284019284016138c0565b50508093505050509250925092565b6000602080838503121561390a57600080fd5b823567ffffffffffffffff8082111561392257600080fd5b818501915085601f83011261393657600080fd5b813581811115613948576139486132ea565b8060051b915061395984830161334c565b818152918301840191848101908884111561397357600080fd5b938501935b8385101561399157843582529385019390850190613978565b98975050505050505050565b60006101208b83528060208401526139b78184018c6134e1565b905082810360408401526139cb818b6134e1565b905082810360608401526139df818a6134e1565b90508760808401528660a084015285151560c08401526001600160a01b03851660e0840152828103610100840152613a178185613594565b9c9b505050505050505050505050565b60008060408385031215613a3a57600080fd5b50508035926020909101359150565b60008060408385031215613a5c57600080fd5b82359150602083013567ffffffffffffffff811115613a7a57600080fd5b613a868582860161337d565b9150509250929050565b600082601f830112613aa157600080fd5b613aa9613329565b806060840185811115613abb57600080fd5b845b8181101561382757803567ffffffffffffffff811115613add5760008081fd5b613ae98882890161337d565b85525060209384019301613abd565b600082601f830112613b0957600080fd5b613b11613329565b806060840185811115613b2357600080fd5b845b8181101561382757613b36816133ed565b845260209384019301613b25565b6000806000806101008587031215613b5b57600080fd5b843567ffffffffffffffff80821115613b7357600080fd5b613b7f88838901613a90565b9550602091508187013581811115613b9657600080fd5b613ba289828a01613a90565b9550505086605f870112613bb557600080fd5b613bbd613329565b8060a0880189811115613bcf57600080fd5b604089015b81811015613bfb57803560ff81168114613bee5760008081fd5b8452928401928401613bd4565b50819550613c098a82613af8565b94505050505092959194509250565b600080600060608486031215613c2d57600080fd5b833567ffffffffffffffff80821115613c4557600080fd5b613c518783880161337d565b94506020860135915080821115613c6757600080fd5b50613c748682870161337d565b925050604084013590509250925092565b634e487b7160e01b600052601160045260246000fd5b600082821015613cad57613cad613c85565b500390565b634e487b7160e01b600052603260045260246000fd5b600181811c90821680613cdc57607f821691505b602082108103613cfc57634e487b7160e01b600052602260045260246000fd5b50919050565b600060018201613d1457613d14613c85565b5060010190565b60008251613d2d8184602087016134b1565b9190910192915050565b600060ff821660ff8103613d4d57613d4d613c85565b60010192915050565b606081526000613d6960608301866134e1565b60208301949094525090151560409091015291905056fea2646970667358221220836936ca808dc93b11b2e65badeec992b1cd230f492b999e25f91010c22df7dc64736f6c634300080e0033",
  "immutableReferences": {},
  "source": "// SPDX-License-Identifier: GPL-3.0\npragma solidity >=0.8.7;\n// pragma experimental ABIEncoderV2;\n\n//This is an asset contract.\ncontract Assets{\n    uint256 public assetCount = 1; //state variable to keep track of the number of assets.\n    Asset[] public assets; //allows to use id as key to find assets (basically search asset by id)\n    \n    // //mappping each address  with an array of assets (assets each user has created)\n    mapping(address => Asset[]) public userAssetMap;\n\n\n    //definition of a data type of Asset using structs\n    struct Asset {\n        //attributes of the struct\n        uint256 id;\n        string assetName; \n        string description; \n        uint256 creationTime;\n        uint256 completionTime;\n        bool cancelled;\n        uint256 quantity;\n        bool completed;\n        address creator;\n    }\n   \n    //creation of events\n    event AssetCreated(uint256 indexed id,string indexed _assetName, string _description,uint256 _quantity, bool completed,address indexed creator);\n    event CompletedAssetValueChanged(bool indexed newValue); \n    event CancelledAsset(bool indexed newValue); \n\n    //create multiple assets at once. \n    //Used inn constructor but cann also be implemnted onn front end, \n    //this is one call and saves gas rather than using 5 seperate calls to create asset\n   function createAssets(string[5] memory _assetNames,string[5] memory _description ,uint16[5] memory _quantities) public returns (bool) {\n        uint256  assetLength = _assetNames.length;\n        require(assetLength == _quantities.length, \"Wrong client data\");\n        require(assetLength < 10, \"Wrong number of assets\");\n\n        for(uint8 i=0; i < assetLength;) {\n            \n        createAsset(_assetNames[i],_description[i], _quantities[i]);\n        unchecked {\n            // There is neve going where it underflows \n            // There is never going to be where it overflow \n            ++i;\n        }\n\n        }\n        return true;\n    }\n\n    //create an asset\n    function createAsset(string memory _assetName,string memory _description, uint256 _quantity) public returns (bool){\n        // Checks\n        // Effects \n        Asset memory newAsset; //an empty temporary Asset object\n        // adding the function paramenter values to it then\n        newAsset.id = assetCount;\n        newAsset.assetName = _assetName;\n        newAsset.description = _description;\n        newAsset.creationTime = block.timestamp; //store the unix timestamp of when this function was called\n        newAsset.quantity = _quantity;\n        // newAsset.completed = false; // using solidity language default value for primitives to my advantage\n        newAsset.creator = msg.sender;\n        assets.push(newAsset); // Push the newAsset struct into the asset array\n        userAssetMap[msg.sender].push(newAsset);  // Push the newAsset struct into the asset array related to an eth address\n        // Interaction\n        ++assetCount;\n\n        //emit event to stack\n        emit AssetCreated(\n            newAsset.id,\n            newAsset.assetName,\n            newAsset.description,\n            newAsset.quantity,\n            newAsset.completed,\n            newAsset.creator\n            );\n\n        return true;\n    }\n\n    function getAssets() public view returns (Asset[] memory){\n        return assets;\n    }\n\n    // try calling userAssetMap on it own in front end and see if each idnex is needed!!\n    function getUserAssets(address _userAddress) public view returns (Asset[] memory){\n        Asset[] memory tempAsset;\n        tempAsset = userAssetMap[_userAddress];\n\n        return tempAsset;\n    }\n\n\n    //toggle multiple assets at once. \n    //this is one call and saves gas rather toggling assets complete once at a time\n   function toggleAssetsCompleted(uint256[] memory _assetIds) public returns (bool) {\n        uint256  assetLength = _assetIds.length;\n        require(assetLength < 6, \"Too many assets selected\");\n\n        for(uint8 i=0; i < assetLength;) {\n            \n        toggleAssetCompleted(_assetIds[i]);\n        unchecked {\n            // There is neve going where it underflows \n            // There is never going to be where it overflow \n            ++i;\n        }\n\n        }\n        return true;\n    }\n\n    //change the toggle completed variable to the opposide of current value\n    // should only works if all tasks associated with the asset are completed (need to work on this!)\n    function toggleAssetCompleted(uint256 _id) public returns (bool newCompletionStatus){\n        require(assets.length >= _id, \"Id not created\");\n        Asset memory _asset = assets[ _id - 1];\n        newCompletionStatus = !_asset.completed;\n        _asset.completed = newCompletionStatus;\n        assets[_id - 1] = _asset;\n\n        // find the index of the asset in the userAssetMap\n        Asset[] memory _allAssets = getUserAssets(msg.sender);\n        uint8 index = 0;\n        for (index; index < _allAssets.length-1; index++) {\n            if (_allAssets[index].id == _id) {\n                index = index;\n                break;\n            } \n        }\n        //make these changes in the userAssetMap\n        userAssetMap[msg.sender][index] = _asset;\n        //toggle asset complete in the userAssetMap\n        emit CompletedAssetValueChanged(newCompletionStatus);\n    }\n\n\n//     //cancel multiple assets at once. \n//     //this is one call and saves gas rather cancelling assets one at a time\n//    function cancelAssets(uint256[] memory _assetIds) public returns (bool) {\n//         uint256  assetLength = _assetIds.length;\n//         require(assetLength < 6, \"Too many assets selected\");\n\n//         for(uint8 i=0; i < assetLength;) {\n            \n//         cancelAsset(_assetIds[i]);\n//         unchecked {\n//             // There is neve going where it underflows \n//             // There is never going to be where it overflow \n//             ++i;\n//         }\n\n//         }\n//         return true;\n//     }\n\n//     //change the cancelled variable to true\n//     function cancelAsset(uint256 _id) public returns (bool newCancelledStatus){\n//         require(assets.length >= _id, \"Id not created\");\n//         Asset memory _asset = assets[ _id - 1];\n//         newCancelledStatus = !_asset.cancelled;\n//         _asset.cancelled = newCancelledStatus;\n//         assets[_id - 1] = _asset;\n\n//         // find the index of the asset in the userAssetMap\n//         Asset[] memory _allAssets = getUserAssets(msg.sender);\n//         uint8 index = 0;\n//         for (index; index < _allAssets.length-1; index++) {\n//             if (_allAssets[index].id == _id) {\n//                 index = index;\n//                 break;\n//             } \n//         }\n//         //make these changes in the userAssetMap\n//         userAssetMap[msg.sender][index] = _asset;\n//         //cancel asset in the userAssetMap\n//         emit CancelledAsset(newCancelledStatus);\n//     }\n\n}\n\n//This is just a task contract.\n// Tasks which inherts from Assets (all functions and variables from Assets can be accessed int Tasks)\ncontract Tasks is Assets{ //make assets the parent contract\n\n    uint256 public taskCount = 1;//state variable to keep track of the number of assets.\n    Task[] public tasks;//allows to use id as key to find tasks (basically search task by id)\n\n    //mappping each asset (id) with an array of Tasks it is made up of\n    mapping(uint256 => Task[]) public assetTaskMap;\n\n    //constructor - executed once when a contract is created and it initialises contract state.\n    // constructor () payable {}\n\n    //definition of a data type of Task using structs\n    struct Task {\n        //attributes of the struct\n        uint256 id;\n        string content;\n        string creator_note; //the task creators message \n        string intermediary_note; // the signators message (e.g message on why things are behind schedule)\n        uint256 creationTime;\n        uint256 completionTime;\n        bool completed;\n        address signator;\n        Asset asset; //an Asset object/struct what is associated with the task\n    }\n\n    event Sender(address indexed who, address indexed signator );\n    event TaskCreated(uint indexed id,address indexed who, string indexed content);\n    event CompletedTaskValueChanged(bool indexed newValue);\n\n    //create multiple tasks at once. \n    //Used in constructor but cann also be implemnted onn front end, \n    //this is one call and saves gas rather than using 3 seperate calls to create tasks\n    function createTasks(string[3] memory _taskContents,string[3] memory _notes ,uint8[3] memory _assetIds, address[3] memory _adresses) public returns (bool) {\n        uint256  taskLength = _taskContents.length;\n        require(taskLength == _assetIds.length, \"Wrong client data\");\n        require(taskLength < 5, \"Wrong number of tasks\");\n\n        for(uint8 i=0; i < taskLength;) {\n            createTask(_taskContents[i],_notes[i], _assetIds[i], _adresses[i]);\n            unchecked {\n                // There is neve going where it underflows \n                // There is never going to be where it overflow \n                ++i;\n            }\n\n        }\n    return true;\n    }\n\n    //create a task\n    function createTask(string memory _taskContent,string memory _note, uint256 _assetId, address _signator) public returns (bool){        \n        \n        //get asset assoicated with current task and make sure \n        //the function is being called by the asset creator\n        Asset memory currAsset;  //create empty temporary Asset\n        currAsset = assets[_assetId-1]; //get the associated asset value to store temporary asset\n        // require(msg.sender == currAsset.creator, \"This function is restricted to the asset creator\"); \n\n        //create an empty temporary Task object adding the function paramenter values to it then\n        //it is pushed into the the array of assets\n        Task memory newTask; \n        newTask.id = taskCount;\n        newTask.content = _taskContent;\n        newTask.creator_note = _note;\n        // newTask.intermediary_note = '';\n        newTask.creationTime = block.timestamp;\n        // newTask.completed = false;\n        newTask.signator = _signator;\n        newTask.asset = assets[_assetId-1];\n        tasks.push(newTask); // Push the newTask struct into the task array\n        // map newly created task to its associated assed based on the \"_assedID\"\n        assetTaskMap[_assetId-1].push(newTask); // each assetid maps to a task[]\n        taskCount++;\n\n        emit TaskCreated(\n            newTask.id,\n            newTask.signator,\n            newTask.content\n            );\n        return true;\n    }\n\n\n    //get all tasks associated with a certain asset (by using assetID)\n   function getAssetTasks( uint256 _assetID) public view returns (Task[] memory){\n        Task[] memory _tasks = assetTaskMap[_assetID-1];\n        return _tasks;\n    }\n\n    // add a message for a task being perfromed (signators message)\n    function addDescription(uint _TaskId,string memory _note ) public returns (bool){\n        Task memory _task = tasks[_TaskId-1];\n        emit Sender(\n            msg.sender,\n            _task.signator\n            );\n        require(msg.sender == _task.signator, \"This function is restricted to the signator\");\n\n        _task.intermediary_note = _note;\n        tasks[_TaskId-1] = _task;\n\n        //make same change inn assetTaskMap\n        // find the index of the task in the assetTaskMap\n        Task[] memory _allTasks = getAssetTasks(_task.asset.id);\n        uint8 index = 0;\n        for (index; index < _allTasks.length-1; index++) {\n            if (_allTasks[index].id == _TaskId) {\n                index = index;\n                break;\n            } \n        }\n        //make these changes in the asset task map\n        assetTaskMap[_task.asset.id-1][index] = _task;\n\n\n        \n        return true;\n    }\n\n    //change the toggle completed variable to the opposide of current value\n    function toggleTaskCompleted(uint _id) public returns (bool){\n        Task memory _task = tasks[_id-1];\n        // require(msg.sender == _task.signator, \"This function is restricted to the signator\");\n        _task.completed = !_task.completed;\n        tasks[_id-1] = _task;\n\n\n        // find the index of the task in the assetTaskMap\n        Task[] memory _allTasks = getAssetTasks(_task.asset.id);\n        uint8 index = 0;\n        for (index; index < _allTasks.length-1; index++) {\n            if (_allTasks[index].id == _id) {\n                index = index;\n                break;\n            } \n        }\n        //make these changes in the asset task map\n        assetTaskMap[_task.asset.id-1][index] = _task;\n\n        emit CompletedTaskValueChanged(!_task.completed);\n        return !_task.completed;  // retruns the new value \n    }\n}\n\n//when a contract inherits from these two only 1 contract is created on the blockchain which is this one\ncontract Unbolt is Tasks{  //inheritance\n\n    constructor () payable { \n        createAssets(\n            [\"Berken Bag\", \"PS4\", \"Iphone 6\",\"Xbox 1\",\"Issey Miyake Top\"],\n            [\"Pink Bag\", \"Blue Ps4\", \"Pink Iphone\", \"500GB\", \"Home Plissee jacket\"],\n            [1000, 4500, 6500,1500,19000]\n        );\n\n        createTasks(\n            [\"Source Leather\", \"Transport to Factory\", \"Assemble the plastic\"],\n            [\"Make sure it is the best quality mushroom leather\", \"Make to deliver before 2/03/2022\", \"Make sure to use blue plastic!\"],\n            [1, 1, 3],\n            [0x5E7b2Bbb14B8a9097A26A93982624067A1dB11dE, 0x5E7b2Bbb14B8a9097A26A93982624067A1dB11dE,0x5B38Da6a701c568545dCfcB03FcB875f56beddC4]\n        );\n    }\n\n\n}\n\n",
  "sourcePath": "/Users/tobiadewunmi/Desktop/unbolt/src/truffle/contracts/UnBoltV2.sol",
  "compiler": {
    "name": "solc",
    "version": "0.8.14+commit.80d49f37.Emscripten.clang"
  },
  "schemaVersion": "3.4.6",
  "updatedAt": "2022-05-22T12:35:47.655Z",
  "devdoc": {
    "kind": "dev",
    "methods": {},
    "version": 1
  },
  "userdoc": {
    "kind": "user",
    "methods": {},
    "version": 1
  }
}