{
  "contractName": "Tasks",
  "abi": [
    {
      "inputs": [],
      "payable": false,
      "stateMutability": "nonpayable",
      "type": "constructor"
    },
    {
      "constant": true,
      "inputs": [],
      "name": "assetCount",
      "outputs": [
        {
          "internalType": "uint256",
          "name": "",
          "type": "uint256"
        }
      ],
      "payable": false,
      "stateMutability": "view",
      "type": "function"
    },
    {
      "constant": true,
      "inputs": [
        {
          "internalType": "uint256",
          "name": "",
          "type": "uint256"
        },
        {
          "internalType": "uint256",
          "name": "",
          "type": "uint256"
        }
      ],
      "name": "assetTaskMap",
      "outputs": [
        {
          "internalType": "uint256",
          "name": "id",
          "type": "uint256"
        },
        {
          "internalType": "string",
          "name": "content",
          "type": "string"
        },
        {
          "internalType": "string",
          "name": "creator_note",
          "type": "string"
        },
        {
          "internalType": "string",
          "name": "intermediary_note",
          "type": "string"
        },
        {
          "internalType": "bool",
          "name": "completed",
          "type": "bool"
        },
        {
          "internalType": "address",
          "name": "signator",
          "type": "address"
        },
        {
          "components": [
            {
              "internalType": "uint256",
              "name": "id",
              "type": "uint256"
            },
            {
              "internalType": "string",
              "name": "assetName",
              "type": "string"
            },
            {
              "internalType": "uint256",
              "name": "quantity",
              "type": "uint256"
            },
            {
              "internalType": "bool",
              "name": "completed",
              "type": "bool"
            },
            {
              "internalType": "address",
              "name": "creator",
              "type": "address"
            }
          ],
          "internalType": "struct Assets.Asset",
          "name": "asset",
          "type": "tuple"
        }
      ],
      "payable": false,
      "stateMutability": "view",
      "type": "function"
    },
    {
      "constant": true,
      "inputs": [
        {
          "internalType": "uint256",
          "name": "",
          "type": "uint256"
        }
      ],
      "name": "assets",
      "outputs": [
        {
          "internalType": "uint256",
          "name": "id",
          "type": "uint256"
        },
        {
          "internalType": "string",
          "name": "assetName",
          "type": "string"
        },
        {
          "internalType": "uint256",
          "name": "quantity",
          "type": "uint256"
        },
        {
          "internalType": "bool",
          "name": "completed",
          "type": "bool"
        },
        {
          "internalType": "address",
          "name": "creator",
          "type": "address"
        }
      ],
      "payable": false,
      "stateMutability": "view",
      "type": "function"
    },
    {
      "constant": false,
      "inputs": [
        {
          "internalType": "string",
          "name": "_assetName",
          "type": "string"
        },
        {
          "internalType": "uint256",
          "name": "_quantity",
          "type": "uint256"
        }
      ],
      "name": "createAsset",
      "outputs": [
        {
          "internalType": "bool",
          "name": "",
          "type": "bool"
        }
      ],
      "payable": false,
      "stateMutability": "nonpayable",
      "type": "function"
    },
    {
      "constant": true,
      "inputs": [],
      "name": "getAssets",
      "outputs": [
        {
          "components": [
            {
              "internalType": "uint256",
              "name": "id",
              "type": "uint256"
            },
            {
              "internalType": "string",
              "name": "assetName",
              "type": "string"
            },
            {
              "internalType": "uint256",
              "name": "quantity",
              "type": "uint256"
            },
            {
              "internalType": "bool",
              "name": "completed",
              "type": "bool"
            },
            {
              "internalType": "address",
              "name": "creator",
              "type": "address"
            }
          ],
          "internalType": "struct Assets.Asset[]",
          "name": "",
          "type": "tuple[]"
        }
      ],
      "payable": false,
      "stateMutability": "view",
      "type": "function"
    },
    {
      "constant": true,
      "inputs": [
        {
          "internalType": "uint256",
          "name": "",
          "type": "uint256"
        }
      ],
      "name": "taskAssetMap",
      "outputs": [
        {
          "internalType": "uint256",
          "name": "id",
          "type": "uint256"
        },
        {
          "internalType": "string",
          "name": "assetName",
          "type": "string"
        },
        {
          "internalType": "uint256",
          "name": "quantity",
          "type": "uint256"
        },
        {
          "internalType": "bool",
          "name": "completed",
          "type": "bool"
        },
        {
          "internalType": "address",
          "name": "creator",
          "type": "address"
        }
      ],
      "payable": false,
      "stateMutability": "view",
      "type": "function"
    },
    {
      "constant": true,
      "inputs": [],
      "name": "taskCount",
      "outputs": [
        {
          "internalType": "uint256",
          "name": "",
          "type": "uint256"
        }
      ],
      "payable": false,
      "stateMutability": "view",
      "type": "function"
    },
    {
      "constant": true,
      "inputs": [
        {
          "internalType": "uint256",
          "name": "",
          "type": "uint256"
        }
      ],
      "name": "tasks",
      "outputs": [
        {
          "internalType": "uint256",
          "name": "id",
          "type": "uint256"
        },
        {
          "internalType": "string",
          "name": "content",
          "type": "string"
        },
        {
          "internalType": "string",
          "name": "creator_note",
          "type": "string"
        },
        {
          "internalType": "string",
          "name": "intermediary_note",
          "type": "string"
        },
        {
          "internalType": "bool",
          "name": "completed",
          "type": "bool"
        },
        {
          "internalType": "address",
          "name": "signator",
          "type": "address"
        },
        {
          "components": [
            {
              "internalType": "uint256",
              "name": "id",
              "type": "uint256"
            },
            {
              "internalType": "string",
              "name": "assetName",
              "type": "string"
            },
            {
              "internalType": "uint256",
              "name": "quantity",
              "type": "uint256"
            },
            {
              "internalType": "bool",
              "name": "completed",
              "type": "bool"
            },
            {
              "internalType": "address",
              "name": "creator",
              "type": "address"
            }
          ],
          "internalType": "struct Assets.Asset",
          "name": "asset",
          "type": "tuple"
        }
      ],
      "payable": false,
      "stateMutability": "view",
      "type": "function"
    },
    {
      "constant": false,
      "inputs": [
        {
          "internalType": "string",
          "name": "_taskContent",
          "type": "string"
        },
        {
          "internalType": "string",
          "name": "_note",
          "type": "string"
        },
        {
          "internalType": "uint256",
          "name": "_assetId",
          "type": "uint256"
        },
        {
          "internalType": "address",
          "name": "_signator",
          "type": "address"
        }
      ],
      "name": "createTask",
      "outputs": [
        {
          "internalType": "bool",
          "name": "",
          "type": "bool"
        }
      ],
      "payable": false,
      "stateMutability": "nonpayable",
      "type": "function"
    },
    {
      "constant": true,
      "inputs": [],
      "name": "getAllTasks",
      "outputs": [
        {
          "components": [
            {
              "internalType": "uint256",
              "name": "id",
              "type": "uint256"
            },
            {
              "internalType": "string",
              "name": "content",
              "type": "string"
            },
            {
              "internalType": "string",
              "name": "creator_note",
              "type": "string"
            },
            {
              "internalType": "string",
              "name": "intermediary_note",
              "type": "string"
            },
            {
              "internalType": "bool",
              "name": "completed",
              "type": "bool"
            },
            {
              "internalType": "address",
              "name": "signator",
              "type": "address"
            },
            {
              "components": [
                {
                  "internalType": "uint256",
                  "name": "id",
                  "type": "uint256"
                },
                {
                  "internalType": "string",
                  "name": "assetName",
                  "type": "string"
                },
                {
                  "internalType": "uint256",
                  "name": "quantity",
                  "type": "uint256"
                },
                {
                  "internalType": "bool",
                  "name": "completed",
                  "type": "bool"
                },
                {
                  "internalType": "address",
                  "name": "creator",
                  "type": "address"
                }
              ],
              "internalType": "struct Assets.Asset",
              "name": "asset",
              "type": "tuple"
            }
          ],
          "internalType": "struct Tasks.Task[]",
          "name": "",
          "type": "tuple[]"
        }
      ],
      "payable": false,
      "stateMutability": "view",
      "type": "function"
    },
    {
      "constant": true,
      "inputs": [
        {
          "internalType": "uint256",
          "name": "_assetID",
          "type": "uint256"
        }
      ],
      "name": "getAssetTasks",
      "outputs": [
        {
          "components": [
            {
              "internalType": "uint256",
              "name": "id",
              "type": "uint256"
            },
            {
              "internalType": "string",
              "name": "content",
              "type": "string"
            },
            {
              "internalType": "string",
              "name": "creator_note",
              "type": "string"
            },
            {
              "internalType": "string",
              "name": "intermediary_note",
              "type": "string"
            },
            {
              "internalType": "bool",
              "name": "completed",
              "type": "bool"
            },
            {
              "internalType": "address",
              "name": "signator",
              "type": "address"
            },
            {
              "components": [
                {
                  "internalType": "uint256",
                  "name": "id",
                  "type": "uint256"
                },
                {
                  "internalType": "string",
                  "name": "assetName",
                  "type": "string"
                },
                {
                  "internalType": "uint256",
                  "name": "quantity",
                  "type": "uint256"
                },
                {
                  "internalType": "bool",
                  "name": "completed",
                  "type": "bool"
                },
                {
                  "internalType": "address",
                  "name": "creator",
                  "type": "address"
                }
              ],
              "internalType": "struct Assets.Asset",
              "name": "asset",
              "type": "tuple"
            }
          ],
          "internalType": "struct Tasks.Task[]",
          "name": "",
          "type": "tuple[]"
        }
      ],
      "payable": false,
      "stateMutability": "view",
      "type": "function"
    }
  ],
  "bytecode": "0x60806040526000805560006002553480156200001a57600080fd5b50620000646040518060400160405280600a81526020017f4265726b656e20426167000000000000000000000000000000000000000000008152506103e86200029f60201b60201c565b50620000ae6040518060400160405280600381526020017f50533400000000000000000000000000000000000000000000000000000000008152506111946200029f60201b60201c565b50620000f86040518060400160405280600881526020017f4970686f6e6520360000000000000000000000000000000000000000000000008152506119646200029f60201b60201c565b50620001426040518060400160405280600681526020017f58626f78203100000000000000000000000000000000000000000000000000008152506105dc6200029f60201b60201c565b506200018c6040518060400160405280601081526020017f4973736579204d6979616b6520546f7000000000000000000000000000000000815250614a386200029f60201b60201c565b50620002046040518060400160405280600e81526020017f536f75726365204c65617468657200000000000000000000000000000000000081525060405180606001604052806031815260200162003521603191396001735e7b2bbb14b8a9097a26a93982624067a1db11de620003fa60201b60201c565b50620002986040518060400160405280601481526020017f5472616e73706f727420746f20466163746f72790000000000000000000000008152506040518060400160405280602081526020017f4d616b6520746f2064656c69766572206265666f726520322f30332f323032328152506001735e7b2bbb14b8a9097a26a93982624067a1db11de620003fa60201b60201c565b5062000d0a565b60008060008154809291906001019190505550620002bc62000b70565b60005481600001818152505083816020018190525082816040018181525050600081606001901515908115158152505033816080019073ffffffffffffffffffffffffffffffffffffffff16908173ffffffffffffffffffffffffffffffffffffffff1681525050600181908060018154018082558091505090600182039060005260206000209060040201600090919290919091506000820151816000015560208201518160010190805190602001906200037a92919062000bb7565b506040820151816002015560608201518160030160006101000a81548160ff02191690831515021790555060808201518160030160016101000a81548173ffffffffffffffffffffffffffffffffffffffff021916908373ffffffffffffffffffffffffffffffffffffffff160217905550505050600191505092915050565b60006002600081548092919060010191905055506200041862000c3e565b6002548160000181815250508581602001819052508481604001819052506040518060200160405280600081525081606001819052506000816080019015159081151581525050828160a0019073ffffffffffffffffffffffffffffffffffffffff16908173ffffffffffffffffffffffffffffffffffffffff1681525050600180850381548110620004a757fe5b90600052602060002090600402016040518060a001604052908160008201548152602001600182018054600181600116156101000203166002900480601f016020809104026020016040519081016040528092919081815260200182805460018160011615610100020316600290048015620005675780601f106200053b5761010080835404028352916020019162000567565b820191906000526020600020905b8154815290600101906020018083116200054957829003601f168201915b50505050508152602001600282015481526020016003820160009054906101000a900460ff161515151581526020016003820160019054906101000a900473ffffffffffffffffffffffffffffffffffffffff1673ffffffffffffffffffffffffffffffffffffffff1673ffffffffffffffffffffffffffffffffffffffff16815250508160c00181905250600381908060018154018082558091505090600182039060005260206000209060090201600090919290919091506000820151816000015560208201518160010190805190602001906200064992919062000bb7565b5060408201518160020190805190602001906200066892919062000bb7565b5060608201518160030190805190602001906200068792919062000bb7565b5060808201518160040160006101000a81548160ff02191690831515021790555060a08201518160040160016101000a81548173ffffffffffffffffffffffffffffffffffffffff021916908373ffffffffffffffffffffffffffffffffffffffff16021790555060c0820151816005016000820151816000015560208201518160010190805190602001906200072092919062000bb7565b506040820151816002015560608201518160030160006101000a81548160ff02191690831515021790555060808201518160030160016101000a81548173ffffffffffffffffffffffffffffffffffffffff021916908373ffffffffffffffffffffffffffffffffffffffff1602179055505050505050620007a162000b70565b600180860381548110620007b157fe5b90600052602060002090600402016040518060a001604052908160008201548152602001600182018054600181600116156101000203166002900480601f016020809104026020016040519081016040528092919081815260200182805460018160011615610100020316600290048015620008715780601f10620008455761010080835404028352916020019162000871565b820191906000526020600020905b8154815290600101906020018083116200085357829003601f168201915b50505050508152602001600282015481526020016003820160009054906101000a900460ff161515151581526020016003820160019054906101000a900473ffffffffffffffffffffffffffffffffffffffff1673ffffffffffffffffffffffffffffffffffffffff1673ffffffffffffffffffffffffffffffffffffffff16815250509050806004600060025481526020019081526020016000206000820151816000015560208201518160010190805190602001906200093592919062000bb7565b506040820151816002015560608201518160030160006101000a81548160ff02191690831515021790555060808201518160030160016101000a81548173ffffffffffffffffffffffffffffffffffffffff021916908373ffffffffffffffffffffffffffffffffffffffff16021790555090505060056000600187038152602001908152602001600020829080600181540180825580915050906001820390600052602060002090600902016000909192909190915060008201518160000155602082015181600101908051906020019062000a1492919062000bb7565b50604082015181600201908051906020019062000a3392919062000bb7565b50606082015181600301908051906020019062000a5292919062000bb7565b5060808201518160040160006101000a81548160ff02191690831515021790555060a08201518160040160016101000a81548173ffffffffffffffffffffffffffffffffffffffff021916908373ffffffffffffffffffffffffffffffffffffffff16021790555060c08201518160050160008201518160000155602082015181600101908051906020019062000aeb92919062000bb7565b506040820151816002015560608201518160030160006101000a81548160ff02191690831515021790555060808201518160030160016101000a81548173ffffffffffffffffffffffffffffffffffffffff021916908373ffffffffffffffffffffffffffffffffffffffff1602179055505050505050600192505050949350505050565b6040518060a00160405280600081526020016060815260200160008152602001600015158152602001600073ffffffffffffffffffffffffffffffffffffffff1681525090565b828054600181600116156101000203166002900490600052602060002090601f016020900481019282601f1062000bfa57805160ff191683800117855562000c2b565b8280016001018555821562000c2b579182015b8281111562000c2a57825182559160200191906001019062000c0d565b5b50905062000c3a919062000c9b565b5090565b6040518060e0016040528060008152602001606081526020016060815260200160608152602001600015158152602001600073ffffffffffffffffffffffffffffffffffffffff16815260200162000c9562000cc3565b81525090565b62000cc091905b8082111562000cbc57600081600090555060010162000ca2565b5090565b90565b6040518060a00160405280600081526020016060815260200160008152602001600015158152602001600073ffffffffffffffffffffffffffffffffffffffff1681525090565b6128078062000d1a6000396000f3fe608060405234801561001057600080fd5b50600436106100a95760003560e01c80638d977672116100715780638d9776721461017e57806390902da5146101b4578063b6cb58a5146101ea578063cf35bdd014610208578063db9cc4101461023c578063eafe7a741461026c576100a9565b80631a55cc48146100ae5780631f69a009146100de57806367e4ac2c1461010e578063779900b41461012c5780637d0ecb8f1461014a575b600080fd5b6100c860048036036100c39190810190611fdd565b61028a565b6040516100d591906124e8565b60405180910390f35b6100f860048036036100f391908101906120c4565b6109e0565b60405161010591906124c6565b60405180910390f35b610116610df3565b60405161012391906124a4565b60405180910390f35b610134610f79565b60405161014191906124c6565b60405180910390f35b610164600480360361015f91908101906120c4565b611374565b6040516101759594939291906125a9565b60405180910390f35b610198600480360361019391908101906120c4565b61146f565b6040516101ab979695949392919061251e565b60405180910390f35b6101ce60048036036101c991908101906120ed565b6117e4565b6040516101e1979695949392919061251e565b60405180910390f35b6101f2611b66565b6040516101ff9190612503565b60405180910390f35b610222600480360361021d91908101906120c4565b611b6c565b6040516102339594939291906125a9565b60405180910390f35b61025660048036036102519190810190612070565b611c74565b60405161026391906124e8565b60405180910390f35b610274611dcb565b6040516102819190612503565b60405180910390f35b60006002600081548092919060010191905055506102a6611dd1565b6002548160000181815250508581602001819052508481604001819052506040518060200160405280600081525081606001819052506000816080019015159081151581525050828160a0019073ffffffffffffffffffffffffffffffffffffffff16908173ffffffffffffffffffffffffffffffffffffffff168152505060018085038154811061033457fe5b90600052602060002090600402016040518060a001604052908160008201548152602001600182018054600181600116156101000203166002900480601f0160208091040260200160405190810160405280929190818152602001828054600181600116156101000203166002900480156103f05780601f106103c5576101008083540402835291602001916103f0565b820191906000526020600020905b8154815290600101906020018083116103d357829003601f168201915b50505050508152602001600282015481526020016003820160009054906101000a900460ff161515151581526020016003820160019054906101000a900473ffffffffffffffffffffffffffffffffffffffff1673ffffffffffffffffffffffffffffffffffffffff1673ffffffffffffffffffffffffffffffffffffffff16815250508160c00181905250600381908060018154018082558091505090600182039060005260206000209060090201600090919290919091506000820151816000015560208201518160010190805190602001906104d0929190611e2c565b5060408201518160020190805190602001906104ed929190611e2c565b50606082015181600301908051906020019061050a929190611e2c565b5060808201518160040160006101000a81548160ff02191690831515021790555060a08201518160040160016101000a81548173ffffffffffffffffffffffffffffffffffffffff021916908373ffffffffffffffffffffffffffffffffffffffff16021790555060c0820151816005016000820151816000015560208201518160010190805190602001906105a1929190611e2c565b506040820151816002015560608201518160030160006101000a81548160ff02191690831515021790555060808201518160030160016101000a81548173ffffffffffffffffffffffffffffffffffffffff021916908373ffffffffffffffffffffffffffffffffffffffff1602179055505050505050610620611eac565b60018086038154811061062f57fe5b90600052602060002090600402016040518060a001604052908160008201548152602001600182018054600181600116156101000203166002900480601f0160208091040260200160405190810160405280929190818152602001828054600181600116156101000203166002900480156106eb5780601f106106c0576101008083540402835291602001916106eb565b820191906000526020600020905b8154815290600101906020018083116106ce57829003601f168201915b50505050508152602001600282015481526020016003820160009054906101000a900460ff161515151581526020016003820160019054906101000a900473ffffffffffffffffffffffffffffffffffffffff1673ffffffffffffffffffffffffffffffffffffffff1673ffffffffffffffffffffffffffffffffffffffff16815250509050806004600060025481526020019081526020016000206000820151816000015560208201518160010190805190602001906107ad929190611e2c565b506040820151816002015560608201518160030160006101000a81548160ff02191690831515021790555060808201518160030160016101000a81548173ffffffffffffffffffffffffffffffffffffffff021916908373ffffffffffffffffffffffffffffffffffffffff16021790555090505060056000600187038152602001908152602001600020829080600181540180825580915050906001820390600052602060002090600902016000909192909190915060008201518160000155602082015181600101908051906020019061088a929190611e2c565b5060408201518160020190805190602001906108a7929190611e2c565b5060608201518160030190805190602001906108c4929190611e2c565b5060808201518160040160006101000a81548160ff02191690831515021790555060a08201518160040160016101000a81548173ffffffffffffffffffffffffffffffffffffffff021916908373ffffffffffffffffffffffffffffffffffffffff16021790555060c08201518160050160008201518160000155602082015181600101908051906020019061095b929190611e2c565b506040820151816002015560608201518160030160006101000a81548160ff02191690831515021790555060808201518160030160016101000a81548173ffffffffffffffffffffffffffffffffffffffff021916908373ffffffffffffffffffffffffffffffffffffffff1602179055505050505050600192505050949350505050565b60608060056000848152602001908152602001600020805480602002602001604051908101604052809291908181526020016000905b82821015610de457838290600052602060002090600902016040518060e001604052908160008201548152602001600182018054600181600116156101000203166002900480601f016020809104026020016040519081016040528092919081815260200182805460018160011615610100020316600290048015610adc5780601f10610ab157610100808354040283529160200191610adc565b820191906000526020600020905b815481529060010190602001808311610abf57829003601f168201915b50505050508152602001600282018054600181600116156101000203166002900480601f016020809104026020016040519081016040528092919081815260200182805460018160011615610100020316600290048015610b7e5780601f10610b5357610100808354040283529160200191610b7e565b820191906000526020600020905b815481529060010190602001808311610b6157829003601f168201915b50505050508152602001600382018054600181600116156101000203166002900480601f016020809104026020016040519081016040528092919081815260200182805460018160011615610100020316600290048015610c205780601f10610bf557610100808354040283529160200191610c20565b820191906000526020600020905b815481529060010190602001808311610c0357829003601f168201915b505050505081526020016004820160009054906101000a900460ff161515151581526020016004820160019054906101000a900473ffffffffffffffffffffffffffffffffffffffff1673ffffffffffffffffffffffffffffffffffffffff1673ffffffffffffffffffffffffffffffffffffffff168152602001600582016040518060a001604052908160008201548152602001600182018054600181600116156101000203166002900480601f016020809104026020016040519081016040528092919081815260200182805460018160011615610100020316600290048015610d4d5780601f10610d2257610100808354040283529160200191610d4d565b820191906000526020600020905b815481529060010190602001808311610d3057829003601f168201915b50505050508152602001600282015481526020016003820160009054906101000a900460ff161515151581526020016003820160019054906101000a900473ffffffffffffffffffffffffffffffffffffffff1673ffffffffffffffffffffffffffffffffffffffff1673ffffffffffffffffffffffffffffffffffffffff16815250508152505081526020019060010190610a16565b50505050905080915050919050565b60606001805480602002602001604051908101604052809291908181526020016000905b82821015610f7057838290600052602060002090600402016040518060a001604052908160008201548152602001600182018054600181600116156101000203166002900480601f016020809104026020016040519081016040528092919081815260200182805460018160011615610100020316600290048015610edd5780601f10610eb257610100808354040283529160200191610edd565b820191906000526020600020905b815481529060010190602001808311610ec057829003601f168201915b50505050508152602001600282015481526020016003820160009054906101000a900460ff161515151581526020016003820160019054906101000a900473ffffffffffffffffffffffffffffffffffffffff1673ffffffffffffffffffffffffffffffffffffffff1673ffffffffffffffffffffffffffffffffffffffff168152505081526020019060010190610e17565b50505050905090565b60606003805480602002602001604051908101604052809291908181526020016000905b8282101561136b57838290600052602060002090600902016040518060e001604052908160008201548152602001600182018054600181600116156101000203166002900480601f0160208091040260200160405190810160405280929190818152602001828054600181600116156101000203166002900480156110635780601f1061103857610100808354040283529160200191611063565b820191906000526020600020905b81548152906001019060200180831161104657829003601f168201915b50505050508152602001600282018054600181600116156101000203166002900480601f0160208091040260200160405190810160405280929190818152602001828054600181600116156101000203166002900480156111055780601f106110da57610100808354040283529160200191611105565b820191906000526020600020905b8154815290600101906020018083116110e857829003601f168201915b50505050508152602001600382018054600181600116156101000203166002900480601f0160208091040260200160405190810160405280929190818152602001828054600181600116156101000203166002900480156111a75780601f1061117c576101008083540402835291602001916111a7565b820191906000526020600020905b81548152906001019060200180831161118a57829003601f168201915b505050505081526020016004820160009054906101000a900460ff161515151581526020016004820160019054906101000a900473ffffffffffffffffffffffffffffffffffffffff1673ffffffffffffffffffffffffffffffffffffffff1673ffffffffffffffffffffffffffffffffffffffff168152602001600582016040518060a001604052908160008201548152602001600182018054600181600116156101000203166002900480601f0160208091040260200160405190810160405280929190818152602001828054600181600116156101000203166002900480156112d45780601f106112a9576101008083540402835291602001916112d4565b820191906000526020600020905b8154815290600101906020018083116112b757829003601f168201915b50505050508152602001600282015481526020016003820160009054906101000a900460ff161515151581526020016003820160019054906101000a900473ffffffffffffffffffffffffffffffffffffffff1673ffffffffffffffffffffffffffffffffffffffff1673ffffffffffffffffffffffffffffffffffffffff16815250508152505081526020019060010190610f9d565b50505050905090565b6004602052806000526040600020600091509050806000015490806001018054600181600116156101000203166002900480601f0160208091040260200160405190810160405280929190818152602001828054600181600116156101000203166002900480156114265780601f106113fb57610100808354040283529160200191611426565b820191906000526020600020905b81548152906001019060200180831161140957829003601f168201915b5050505050908060020154908060030160009054906101000a900460ff16908060030160019054906101000a900473ffffffffffffffffffffffffffffffffffffffff16905085565b6003818154811061147c57fe5b9060005260206000209060090201600091509050806000015490806001018054600181600116156101000203166002900480601f01602080910402602001604051908101604052809291908181526020018280546001816001161561010002031660029004801561152e5780601f106115035761010080835404028352916020019161152e565b820191906000526020600020905b81548152906001019060200180831161151157829003601f168201915b505050505090806002018054600181600116156101000203166002900480601f0160208091040260200160405190810160405280929190818152602001828054600181600116156101000203166002900480156115cc5780601f106115a1576101008083540402835291602001916115cc565b820191906000526020600020905b8154815290600101906020018083116115af57829003601f168201915b505050505090806003018054600181600116156101000203166002900480601f01602080910402602001604051908101604052809291908181526020018280546001816001161561010002031660029004801561166a5780601f1061163f5761010080835404028352916020019161166a565b820191906000526020600020905b81548152906001019060200180831161164d57829003601f168201915b5050505050908060040160009054906101000a900460ff16908060040160019054906101000a900473ffffffffffffffffffffffffffffffffffffffff1690806005016040518060a001604052908160008201548152602001600182018054600181600116156101000203166002900480601f01602080910402602001604051908101604052809291908181526020018280546001816001161561010002031660029004801561175b5780601f106117305761010080835404028352916020019161175b565b820191906000526020600020905b81548152906001019060200180831161173e57829003601f168201915b50505050508152602001600282015481526020016003820160009054906101000a900460ff161515151581526020016003820160019054906101000a900473ffffffffffffffffffffffffffffffffffffffff1673ffffffffffffffffffffffffffffffffffffffff1673ffffffffffffffffffffffffffffffffffffffff1681525050905087565b600560205281600052604060002081815481106117fd57fe5b906000526020600020906009020160009150915050806000015490806001018054600181600116156101000203166002900480601f0160208091040260200160405190810160405280929190818152602001828054600181600116156101000203166002900480156118b05780601f10611885576101008083540402835291602001916118b0565b820191906000526020600020905b81548152906001019060200180831161189357829003601f168201915b505050505090806002018054600181600116156101000203166002900480601f01602080910402602001604051908101604052809291908181526020018280546001816001161561010002031660029004801561194e5780601f106119235761010080835404028352916020019161194e565b820191906000526020600020905b81548152906001019060200180831161193157829003601f168201915b505050505090806003018054600181600116156101000203166002900480601f0160208091040260200160405190810160405280929190818152602001828054600181600116156101000203166002900480156119ec5780601f106119c1576101008083540402835291602001916119ec565b820191906000526020600020905b8154815290600101906020018083116119cf57829003601f168201915b5050505050908060040160009054906101000a900460ff16908060040160019054906101000a900473ffffffffffffffffffffffffffffffffffffffff1690806005016040518060a001604052908160008201548152602001600182018054600181600116156101000203166002900480601f016020809104026020016040519081016040528092919081815260200182805460018160011615610100020316600290048015611add5780601f10611ab257610100808354040283529160200191611add565b820191906000526020600020905b815481529060010190602001808311611ac057829003601f168201915b50505050508152602001600282015481526020016003820160009054906101000a900460ff161515151581526020016003820160019054906101000a900473ffffffffffffffffffffffffffffffffffffffff1673ffffffffffffffffffffffffffffffffffffffff1673ffffffffffffffffffffffffffffffffffffffff1681525050905087565b60025481565b60018181548110611b7957fe5b9060005260206000209060040201600091509050806000015490806001018054600181600116156101000203166002900480601f016020809104026020016040519081016040528092919081815260200182805460018160011615610100020316600290048015611c2b5780601f10611c0057610100808354040283529160200191611c2b565b820191906000526020600020905b815481529060010190602001808311611c0e57829003601f168201915b5050505050908060020154908060030160009054906101000a900460ff16908060030160019054906101000a900473ffffffffffffffffffffffffffffffffffffffff16905085565b60008060008154809291906001019190505550611c8f611eac565b60005481600001818152505083816020018190525082816040018181525050600081606001901515908115158152505033816080019073ffffffffffffffffffffffffffffffffffffffff16908173ffffffffffffffffffffffffffffffffffffffff168152505060018190806001815401808255809150509060018203906000526020600020906004020160009091929091909150600082015181600001556020820151816001019080519060200190611d4b929190611e2c565b506040820151816002015560608201518160030160006101000a81548160ff02191690831515021790555060808201518160030160016101000a81548173ffffffffffffffffffffffffffffffffffffffff021916908373ffffffffffffffffffffffffffffffffffffffff160217905550505050600191505092915050565b60005481565b6040518060e0016040528060008152602001606081526020016060815260200160608152602001600015158152602001600073ffffffffffffffffffffffffffffffffffffffff168152602001611e26611ef3565b81525090565b828054600181600116156101000203166002900490600052602060002090601f016020900481019282601f10611e6d57805160ff1916838001178555611e9b565b82800160010185558215611e9b579182015b82811115611e9a578251825591602001919060010190611e7f565b5b509050611ea89190611f3a565b5090565b6040518060a00160405280600081526020016060815260200160008152602001600015158152602001600073ffffffffffffffffffffffffffffffffffffffff1681525090565b6040518060a00160405280600081526020016060815260200160008152602001600015158152602001600073ffffffffffffffffffffffffffffffffffffffff1681525090565b611f5c91905b80821115611f58576000816000905550600101611f40565b5090565b90565b600081359050611f6e81612796565b92915050565b600082601f830112611f8557600080fd5b8135611f98611f9382612630565b612603565b91508082526020830160208301858383011115611fb457600080fd5b611fbf838284612743565b50505092915050565b600081359050611fd7816127ad565b92915050565b60008060008060808587031215611ff357600080fd5b600085013567ffffffffffffffff81111561200d57600080fd5b61201987828801611f74565b945050602085013567ffffffffffffffff81111561203657600080fd5b61204287828801611f74565b935050604061205387828801611fc8565b925050606061206487828801611f5f565b91505092959194509250565b6000806040838503121561208357600080fd5b600083013567ffffffffffffffff81111561209d57600080fd5b6120a985828601611f74565b92505060206120ba85828601611fc8565b9150509250929050565b6000602082840312156120d657600080fd5b60006120e484828501611fc8565b91505092915050565b6000806040838503121561210057600080fd5b600061210e85828601611fc8565b925050602061211f85828601611fc8565b9150509250929050565b600061213583836122e9565b905092915050565b600061214983836123d5565b905092915050565b61215a816126fb565b82525050565b612169816126fb565b82525050565b600061217a8261267c565b61218481856126b7565b9350836020820285016121968561265c565b8060005b858110156121d257848403895281516121b38582612129565b94506121be8361269d565b925060208a0199505060018101905061219a565b50829750879550505050505092915050565b60006121ef82612687565b6121f981856126c8565b93508360208202850161220b8561266c565b8060005b858110156122475784840389528151612228858261213d565b9450612233836126aa565b925060208a0199505060018101905061220f565b50829750879550505050505092915050565b6122628161270d565b82525050565b6122718161270d565b82525050565b600061228282612692565b61228c81856126d9565b935061229c818560208601612752565b6122a581612785565b840191505092915050565b60006122bb82612692565b6122c581856126ea565b93506122d5818560208601612752565b6122de81612785565b840191505092915050565b600060a0830160008301516123016000860182612486565b50602083015184820360208601526123198282612277565b915050604083015161232e6040860182612486565b5060608301516123416060860182612259565b5060808301516123546080860182612151565b508091505092915050565b600060a0830160008301516123776000860182612486565b506020830151848203602086015261238f8282612277565b91505060408301516123a46040860182612486565b5060608301516123b76060860182612259565b5060808301516123ca6080860182612151565b508091505092915050565b600060e0830160008301516123ed6000860182612486565b50602083015184820360208601526124058282612277565b9150506040830151848203604086015261241f8282612277565b915050606083015184820360608601526124398282612277565b915050608083015161244e6080860182612259565b5060a083015161246160a0860182612151565b5060c083015184820360c086015261247982826122e9565b9150508091505092915050565b61248f81612739565b82525050565b61249e81612739565b82525050565b600060208201905081810360008301526124be818461216f565b905092915050565b600060208201905081810360008301526124e081846121e4565b905092915050565b60006020820190506124fd6000830184612268565b92915050565b60006020820190506125186000830184612495565b92915050565b600060e082019050612533600083018a612495565b818103602083015261254581896122b0565b9050818103604083015261255981886122b0565b9050818103606083015261256d81876122b0565b905061257c6080830186612268565b61258960a0830185612160565b81810360c083015261259b818461235f565b905098975050505050505050565b600060a0820190506125be6000830188612495565b81810360208301526125d081876122b0565b90506125df6040830186612495565b6125ec6060830185612268565b6125f96080830184612160565b9695505050505050565b6000604051905081810181811067ffffffffffffffff8211171561262657600080fd5b8060405250919050565b600067ffffffffffffffff82111561264757600080fd5b601f19601f8301169050602081019050919050565b6000819050602082019050919050565b6000819050602082019050919050565b600081519050919050565b600081519050919050565b600081519050919050565b6000602082019050919050565b6000602082019050919050565b600082825260208201905092915050565b600082825260208201905092915050565b600082825260208201905092915050565b600082825260208201905092915050565b600061270682612719565b9050919050565b60008115159050919050565b600073ffffffffffffffffffffffffffffffffffffffff82169050919050565b6000819050919050565b82818337600083830152505050565b60005b83811015612770578082015181840152602081019050612755565b8381111561277f576000848401525b50505050565b6000601f19601f8301169050919050565b61279f816126fb565b81146127aa57600080fd5b50565b6127b681612739565b81146127c157600080fd5b5056fea365627a7a72315820485d0e7f41a52cf709f11f3f9ec4ee2ee971804f1c6f31e807ce154e64ab1ae66c6578706572696d656e74616cf564736f6c634300051000404d616b652073757265206974206973207468652062657374207175616c697479206d757368726f6f6d206c656174686572",
  "source": "// SPDX-License-Identifier: GPL-3.0\n\npragma solidity >=0.4.25 <0.7.0;\npragma experimental ABIEncoderV2;\n\n\ncontract Assets{\n    //state variable to keep track of the number of assets.\n    uint256 public assetCount = 0;\n    //creating an array of type Asset which is a struct (allows calling of asset(0,1,2..assetCount))\n    Asset[] public assets;\n\n \n    constructor() public {\n        createAsset(\"Berken Bag\", 1000);\n        createAsset(\"PS4\", 4500);\n        createAsset(\"Iphone 6\", 6500);\n        createAsset(\"Xbox 1\", 1500);\n        createAsset(\"Issey Miyake Top\", 19000);\n    }\n\n    struct Asset {\n        //attributes of the struct\n        uint256 id;\n        string assetName;  //bytes32 to allow for comparism\n        uint256 quantity;\n        bool completed;\n        address creator;\n    }\n   \n    //create an asset\n    function createAsset(string memory _assetName, uint256 _quantity) public returns (bool){\n        assetCount++;\n        Asset memory newAsset;\n\n        newAsset.id = assetCount;\n        newAsset.assetName = _assetName;\n        newAsset.quantity = _quantity;\n        newAsset.completed = false;\n        newAsset.creator = msg.sender;\n        assets.push(newAsset); // Push the newAsset struct...into the asset array\n        return true;\n    }\n\n    function getAssets() public view returns (Asset[] memory){\n        return assets;\n    }\n\n\n\n}\n\n\ncontract Tasks is Assets{ //make assets the parent contract\n\n    //state variable to keep track of the number of assets.\n    uint256 public taskCount = 0;\n    \n    //creating an array of type Asset which is a struct (allows calling of asset(0,1,2..assetCount))\n    Task[] public tasks;\n\n    mapping(uint256 => Asset) public taskAssetMap;\n    mapping(uint256 => Task[]) public assetTaskMap;\n\n\n    constructor() public {\n        createTask( \"Source Leather\",\"Make sure it is the best quality mushroom leather\",1,0x5E7b2Bbb14B8a9097A26A93982624067A1dB11dE);\n        createTask( \"Transport to Factory\",\"Make to deliver before 2/03/2022\",1,0x5E7b2Bbb14B8a9097A26A93982624067A1dB11dE);\n    }\n\n    //definition of a data type of Task using structs\n    struct Task {\n        //attributes of the struct\n        uint256 id;\n        string content;\n        string creator_note; // the signators message \n        string intermediary_note; //the task creators message \n        bool completed;\n        address signator;\n        Asset asset;\n    }\n\n\n    //create a task\n    function createTask(string memory _taskContent,string memory _note, uint256 _assetId, address _signator) public returns (bool){\n        taskCount++;\n        Task memory newTask;\n        newTask.id = taskCount;\n        newTask.content = _taskContent;\n        newTask.creator_note = _note;\n        newTask.intermediary_note = '';\n        newTask.completed = false;\n        newTask.signator = _signator;\n        newTask.asset = assets[_assetId-1];\n        tasks.push(newTask); // Push the newAsset struct...into the asset array\n\n        // map assets to tasks\n        Asset memory currAsset;  //create empty temporary asset\n        currAsset = assets[_assetId-1]; //get asset value to store temporary asst\n        taskAssetMap[taskCount]=currAsset; // each taskcount/taskid should map to the asset struct\n        assetTaskMap[_assetId-1].push(newTask); // each assetid should map to the task[] struct\n\n        return true;\n    }\n\n    //get all tasks \n    function getAllTasks() public view returns (Task[] memory){\n        return tasks;\n    }\n\n    //get all tasks associated with a certain asset (by using assetID)\n   function getAssetTasks( uint256 _assetID) public view returns (Task[] memory){\n        Task[] memory _tasks = assetTaskMap[_assetID];\n        return _tasks;\n    }\n\n}\n\n//when a contract inherits from these two only 1 contract is created on the blockchain which is this one\ncontract Unbolt is Tasks{  //inheritance\n\n//change the toggle completed variable to the opposide of current value\n// should only works if all tasks associated with the asset are completed\nfunction toggleAssetCompleted(uint _id) public {\n    Asset memory _asset = assets[_id-1];\n    // Task[] memory _tasks = getAssetTasks(_id);\n    _asset.completed = !_asset.completed;\n    assets[_id-1] = _asset;\n}\n\n//change the toggle completed variable to the opposide of current value\nfunction toggleTaskCompleted(uint _id) public returns (uint256){\n    Task memory _task = tasks[_id-1];\n    // require(msg.sender == _task.signator, \"This function is restricted to the signator\");\n    _task.completed = !_task.completed;\n    tasks[_id-1] = _task;\n\n\n    bool result;\n    uint256 _i = 0;\n    Task[] memory _tasks = getAssetTasks(_id);\n\n    // check if any of the task in task[] has a value of false for its \"completed\" value\n    while ( _i != _tasks.length) {\n        // if (_tasks[_i].completed == true) {\n        //         result = true;\n        //         _i++;\n        //     } else {\n        //         result = false;\n        //         break;\n        //     }\n        _i++;\n    }\n\n    // require(result == true);\n    // toggleAssetCompleted(_task.asset.id);\n\n    // return result;\n    return _i;\n}\n\n\n\n}\n",
  "sourcePath": "/Users/tobiadewunmi/Desktop/unbolt/src/truffle/contracts/Test.sol",
  "compiler": {
    "name": "solc",
    "version": "0.5.16+commit.9c3226ce.Emscripten.clang"
  },
  "schemaVersion": "3.4.6",
  "updatedAt": "2022-04-28T12:43:14.460Z",
  "networkType": "ethereum",
  "devdoc": {
    "methods": {}
  },
  "userdoc": {
    "methods": {}
  }
}