{
  "contractName": "Task",
  "abi": [
    {
      "inputs": [],
      "payable": false,
      "stateMutability": "nonpayable",
      "type": "constructor"
    },
    {
      "constant": true,
      "inputs": [],
      "name": "taskCount",
      "outputs": [
        {
          "internalType": "uint256",
          "name": "",
          "type": "uint256"
        }
      ],
      "payable": false,
      "stateMutability": "view",
      "type": "function"
    },
    {
      "constant": true,
      "inputs": [
        {
          "internalType": "uint256",
          "name": "",
          "type": "uint256"
        }
      ],
      "name": "tasks",
      "outputs": [
        {
          "internalType": "uint256",
          "name": "id",
          "type": "uint256"
        },
        {
          "internalType": "string",
          "name": "content",
          "type": "string"
        },
        {
          "internalType": "uint256",
          "name": "assetId",
          "type": "uint256"
        },
        {
          "internalType": "bool",
          "name": "completed",
          "type": "bool"
        }
      ],
      "payable": false,
      "stateMutability": "view",
      "type": "function"
    },
    {
      "constant": false,
      "inputs": [
        {
          "internalType": "string",
          "name": "_taskcontent",
          "type": "string"
        },
        {
          "internalType": "uint256",
          "name": "assetId",
          "type": "uint256"
        }
      ],
      "name": "createTask",
      "outputs": [],
      "payable": false,
      "stateMutability": "nonpayable",
      "type": "function"
    }
  ],
  "bytecode": "0x60806040526000805534801561001457600080fd5b5061005b6040518060400160405280600e81526020017f536f75726365204c656174686572000000000000000000000000000000000000815250600161006060201b60201c565b6101a8565b6000808154809291906001019190505550604051806080016040528060005481526020018381526020018281526020016000151581525060016000805481526020019081526020016000206000820151816000015560208201518160010190805190602001906100d1929190610103565b506040820151816002015560608201518160030160006101000a81548160ff0219169083151502179055509050505050565b828054600181600116156101000203166002900490600052602060002090601f016020900481019282601f1061014457805160ff1916838001178555610172565b82800160010185558215610172579182015b82811115610171578251825591602001919060010190610156565b5b50905061017f9190610183565b5090565b6101a591905b808211156101a1576000816000905550600101610189565b5090565b90565b610441806101b76000396000f3fe608060405234801561001057600080fd5b50600436106100415760003560e01c806304fe2b34146100465780638d9776721461010b578063b6cb58a5146101cb575b600080fd5b6101096004803603604081101561005c57600080fd5b810190808035906020019064010000000081111561007957600080fd5b82018360208201111561008b57600080fd5b803590602001918460018302840111640100000000831117156100ad57600080fd5b91908080601f016020809104026020016040519081016040528093929190818152602001838380828437600081840152601f19601f820116905080830192505050505050509192919290803590602001909291905050506101e9565b005b6101376004803603602081101561012157600080fd5b810190808035906020019092919050505061028c565b604051808581526020018060200184815260200183151515158152602001828103825285818151815260200191508051906020019080838360005b8381101561018d578082015181840152602081019050610172565b50505050905090810190601f1680156101ba5780820380516001836020036101000a031916815260200191505b509550505050505060405180910390f35b6101d3610361565b6040518082815260200191505060405180910390f35b60008081548092919060010191905055506040518060800160405280600054815260200183815260200182815260200160001515815250600160008054815260200190815260200160002060008201518160000155602082015181600101908051906020019061025a929190610367565b506040820151816002015560608201518160030160006101000a81548160ff0219169083151502179055509050505050565b6001602052806000526040600020600091509050806000015490806001018054600181600116156101000203166002900480601f01602080910402602001604051908101604052809291908181526020018280546001816001161561010002031660029004801561033e5780601f106103135761010080835404028352916020019161033e565b820191906000526020600020905b81548152906001019060200180831161032157829003601f168201915b5050505050908060020154908060030160009054906101000a900460ff16905084565b60005481565b828054600181600116156101000203166002900490600052602060002090601f016020900481019282601f106103a857805160ff19168380011785556103d6565b828001600101855582156103d6579182015b828111156103d55782518255916020019190600101906103ba565b5b5090506103e391906103e7565b5090565b61040991905b808211156104055760008160009055506001016103ed565b5090565b9056fea265627a7a72315820d1b0bf91f4340e08732883a220dab1a3cf5661d87fe883b84219fc5b53184fd264736f6c63430005100032",
  "source": "pragma solidity >=0.4.25 <0.7.0;\n\n// This is just a task contract.\n\ncontract Task {\n    // state variable to keep track of the number of tasks.\n    uint256 public taskCount = 0;\n\n    //allows to use id as key to find assets & tasks (basically search asset by id)\n    mapping(uint256 => Task) public tasks;\n\n    //constructor, execultes when code is run\n    constructor() public {\n        createTask( \"Source Leather\",1);\n    }\n\n    //https://www.tutorialspoint.com/solidity/solidity_enums.htm\n    enum TaskState {Pending, InProgress, Cancelled, Complete }\n    TaskState choice;\n    TaskState constant defaultChoice = TaskState.Pending;\n\n    //definition of a data type of Asset using structs\n    struct Asset {\n        //attributes of the struct\n        uint256 id;\n        string assetName;\n        uint256 quantity;\n        bool completed;\n    }\n\n    //definition of a data type of Task using structs\n    struct Task {\n        //attributes of the struct\n        uint256 id;\n        string content;\n        uint256 assetId;\n        bool completed;\n    }\n\n\n\n    function createTask(string memory _taskcontent, uint256 assetId) public {\n        taskCount++;\n        tasks[taskCount] = Task(taskCount, _taskcontent, assetId, false);\n    }\n\n\n\n}\n",
  "sourcePath": "/Users/tobiadewunmi/Desktop/unbolt/UnBolt/contracts/Task.sol",
  "compiler": {
    "name": "solc",
    "version": "0.5.16+commit.9c3226ce.Emscripten.clang"
  },
  "schemaVersion": "3.4.6",
  "updatedAt": "2022-03-21T14:48:13.165Z",
  "networkType": "ethereum",
  "devdoc": {
    "methods": {}
  },
  "userdoc": {
    "methods": {}
  }
}