{
  "contractName": "Tasks",
  "abi": [
    {
      "inputs": [],
      "stateMutability": "payable",
      "type": "constructor"
    },
    {
      "anonymous": false,
      "inputs": [
        {
          "indexed": true,
          "internalType": "uint256",
          "name": "id",
          "type": "uint256"
        },
        {
          "indexed": true,
          "internalType": "string",
          "name": "_assetName",
          "type": "string"
        },
        {
          "indexed": false,
          "internalType": "string",
          "name": "_description",
          "type": "string"
        },
        {
          "indexed": false,
          "internalType": "uint256",
          "name": "_quantity",
          "type": "uint256"
        },
        {
          "indexed": false,
          "internalType": "bool",
          "name": "completed",
          "type": "bool"
        },
        {
          "indexed": true,
          "internalType": "address",
          "name": "creator",
          "type": "address"
        }
      ],
      "name": "AssetCreated",
      "type": "event"
    },
    {
      "anonymous": false,
      "inputs": [
        {
          "indexed": true,
          "internalType": "bool",
          "name": "newValue",
          "type": "bool"
        }
      ],
      "name": "CompletedAssetValueChanged",
      "type": "event"
    },
    {
      "anonymous": false,
      "inputs": [
        {
          "indexed": true,
          "internalType": "bool",
          "name": "newValue",
          "type": "bool"
        }
      ],
      "name": "CompletedTaskValueChanged",
      "type": "event"
    },
    {
      "anonymous": false,
      "inputs": [
        {
          "indexed": true,
          "internalType": "address",
          "name": "who",
          "type": "address"
        },
        {
          "indexed": true,
          "internalType": "address",
          "name": "signator",
          "type": "address"
        }
      ],
      "name": "Sender",
      "type": "event"
    },
    {
      "anonymous": false,
      "inputs": [
        {
          "indexed": true,
          "internalType": "uint256",
          "name": "id",
          "type": "uint256"
        },
        {
          "indexed": true,
          "internalType": "address",
          "name": "who",
          "type": "address"
        },
        {
          "indexed": true,
          "internalType": "string",
          "name": "content",
          "type": "string"
        }
      ],
      "name": "TaskCreated",
      "type": "event"
    },
    {
      "inputs": [],
      "name": "assetCount",
      "outputs": [
        {
          "internalType": "uint256",
          "name": "",
          "type": "uint256"
        }
      ],
      "stateMutability": "view",
      "type": "function"
    },
    {
      "inputs": [
        {
          "internalType": "uint256",
          "name": "",
          "type": "uint256"
        },
        {
          "internalType": "uint256",
          "name": "",
          "type": "uint256"
        }
      ],
      "name": "assetTaskMap",
      "outputs": [
        {
          "internalType": "uint256",
          "name": "id",
          "type": "uint256"
        },
        {
          "internalType": "string",
          "name": "content",
          "type": "string"
        },
        {
          "internalType": "string",
          "name": "creator_note",
          "type": "string"
        },
        {
          "internalType": "string",
          "name": "intermediary_note",
          "type": "string"
        },
        {
          "internalType": "uint256",
          "name": "creationTime",
          "type": "uint256"
        },
        {
          "internalType": "uint256",
          "name": "compltionTime",
          "type": "uint256"
        },
        {
          "internalType": "bool",
          "name": "completed",
          "type": "bool"
        },
        {
          "internalType": "address",
          "name": "signator",
          "type": "address"
        },
        {
          "components": [
            {
              "internalType": "uint256",
              "name": "id",
              "type": "uint256"
            },
            {
              "internalType": "string",
              "name": "assetName",
              "type": "string"
            },
            {
              "internalType": "string",
              "name": "description",
              "type": "string"
            },
            {
              "internalType": "uint256",
              "name": "creationTime",
              "type": "uint256"
            },
            {
              "internalType": "uint256",
              "name": "compltionTime",
              "type": "uint256"
            },
            {
              "internalType": "uint256",
              "name": "quantity",
              "type": "uint256"
            },
            {
              "internalType": "bool",
              "name": "completed",
              "type": "bool"
            },
            {
              "internalType": "address",
              "name": "creator",
              "type": "address"
            }
          ],
          "internalType": "struct Assets.Asset",
          "name": "asset",
          "type": "tuple"
        }
      ],
      "stateMutability": "view",
      "type": "function"
    },
    {
      "inputs": [
        {
          "internalType": "uint256",
          "name": "",
          "type": "uint256"
        }
      ],
      "name": "assets",
      "outputs": [
        {
          "internalType": "uint256",
          "name": "id",
          "type": "uint256"
        },
        {
          "internalType": "string",
          "name": "assetName",
          "type": "string"
        },
        {
          "internalType": "string",
          "name": "description",
          "type": "string"
        },
        {
          "internalType": "uint256",
          "name": "creationTime",
          "type": "uint256"
        },
        {
          "internalType": "uint256",
          "name": "compltionTime",
          "type": "uint256"
        },
        {
          "internalType": "uint256",
          "name": "quantity",
          "type": "uint256"
        },
        {
          "internalType": "bool",
          "name": "completed",
          "type": "bool"
        },
        {
          "internalType": "address",
          "name": "creator",
          "type": "address"
        }
      ],
      "stateMutability": "view",
      "type": "function"
    },
    {
      "inputs": [
        {
          "internalType": "string",
          "name": "_assetName",
          "type": "string"
        },
        {
          "internalType": "string",
          "name": "_description",
          "type": "string"
        },
        {
          "internalType": "uint256",
          "name": "_quantity",
          "type": "uint256"
        }
      ],
      "name": "createAsset",
      "outputs": [
        {
          "internalType": "bool",
          "name": "",
          "type": "bool"
        }
      ],
      "stateMutability": "nonpayable",
      "type": "function"
    },
    {
      "inputs": [
        {
          "internalType": "string[5]",
          "name": "_assetNames",
          "type": "string[5]"
        },
        {
          "internalType": "string[5]",
          "name": "_description",
          "type": "string[5]"
        },
        {
          "internalType": "uint16[5]",
          "name": "_quantities",
          "type": "uint16[5]"
        }
      ],
      "name": "createAssets",
      "outputs": [
        {
          "internalType": "bool",
          "name": "",
          "type": "bool"
        }
      ],
      "stateMutability": "nonpayable",
      "type": "function"
    },
    {
      "inputs": [],
      "name": "getAssets",
      "outputs": [
        {
          "components": [
            {
              "internalType": "uint256",
              "name": "id",
              "type": "uint256"
            },
            {
              "internalType": "string",
              "name": "assetName",
              "type": "string"
            },
            {
              "internalType": "string",
              "name": "description",
              "type": "string"
            },
            {
              "internalType": "uint256",
              "name": "creationTime",
              "type": "uint256"
            },
            {
              "internalType": "uint256",
              "name": "compltionTime",
              "type": "uint256"
            },
            {
              "internalType": "uint256",
              "name": "quantity",
              "type": "uint256"
            },
            {
              "internalType": "bool",
              "name": "completed",
              "type": "bool"
            },
            {
              "internalType": "address",
              "name": "creator",
              "type": "address"
            }
          ],
          "internalType": "struct Assets.Asset[]",
          "name": "",
          "type": "tuple[]"
        }
      ],
      "stateMutability": "view",
      "type": "function"
    },
    {
      "inputs": [
        {
          "internalType": "address",
          "name": "_userAddress",
          "type": "address"
        }
      ],
      "name": "getUserAssets",
      "outputs": [
        {
          "components": [
            {
              "internalType": "uint256",
              "name": "id",
              "type": "uint256"
            },
            {
              "internalType": "string",
              "name": "assetName",
              "type": "string"
            },
            {
              "internalType": "string",
              "name": "description",
              "type": "string"
            },
            {
              "internalType": "uint256",
              "name": "creationTime",
              "type": "uint256"
            },
            {
              "internalType": "uint256",
              "name": "compltionTime",
              "type": "uint256"
            },
            {
              "internalType": "uint256",
              "name": "quantity",
              "type": "uint256"
            },
            {
              "internalType": "bool",
              "name": "completed",
              "type": "bool"
            },
            {
              "internalType": "address",
              "name": "creator",
              "type": "address"
            }
          ],
          "internalType": "struct Assets.Asset[]",
          "name": "",
          "type": "tuple[]"
        }
      ],
      "stateMutability": "view",
      "type": "function"
    },
    {
      "inputs": [],
      "name": "taskCount",
      "outputs": [
        {
          "internalType": "uint256",
          "name": "",
          "type": "uint256"
        }
      ],
      "stateMutability": "view",
      "type": "function"
    },
    {
      "inputs": [
        {
          "internalType": "uint256",
          "name": "",
          "type": "uint256"
        }
      ],
      "name": "tasks",
      "outputs": [
        {
          "internalType": "uint256",
          "name": "id",
          "type": "uint256"
        },
        {
          "internalType": "string",
          "name": "content",
          "type": "string"
        },
        {
          "internalType": "string",
          "name": "creator_note",
          "type": "string"
        },
        {
          "internalType": "string",
          "name": "intermediary_note",
          "type": "string"
        },
        {
          "internalType": "uint256",
          "name": "creationTime",
          "type": "uint256"
        },
        {
          "internalType": "uint256",
          "name": "compltionTime",
          "type": "uint256"
        },
        {
          "internalType": "bool",
          "name": "completed",
          "type": "bool"
        },
        {
          "internalType": "address",
          "name": "signator",
          "type": "address"
        },
        {
          "components": [
            {
              "internalType": "uint256",
              "name": "id",
              "type": "uint256"
            },
            {
              "internalType": "string",
              "name": "assetName",
              "type": "string"
            },
            {
              "internalType": "string",
              "name": "description",
              "type": "string"
            },
            {
              "internalType": "uint256",
              "name": "creationTime",
              "type": "uint256"
            },
            {
              "internalType": "uint256",
              "name": "compltionTime",
              "type": "uint256"
            },
            {
              "internalType": "uint256",
              "name": "quantity",
              "type": "uint256"
            },
            {
              "internalType": "bool",
              "name": "completed",
              "type": "bool"
            },
            {
              "internalType": "address",
              "name": "creator",
              "type": "address"
            }
          ],
          "internalType": "struct Assets.Asset",
          "name": "asset",
          "type": "tuple"
        }
      ],
      "stateMutability": "view",
      "type": "function"
    },
    {
      "inputs": [
        {
          "internalType": "uint256",
          "name": "_id",
          "type": "uint256"
        }
      ],
      "name": "toggleAssetCompleted",
      "outputs": [
        {
          "internalType": "bool",
          "name": "newCompletionStatus",
          "type": "bool"
        }
      ],
      "stateMutability": "nonpayable",
      "type": "function"
    },
    {
      "inputs": [
        {
          "internalType": "uint256[]",
          "name": "_assetIds",
          "type": "uint256[]"
        }
      ],
      "name": "toggleAssetsCompleted",
      "outputs": [
        {
          "internalType": "bool",
          "name": "",
          "type": "bool"
        }
      ],
      "stateMutability": "nonpayable",
      "type": "function"
    },
    {
      "inputs": [
        {
          "internalType": "address",
          "name": "",
          "type": "address"
        },
        {
          "internalType": "uint256",
          "name": "",
          "type": "uint256"
        }
      ],
      "name": "userAssetMap",
      "outputs": [
        {
          "internalType": "uint256",
          "name": "id",
          "type": "uint256"
        },
        {
          "internalType": "string",
          "name": "assetName",
          "type": "string"
        },
        {
          "internalType": "string",
          "name": "description",
          "type": "string"
        },
        {
          "internalType": "uint256",
          "name": "creationTime",
          "type": "uint256"
        },
        {
          "internalType": "uint256",
          "name": "compltionTime",
          "type": "uint256"
        },
        {
          "internalType": "uint256",
          "name": "quantity",
          "type": "uint256"
        },
        {
          "internalType": "bool",
          "name": "completed",
          "type": "bool"
        },
        {
          "internalType": "address",
          "name": "creator",
          "type": "address"
        }
      ],
      "stateMutability": "view",
      "type": "function"
    },
    {
      "inputs": [
        {
          "internalType": "string[3]",
          "name": "_taskContents",
          "type": "string[3]"
        },
        {
          "internalType": "string[3]",
          "name": "_notes",
          "type": "string[3]"
        },
        {
          "internalType": "uint8[3]",
          "name": "_assetIds",
          "type": "uint8[3]"
        },
        {
          "internalType": "address[3]",
          "name": "_adresses",
          "type": "address[3]"
        }
      ],
      "name": "createTasks",
      "outputs": [
        {
          "internalType": "bool",
          "name": "",
          "type": "bool"
        }
      ],
      "stateMutability": "nonpayable",
      "type": "function"
    },
    {
      "inputs": [
        {
          "internalType": "string",
          "name": "_taskContent",
          "type": "string"
        },
        {
          "internalType": "string",
          "name": "_note",
          "type": "string"
        },
        {
          "internalType": "uint256",
          "name": "_assetId",
          "type": "uint256"
        },
        {
          "internalType": "address",
          "name": "_signator",
          "type": "address"
        }
      ],
      "name": "createTask",
      "outputs": [
        {
          "internalType": "bool",
          "name": "",
          "type": "bool"
        }
      ],
      "stateMutability": "nonpayable",
      "type": "function"
    },
    {
      "inputs": [
        {
          "internalType": "uint256",
          "name": "_assetID",
          "type": "uint256"
        }
      ],
      "name": "getAssetTasks",
      "outputs": [
        {
          "components": [
            {
              "internalType": "uint256",
              "name": "id",
              "type": "uint256"
            },
            {
              "internalType": "string",
              "name": "content",
              "type": "string"
            },
            {
              "internalType": "string",
              "name": "creator_note",
              "type": "string"
            },
            {
              "internalType": "string",
              "name": "intermediary_note",
              "type": "string"
            },
            {
              "internalType": "uint256",
              "name": "creationTime",
              "type": "uint256"
            },
            {
              "internalType": "uint256",
              "name": "compltionTime",
              "type": "uint256"
            },
            {
              "internalType": "bool",
              "name": "completed",
              "type": "bool"
            },
            {
              "internalType": "address",
              "name": "signator",
              "type": "address"
            },
            {
              "components": [
                {
                  "internalType": "uint256",
                  "name": "id",
                  "type": "uint256"
                },
                {
                  "internalType": "string",
                  "name": "assetName",
                  "type": "string"
                },
                {
                  "internalType": "string",
                  "name": "description",
                  "type": "string"
                },
                {
                  "internalType": "uint256",
                  "name": "creationTime",
                  "type": "uint256"
                },
                {
                  "internalType": "uint256",
                  "name": "compltionTime",
                  "type": "uint256"
                },
                {
                  "internalType": "uint256",
                  "name": "quantity",
                  "type": "uint256"
                },
                {
                  "internalType": "bool",
                  "name": "completed",
                  "type": "bool"
                },
                {
                  "internalType": "address",
                  "name": "creator",
                  "type": "address"
                }
              ],
              "internalType": "struct Assets.Asset",
              "name": "asset",
              "type": "tuple"
            }
          ],
          "internalType": "struct Tasks.Task[]",
          "name": "",
          "type": "tuple[]"
        }
      ],
      "stateMutability": "view",
      "type": "function"
    },
    {
      "inputs": [
        {
          "internalType": "uint256",
          "name": "_TaskId",
          "type": "uint256"
        },
        {
          "internalType": "string",
          "name": "_note",
          "type": "string"
        }
      ],
      "name": "addDescription",
      "outputs": [
        {
          "internalType": "bool",
          "name": "",
          "type": "bool"
        }
      ],
      "stateMutability": "nonpayable",
      "type": "function"
    },
    {
      "inputs": [
        {
          "internalType": "uint256",
          "name": "_id",
          "type": "uint256"
        }
      ],
      "name": "toggleTaskCompleted",
      "outputs": [
        {
          "internalType": "bool",
          "name": "",
          "type": "bool"
        }
      ],
      "stateMutability": "nonpayable",
      "type": "function"
    }
  ],
  "bytecode": "0x608060405260016000556001600355613bee8061001d6000396000f3fe608060405234801561001057600080fd5b506004361061011b5760003560e01c80637cd270fb116100b2578063b6cb58a511610081578063cf35bdd011610066578063cf35bdd01461027b578063eafe7a741461028e578063f2bdc0351461029757600080fd5b8063b6cb58a514610251578063c5c28d9a1461026857600080fd5b80637cd270fb146101f05780638d9776721461020357806390902da51461022b578063b51f79e31461023e57600080fd5b80636140dd60116100ee5780636140dd60146101a257806367e4ac2c146101b5578063765ff061146101ca5780637c6d3726146101dd57600080fd5b80631a55cc48146101205780631c0034a6146101485780631f69a0091461016f5780634e1347a71461018f575b600080fd5b61013361012e366004613266565b6102aa565b60405190151581526020015b60405180910390f35b61015b6101563660046132e4565b610a40565b60405161013f98979695949392919061336a565b61018261017d3660046133cf565b610bc3565b60405161013f919061346c565b61013361019d3660046133cf565b610fcd565b6101336101b03660046133cf565b61141d565b6101bd611bb9565b60405161013f9190613573565b6101bd6101d83660046135d5565b611d8e565b6101336101eb36600461366a565b611f6a565b6101336101fe36600461372f565b611feb565b6102166102113660046133cf565b612086565b60405161013f999897969594939291906137d5565b61021661023936600461385f565b612407565b61013361024c366004613881565b61244d565b61025a60035481565b60405190815260200161013f565b61013361027636600461397c565b612c79565b61015b6102893660046133cf565b612d14565b61025a60005481565b6101336102a5366004613a50565b612d49565b60006102ff60405180610100016040528060008152602001606081526020016060815260200160008152602001600081526020016000815260200160001515815260200160006001600160a01b031681525090565b600161030b8186613ad3565b8154811061031b5761031b613aea565b9060005260206000209060070201604051806101000160405290816000820154815260200160018201805461034f90613b00565b80601f016020809104026020016040519081016040528092919081815260200182805461037b90613b00565b80156103c85780601f1061039d576101008083540402835291602001916103c8565b820191906000526020600020905b8154815290600101906020018083116103ab57829003601f168201915b505050505081526020016002820180546103e190613b00565b80601f016020809104026020016040519081016040528092919081815260200182805461040d90613b00565b801561045a5780601f1061042f5761010080835404028352916020019161045a565b820191906000526020600020905b81548152906001019060200180831161043d57829003601f168201915b505050918352505060038201546020820152600482015460408201526005820154606082015260069091015460ff81161515608083015261010090046001600160a01b031660a09091015290506104af613007565b600354815260208101879052604081018690524260808201526001600160a01b03841660e082015260016104e38187613ad3565b815481106104f3576104f3613aea565b9060005260206000209060070201604051806101000160405290816000820154815260200160018201805461052790613b00565b80601f016020809104026020016040519081016040528092919081815260200182805461055390613b00565b80156105a05780601f10610575576101008083540402835291602001916105a0565b820191906000526020600020905b81548152906001019060200180831161058357829003601f168201915b505050505081526020016002820180546105b990613b00565b80601f01602080910402602001604051908101604052809291908181526020018280546105e590613b00565b80156106325780601f1061060757610100808354040283529160200191610632565b820191906000526020600020905b81548152906001019060200180831161061557829003601f168201915b5050509183525050600382015460208083019190915260048084015460408401526005840154606084015260069093015460ff8116151560808401526001600160a01b03610100918290041660a0909301929092529084019290925280546001810182556000919091528251600e9091027f8a35acfbc15ff81a39ae7d344fd709f28e8600b4aa8c65c6b64bfe7fe36bd19b810191825583830151805185946106ff937f8a35acfbc15ff81a39ae7d344fd709f28e8600b4aa8c65c6b64bfe7fe36bd19c019201906130ae565b506040820151805161071b9160028401916020909101906130ae565b50606082015180516107379160038401916020909101906130ae565b506080820151600482015560a0820151600582015560c082015160068201805460e08501516001600160a81b0319909116921515610100600160a81b031916929092176101006001600160a01b03909316830217905582015180516007830190815560208083015180516107b192600887019201906130ae565b50604082015180516107cd9160028401916020909101906130ae565b50606082015160038201556080820151600482015560a082015160058083019190915560c08301516006909201805460e0909401516001600160a01b031661010002610100600160a81b0319931515939093166001600160a81b03199094169390931791909117909155915060009050610848600188613ad3565b81526020808201929092526040016000908120805460018181018355918352918390208451600e90930201918255838301518051859461088c9385019201906130ae565b50604082015180516108a89160028401916020909101906130ae565b50606082015180516108c49160038401916020909101906130ae565b506080820151600482015560a0820151600582015560c082015160068201805460e08501516001600160a81b0319909116921515610100600160a81b031916929092176101006001600160a01b039093168302179055820151805160078301908155602080830151805161093e92600887019201906130ae565b506040820151805161095a9160028401916020909101906130ae565b5060608201516003808301919091556080830151600483015560a0830151600583015560c08301516006909201805460e0909401516001600160a01b031661010002610100600160a81b0319931515939093166001600160a81b0319909416939093179190911790915580549250905060006109d583613b3a565b919050555080602001516040516109ec9190613b53565b60405180910390208160e001516001600160a01b031682600001517f5b2493258cbc7169ad9389516998320ce25dc27637cea28ddd0d033af122bfa660405160405180910390a45060019695505050505050565b60026020528160005260406000208181548110610a5c57600080fd5b906000526020600020906007020160009150915050806000015490806001018054610a8690613b00565b80601f0160208091040260200160405190810160405280929190818152602001828054610ab290613b00565b8015610aff5780601f10610ad457610100808354040283529160200191610aff565b820191906000526020600020905b815481529060010190602001808311610ae257829003601f168201915b505050505090806002018054610b1490613b00565b80601f0160208091040260200160405190810160405280929190818152602001828054610b4090613b00565b8015610b8d5780601f10610b6257610100808354040283529160200191610b8d565b820191906000526020600020905b815481529060010190602001808311610b7057829003601f168201915b505050506003830154600484015460058501546006909501549394919390925060ff81169061010090046001600160a01b031688565b60606000600581610bd5600186613ad3565b8152602001908152602001600020805480602002602001604051908101604052809291908181526020016000905b82821015610fc157838290600052602060002090600e02016040518061012001604052908160008201548152602001600182018054610c4190613b00565b80601f0160208091040260200160405190810160405280929190818152602001828054610c6d90613b00565b8015610cba5780601f10610c8f57610100808354040283529160200191610cba565b820191906000526020600020905b815481529060010190602001808311610c9d57829003601f168201915b50505050508152602001600282018054610cd390613b00565b80601f0160208091040260200160405190810160405280929190818152602001828054610cff90613b00565b8015610d4c5780601f10610d2157610100808354040283529160200191610d4c565b820191906000526020600020905b815481529060010190602001808311610d2f57829003601f168201915b50505050508152602001600382018054610d6590613b00565b80601f0160208091040260200160405190810160405280929190818152602001828054610d9190613b00565b8015610dde5780601f10610db357610100808354040283529160200191610dde565b820191906000526020600020905b815481529060010190602001808311610dc157829003601f168201915b505050918352505060048201546020808301919091526005830154604080840191909152600684015460ff8116151560608501526001600160a01b03610100918290041660808501528151908101909152600784018054825260088501805460a0909501949293919291840191610e5490613b00565b80601f0160208091040260200160405190810160405280929190818152602001828054610e8090613b00565b8015610ecd5780601f10610ea257610100808354040283529160200191610ecd565b820191906000526020600020905b815481529060010190602001808311610eb057829003601f168201915b50505050508152602001600282018054610ee690613b00565b80601f0160208091040260200160405190810160405280929190818152602001828054610f1290613b00565b8015610f5f5780601f10610f3457610100808354040283529160200191610f5f565b820191906000526020600020905b815481529060010190602001808311610f4257829003601f168201915b50505091835250506003820154602080830191909152600483015460408301526005830154606083015260069092015460ff81161515608083015261010090046001600160a01b031660a0909101529152918352506001929092019101610c03565b50929695505050505050565b6001546000908211156110275760405162461bcd60e51b815260206004820152600e60248201527f4964206e6f74206372656174656400000000000000000000000000000000000060448201526064015b60405180910390fd5b600060016110358185613ad3565b8154811061104557611045613aea565b9060005260206000209060070201604051806101000160405290816000820154815260200160018201805461107990613b00565b80601f01602080910402602001604051908101604052809291908181526020018280546110a590613b00565b80156110f25780601f106110c7576101008083540402835291602001916110f2565b820191906000526020600020905b8154815290600101906020018083116110d557829003601f168201915b5050505050815260200160028201805461110b90613b00565b80601f016020809104026020016040519081016040528092919081815260200182805461113790613b00565b80156111845780601f1061115957610100808354040283529160200191611184565b820191906000526020600020905b81548152906001019060200180831161116757829003601f168201915b505050918352505060038201546020820152600482015460408201526005820154606082015260069091015460ff81161515608083015261010090046001600160a01b031660a09091015260c0810180511590819052925090508060016111eb8186613ad3565b815481106111fb576111fb613aea565b906000526020600020906007020160008201518160000155602082015181600101908051906020019061122f9291906130ae565b506040820151805161124b9160028401916020909101906130ae565b50606082015160038201556080820151600482015560a0820151600582015560c08201516006909101805460e0909301516001600160a01b031661010002610100600160a81b0319921515929092166001600160a81b03199093169290921717905560006112b833611d8e565b905060005b600182516112cb9190613ad3565b8160ff16101561130f5784828260ff16815181106112eb576112eb613aea565b602002602001015160000151031561130f578061130781613b6f565b9150506112bd565b336000908152600260205260409020805484919060ff841690811061133657611336613aea565b906000526020600020906007020160008201518160000155602082015181600101908051906020019061136a9291906130ae565b50604082015180516113869160028401916020909101906130ae565b50606082015160038201556080820151600482015560a0820151600582015560c08201516006909101805460e0909301516001600160a01b031661010002610100600160a81b0319921515929092166001600160a81b031990931692909217179055604051841515907ff22cbfb622d75dcf8b8a0f945daa607fe2e0c01b5938db80499d4daf538ac1e490600090a2505050919050565b600080600461142d600185613ad3565b8154811061143d5761143d613aea565b90600052602060002090600e0201604051806101200160405290816000820154815260200160018201805461147190613b00565b80601f016020809104026020016040519081016040528092919081815260200182805461149d90613b00565b80156114ea5780601f106114bf576101008083540402835291602001916114ea565b820191906000526020600020905b8154815290600101906020018083116114cd57829003601f168201915b5050505050815260200160028201805461150390613b00565b80601f016020809104026020016040519081016040528092919081815260200182805461152f90613b00565b801561157c5780601f106115515761010080835404028352916020019161157c565b820191906000526020600020905b81548152906001019060200180831161155f57829003601f168201915b5050505050815260200160038201805461159590613b00565b80601f01602080910402602001604051908101604052809291908181526020018280546115c190613b00565b801561160e5780601f106115e35761010080835404028352916020019161160e565b820191906000526020600020905b8154815290600101906020018083116115f157829003601f168201915b505050918352505060048201546020808301919091526005830154604080840191909152600684015460ff8116151560608501526001600160a01b03610100918290041660808501528151908101909152600784018054825260088501805460a090950194929391929184019161168490613b00565b80601f01602080910402602001604051908101604052809291908181526020018280546116b090613b00565b80156116fd5780601f106116d2576101008083540402835291602001916116fd565b820191906000526020600020905b8154815290600101906020018083116116e057829003601f168201915b5050505050815260200160028201805461171690613b00565b80601f016020809104026020016040519081016040528092919081815260200182805461174290613b00565b801561178f5780601f106117645761010080835404028352916020019161178f565b820191906000526020600020905b81548152906001019060200180831161177257829003601f168201915b50505091835250506003820154602082015260048083015460408301526005830154606083015260069092015460ff81161515608083015261010090046001600160a01b031660a090910152915260c083018051159052919250829190506117f8600186613ad3565b8154811061180857611808613aea565b90600052602060002090600e020160008201518160000155602082015181600101908051906020019061183c9291906130ae565b50604082015180516118589160028401916020909101906130ae565b50606082015180516118749160038401916020909101906130ae565b506080820151600482015560a0820151600582015560c082015160068201805460e08501516001600160a81b0319909116921515610100600160a81b031916929092176101006001600160a01b03909316830217905582015180516007830190815560208083015180516118ee92600887019201906130ae565b506040820151805161190a9160028401916020909101906130ae565b50606082015160038201556080820151600482015560a0820151600582015560c08201516006909101805460e0909301516001600160a81b0319909316911515610100600160a81b031916919091176101006001600160a01b039093168302179055830151516000925061197e9150610bc3565b905060005b600182516119919190613ad3565b8160ff1610156119d55784828260ff16815181106119b1576119b1613aea565b60200260200101516000015103156119d557806119cd81613b6f565b915050611983565b82600560006001866101000151600001516119f09190613ad3565b81526020019081526020016000208260ff1681548110611a1257611a12613aea565b90600052602060002090600e0201600082015181600001556020820151816001019080519060200190611a469291906130ae565b5060408201518051611a629160028401916020909101906130ae565b5060608201518051611a7e9160038401916020909101906130ae565b506080820151600482015560a0820151600582015560c082015160068201805460e08501516001600160a81b0319909116921515610100600160a81b031916929092176101006001600160a01b0390931683021790558201518051600783019081556020808301518051611af892600887019201906130ae565b5060408201518051611b149160028401916020909101906130ae565b50606082015160038201556080820151600482015560a0820151600582015560c0808301516006909201805460e0909401516001600160a01b031661010002610100600160a81b0319931515939093166001600160a81b03199094169390931791909117909155850151604051901592507fdc3b9f81fbc5ccc1135e0011003cd9da4e4edd29dc106ca34c8d3724b9eb4a3e9150600090a2505060c001511592915050565b60606001805480602002602001604051908101604052809291908181526020016000905b82821015611d8557838290600052602060002090600702016040518061010001604052908160008201548152602001600182018054611c1b90613b00565b80601f0160208091040260200160405190810160405280929190818152602001828054611c4790613b00565b8015611c945780601f10611c6957610100808354040283529160200191611c94565b820191906000526020600020905b815481529060010190602001808311611c7757829003601f168201915b50505050508152602001600282018054611cad90613b00565b80601f0160208091040260200160405190810160405280929190818152602001828054611cd990613b00565b8015611d265780601f10611cfb57610100808354040283529160200191611d26565b820191906000526020600020905b815481529060010190602001808311611d0957829003601f168201915b50505091835250506003820154602080830191909152600483015460408301526005830154606083015260069092015460ff81161515608083015261010090046001600160a01b031660a0909101529082526001929092019101611bdd565b50505050905090565b6001600160a01b03811660009081526002602090815260408083208054825181850281018501909352808352606094859484015b82821015610fc157838290600052602060002090600702016040518061010001604052908160008201548152602001600182018054611e0090613b00565b80601f0160208091040260200160405190810160405280929190818152602001828054611e2c90613b00565b8015611e795780601f10611e4e57610100808354040283529160200191611e79565b820191906000526020600020905b815481529060010190602001808311611e5c57829003601f168201915b50505050508152602001600282018054611e9290613b00565b80601f0160208091040260200160405190810160405280929190818152602001828054611ebe90613b00565b8015611f0b5780601f10611ee057610100808354040283529160200191611f0b565b820191906000526020600020905b815481529060010190602001808311611eee57829003601f168201915b50505091835250506003820154602080830191909152600483015460408301526005830154606083015260069092015460ff81161515608083015261010090046001600160a01b031660a0909101529082526001929092019101611dc2565b6000600560005b818160ff161015611fdf57611fd6868260ff1660058110611f9457611f94613aea565b6020020151868360ff1660058110611fae57611fae613aea565b6020020151868460ff1660058110611fc857611fc8613aea565b602002015161ffff16612d49565b50600101611f71565b50600195945050505050565b8051600090600681106120405760405162461bcd60e51b815260206004820152601860248201527f546f6f206d616e79206173736574732073656c65637465640000000000000000604482015260640161101e565b60005b818160ff16101561207c57612073848260ff168151811061206657612066613aea565b6020026020010151610fcd565b50600101612043565b5060019392505050565b6004818154811061209657600080fd5b60009182526020909120600e909102018054600182018054919350906120bb90613b00565b80601f01602080910402602001604051908101604052809291908181526020018280546120e790613b00565b80156121345780601f1061210957610100808354040283529160200191612134565b820191906000526020600020905b81548152906001019060200180831161211757829003601f168201915b50505050509080600201805461214990613b00565b80601f016020809104026020016040519081016040528092919081815260200182805461217590613b00565b80156121c25780601f10612197576101008083540402835291602001916121c2565b820191906000526020600020905b8154815290600101906020018083116121a557829003601f168201915b5050505050908060030180546121d790613b00565b80601f016020809104026020016040519081016040528092919081815260200182805461220390613b00565b80156122505780601f1061222557610100808354040283529160200191612250565b820191906000526020600020905b81548152906001019060200180831161223357829003601f168201915b50505060048401546005850154600686015460408051610100818101909252600789018054825260088a018054999a969995985060ff851697506001600160a01b0393909404929092169493909260208401916122ac90613b00565b80601f01602080910402602001604051908101604052809291908181526020018280546122d890613b00565b80156123255780601f106122fa57610100808354040283529160200191612325565b820191906000526020600020905b81548152906001019060200180831161230857829003601f168201915b5050505050815260200160028201805461233e90613b00565b80601f016020809104026020016040519081016040528092919081815260200182805461236a90613b00565b80156123b75780601f1061238c576101008083540402835291602001916123b7565b820191906000526020600020905b81548152906001019060200180831161239a57829003601f168201915b505050918352505060038201546020820152600482015460408201526005820154606082015260069091015460ff81161515608083015261010090046001600160a01b031660a090910152905089565b6005602052816000526040600020818154811061242357600080fd5b90600052602060002090600e0201600091509150508060000154908060010180546120bb90613b00565b600080600461245d600186613ad3565b8154811061246d5761246d613aea565b90600052602060002090600e020160405180610120016040529081600082015481526020016001820180546124a190613b00565b80601f01602080910402602001604051908101604052809291908181526020018280546124cd90613b00565b801561251a5780601f106124ef5761010080835404028352916020019161251a565b820191906000526020600020905b8154815290600101906020018083116124fd57829003601f168201915b5050505050815260200160028201805461253390613b00565b80601f016020809104026020016040519081016040528092919081815260200182805461255f90613b00565b80156125ac5780601f10612581576101008083540402835291602001916125ac565b820191906000526020600020905b81548152906001019060200180831161258f57829003601f168201915b505050505081526020016003820180546125c590613b00565b80601f01602080910402602001604051908101604052809291908181526020018280546125f190613b00565b801561263e5780601f106126135761010080835404028352916020019161263e565b820191906000526020600020905b81548152906001019060200180831161262157829003601f168201915b505050918352505060048201546020808301919091526005830154604080840191909152600684015460ff8116151560608501526001600160a01b03610100918290041660808501528151908101909152600784018054825260088501805460a09095019492939192918401916126b490613b00565b80601f01602080910402602001604051908101604052809291908181526020018280546126e090613b00565b801561272d5780601f106127025761010080835404028352916020019161272d565b820191906000526020600020905b81548152906001019060200180831161271057829003601f168201915b5050505050815260200160028201805461274690613b00565b80601f016020809104026020016040519081016040528092919081815260200182805461277290613b00565b80156127bf5780601f10612794576101008083540402835291602001916127bf565b820191906000526020600020905b8154815290600101906020018083116127a257829003601f168201915b50505091835250506003820154602082015260048201546040808301919091526005830154606083015260069092015460ff8116151560808301526001600160a01b03610100909104811660a0909201919091529190925260e0840151915193945016913391507f2960695afa2609b7591ca0b79d5586f853e610ce0515852f7a5ced78fd32ade990600090a38060e001516001600160a01b0316336001600160a01b0316146128d75760405162461bcd60e51b815260206004820152602b60248201527f546869732066756e6374696f6e206973207265737472696374656420746f207460448201527f6865207369676e61746f72000000000000000000000000000000000000000000606482015260840161101e565b606081018390528060046128ec600187613ad3565b815481106128fc576128fc613aea565b90600052602060002090600e02016000820151816000015560208201518160010190805190602001906129309291906130ae565b506040820151805161294c9160028401916020909101906130ae565b50606082015180516129689160038401916020909101906130ae565b506080820151600482015560a0820151600582015560c082015160068201805460e08501516001600160a81b0319909116921515610100600160a81b031916929092176101006001600160a01b03909316830217905582015180516007830190815560208083015180516129e292600887019201906130ae565b50604082015180516129fe9160028401916020909101906130ae565b50606082015160038201556080820151600482015560a0820151600582015560c08201516006909101805460e0909301516001600160a81b0319909316911515610100600160a81b031916919091176101006001600160a01b0390931683021790558301515160009250612a729150610bc3565b905060005b60018251612a859190613ad3565b8160ff161015612ac95785828260ff1681518110612aa557612aa5613aea565b6020026020010151600001510315612ac95780612ac181613b6f565b915050612a77565b8260056000600186610100015160000151612ae49190613ad3565b81526020019081526020016000208260ff1681548110612b0657612b06613aea565b90600052602060002090600e0201600082015181600001556020820151816001019080519060200190612b3a9291906130ae565b5060408201518051612b569160028401916020909101906130ae565b5060608201518051612b729160038401916020909101906130ae565b506080820151600482015560a0820151600582015560c082015160068201805460e08501516001600160a81b0319909116921515610100600160a81b031916929092176101006001600160a01b0390931683021790558201518051600783019081556020808301518051612bec92600887019201906130ae565b5060408201518051612c089160028401916020909101906130ae565b50606082015160038201556080820151600482015560a0820151600582015560c08201516006909101805460e0909301516001600160a01b031661010002610100600160a81b0319921515929092166001600160a81b03199093169290921717905550600194505050505092915050565b6000600360005b818160ff161015612d0757612cfe878260ff1660038110612ca357612ca3613aea565b6020020151878360ff1660038110612cbd57612cbd613aea565b6020020151878460ff1660038110612cd757612cd7613aea565b602002015160ff16878560ff1660038110612cf457612cf4613aea565b60200201516102aa565b50600101612c80565b5060019695505050505050565b60018181548110612d2457600080fd5b60009182526020909120600790910201805460018201805491935090610a8690613b00565b6000612d9e60405180610100016040528060008152602001606081526020016060815260200160008152602001600081526020016000815260200160001515815260200160006001600160a01b031681525090565b60008054825260208083018781526040840187905242606085015260a084018690523360e08501526001805480820182559352835160079093027fb10e2d527612073b26eecdfd717e6a320cf44b4afac2b0732d9fcbe2b7fa0cf6810193845590518051859493612e33937fb10e2d527612073b26eecdfd717e6a320cf44b4afac2b0732d9fcbe2b7fa0cf7019201906130ae565b5060408201518051612e4f9160028401916020909101906130ae565b50606082015160038201556080820151600482015560a0820151600582015560c08201516006909101805460e0909301516001600160a01b031661010002610100600160a81b0319921515929092166001600160a81b0319909316929092171790553360009081526002602090815260408220805460018181018355918452928290208451600790940201928355838201518051859493612ef49385019201906130ae565b5060408201518051612f109160028401916020909101906130ae565b50606082015160038201556080820151600482015560a0820151600582015560c08201516006909101805460e0909301516001600160a01b031661010002610100600160a81b0319921515929092166001600160a81b031990931692909217179055600080548190612f8190613b3a565b919050819055508060e001516001600160a01b03168160200151604051612fa89190613b53565b604051809103902082600001517fc332eb430b0efd9f7423746a02f070eff066ac3b735eb56a3b502e5dd2039d4f84604001518560a001518660c00151604051612ff493929190613b8e565b60405180910390a4506001949350505050565b60405180610120016040528060008152602001606081526020016060815260200160608152602001600081526020016000815260200160001515815260200160006001600160a01b031681526020016130a960405180610100016040528060008152602001606081526020016060815260200160008152602001600081526020016000815260200160001515815260200160006001600160a01b031681525090565b905290565b8280546130ba90613b00565b90600052602060002090601f0160209004810192826130dc5760008555613122565b82601f106130f557805160ff1916838001178555613122565b82800160010185558215613122579182015b82811115613122578251825591602001919060010190613107565b5061312e929150613132565b5090565b5b8082111561312e5760008155600101613133565b634e487b7160e01b600052604160045260246000fd5b60405160a0810167ffffffffffffffff8111828210171561318057613180613147565b60405290565b6040516060810167ffffffffffffffff8111828210171561318057613180613147565b604051601f8201601f1916810167ffffffffffffffff811182821017156131d2576131d2613147565b604052919050565b600082601f8301126131eb57600080fd5b813567ffffffffffffffff81111561320557613205613147565b613218601f8201601f19166020016131a9565b81815284602083860101111561322d57600080fd5b816020850160208301376000918101602001919091529392505050565b80356001600160a01b038116811461326157600080fd5b919050565b6000806000806080858703121561327c57600080fd5b843567ffffffffffffffff8082111561329457600080fd5b6132a0888389016131da565b955060208701359150808211156132b657600080fd5b506132c3878288016131da565b935050604085013591506132d96060860161324a565b905092959194509250565b600080604083850312156132f757600080fd5b6133008361324a565b946020939093013593505050565b60005b83811015613329578181015183820152602001613311565b83811115613338576000848401525b50505050565b6000815180845261335681602086016020860161330e565b601f01601f19169290920160200192915050565b60006101008a83528060208401526133848184018b61333e565b90508281036040840152613398818a61333e565b60608401989098525050608081019490945260a0840192909252151560c08301526001600160a01b031660e0909101529392505050565b6000602082840312156133e157600080fd5b5035919050565b60006101008251845260208301518160208601526134088286018261333e565b91505060408301518482036040860152613422828261333e565b915050606083015160608501526080830151608085015260a083015160a085015260c0830151151560c08501526001600160a01b0360e08401511660e08501528091505092915050565b60006020808301818452808551808352604092508286019150828160051b87010184880160005b8381101561356557603f1989840301855281516101208151855288820151818a8701526134c28287018261333e565b91505087820151858203898701526134da828261333e565b915050606080830151868303828801526134f4838261333e565b92505050608080830151818701525060a080830151818701525060c0808301516135218288018215159052565b505060e0828101516001600160a01b031690860152610100918201518582039286019290925261355181836133e8565b968901969450505090860190600101613493565b509098975050505050505050565b6000602080830181845280855180835260408601915060408160051b870101925083870160005b828110156135c857603f198886030184526135b68583516133e8565b9450928501929085019060010161359a565b5092979650505050505050565b6000602082840312156135e757600080fd5b6135f08261324a565b9392505050565b600082601f83011261360857600080fd5b61361061315d565b8060a084018581111561362257600080fd5b845b8181101561365f57803567ffffffffffffffff8111156136445760008081fd5b613650888289016131da565b85525060209384019301613624565b509095945050505050565b600080600060e0848603121561367f57600080fd5b833567ffffffffffffffff8082111561369757600080fd5b6136a3878388016135f7565b94506020915081860135818111156136ba57600080fd5b6136c6888289016135f7565b9450505085605f8601126136d957600080fd5b6136e161315d565b8060e08701888111156136f357600080fd5b604088015b8181101561372057803561ffff811681146137135760008081fd5b84529284019284016136f8565b50508093505050509250925092565b6000602080838503121561374257600080fd5b823567ffffffffffffffff8082111561375a57600080fd5b818501915085601f83011261376e57600080fd5b81358181111561378057613780613147565b8060051b91506137918483016131a9565b81815291830184019184810190888411156137ab57600080fd5b938501935b838510156137c9578435825293850193908501906137b0565b98975050505050505050565b60006101208b83528060208401526137ef8184018c61333e565b90508281036040840152613803818b61333e565b90508281036060840152613817818a61333e565b90508760808401528660a084015285151560c08401526001600160a01b03851660e084015282810361010084015261384f81856133e8565b9c9b505050505050505050505050565b6000806040838503121561387257600080fd5b50508035926020909101359150565b6000806040838503121561389457600080fd5b82359150602083013567ffffffffffffffff8111156138b257600080fd5b6138be858286016131da565b9150509250929050565b600082601f8301126138d957600080fd5b6138e1613186565b8060608401858111156138f357600080fd5b845b8181101561365f57803567ffffffffffffffff8111156139155760008081fd5b613921888289016131da565b855250602093840193016138f5565b600082601f83011261394157600080fd5b613949613186565b80606084018581111561395b57600080fd5b845b8181101561365f5761396e8161324a565b84526020938401930161395d565b600080600080610100858703121561399357600080fd5b843567ffffffffffffffff808211156139ab57600080fd5b6139b7888389016138c8565b95506020915081870135818111156139ce57600080fd5b6139da89828a016138c8565b9550505086605f8701126139ed57600080fd5b6139f5613186565b8060a0880189811115613a0757600080fd5b604089015b81811015613a3357803560ff81168114613a265760008081fd5b8452928401928401613a0c565b50819550613a418a82613930565b94505050505092959194509250565b600080600060608486031215613a6557600080fd5b833567ffffffffffffffff80821115613a7d57600080fd5b613a89878388016131da565b94506020860135915080821115613a9f57600080fd5b50613aac868287016131da565b925050604084013590509250925092565b634e487b7160e01b600052601160045260246000fd5b600082821015613ae557613ae5613abd565b500390565b634e487b7160e01b600052603260045260246000fd5b600181811c90821680613b1457607f821691505b602082108103613b3457634e487b7160e01b600052602260045260246000fd5b50919050565b600060018201613b4c57613b4c613abd565b5060010190565b60008251613b6581846020870161330e565b9190910192915050565b600060ff821660ff8103613b8557613b85613abd565b60010192915050565b606081526000613ba1606083018661333e565b60208301949094525090151560409091015291905056fea2646970667358221220dc72e69c3ecbfbdbee84da69ac682f683684e4a3c650b958c0ce038f492b162464736f6c634300080d0033",
  "immutableReferences": {},
  "source": "// SPDX-License-Identifier: GPL-3.0\npragma solidity >=0.8.7;\n// pragma experimental ABIEncoderV2;\n\n//This is an asset contract.\ncontract Assets{\n    uint256 public assetCount = 1; //state variable to keep track of the number of assets.\n    Asset[] public assets; //allows to use id as key to find assets (basically search asset by id)\n    \n    // //mappping each address  with an array of assets (assets each user has created)\n    mapping(address => Asset[]) public userAssetMap;\n\n    //constructor - executed once when a contract is created and it initialises contract state.\n    constructor () payable { \n        // createAssets(\n        //     [\"Berken Bag\", \"PS4\", \"Iphone 6\",\"Xbox 1\",\"Issey Miyake Top\"],\n        //     [\"Pink Bag\", \"Blue Ps4\", \"Pink Iphone\", \"500GB\", \"Home Plissee jacket\"],\n        //     [1000, 4500, 6500,1500,19000]\n        //     );\n    }\n\n    //definition of a data type of Asset using structs\n    struct Asset {\n        //attributes of the struct\n        uint256 id;\n        string assetName; \n        string description; \n        uint256 creationTime;\n        uint256 compltionTime;\n        // enum Status; \n        uint256 quantity;\n        bool completed;\n        address creator;\n    }\n   \n    //creation of events\n    event AssetCreated(uint256 indexed id,string indexed _assetName, string _description,uint256 _quantity, bool completed,address indexed creator);\n    event CompletedAssetValueChanged(bool indexed newValue); \n\n\n    //create multiple assets at once. \n    //Used inn constructor but cann also be implemnted onn front end, \n    //this is one call and saves gas rather than using 5 seperate calls to create asset\n   function createAssets(string[5] memory _assetNames,string[5] memory _description ,uint16[5] memory _quantities) public returns (bool) {\n        uint256  assetLength = _assetNames.length;\n        require(assetLength == _quantities.length, \"Wrong client data\");\n        require(assetLength < 10, \"Wrong number of assets\");\n\n        for(uint8 i=0; i < assetLength;) {\n            \n        createAsset(_assetNames[i],_description[i], _quantities[i]);\n        unchecked {\n            // There is neve going where it underflows \n            // There is never going to be where it overflow \n            ++i;\n        }\n\n        }\n        return true;\n    }\n\n    //create an asset\n    function createAsset(string memory _assetName,string memory _description, uint256 _quantity) public returns (bool){\n        // Checks\n        // Effects \n        Asset memory newAsset; //an empty temporary Asset object\n        // adding the function paramenter values to it then\n        newAsset.id = assetCount;\n        newAsset.assetName = _assetName;\n        newAsset.description = _description;\n        newAsset.creationTime = block.timestamp; //store the unix timestamp of when this function was called\n        newAsset.quantity = _quantity;\n        // newAsset.completed = false; // using solidity language default value for primitives to my advantage\n        newAsset.creator = msg.sender;\n        assets.push(newAsset); // Push the newAsset struct into the asset array\n        userAssetMap[msg.sender].push(newAsset);  // Push the newAsset struct into the asset array related to an eth address\n        // Interaction\n        ++assetCount;\n\n        //emit event to stack\n        emit AssetCreated(\n            newAsset.id,\n            newAsset.assetName,\n            newAsset.description,\n            newAsset.quantity,\n            newAsset.completed,\n            newAsset.creator\n            );\n\n        return true;\n    }\n\n    function getAssets() public view returns (Asset[] memory){\n        return assets;\n    }\n\n    // try calling userAssetMap on it own in front end and see if each idnex is needed!!\n    function getUserAssets(address _userAddress) public view returns (Asset[] memory){\n        Asset[] memory tempAsset;\n        tempAsset = userAssetMap[_userAddress];\n\n        return tempAsset;\n    }\n\n\n    //toggle multiple assets at once. \n    //this is one call and saves gas rather toggling assets complete once at a time\n   function toggleAssetsCompleted(uint256[] memory _assetIds) public returns (bool) {\n        uint256  assetLength = _assetIds.length;\n        require(assetLength < 6, \"Too many assets selected\");\n\n        for(uint8 i=0; i < assetLength;) {\n            \n        toggleAssetCompleted(_assetIds[i]);\n        unchecked {\n            // There is neve going where it underflows \n            // There is never going to be where it overflow \n            ++i;\n        }\n\n        }\n        return true;\n    }\n\n    //change the toggle completed variable to the opposide of current value\n    // should only works if all tasks associated with the asset are completed (need to work on this!)\n    function toggleAssetCompleted(uint256 _id) public returns (bool newCompletionStatus){\n        require(assets.length >= _id, \"Id not created\");\n        Asset memory _asset = assets[ _id - 1];\n        newCompletionStatus = !_asset.completed;\n        _asset.completed = newCompletionStatus;\n        assets[_id - 1] = _asset;\n\n        // find the index of the asset in the userAssetMap\n        Asset[] memory _allAssets = getUserAssets(msg.sender);\n        uint8 index = 0;\n        for (index; index < _allAssets.length-1; index++) {\n            if (_allAssets[index].id == _id) {\n                index = index;\n                break;\n            } \n        }\n        //make these changes in the userAssetMap\n        // userAssetMap[msg.sender][0] = _asset;\n        userAssetMap[msg.sender][index] = _asset;\n\n      \n\n        //toggle asset complete in the userAssetMap\n        emit CompletedAssetValueChanged(newCompletionStatus);\n    }\n\n}\n\n//This is just a task contract.\n// Tasks which inherts from Assets (all functions and variables from Assets can be accessed int Tasks)\ncontract Tasks is Assets{ //make assets the parent contract\n    uint256 public taskCount = 1;//state variable to keep track of the number of assets.\n    Task[] public tasks;//allows to use id as key to find tasks (basically search task by id)\n\n    //mappping each asset (id) with an array of Tasks it is made up of\n    mapping(uint256 => Task[]) public assetTaskMap;\n\n    //constructor - executed once when a contract is created and it initialises contract state.\n\n      constructor () payable { \n        // createTasks(\n        //     [\"Source Leather\", \"Transport to Factory\", \"Assemble the plastic\"],\n        //     [\"Make sure it is the best quality mushroom leather\", \"Make to deliver before 2/03/2022\", \"Make sure to use blue plastic!\"],\n        //     [1, 1, 3],\n        //     [0x5E7b2Bbb14B8a9097A26A93982624067A1dB11dE, 0x5E7b2Bbb14B8a9097A26A93982624067A1dB11dE,0x5B38Da6a701c568545dCfcB03FcB875f56beddC4]\n        //     );\n    }\n\n    //definition of a data type of Task using structs\n    struct Task {\n        //attributes of the struct\n        uint256 id;\n        string content;\n        string creator_note; //the task creators message \n        string intermediary_note; // the signators message (e.g message on why things are behind schedule)\n        uint256 creationTime;\n        uint256 compltionTime;\n        bool completed;\n        address signator;\n        Asset asset; //an Asset object/struct what is associated with the task\n    }\n\n    event Sender(address indexed who, address indexed signator );\n    event TaskCreated(uint indexed id,address indexed who, string indexed content);\n    event CompletedTaskValueChanged(bool indexed newValue);\n\n    //create multiple tasks at once. \n    //Used in constructor but cann also be implemnted onn front end, \n    //this is one call and saves gas rather than using 3 seperate calls to create tasks\n    function createTasks(string[3] memory _taskContents,string[3] memory _notes ,uint8[3] memory _assetIds, address[3] memory _adresses) public returns (bool) {\n        uint256  taskLength = _taskContents.length;\n        require(taskLength == _assetIds.length, \"Wrong client data\");\n        require(taskLength < 5, \"Wrong number of tasks\");\n\n        for(uint8 i=0; i < taskLength;) {\n            createTask(_taskContents[i],_notes[i], _assetIds[i], _adresses[i]);\n            unchecked {\n                // There is neve going where it underflows \n                // There is never going to be where it overflow \n                ++i;\n            }\n\n        }\n    return true;\n    }\n\n    //create a task\n    function createTask(string memory _taskContent,string memory _note, uint256 _assetId, address _signator) public returns (bool){        \n        \n        //get asset assoicated with current task and make sure \n        //the function is being called by the asset creator\n        Asset memory currAsset;  //create empty temporary Asset\n        currAsset = assets[_assetId-1]; //get the associated asset value to store temporary asset\n        // require(msg.sender == currAsset.creator, \"This function is restricted to the asset creator\"); \n\n        //create an empty temporary Task object adding the function paramenter values to it then\n        //it is pushed into the the array of assets\n        Task memory newTask; \n        newTask.id = taskCount;\n        newTask.content = _taskContent;\n        newTask.creator_note = _note;\n        // newTask.intermediary_note = '';\n        newTask.creationTime = block.timestamp;\n        // newTask.completed = false;\n        newTask.signator = _signator;\n        newTask.asset = assets[_assetId-1];\n        tasks.push(newTask); // Push the newTask struct into the task array\n        // map newly created task to its associated assed based on the \"_assedID\"\n        assetTaskMap[_assetId-1].push(newTask); // each assetid maps to a task[]\n        taskCount++;\n\n        emit TaskCreated(\n            newTask.id,\n            newTask.signator,\n            newTask.content\n            );\n        return true;\n    }\n\n    // //get all tasks \n    // function getAllTasks() public view returns (Task[] memory){\n    //     return tasks;\n    // }\n\n    //get all tasks associated with a certain asset (by using assetID)\n   function getAssetTasks( uint256 _assetID) public view returns (Task[] memory){\n        Task[] memory _tasks = assetTaskMap[_assetID-1];\n        return _tasks;\n    }\n\n    // add a message for a task being perfromed (signators message)\n    function addDescription(uint _TaskId,string memory _note ) public returns (bool){\n        Task memory _task = tasks[_TaskId-1];\n        emit Sender(\n            msg.sender,\n            _task.signator\n            );\n        require(msg.sender == _task.signator, \"This function is restricted to the signator\");\n\n        _task.intermediary_note = _note;\n        tasks[_TaskId-1] = _task;\n\n        //make same change inn assetTaskMap\n        // find the index of the task in the assetTaskMap\n        Task[] memory _allTasks = getAssetTasks(_task.asset.id);\n        uint8 index = 0;\n        for (index; index < _allTasks.length-1; index++) {\n            if (_allTasks[index].id == _TaskId) {\n                index = index;\n                break;\n            } \n        }\n        //make these changes in the asset task map\n        // assetTaskMap[_task.asset.id][0] = _task;\n        assetTaskMap[_task.asset.id-1][index] = _task;\n\n\n        \n        return true;\n    }\n\n    //change the toggle completed variable to the opposide of current value\n    function toggleTaskCompleted(uint _id) public returns (bool){\n        Task memory _task = tasks[_id-1];\n        // require(msg.sender == _task.signator, \"This function is restricted to the signator\");\n        _task.completed = !_task.completed;\n        tasks[_id-1] = _task;\n\n\n        // find the index of the task in the assetTaskMap\n        Task[] memory _allTasks = getAssetTasks(_task.asset.id);\n        uint8 index = 0;\n        for (index; index < _allTasks.length-1; index++) {\n            if (_allTasks[index].id == _id) {\n                index = index;\n                break;\n            } \n        }\n        //make these changes in the asset task map\n        // assetTaskMap[_task.asset.id][0] = _task;\n        assetTaskMap[_task.asset.id-1][index] = _task;\n\n      \n        // // Task[] memory _allTasks = getAssetTasks(_task.asset.id);\n        \n        \n\n        emit CompletedTaskValueChanged(!_task.completed);\n        return !_task.completed;  // retruns the new value \n    }\n}\n\n//when a contract inherits from these two only 1 contract is created on the blockchain which is this one\ncontract Unbolt is Tasks{  //inheritance\n\n    constructor () payable { \n        createAssets(\n            [\"Berken Bag\", \"PS4\", \"Iphone 6\",\"Xbox 1\",\"Issey Miyake Top\"],\n            [\"Pink Bag\", \"Blue Ps4\", \"Pink Iphone\", \"500GB\", \"Home Plissee jacket\"],\n            [1000, 4500, 6500,1500,19000]\n        );\n        // createTask(\"contennt\", \"note\", 1, 0x5B38Da6a701c568545dCfcB03FcB875f56beddC4);\n        createTasks(\n            [\"Source Leather\", \"Transport to Factory\", \"Assemble the plastic\"],\n            [\"Make sure it is the best quality mushroom leather\", \"Make to deliver before 2/03/2022\", \"Make sure to use blue plastic!\"],\n            [1, 1, 3],\n            [0x5E7b2Bbb14B8a9097A26A93982624067A1dB11dE, 0x5E7b2Bbb14B8a9097A26A93982624067A1dB11dE,0x5B38Da6a701c568545dCfcB03FcB875f56beddC4]\n        );\n    }\n\n\n}\n\n// unbolt = await Tasks.deployed()\n// unbolt = await Unbolt.deployed()\n\n// 0xA169AcB9061aEAd2a8A6B06ffE008F75f3d70b70\n\n\n\n// https://ethereum.stackexchange.com/questions/25968/how-do-i-control-compiler-settings-with-truffle\n// \"Unbolt\" ran out of gas. Something in the constructor (ex: infinite loop) caused gas estimation to fail. Try:\n//    * Making your contract constructor more efficient (done)\n//    * Setting the gas manually in your config or as a deployment parameter\n//    * Using the solc optimizer settings in 'truffle-config.js' (done)\n//    * Setting a higher network block limit if you are on a\n//      private network or test client (like ganache).",
  "sourcePath": "/Users/tobiadewunmi/Desktop/unbolt/src/truffle/contracts/UnBoltV2.sol",
  "compiler": {
    "name": "solc",
    "version": "0.8.13+commit.abaa5c0e.Emscripten.clang"
  },
  "schemaVersion": "3.4.6",
  "updatedAt": "2022-05-15T10:16:49.298Z",
  "networkType": "ethereum",
  "devdoc": {
    "kind": "dev",
    "methods": {},
    "version": 1
  },
  "userdoc": {
    "kind": "user",
    "methods": {},
    "version": 1
  }
}