{
  "contractName": "Unbolt",
  "abi": [
    {
      "constant": true,
      "inputs": [],
      "name": "assetCount",
      "outputs": [
        {
          "internalType": "uint256",
          "name": "",
          "type": "uint256"
        }
      ],
      "payable": false,
      "stateMutability": "view",
      "type": "function"
    },
    {
      "constant": true,
      "inputs": [
        {
          "internalType": "uint256",
          "name": "",
          "type": "uint256"
        },
        {
          "internalType": "uint256",
          "name": "",
          "type": "uint256"
        }
      ],
      "name": "assetTaskMap",
      "outputs": [
        {
          "internalType": "uint256",
          "name": "id",
          "type": "uint256"
        },
        {
          "internalType": "string",
          "name": "content",
          "type": "string"
        },
        {
          "internalType": "string",
          "name": "creator_note",
          "type": "string"
        },
        {
          "internalType": "string",
          "name": "intermediary_note",
          "type": "string"
        },
        {
          "internalType": "bool",
          "name": "completed",
          "type": "bool"
        },
        {
          "internalType": "address",
          "name": "signator",
          "type": "address"
        },
        {
          "components": [
            {
              "internalType": "uint256",
              "name": "id",
              "type": "uint256"
            },
            {
              "internalType": "string",
              "name": "assetName",
              "type": "string"
            },
            {
              "internalType": "uint256",
              "name": "quantity",
              "type": "uint256"
            },
            {
              "internalType": "bool",
              "name": "completed",
              "type": "bool"
            },
            {
              "internalType": "address",
              "name": "creator",
              "type": "address"
            }
          ],
          "internalType": "struct Assets.Asset",
          "name": "asset",
          "type": "tuple"
        }
      ],
      "payable": false,
      "stateMutability": "view",
      "type": "function"
    },
    {
      "constant": true,
      "inputs": [
        {
          "internalType": "uint256",
          "name": "",
          "type": "uint256"
        }
      ],
      "name": "assets",
      "outputs": [
        {
          "internalType": "uint256",
          "name": "id",
          "type": "uint256"
        },
        {
          "internalType": "string",
          "name": "assetName",
          "type": "string"
        },
        {
          "internalType": "uint256",
          "name": "quantity",
          "type": "uint256"
        },
        {
          "internalType": "bool",
          "name": "completed",
          "type": "bool"
        },
        {
          "internalType": "address",
          "name": "creator",
          "type": "address"
        }
      ],
      "payable": false,
      "stateMutability": "view",
      "type": "function"
    },
    {
      "constant": false,
      "inputs": [
        {
          "internalType": "string",
          "name": "_assetName",
          "type": "string"
        },
        {
          "internalType": "uint256",
          "name": "_quantity",
          "type": "uint256"
        }
      ],
      "name": "createAsset",
      "outputs": [
        {
          "internalType": "bool",
          "name": "",
          "type": "bool"
        }
      ],
      "payable": false,
      "stateMutability": "nonpayable",
      "type": "function"
    },
    {
      "constant": false,
      "inputs": [
        {
          "internalType": "string",
          "name": "_taskContent",
          "type": "string"
        },
        {
          "internalType": "string",
          "name": "_note",
          "type": "string"
        },
        {
          "internalType": "uint256",
          "name": "_assetId",
          "type": "uint256"
        },
        {
          "internalType": "address",
          "name": "_signator",
          "type": "address"
        }
      ],
      "name": "createTask",
      "outputs": [
        {
          "internalType": "bool",
          "name": "",
          "type": "bool"
        }
      ],
      "payable": false,
      "stateMutability": "nonpayable",
      "type": "function"
    },
    {
      "constant": true,
      "inputs": [],
      "name": "getAllTasks",
      "outputs": [
        {
          "components": [
            {
              "internalType": "uint256",
              "name": "id",
              "type": "uint256"
            },
            {
              "internalType": "string",
              "name": "content",
              "type": "string"
            },
            {
              "internalType": "string",
              "name": "creator_note",
              "type": "string"
            },
            {
              "internalType": "string",
              "name": "intermediary_note",
              "type": "string"
            },
            {
              "internalType": "bool",
              "name": "completed",
              "type": "bool"
            },
            {
              "internalType": "address",
              "name": "signator",
              "type": "address"
            },
            {
              "components": [
                {
                  "internalType": "uint256",
                  "name": "id",
                  "type": "uint256"
                },
                {
                  "internalType": "string",
                  "name": "assetName",
                  "type": "string"
                },
                {
                  "internalType": "uint256",
                  "name": "quantity",
                  "type": "uint256"
                },
                {
                  "internalType": "bool",
                  "name": "completed",
                  "type": "bool"
                },
                {
                  "internalType": "address",
                  "name": "creator",
                  "type": "address"
                }
              ],
              "internalType": "struct Assets.Asset",
              "name": "asset",
              "type": "tuple"
            }
          ],
          "internalType": "struct Tasks.Task[]",
          "name": "",
          "type": "tuple[]"
        }
      ],
      "payable": false,
      "stateMutability": "view",
      "type": "function"
    },
    {
      "constant": true,
      "inputs": [
        {
          "internalType": "uint256",
          "name": "_assetID",
          "type": "uint256"
        }
      ],
      "name": "getAssetTasks",
      "outputs": [
        {
          "components": [
            {
              "internalType": "uint256",
              "name": "id",
              "type": "uint256"
            },
            {
              "internalType": "string",
              "name": "content",
              "type": "string"
            },
            {
              "internalType": "string",
              "name": "creator_note",
              "type": "string"
            },
            {
              "internalType": "string",
              "name": "intermediary_note",
              "type": "string"
            },
            {
              "internalType": "bool",
              "name": "completed",
              "type": "bool"
            },
            {
              "internalType": "address",
              "name": "signator",
              "type": "address"
            },
            {
              "components": [
                {
                  "internalType": "uint256",
                  "name": "id",
                  "type": "uint256"
                },
                {
                  "internalType": "string",
                  "name": "assetName",
                  "type": "string"
                },
                {
                  "internalType": "uint256",
                  "name": "quantity",
                  "type": "uint256"
                },
                {
                  "internalType": "bool",
                  "name": "completed",
                  "type": "bool"
                },
                {
                  "internalType": "address",
                  "name": "creator",
                  "type": "address"
                }
              ],
              "internalType": "struct Assets.Asset",
              "name": "asset",
              "type": "tuple"
            }
          ],
          "internalType": "struct Tasks.Task[]",
          "name": "",
          "type": "tuple[]"
        }
      ],
      "payable": false,
      "stateMutability": "view",
      "type": "function"
    },
    {
      "constant": true,
      "inputs": [],
      "name": "getAssets",
      "outputs": [
        {
          "components": [
            {
              "internalType": "uint256",
              "name": "id",
              "type": "uint256"
            },
            {
              "internalType": "string",
              "name": "assetName",
              "type": "string"
            },
            {
              "internalType": "uint256",
              "name": "quantity",
              "type": "uint256"
            },
            {
              "internalType": "bool",
              "name": "completed",
              "type": "bool"
            },
            {
              "internalType": "address",
              "name": "creator",
              "type": "address"
            }
          ],
          "internalType": "struct Assets.Asset[]",
          "name": "",
          "type": "tuple[]"
        }
      ],
      "payable": false,
      "stateMutability": "view",
      "type": "function"
    },
    {
      "constant": true,
      "inputs": [
        {
          "internalType": "uint256",
          "name": "",
          "type": "uint256"
        }
      ],
      "name": "taskAssetMap",
      "outputs": [
        {
          "internalType": "uint256",
          "name": "id",
          "type": "uint256"
        },
        {
          "internalType": "string",
          "name": "assetName",
          "type": "string"
        },
        {
          "internalType": "uint256",
          "name": "quantity",
          "type": "uint256"
        },
        {
          "internalType": "bool",
          "name": "completed",
          "type": "bool"
        },
        {
          "internalType": "address",
          "name": "creator",
          "type": "address"
        }
      ],
      "payable": false,
      "stateMutability": "view",
      "type": "function"
    },
    {
      "constant": true,
      "inputs": [],
      "name": "taskCount",
      "outputs": [
        {
          "internalType": "uint256",
          "name": "",
          "type": "uint256"
        }
      ],
      "payable": false,
      "stateMutability": "view",
      "type": "function"
    },
    {
      "constant": true,
      "inputs": [
        {
          "internalType": "uint256",
          "name": "",
          "type": "uint256"
        }
      ],
      "name": "tasks",
      "outputs": [
        {
          "internalType": "uint256",
          "name": "id",
          "type": "uint256"
        },
        {
          "internalType": "string",
          "name": "content",
          "type": "string"
        },
        {
          "internalType": "string",
          "name": "creator_note",
          "type": "string"
        },
        {
          "internalType": "string",
          "name": "intermediary_note",
          "type": "string"
        },
        {
          "internalType": "bool",
          "name": "completed",
          "type": "bool"
        },
        {
          "internalType": "address",
          "name": "signator",
          "type": "address"
        },
        {
          "components": [
            {
              "internalType": "uint256",
              "name": "id",
              "type": "uint256"
            },
            {
              "internalType": "string",
              "name": "assetName",
              "type": "string"
            },
            {
              "internalType": "uint256",
              "name": "quantity",
              "type": "uint256"
            },
            {
              "internalType": "bool",
              "name": "completed",
              "type": "bool"
            },
            {
              "internalType": "address",
              "name": "creator",
              "type": "address"
            }
          ],
          "internalType": "struct Assets.Asset",
          "name": "asset",
          "type": "tuple"
        }
      ],
      "payable": false,
      "stateMutability": "view",
      "type": "function"
    },
    {
      "constant": false,
      "inputs": [
        {
          "internalType": "uint256",
          "name": "_id",
          "type": "uint256"
        }
      ],
      "name": "toggleAssetCompleted",
      "outputs": [],
      "payable": false,
      "stateMutability": "nonpayable",
      "type": "function"
    },
    {
      "constant": false,
      "inputs": [
        {
          "internalType": "uint256",
          "name": "_id",
          "type": "uint256"
        }
      ],
      "name": "toggleTaskCompleted",
      "outputs": [
        {
          "internalType": "uint256",
          "name": "",
          "type": "uint256"
        }
      ],
      "payable": false,
      "stateMutability": "nonpayable",
      "type": "function"
    }
  ],
  "bytecode": "0x6080604052600080556000600255620000566040518060400160405280600a81526020017f4265726b656e20426167000000000000000000000000000000000000000000008152506103e86200029160201b60201c565b50620000a06040518060400160405280600381526020017f50533400000000000000000000000000000000000000000000000000000000008152506111946200029160201b60201c565b50620000ea6040518060400160405280600881526020017f4970686f6e6520360000000000000000000000000000000000000000000000008152506119646200029160201b60201c565b50620001346040518060400160405280600681526020017f58626f78203100000000000000000000000000000000000000000000000000008152506105dc6200029160201b60201c565b506200017e6040518060400160405280601081526020017f4973736579204d6979616b6520546f7000000000000000000000000000000000815250614a386200029160201b60201c565b50620001f66040518060400160405280600e81526020017f536f75726365204c65617468657200000000000000000000000000000000000081525060405180606001604052806031815260200162003d59603191396001735e7b2bbb14b8a9097a26a93982624067a1db11de620003ec60201b60201c565b506200028a6040518060400160405280601481526020017f5472616e73706f727420746f20466163746f72790000000000000000000000008152506040518060400160405280602081526020017f4d616b6520746f2064656c69766572206265666f726520322f30332f323032328152506001735e7b2bbb14b8a9097a26a93982624067a1db11de620003ec60201b60201c565b5062000cfc565b60008060008154809291906001019190505550620002ae62000b62565b60005481600001818152505083816020018190525082816040018181525050600081606001901515908115158152505033816080019073ffffffffffffffffffffffffffffffffffffffff16908173ffffffffffffffffffffffffffffffffffffffff1681525050600181908060018154018082558091505090600182039060005260206000209060040201600090919290919091506000820151816000015560208201518160010190805190602001906200036c92919062000ba9565b506040820151816002015560608201518160030160006101000a81548160ff02191690831515021790555060808201518160030160016101000a81548173ffffffffffffffffffffffffffffffffffffffff021916908373ffffffffffffffffffffffffffffffffffffffff160217905550505050600191505092915050565b60006002600081548092919060010191905055506200040a62000c30565b6002548160000181815250508581602001819052508481604001819052506040518060200160405280600081525081606001819052506000816080019015159081151581525050828160a0019073ffffffffffffffffffffffffffffffffffffffff16908173ffffffffffffffffffffffffffffffffffffffff16815250506001808503815481106200049957fe5b90600052602060002090600402016040518060a001604052908160008201548152602001600182018054600181600116156101000203166002900480601f016020809104026020016040519081016040528092919081815260200182805460018160011615610100020316600290048015620005595780601f106200052d5761010080835404028352916020019162000559565b820191906000526020600020905b8154815290600101906020018083116200053b57829003601f168201915b50505050508152602001600282015481526020016003820160009054906101000a900460ff161515151581526020016003820160019054906101000a900473ffffffffffffffffffffffffffffffffffffffff1673ffffffffffffffffffffffffffffffffffffffff1673ffffffffffffffffffffffffffffffffffffffff16815250508160c00181905250600381908060018154018082558091505090600182039060005260206000209060090201600090919290919091506000820151816000015560208201518160010190805190602001906200063b92919062000ba9565b5060408201518160020190805190602001906200065a92919062000ba9565b5060608201518160030190805190602001906200067992919062000ba9565b5060808201518160040160006101000a81548160ff02191690831515021790555060a08201518160040160016101000a81548173ffffffffffffffffffffffffffffffffffffffff021916908373ffffffffffffffffffffffffffffffffffffffff16021790555060c0820151816005016000820151816000015560208201518160010190805190602001906200071292919062000ba9565b506040820151816002015560608201518160030160006101000a81548160ff02191690831515021790555060808201518160030160016101000a81548173ffffffffffffffffffffffffffffffffffffffff021916908373ffffffffffffffffffffffffffffffffffffffff16021790555050505050506200079362000b62565b600180860381548110620007a357fe5b90600052602060002090600402016040518060a001604052908160008201548152602001600182018054600181600116156101000203166002900480601f016020809104026020016040519081016040528092919081815260200182805460018160011615610100020316600290048015620008635780601f10620008375761010080835404028352916020019162000863565b820191906000526020600020905b8154815290600101906020018083116200084557829003601f168201915b50505050508152602001600282015481526020016003820160009054906101000a900460ff161515151581526020016003820160019054906101000a900473ffffffffffffffffffffffffffffffffffffffff1673ffffffffffffffffffffffffffffffffffffffff1673ffffffffffffffffffffffffffffffffffffffff16815250509050806004600060025481526020019081526020016000206000820151816000015560208201518160010190805190602001906200092792919062000ba9565b506040820151816002015560608201518160030160006101000a81548160ff02191690831515021790555060808201518160030160016101000a81548173ffffffffffffffffffffffffffffffffffffffff021916908373ffffffffffffffffffffffffffffffffffffffff16021790555090505060056000600187038152602001908152602001600020829080600181540180825580915050906001820390600052602060002090600902016000909192909190915060008201518160000155602082015181600101908051906020019062000a0692919062000ba9565b50604082015181600201908051906020019062000a2592919062000ba9565b50606082015181600301908051906020019062000a4492919062000ba9565b5060808201518160040160006101000a81548160ff02191690831515021790555060a08201518160040160016101000a81548173ffffffffffffffffffffffffffffffffffffffff021916908373ffffffffffffffffffffffffffffffffffffffff16021790555060c08201518160050160008201518160000155602082015181600101908051906020019062000add92919062000ba9565b506040820151816002015560608201518160030160006101000a81548160ff02191690831515021790555060808201518160030160016101000a81548173ffffffffffffffffffffffffffffffffffffffff021916908373ffffffffffffffffffffffffffffffffffffffff1602179055505050505050600192505050949350505050565b6040518060a00160405280600081526020016060815260200160008152602001600015158152602001600073ffffffffffffffffffffffffffffffffffffffff1681525090565b828054600181600116156101000203166002900490600052602060002090601f016020900481019282601f1062000bec57805160ff191683800117855562000c1d565b8280016001018555821562000c1d579182015b8281111562000c1c57825182559160200191906001019062000bff565b5b50905062000c2c919062000c8d565b5090565b6040518060e0016040528060008152602001606081526020016060815260200160608152602001600015158152602001600073ffffffffffffffffffffffffffffffffffffffff16815260200162000c8762000cb5565b81525090565b62000cb291905b8082111562000cae57600081600090555060010162000c94565b5090565b90565b6040518060a00160405280600081526020016060815260200160008152602001600015158152602001600073ffffffffffffffffffffffffffffffffffffffff1681525090565b61304d8062000d0c6000396000f3fe608060405234801561001057600080fd5b50600436106100cf5760003560e01c80637d0ecb8f1161008c578063b6cb58a511610066578063b6cb58a51461025c578063cf35bdd01461027a578063db9cc410146102ae578063eafe7a74146102de576100cf565b80637d0ecb8f146101bc5780638d977672146101f057806390902da514610226576100cf565b80631a55cc48146100d45780631f69a009146101045780634e1347a7146101345780636140dd601461015057806367e4ac2c14610180578063779900b41461019e575b600080fd5b6100ee60048036036100e99190810190612823565b6102fc565b6040516100fb9190612d2e565b60405180910390f35b61011e6004803603610119919081019061290a565b610a52565b60405161012b9190612d0c565b60405180910390f35b61014e6004803603610149919081019061290a565b610e65565b005b61016a6004803603610165919081019061290a565b611090565b6040516101779190612d49565b60405180910390f35b610188611639565b6040516101959190612cea565b60405180910390f35b6101a66117bf565b6040516101b39190612d0c565b60405180910390f35b6101d660048036036101d1919081019061290a565b611bba565b6040516101e7959493929190612def565b60405180910390f35b61020a6004803603610205919081019061290a565b611cb5565b60405161021d9796959493929190612d64565b60405180910390f35b610240600480360361023b9190810190612933565b61202a565b6040516102539796959493929190612d64565b60405180910390f35b6102646123ac565b6040516102719190612d49565b60405180910390f35b610294600480360361028f919081019061290a565b6123b2565b6040516102a5959493929190612def565b60405180910390f35b6102c860048036036102c391908101906128b6565b6124ba565b6040516102d59190612d2e565b60405180910390f35b6102e6612611565b6040516102f39190612d49565b60405180910390f35b6000600260008154809291906001019190505550610318612617565b6002548160000181815250508581602001819052508481604001819052506040518060200160405280600081525081606001819052506000816080019015159081151581525050828160a0019073ffffffffffffffffffffffffffffffffffffffff16908173ffffffffffffffffffffffffffffffffffffffff16815250506001808503815481106103a657fe5b90600052602060002090600402016040518060a001604052908160008201548152602001600182018054600181600116156101000203166002900480601f0160208091040260200160405190810160405280929190818152602001828054600181600116156101000203166002900480156104625780601f1061043757610100808354040283529160200191610462565b820191906000526020600020905b81548152906001019060200180831161044557829003601f168201915b50505050508152602001600282015481526020016003820160009054906101000a900460ff161515151581526020016003820160019054906101000a900473ffffffffffffffffffffffffffffffffffffffff1673ffffffffffffffffffffffffffffffffffffffff1673ffffffffffffffffffffffffffffffffffffffff16815250508160c0018190525060038190806001815401808255809150509060018203906000526020600020906009020160009091929091909150600082015181600001556020820151816001019080519060200190610542929190612672565b50604082015181600201908051906020019061055f929190612672565b50606082015181600301908051906020019061057c929190612672565b5060808201518160040160006101000a81548160ff02191690831515021790555060a08201518160040160016101000a81548173ffffffffffffffffffffffffffffffffffffffff021916908373ffffffffffffffffffffffffffffffffffffffff16021790555060c082015181600501600082015181600001556020820151816001019080519060200190610613929190612672565b506040820151816002015560608201518160030160006101000a81548160ff02191690831515021790555060808201518160030160016101000a81548173ffffffffffffffffffffffffffffffffffffffff021916908373ffffffffffffffffffffffffffffffffffffffff16021790555050505050506106926126f2565b6001808603815481106106a157fe5b90600052602060002090600402016040518060a001604052908160008201548152602001600182018054600181600116156101000203166002900480601f01602080910402602001604051908101604052809291908181526020018280546001816001161561010002031660029004801561075d5780601f106107325761010080835404028352916020019161075d565b820191906000526020600020905b81548152906001019060200180831161074057829003601f168201915b50505050508152602001600282015481526020016003820160009054906101000a900460ff161515151581526020016003820160019054906101000a900473ffffffffffffffffffffffffffffffffffffffff1673ffffffffffffffffffffffffffffffffffffffff1673ffffffffffffffffffffffffffffffffffffffff168152505090508060046000600254815260200190815260200160002060008201518160000155602082015181600101908051906020019061081f929190612672565b506040820151816002015560608201518160030160006101000a81548160ff02191690831515021790555060808201518160030160016101000a81548173ffffffffffffffffffffffffffffffffffffffff021916908373ffffffffffffffffffffffffffffffffffffffff1602179055509050506005600060018703815260200190815260200160002082908060018154018082558091505090600182039060005260206000209060090201600090919290919091506000820151816000015560208201518160010190805190602001906108fc929190612672565b506040820151816002019080519060200190610919929190612672565b506060820151816003019080519060200190610936929190612672565b5060808201518160040160006101000a81548160ff02191690831515021790555060a08201518160040160016101000a81548173ffffffffffffffffffffffffffffffffffffffff021916908373ffffffffffffffffffffffffffffffffffffffff16021790555060c0820151816005016000820151816000015560208201518160010190805190602001906109cd929190612672565b506040820151816002015560608201518160030160006101000a81548160ff02191690831515021790555060808201518160030160016101000a81548173ffffffffffffffffffffffffffffffffffffffff021916908373ffffffffffffffffffffffffffffffffffffffff1602179055505050505050600192505050949350505050565b60608060056000848152602001908152602001600020805480602002602001604051908101604052809291908181526020016000905b82821015610e5657838290600052602060002090600902016040518060e001604052908160008201548152602001600182018054600181600116156101000203166002900480601f016020809104026020016040519081016040528092919081815260200182805460018160011615610100020316600290048015610b4e5780601f10610b2357610100808354040283529160200191610b4e565b820191906000526020600020905b815481529060010190602001808311610b3157829003601f168201915b50505050508152602001600282018054600181600116156101000203166002900480601f016020809104026020016040519081016040528092919081815260200182805460018160011615610100020316600290048015610bf05780601f10610bc557610100808354040283529160200191610bf0565b820191906000526020600020905b815481529060010190602001808311610bd357829003601f168201915b50505050508152602001600382018054600181600116156101000203166002900480601f016020809104026020016040519081016040528092919081815260200182805460018160011615610100020316600290048015610c925780601f10610c6757610100808354040283529160200191610c92565b820191906000526020600020905b815481529060010190602001808311610c7557829003601f168201915b505050505081526020016004820160009054906101000a900460ff161515151581526020016004820160019054906101000a900473ffffffffffffffffffffffffffffffffffffffff1673ffffffffffffffffffffffffffffffffffffffff1673ffffffffffffffffffffffffffffffffffffffff168152602001600582016040518060a001604052908160008201548152602001600182018054600181600116156101000203166002900480601f016020809104026020016040519081016040528092919081815260200182805460018160011615610100020316600290048015610dbf5780601f10610d9457610100808354040283529160200191610dbf565b820191906000526020600020905b815481529060010190602001808311610da257829003601f168201915b50505050508152602001600282015481526020016003820160009054906101000a900460ff161515151581526020016003820160019054906101000a900473ffffffffffffffffffffffffffffffffffffffff1673ffffffffffffffffffffffffffffffffffffffff1673ffffffffffffffffffffffffffffffffffffffff16815250508152505081526020019060010190610a88565b50505050905080915050919050565b610e6d6126f2565b600180830381548110610e7c57fe5b90600052602060002090600402016040518060a001604052908160008201548152602001600182018054600181600116156101000203166002900480601f016020809104026020016040519081016040528092919081815260200182805460018160011615610100020316600290048015610f385780601f10610f0d57610100808354040283529160200191610f38565b820191906000526020600020905b815481529060010190602001808311610f1b57829003601f168201915b50505050508152602001600282015481526020016003820160009054906101000a900460ff161515151581526020016003820160019054906101000a900473ffffffffffffffffffffffffffffffffffffffff1673ffffffffffffffffffffffffffffffffffffffff1673ffffffffffffffffffffffffffffffffffffffff1681525050905080606001511581606001901515908115158152505080600180840381548110610fe357fe5b9060005260206000209060040201600082015181600001556020820151816001019080519060200190611017929190612672565b506040820151816002015560608201518160030160006101000a81548160ff02191690831515021790555060808201518160030160016101000a81548173ffffffffffffffffffffffffffffffffffffffff021916908373ffffffffffffffffffffffffffffffffffffffff1602179055509050505050565b600061109a612617565b600360018403815481106110aa57fe5b90600052602060002090600902016040518060e001604052908160008201548152602001600182018054600181600116156101000203166002900480601f0160208091040260200160405190810160405280929190818152602001828054600181600116156101000203166002900480156111665780601f1061113b57610100808354040283529160200191611166565b820191906000526020600020905b81548152906001019060200180831161114957829003601f168201915b50505050508152602001600282018054600181600116156101000203166002900480601f0160208091040260200160405190810160405280929190818152602001828054600181600116156101000203166002900480156112085780601f106111dd57610100808354040283529160200191611208565b820191906000526020600020905b8154815290600101906020018083116111eb57829003601f168201915b50505050508152602001600382018054600181600116156101000203166002900480601f0160208091040260200160405190810160405280929190818152602001828054600181600116156101000203166002900480156112aa5780601f1061127f576101008083540402835291602001916112aa565b820191906000526020600020905b81548152906001019060200180831161128d57829003601f168201915b505050505081526020016004820160009054906101000a900460ff161515151581526020016004820160019054906101000a900473ffffffffffffffffffffffffffffffffffffffff1673ffffffffffffffffffffffffffffffffffffffff1673ffffffffffffffffffffffffffffffffffffffff168152602001600582016040518060a001604052908160008201548152602001600182018054600181600116156101000203166002900480601f0160208091040260200160405190810160405280929190818152602001828054600181600116156101000203166002900480156113d75780601f106113ac576101008083540402835291602001916113d7565b820191906000526020600020905b8154815290600101906020018083116113ba57829003601f168201915b50505050508152602001600282015481526020016003820160009054906101000a900460ff161515151581526020016003820160019054906101000a900473ffffffffffffffffffffffffffffffffffffffff1673ffffffffffffffffffffffffffffffffffffffff1673ffffffffffffffffffffffffffffffffffffffff1681525050815250509050806080015115816080019015159081151581525050806003600185038154811061148757fe5b90600052602060002090600902016000820151816000015560208201518160010190805190602001906114bb929190612672565b5060408201518160020190805190602001906114d8929190612672565b5060608201518160030190805190602001906114f5929190612672565b5060808201518160040160006101000a81548160ff02191690831515021790555060a08201518160040160016101000a81548173ffffffffffffffffffffffffffffffffffffffff021916908373ffffffffffffffffffffffffffffffffffffffff16021790555060c08201518160050160008201518160000155602082015181600101908051906020019061158c929190612672565b506040820151816002015560608201518160030160006101000a81548160ff02191690831515021790555060808201518160030160016101000a81548173ffffffffffffffffffffffffffffffffffffffff021916908373ffffffffffffffffffffffffffffffffffffffff160217905550505090505060008060009050606061161586610a52565b90505b8051821461162d578180600101925050611618565b81945050505050919050565b60606001805480602002602001604051908101604052809291908181526020016000905b828210156117b657838290600052602060002090600402016040518060a001604052908160008201548152602001600182018054600181600116156101000203166002900480601f0160208091040260200160405190810160405280929190818152602001828054600181600116156101000203166002900480156117235780601f106116f857610100808354040283529160200191611723565b820191906000526020600020905b81548152906001019060200180831161170657829003601f168201915b50505050508152602001600282015481526020016003820160009054906101000a900460ff161515151581526020016003820160019054906101000a900473ffffffffffffffffffffffffffffffffffffffff1673ffffffffffffffffffffffffffffffffffffffff1673ffffffffffffffffffffffffffffffffffffffff16815250508152602001906001019061165d565b50505050905090565b60606003805480602002602001604051908101604052809291908181526020016000905b82821015611bb157838290600052602060002090600902016040518060e001604052908160008201548152602001600182018054600181600116156101000203166002900480601f0160208091040260200160405190810160405280929190818152602001828054600181600116156101000203166002900480156118a95780601f1061187e576101008083540402835291602001916118a9565b820191906000526020600020905b81548152906001019060200180831161188c57829003601f168201915b50505050508152602001600282018054600181600116156101000203166002900480601f01602080910402602001604051908101604052809291908181526020018280546001816001161561010002031660029004801561194b5780601f106119205761010080835404028352916020019161194b565b820191906000526020600020905b81548152906001019060200180831161192e57829003601f168201915b50505050508152602001600382018054600181600116156101000203166002900480601f0160208091040260200160405190810160405280929190818152602001828054600181600116156101000203166002900480156119ed5780601f106119c2576101008083540402835291602001916119ed565b820191906000526020600020905b8154815290600101906020018083116119d057829003601f168201915b505050505081526020016004820160009054906101000a900460ff161515151581526020016004820160019054906101000a900473ffffffffffffffffffffffffffffffffffffffff1673ffffffffffffffffffffffffffffffffffffffff1673ffffffffffffffffffffffffffffffffffffffff168152602001600582016040518060a001604052908160008201548152602001600182018054600181600116156101000203166002900480601f016020809104026020016040519081016040528092919081815260200182805460018160011615610100020316600290048015611b1a5780601f10611aef57610100808354040283529160200191611b1a565b820191906000526020600020905b815481529060010190602001808311611afd57829003601f168201915b50505050508152602001600282015481526020016003820160009054906101000a900460ff161515151581526020016003820160019054906101000a900473ffffffffffffffffffffffffffffffffffffffff1673ffffffffffffffffffffffffffffffffffffffff1673ffffffffffffffffffffffffffffffffffffffff168152505081525050815260200190600101906117e3565b50505050905090565b6004602052806000526040600020600091509050806000015490806001018054600181600116156101000203166002900480601f016020809104026020016040519081016040528092919081815260200182805460018160011615610100020316600290048015611c6c5780601f10611c4157610100808354040283529160200191611c6c565b820191906000526020600020905b815481529060010190602001808311611c4f57829003601f168201915b5050505050908060020154908060030160009054906101000a900460ff16908060030160019054906101000a900473ffffffffffffffffffffffffffffffffffffffff16905085565b60038181548110611cc257fe5b9060005260206000209060090201600091509050806000015490806001018054600181600116156101000203166002900480601f016020809104026020016040519081016040528092919081815260200182805460018160011615610100020316600290048015611d745780601f10611d4957610100808354040283529160200191611d74565b820191906000526020600020905b815481529060010190602001808311611d5757829003601f168201915b505050505090806002018054600181600116156101000203166002900480601f016020809104026020016040519081016040528092919081815260200182805460018160011615610100020316600290048015611e125780601f10611de757610100808354040283529160200191611e12565b820191906000526020600020905b815481529060010190602001808311611df557829003601f168201915b505050505090806003018054600181600116156101000203166002900480601f016020809104026020016040519081016040528092919081815260200182805460018160011615610100020316600290048015611eb05780601f10611e8557610100808354040283529160200191611eb0565b820191906000526020600020905b815481529060010190602001808311611e9357829003601f168201915b5050505050908060040160009054906101000a900460ff16908060040160019054906101000a900473ffffffffffffffffffffffffffffffffffffffff1690806005016040518060a001604052908160008201548152602001600182018054600181600116156101000203166002900480601f016020809104026020016040519081016040528092919081815260200182805460018160011615610100020316600290048015611fa15780601f10611f7657610100808354040283529160200191611fa1565b820191906000526020600020905b815481529060010190602001808311611f8457829003601f168201915b50505050508152602001600282015481526020016003820160009054906101000a900460ff161515151581526020016003820160019054906101000a900473ffffffffffffffffffffffffffffffffffffffff1673ffffffffffffffffffffffffffffffffffffffff1673ffffffffffffffffffffffffffffffffffffffff1681525050905087565b6005602052816000526040600020818154811061204357fe5b906000526020600020906009020160009150915050806000015490806001018054600181600116156101000203166002900480601f0160208091040260200160405190810160405280929190818152602001828054600181600116156101000203166002900480156120f65780601f106120cb576101008083540402835291602001916120f6565b820191906000526020600020905b8154815290600101906020018083116120d957829003601f168201915b505050505090806002018054600181600116156101000203166002900480601f0160208091040260200160405190810160405280929190818152602001828054600181600116156101000203166002900480156121945780601f1061216957610100808354040283529160200191612194565b820191906000526020600020905b81548152906001019060200180831161217757829003601f168201915b505050505090806003018054600181600116156101000203166002900480601f0160208091040260200160405190810160405280929190818152602001828054600181600116156101000203166002900480156122325780601f1061220757610100808354040283529160200191612232565b820191906000526020600020905b81548152906001019060200180831161221557829003601f168201915b5050505050908060040160009054906101000a900460ff16908060040160019054906101000a900473ffffffffffffffffffffffffffffffffffffffff1690806005016040518060a001604052908160008201548152602001600182018054600181600116156101000203166002900480601f0160208091040260200160405190810160405280929190818152602001828054600181600116156101000203166002900480156123235780601f106122f857610100808354040283529160200191612323565b820191906000526020600020905b81548152906001019060200180831161230657829003601f168201915b50505050508152602001600282015481526020016003820160009054906101000a900460ff161515151581526020016003820160019054906101000a900473ffffffffffffffffffffffffffffffffffffffff1673ffffffffffffffffffffffffffffffffffffffff1673ffffffffffffffffffffffffffffffffffffffff1681525050905087565b60025481565b600181815481106123bf57fe5b9060005260206000209060040201600091509050806000015490806001018054600181600116156101000203166002900480601f0160208091040260200160405190810160405280929190818152602001828054600181600116156101000203166002900480156124715780601f1061244657610100808354040283529160200191612471565b820191906000526020600020905b81548152906001019060200180831161245457829003601f168201915b5050505050908060020154908060030160009054906101000a900460ff16908060030160019054906101000a900473ffffffffffffffffffffffffffffffffffffffff16905085565b600080600081548092919060010191905055506124d56126f2565b60005481600001818152505083816020018190525082816040018181525050600081606001901515908115158152505033816080019073ffffffffffffffffffffffffffffffffffffffff16908173ffffffffffffffffffffffffffffffffffffffff168152505060018190806001815401808255809150509060018203906000526020600020906004020160009091929091909150600082015181600001556020820151816001019080519060200190612591929190612672565b506040820151816002015560608201518160030160006101000a81548160ff02191690831515021790555060808201518160030160016101000a81548173ffffffffffffffffffffffffffffffffffffffff021916908373ffffffffffffffffffffffffffffffffffffffff160217905550505050600191505092915050565b60005481565b6040518060e0016040528060008152602001606081526020016060815260200160608152602001600015158152602001600073ffffffffffffffffffffffffffffffffffffffff16815260200161266c612739565b81525090565b828054600181600116156101000203166002900490600052602060002090601f016020900481019282601f106126b357805160ff19168380011785556126e1565b828001600101855582156126e1579182015b828111156126e05782518255916020019190600101906126c5565b5b5090506126ee9190612780565b5090565b6040518060a00160405280600081526020016060815260200160008152602001600015158152602001600073ffffffffffffffffffffffffffffffffffffffff1681525090565b6040518060a00160405280600081526020016060815260200160008152602001600015158152602001600073ffffffffffffffffffffffffffffffffffffffff1681525090565b6127a291905b8082111561279e576000816000905550600101612786565b5090565b90565b6000813590506127b481612fdc565b92915050565b600082601f8301126127cb57600080fd5b81356127de6127d982612e76565b612e49565b915080825260208301602083018583830111156127fa57600080fd5b612805838284612f89565b50505092915050565b60008135905061281d81612ff3565b92915050565b6000806000806080858703121561283957600080fd5b600085013567ffffffffffffffff81111561285357600080fd5b61285f878288016127ba565b945050602085013567ffffffffffffffff81111561287c57600080fd5b612888878288016127ba565b93505060406128998782880161280e565b92505060606128aa878288016127a5565b91505092959194509250565b600080604083850312156128c957600080fd5b600083013567ffffffffffffffff8111156128e357600080fd5b6128ef858286016127ba565b92505060206129008582860161280e565b9150509250929050565b60006020828403121561291c57600080fd5b600061292a8482850161280e565b91505092915050565b6000806040838503121561294657600080fd5b60006129548582860161280e565b92505060206129658582860161280e565b9150509250929050565b600061297b8383612b2f565b905092915050565b600061298f8383612c1b565b905092915050565b6129a081612f41565b82525050565b6129af81612f41565b82525050565b60006129c082612ec2565b6129ca8185612efd565b9350836020820285016129dc85612ea2565b8060005b85811015612a1857848403895281516129f9858261296f565b9450612a0483612ee3565b925060208a019950506001810190506129e0565b50829750879550505050505092915050565b6000612a3582612ecd565b612a3f8185612f0e565b935083602082028501612a5185612eb2565b8060005b85811015612a8d5784840389528151612a6e8582612983565b9450612a7983612ef0565b925060208a01995050600181019050612a55565b50829750879550505050505092915050565b612aa881612f53565b82525050565b612ab781612f53565b82525050565b6000612ac882612ed8565b612ad28185612f1f565b9350612ae2818560208601612f98565b612aeb81612fcb565b840191505092915050565b6000612b0182612ed8565b612b0b8185612f30565b9350612b1b818560208601612f98565b612b2481612fcb565b840191505092915050565b600060a083016000830151612b476000860182612ccc565b5060208301518482036020860152612b5f8282612abd565b9150506040830151612b746040860182612ccc565b506060830151612b876060860182612a9f565b506080830151612b9a6080860182612997565b508091505092915050565b600060a083016000830151612bbd6000860182612ccc565b5060208301518482036020860152612bd58282612abd565b9150506040830151612bea6040860182612ccc565b506060830151612bfd6060860182612a9f565b506080830151612c106080860182612997565b508091505092915050565b600060e083016000830151612c336000860182612ccc565b5060208301518482036020860152612c4b8282612abd565b91505060408301518482036040860152612c658282612abd565b91505060608301518482036060860152612c7f8282612abd565b9150506080830151612c946080860182612a9f565b5060a0830151612ca760a0860182612997565b5060c083015184820360c0860152612cbf8282612b2f565b9150508091505092915050565b612cd581612f7f565b82525050565b612ce481612f7f565b82525050565b60006020820190508181036000830152612d0481846129b5565b905092915050565b60006020820190508181036000830152612d268184612a2a565b905092915050565b6000602082019050612d436000830184612aae565b92915050565b6000602082019050612d5e6000830184612cdb565b92915050565b600060e082019050612d79600083018a612cdb565b8181036020830152612d8b8189612af6565b90508181036040830152612d9f8188612af6565b90508181036060830152612db38187612af6565b9050612dc26080830186612aae565b612dcf60a08301856129a6565b81810360c0830152612de18184612ba5565b905098975050505050505050565b600060a082019050612e046000830188612cdb565b8181036020830152612e168187612af6565b9050612e256040830186612cdb565b612e326060830185612aae565b612e3f60808301846129a6565b9695505050505050565b6000604051905081810181811067ffffffffffffffff82111715612e6c57600080fd5b8060405250919050565b600067ffffffffffffffff821115612e8d57600080fd5b601f19601f8301169050602081019050919050565b6000819050602082019050919050565b6000819050602082019050919050565b600081519050919050565b600081519050919050565b600081519050919050565b6000602082019050919050565b6000602082019050919050565b600082825260208201905092915050565b600082825260208201905092915050565b600082825260208201905092915050565b600082825260208201905092915050565b6000612f4c82612f5f565b9050919050565b60008115159050919050565b600073ffffffffffffffffffffffffffffffffffffffff82169050919050565b6000819050919050565b82818337600083830152505050565b60005b83811015612fb6578082015181840152602081019050612f9b565b83811115612fc5576000848401525b50505050565b6000601f19601f8301169050919050565b612fe581612f41565b8114612ff057600080fd5b50565b612ffc81612f7f565b811461300757600080fd5b5056fea365627a7a7231582041987c2c06c0279dc3a2633d1f75baa7ea8c4ee54d6b4e22f5b70ebc730afaec6c6578706572696d656e74616cf564736f6c634300051000404d616b652073757265206974206973207468652062657374207175616c697479206d757368726f6f6d206c656174686572",
  "source": "// SPDX-License-Identifier: GPL-3.0\n\npragma solidity >=0.4.25 <0.7.0;\npragma experimental ABIEncoderV2;\n\n\ncontract Assets{\n    //state variable to keep track of the number of assets.\n    uint256 public assetCount = 0;\n    //creating an array of type Asset which is a struct (allows calling of asset(0,1,2..assetCount))\n    Asset[] public assets;\n\n \n    constructor() public {\n        createAsset(\"Berken Bag\", 1000);\n        createAsset(\"PS4\", 4500);\n        createAsset(\"Iphone 6\", 6500);\n        createAsset(\"Xbox 1\", 1500);\n        createAsset(\"Issey Miyake Top\", 19000);\n    }\n\n    struct Asset {\n        //attributes of the struct\n        uint256 id;\n        string assetName;  //bytes32 to allow for comparism\n        uint256 quantity;\n        bool completed;\n        address creator;\n    }\n   \n    //create an asset\n    function createAsset(string memory _assetName, uint256 _quantity) public returns (bool){\n        assetCount++;\n        Asset memory newAsset;\n\n        newAsset.id = assetCount;\n        newAsset.assetName = _assetName;\n        newAsset.quantity = _quantity;\n        newAsset.completed = false;\n        newAsset.creator = msg.sender;\n        assets.push(newAsset); // Push the newAsset struct...into the asset array\n        return true;\n    }\n\n    function getAssets() public view returns (Asset[] memory){\n        return assets;\n    }\n\n\n\n}\n\n\ncontract Tasks is Assets{ //make assets the parent contract\n\n    //state variable to keep track of the number of assets.\n    uint256 public taskCount = 0;\n    \n    //creating an array of type Asset which is a struct (allows calling of asset(0,1,2..assetCount))\n    Task[] public tasks;\n\n    mapping(uint256 => Asset) public taskAssetMap;\n    mapping(uint256 => Task[]) public assetTaskMap;\n\n\n    constructor() public {\n        createTask( \"Source Leather\",\"Make sure it is the best quality mushroom leather\",1,0x5E7b2Bbb14B8a9097A26A93982624067A1dB11dE);\n        createTask( \"Transport to Factory\",\"Make to deliver before 2/03/2022\",1,0x5E7b2Bbb14B8a9097A26A93982624067A1dB11dE);\n    }\n\n    //definition of a data type of Task using structs\n    struct Task {\n        //attributes of the struct\n        uint256 id;\n        string content;\n        string creator_note; // the signators message \n        string intermediary_note; //the task creators message \n        bool completed;\n        address signator;\n        Asset asset;\n    }\n\n\n    //create a task\n    function createTask(string memory _taskContent,string memory _note, uint256 _assetId, address _signator) public returns (bool){\n        taskCount++;\n        Task memory newTask;\n        newTask.id = taskCount;\n        newTask.content = _taskContent;\n        newTask.creator_note = _note;\n        newTask.intermediary_note = '';\n        newTask.completed = false;\n        newTask.signator = _signator;\n        newTask.asset = assets[_assetId-1];\n        tasks.push(newTask); // Push the newAsset struct...into the asset array\n\n        // map assets to tasks\n        Asset memory currAsset;  //create empty temporary asset\n        currAsset = assets[_assetId-1]; //get asset value to store temporary asst\n        taskAssetMap[taskCount]=currAsset; // each taskcount/taskid should map to the asset struct\n        assetTaskMap[_assetId-1].push(newTask); // each assetid should map to the task[] struct\n\n        return true;\n    }\n\n    //get all tasks \n    function getAllTasks() public view returns (Task[] memory){\n        return tasks;\n    }\n\n    //get all tasks associated with a certain asset (by using assetID)\n   function getAssetTasks( uint256 _assetID) public view returns (Task[] memory){\n        Task[] memory _tasks = assetTaskMap[_assetID];\n        return _tasks;\n    }\n\n}\n\n//when a contract inherits from these two only 1 contract is created on the blockchain which is this one\ncontract Unbolt is Tasks{  //inheritance\n\n//change the toggle completed variable to the opposide of current value\n// should only works if all tasks associated with the asset are completed\nfunction toggleAssetCompleted(uint _id) public {\n    Asset memory _asset = assets[_id-1];\n    // Task[] memory _tasks = getAssetTasks(_id);\n    _asset.completed = !_asset.completed;\n    assets[_id-1] = _asset;\n}\n\n//change the toggle completed variable to the opposide of current value\nfunction toggleTaskCompleted(uint _id) public returns (uint256){\n    Task memory _task = tasks[_id-1];\n    // require(msg.sender == _task.signator, \"This function is restricted to the signator\");\n    _task.completed = !_task.completed;\n    tasks[_id-1] = _task;\n\n\n    bool result;\n    uint256 _i = 0;\n    Task[] memory _tasks = getAssetTasks(_id);\n\n    // check if any of the task in task[] has a value of false for its \"completed\" value\n    while ( _i != _tasks.length) {\n        // if (_tasks[_i].completed == true) {\n        //         result = true;\n        //         _i++;\n        //     } else {\n        //         result = false;\n        //         break;\n        //     }\n        _i++;\n    }\n\n    // require(result == true);\n    // toggleAssetCompleted(_task.asset.id);\n\n    // return result;\n    return _i;\n}\n\n\n\n}\n",
  "sourcePath": "/Users/tobiadewunmi/Desktop/unbolt/src/truffle/contracts/Test.sol",
  "compiler": {
    "name": "solc",
    "version": "0.5.16+commit.9c3226ce.Emscripten.clang"
  },
  "schemaVersion": "3.4.6",
  "updatedAt": "2022-05-05T07:24:40.391Z",
  "networkType": "ethereum",
  "devdoc": {
    "methods": {}
  },
  "userdoc": {
    "methods": {}
  }
}