{
  "contractName": "UnboltV2",
  "abi": [
    {
      "anonymous": false,
      "inputs": [
        {
          "indexed": true,
          "internalType": "uint256",
          "name": "id",
          "type": "uint256"
        },
        {
          "indexed": true,
          "internalType": "string",
          "name": "_assetName",
          "type": "string"
        },
        {
          "indexed": false,
          "internalType": "string",
          "name": "_description",
          "type": "string"
        },
        {
          "indexed": false,
          "internalType": "uint256",
          "name": "_quantity",
          "type": "uint256"
        },
        {
          "indexed": false,
          "internalType": "bool",
          "name": "completed",
          "type": "bool"
        },
        {
          "indexed": true,
          "internalType": "address",
          "name": "creator",
          "type": "address"
        }
      ],
      "name": "AssetCreated",
      "type": "event"
    },
    {
      "anonymous": false,
      "inputs": [
        {
          "indexed": true,
          "internalType": "bool",
          "name": "newValue",
          "type": "bool"
        }
      ],
      "name": "CompletedAssetValueChanged",
      "type": "event"
    },
    {
      "anonymous": false,
      "inputs": [
        {
          "indexed": true,
          "internalType": "bool",
          "name": "newValue",
          "type": "bool"
        }
      ],
      "name": "CompletedTaskValueChanged",
      "type": "event"
    },
    {
      "anonymous": false,
      "inputs": [
        {
          "indexed": true,
          "internalType": "address",
          "name": "who",
          "type": "address"
        },
        {
          "indexed": true,
          "internalType": "address",
          "name": "signator",
          "type": "address"
        }
      ],
      "name": "Sender",
      "type": "event"
    },
    {
      "anonymous": false,
      "inputs": [
        {
          "indexed": true,
          "internalType": "uint256",
          "name": "id",
          "type": "uint256"
        },
        {
          "indexed": true,
          "internalType": "address",
          "name": "who",
          "type": "address"
        },
        {
          "indexed": true,
          "internalType": "string",
          "name": "content",
          "type": "string"
        }
      ],
      "name": "TaskCreated",
      "type": "event"
    },
    {
      "inputs": [
        {
          "internalType": "uint256",
          "name": "_TaskId",
          "type": "uint256"
        },
        {
          "internalType": "string",
          "name": "_note",
          "type": "string"
        }
      ],
      "name": "addDescription",
      "outputs": [
        {
          "internalType": "bool",
          "name": "",
          "type": "bool"
        }
      ],
      "stateMutability": "nonpayable",
      "type": "function"
    },
    {
      "inputs": [],
      "name": "assetCount",
      "outputs": [
        {
          "internalType": "uint256",
          "name": "",
          "type": "uint256"
        }
      ],
      "stateMutability": "view",
      "type": "function"
    },
    {
      "inputs": [
        {
          "internalType": "uint256",
          "name": "",
          "type": "uint256"
        },
        {
          "internalType": "uint256",
          "name": "",
          "type": "uint256"
        }
      ],
      "name": "assetTaskMap",
      "outputs": [
        {
          "internalType": "uint256",
          "name": "id",
          "type": "uint256"
        },
        {
          "internalType": "string",
          "name": "content",
          "type": "string"
        },
        {
          "internalType": "string",
          "name": "creator_note",
          "type": "string"
        },
        {
          "internalType": "string",
          "name": "intermediary_note",
          "type": "string"
        },
        {
          "internalType": "uint256",
          "name": "creationTime",
          "type": "uint256"
        },
        {
          "internalType": "uint256",
          "name": "compltionTime",
          "type": "uint256"
        },
        {
          "internalType": "bool",
          "name": "completed",
          "type": "bool"
        },
        {
          "internalType": "address",
          "name": "signator",
          "type": "address"
        },
        {
          "components": [
            {
              "internalType": "uint256",
              "name": "id",
              "type": "uint256"
            },
            {
              "internalType": "string",
              "name": "assetName",
              "type": "string"
            },
            {
              "internalType": "string",
              "name": "description",
              "type": "string"
            },
            {
              "internalType": "uint256",
              "name": "creationTime",
              "type": "uint256"
            },
            {
              "internalType": "uint256",
              "name": "compltionTime",
              "type": "uint256"
            },
            {
              "internalType": "uint256",
              "name": "quantity",
              "type": "uint256"
            },
            {
              "internalType": "bool",
              "name": "completed",
              "type": "bool"
            },
            {
              "internalType": "address",
              "name": "creator",
              "type": "address"
            }
          ],
          "internalType": "struct Assets.Asset",
          "name": "asset",
          "type": "tuple"
        }
      ],
      "stateMutability": "view",
      "type": "function"
    },
    {
      "inputs": [
        {
          "internalType": "uint256",
          "name": "",
          "type": "uint256"
        }
      ],
      "name": "assets",
      "outputs": [
        {
          "internalType": "uint256",
          "name": "id",
          "type": "uint256"
        },
        {
          "internalType": "string",
          "name": "assetName",
          "type": "string"
        },
        {
          "internalType": "string",
          "name": "description",
          "type": "string"
        },
        {
          "internalType": "uint256",
          "name": "creationTime",
          "type": "uint256"
        },
        {
          "internalType": "uint256",
          "name": "compltionTime",
          "type": "uint256"
        },
        {
          "internalType": "uint256",
          "name": "quantity",
          "type": "uint256"
        },
        {
          "internalType": "bool",
          "name": "completed",
          "type": "bool"
        },
        {
          "internalType": "address",
          "name": "creator",
          "type": "address"
        }
      ],
      "stateMutability": "view",
      "type": "function"
    },
    {
      "inputs": [
        {
          "internalType": "string",
          "name": "_assetName",
          "type": "string"
        },
        {
          "internalType": "string",
          "name": "_description",
          "type": "string"
        },
        {
          "internalType": "uint256",
          "name": "_quantity",
          "type": "uint256"
        }
      ],
      "name": "createAsset",
      "outputs": [
        {
          "internalType": "bool",
          "name": "",
          "type": "bool"
        }
      ],
      "stateMutability": "nonpayable",
      "type": "function"
    },
    {
      "inputs": [
        {
          "internalType": "string[5]",
          "name": "_assetNames",
          "type": "string[5]"
        },
        {
          "internalType": "string[5]",
          "name": "_description",
          "type": "string[5]"
        },
        {
          "internalType": "uint16[5]",
          "name": "_quantities",
          "type": "uint16[5]"
        }
      ],
      "name": "createAssets",
      "outputs": [
        {
          "internalType": "bool",
          "name": "",
          "type": "bool"
        }
      ],
      "stateMutability": "nonpayable",
      "type": "function"
    },
    {
      "inputs": [
        {
          "internalType": "string",
          "name": "_taskContent",
          "type": "string"
        },
        {
          "internalType": "string",
          "name": "_note",
          "type": "string"
        },
        {
          "internalType": "uint256",
          "name": "_assetId",
          "type": "uint256"
        },
        {
          "internalType": "address",
          "name": "_signator",
          "type": "address"
        }
      ],
      "name": "createTask",
      "outputs": [
        {
          "internalType": "bool",
          "name": "",
          "type": "bool"
        }
      ],
      "stateMutability": "nonpayable",
      "type": "function"
    },
    {
      "inputs": [
        {
          "internalType": "string[3]",
          "name": "_taskContents",
          "type": "string[3]"
        },
        {
          "internalType": "string[3]",
          "name": "_notes",
          "type": "string[3]"
        },
        {
          "internalType": "uint8[3]",
          "name": "_assetIds",
          "type": "uint8[3]"
        },
        {
          "internalType": "address[3]",
          "name": "_adresses",
          "type": "address[3]"
        }
      ],
      "name": "createTasks",
      "outputs": [
        {
          "internalType": "bool",
          "name": "",
          "type": "bool"
        }
      ],
      "stateMutability": "nonpayable",
      "type": "function"
    },
    {
      "inputs": [
        {
          "internalType": "uint256",
          "name": "_assetID",
          "type": "uint256"
        }
      ],
      "name": "getAssetTasks",
      "outputs": [
        {
          "components": [
            {
              "internalType": "uint256",
              "name": "id",
              "type": "uint256"
            },
            {
              "internalType": "string",
              "name": "content",
              "type": "string"
            },
            {
              "internalType": "string",
              "name": "creator_note",
              "type": "string"
            },
            {
              "internalType": "string",
              "name": "intermediary_note",
              "type": "string"
            },
            {
              "internalType": "uint256",
              "name": "creationTime",
              "type": "uint256"
            },
            {
              "internalType": "uint256",
              "name": "compltionTime",
              "type": "uint256"
            },
            {
              "internalType": "bool",
              "name": "completed",
              "type": "bool"
            },
            {
              "internalType": "address",
              "name": "signator",
              "type": "address"
            },
            {
              "components": [
                {
                  "internalType": "uint256",
                  "name": "id",
                  "type": "uint256"
                },
                {
                  "internalType": "string",
                  "name": "assetName",
                  "type": "string"
                },
                {
                  "internalType": "string",
                  "name": "description",
                  "type": "string"
                },
                {
                  "internalType": "uint256",
                  "name": "creationTime",
                  "type": "uint256"
                },
                {
                  "internalType": "uint256",
                  "name": "compltionTime",
                  "type": "uint256"
                },
                {
                  "internalType": "uint256",
                  "name": "quantity",
                  "type": "uint256"
                },
                {
                  "internalType": "bool",
                  "name": "completed",
                  "type": "bool"
                },
                {
                  "internalType": "address",
                  "name": "creator",
                  "type": "address"
                }
              ],
              "internalType": "struct Assets.Asset",
              "name": "asset",
              "type": "tuple"
            }
          ],
          "internalType": "struct Tasks.Task[]",
          "name": "",
          "type": "tuple[]"
        }
      ],
      "stateMutability": "view",
      "type": "function"
    },
    {
      "inputs": [
        {
          "internalType": "address",
          "name": "_userAddress",
          "type": "address"
        }
      ],
      "name": "getUserAssets",
      "outputs": [
        {
          "components": [
            {
              "internalType": "uint256",
              "name": "id",
              "type": "uint256"
            },
            {
              "internalType": "string",
              "name": "assetName",
              "type": "string"
            },
            {
              "internalType": "string",
              "name": "description",
              "type": "string"
            },
            {
              "internalType": "uint256",
              "name": "creationTime",
              "type": "uint256"
            },
            {
              "internalType": "uint256",
              "name": "compltionTime",
              "type": "uint256"
            },
            {
              "internalType": "uint256",
              "name": "quantity",
              "type": "uint256"
            },
            {
              "internalType": "bool",
              "name": "completed",
              "type": "bool"
            },
            {
              "internalType": "address",
              "name": "creator",
              "type": "address"
            }
          ],
          "internalType": "struct Assets.Asset[]",
          "name": "",
          "type": "tuple[]"
        }
      ],
      "stateMutability": "view",
      "type": "function"
    },
    {
      "inputs": [],
      "name": "taskCount",
      "outputs": [
        {
          "internalType": "uint256",
          "name": "",
          "type": "uint256"
        }
      ],
      "stateMutability": "view",
      "type": "function"
    },
    {
      "inputs": [
        {
          "internalType": "uint256",
          "name": "",
          "type": "uint256"
        }
      ],
      "name": "tasks",
      "outputs": [
        {
          "internalType": "uint256",
          "name": "id",
          "type": "uint256"
        },
        {
          "internalType": "string",
          "name": "content",
          "type": "string"
        },
        {
          "internalType": "string",
          "name": "creator_note",
          "type": "string"
        },
        {
          "internalType": "string",
          "name": "intermediary_note",
          "type": "string"
        },
        {
          "internalType": "uint256",
          "name": "creationTime",
          "type": "uint256"
        },
        {
          "internalType": "uint256",
          "name": "compltionTime",
          "type": "uint256"
        },
        {
          "internalType": "bool",
          "name": "completed",
          "type": "bool"
        },
        {
          "internalType": "address",
          "name": "signator",
          "type": "address"
        },
        {
          "components": [
            {
              "internalType": "uint256",
              "name": "id",
              "type": "uint256"
            },
            {
              "internalType": "string",
              "name": "assetName",
              "type": "string"
            },
            {
              "internalType": "string",
              "name": "description",
              "type": "string"
            },
            {
              "internalType": "uint256",
              "name": "creationTime",
              "type": "uint256"
            },
            {
              "internalType": "uint256",
              "name": "compltionTime",
              "type": "uint256"
            },
            {
              "internalType": "uint256",
              "name": "quantity",
              "type": "uint256"
            },
            {
              "internalType": "bool",
              "name": "completed",
              "type": "bool"
            },
            {
              "internalType": "address",
              "name": "creator",
              "type": "address"
            }
          ],
          "internalType": "struct Assets.Asset",
          "name": "asset",
          "type": "tuple"
        }
      ],
      "stateMutability": "view",
      "type": "function"
    },
    {
      "inputs": [
        {
          "internalType": "uint256",
          "name": "_id",
          "type": "uint256"
        }
      ],
      "name": "toggleAssetCompleted",
      "outputs": [
        {
          "internalType": "bool",
          "name": "newCompletionStatus",
          "type": "bool"
        }
      ],
      "stateMutability": "nonpayable",
      "type": "function"
    },
    {
      "inputs": [
        {
          "internalType": "uint256",
          "name": "_id",
          "type": "uint256"
        }
      ],
      "name": "toggleTaskCompleted",
      "outputs": [
        {
          "internalType": "bool",
          "name": "",
          "type": "bool"
        }
      ],
      "stateMutability": "nonpayable",
      "type": "function"
    },
    {
      "inputs": [
        {
          "internalType": "address",
          "name": "",
          "type": "address"
        },
        {
          "internalType": "uint256",
          "name": "",
          "type": "uint256"
        }
      ],
      "name": "userAssetMap",
      "outputs": [
        {
          "internalType": "uint256",
          "name": "id",
          "type": "uint256"
        },
        {
          "internalType": "string",
          "name": "assetName",
          "type": "string"
        },
        {
          "internalType": "string",
          "name": "description",
          "type": "string"
        },
        {
          "internalType": "uint256",
          "name": "creationTime",
          "type": "uint256"
        },
        {
          "internalType": "uint256",
          "name": "compltionTime",
          "type": "uint256"
        },
        {
          "internalType": "uint256",
          "name": "quantity",
          "type": "uint256"
        },
        {
          "internalType": "bool",
          "name": "completed",
          "type": "bool"
        },
        {
          "internalType": "address",
          "name": "creator",
          "type": "address"
        }
      ],
      "stateMutability": "view",
      "type": "function"
    }
  ],
  "bytecode": "0x6080604052600160005560016003553480156200001b57600080fd5b50620002d16040518060a001604052806040518060400160405280600a81526020017f4265726b656e204261670000000000000000000000000000000000000000000081525081526020016040518060400160405280600381526020017f505334000000000000000000000000000000000000000000000000000000000081525081526020016040518060400160405280600881526020017f4970686f6e65203600000000000000000000000000000000000000000000000081525081526020016040518060400160405280600681526020017f58626f782031000000000000000000000000000000000000000000000000000081525081526020016040518060400160405280601081526020017f4973736579204d6979616b6520546f70000000000000000000000000000000008152508152506040518060a001604052806040518060400160405280600881526020017f50696e6b2042616700000000000000000000000000000000000000000000000081525081526020016040518060400160405280600881526020017f426c75652050733400000000000000000000000000000000000000000000000081525081526020016040518060400160405280600b81526020017f50696e6b204970686f6e6500000000000000000000000000000000000000000081525081526020016040518060400160405280600581526020017f353030474200000000000000000000000000000000000000000000000000000081525081526020016040518060400160405280601381526020017f486f6d6520506c6973736565206a61636b6574000000000000000000000000008152508152506040518060a001604052806103e861ffff16815260200161119461ffff16815260200161196461ffff1681526020016105dc61ffff168152602001614a3861ffff168152506200054360201b60201c565b506200053c60405180606001604052806040518060400160405280600e81526020017f536f75726365204c65617468657200000000000000000000000000000000000081525081526020016040518060400160405280601481526020017f5472616e73706f727420746f20466163746f727900000000000000000000000081525081526020016040518060400160405280601481526020017f417373656d626c652074686520706c61737469630000000000000000000000008152508152506040518060600160405280604051806060016040528060318152602001620069da6031913981526020016040518060400160405280602081526020017f4d616b6520746f2064656c69766572206265666f726520322f30332f3230323281525081526020016040518060400160405280601e81526020017f4d616b65207375726520746f2075736520626c756520706c61737469632100008152508152506040518060600160405280600160ff168152602001600160ff168152602001600360ff168152506040518060600160405280735e7b2bbb14b8a9097a26a93982624067a1db11de73ffffffffffffffffffffffffffffffffffffffff1673ffffffffffffffffffffffffffffffffffffffff168152602001735e7b2bbb14b8a9097a26a93982624067a1db11de73ffffffffffffffffffffffffffffffffffffffff1673ffffffffffffffffffffffffffffffffffffffff168152602001735b38da6a701c568545dcfcb03fcb875f56beddc473ffffffffffffffffffffffffffffffffffffffff1673ffffffffffffffffffffffffffffffffffffffff168152506200066d60201b60201c565b5062001abf565b600080600590506005811462000590576040517f08c379a000000000000000000000000000000000000000000000000000000000815260040162000587906200166d565b60405180910390fd5b600a8110620005d6576040517f08c379a0000000000000000000000000000000000000000000000000000000008152600401620005cd90620016df565b60405180910390fd5b60005b818160ff161015620006605762000653868260ff166005811062000602576200060162001701565b5b6020020151868360ff166005811062000620576200061f62001701565b5b6020020151868460ff16600581106200063e576200063d62001701565b5b602002015161ffff16620007b560201b60201c565b50806001019050620005d9565b5060019150509392505050565b6000806003905060038114620006ba576040517f08c379a0000000000000000000000000000000000000000000000000000000008152600401620006b1906200166d565b60405180910390fd5b600a811062000700576040517f08c379a0000000000000000000000000000000000000000000000000000000008152600401620006f79062001780565b60405180910390fd5b60005b818160ff161015620007a7576200079a878260ff16600381106200072c576200072b62001701565b5b6020020151878360ff16600381106200074a576200074962001701565b5b6020020151878460ff166003811062000768576200076762001701565b5b602002015160ff16878560ff166003811062000789576200078862001701565b5b602002015162000b0660201b60201c565b5080600101905062000703565b506001915050949350505050565b6000620007c162001493565b60005481600001818152505084816020018190525083816040018190525042816060018181525050828160a0018181525050338160e0019073ffffffffffffffffffffffffffffffffffffffff16908173ffffffffffffffffffffffffffffffffffffffff168152505060018190806001815401808255809150506001900390600052602060002090600702016000909190919091506000820151816000015560208201518160010190805190602001906200087f929190620014f0565b5060408201518160020190805190602001906200089e929190620014f0565b50606082015181600301556080820151816004015560a0820151816005015560c08201518160060160006101000a81548160ff02191690831515021790555060e08201518160060160016101000a81548173ffffffffffffffffffffffffffffffffffffffff021916908373ffffffffffffffffffffffffffffffffffffffff1602179055505050600260003373ffffffffffffffffffffffffffffffffffffffff1673ffffffffffffffffffffffffffffffffffffffff168152602001908152602001600020819080600181540180825580915050600190039060005260206000209060070201600090919091909150600082015181600001556020820151816001019080519060200190620009b7929190620014f0565b506040820151816002019080519060200190620009d6929190620014f0565b50606082015181600301556080820151816004015560a0820151816005015560c08201518160060160006101000a81548160ff02191690831515021790555060e08201518160060160016101000a81548173ffffffffffffffffffffffffffffffffffffffff021916908373ffffffffffffffffffffffffffffffffffffffff1602179055505050600080815462000a6e90620017db565b919050819055508060e0015173ffffffffffffffffffffffffffffffffffffffff16816020015160405162000aa49190620018ab565b604051809103902082600001517fc332eb430b0efd9f7423746a02f070eff066ac3b735eb56a3b502e5dd2039d4f84604001518560a001518660c0015160405162000af29392919062001944565b60405180910390a460019150509392505050565b600062000b1262001493565b6001808562000b22919062001988565b8154811062000b365762000b3562001701565b5b9060005260206000209060070201604051806101000160405290816000820154815260200160018201805462000b6c90620019f2565b80601f016020809104026020016040519081016040528092919081815260200182805462000b9a90620019f2565b801562000beb5780601f1062000bbf5761010080835404028352916020019162000beb565b820191906000526020600020905b81548152906001019060200180831162000bcd57829003601f168201915b5050505050815260200160028201805462000c0690620019f2565b80601f016020809104026020016040519081016040528092919081815260200182805462000c3490620019f2565b801562000c855780601f1062000c595761010080835404028352916020019162000c85565b820191906000526020600020905b81548152906001019060200180831162000c6757829003601f168201915b505050505081526020016003820154815260200160048201548152602001600582015481526020016006820160009054906101000a900460ff161515151581526020016006820160019054906101000a900473ffffffffffffffffffffffffffffffffffffffff1673ffffffffffffffffffffffffffffffffffffffff1673ffffffffffffffffffffffffffffffffffffffff168152505090508060e0015173ffffffffffffffffffffffffffffffffffffffff163373ffffffffffffffffffffffffffffffffffffffff161462000d94576040517f08c379a000000000000000000000000000000000000000000000000000000000815260040162000d8b9062001a9d565b60405180910390fd5b62000d9e62001581565b60035481600001818152505086816020018190525085816040018190525042816080018181525050838160e0019073ffffffffffffffffffffffffffffffffffffffff16908173ffffffffffffffffffffffffffffffffffffffff16815250506001808662000e0e919062001988565b8154811062000e225762000e2162001701565b5b9060005260206000209060070201604051806101000160405290816000820154815260200160018201805462000e5890620019f2565b80601f016020809104026020016040519081016040528092919081815260200182805462000e8690620019f2565b801562000ed75780601f1062000eab5761010080835404028352916020019162000ed7565b820191906000526020600020905b81548152906001019060200180831162000eb957829003601f168201915b5050505050815260200160028201805462000ef290620019f2565b80601f016020809104026020016040519081016040528092919081815260200182805462000f2090620019f2565b801562000f715780601f1062000f455761010080835404028352916020019162000f71565b820191906000526020600020905b81548152906001019060200180831162000f5357829003601f168201915b505050505081526020016003820154815260200160048201548152602001600582015481526020016006820160009054906101000a900460ff161515151581526020016006820160019054906101000a900473ffffffffffffffffffffffffffffffffffffffff1673ffffffffffffffffffffffffffffffffffffffff1673ffffffffffffffffffffffffffffffffffffffff168152505081610100018190525060048190806001815401808255809150506001900390600052602060002090600e020160009091909190915060008201518160000155602082015181600101908051906020019062001066929190620014f0565b50604082015181600201908051906020019062001085929190620014f0565b506060820151816003019080519060200190620010a4929190620014f0565b506080820151816004015560a0820151816005015560c08201518160060160006101000a81548160ff02191690831515021790555060e08201518160060160016101000a81548173ffffffffffffffffffffffffffffffffffffffff021916908373ffffffffffffffffffffffffffffffffffffffff1602179055506101008201518160070160008201518160000155602082015181600101908051906020019062001152929190620014f0565b50604082015181600201908051906020019062001171929190620014f0565b50606082015181600301556080820151816004015560a0820151816005015560c08201518160060160006101000a81548160ff02191690831515021790555060e08201518160060160016101000a81548173ffffffffffffffffffffffffffffffffffffffff021916908373ffffffffffffffffffffffffffffffffffffffff16021790555050505050600560006001876200120e919062001988565b81526020019081526020016000208190806001815401808255809150506001900390600052602060002090600e02016000909190919091506000820151816000015560208201518160010190805190602001906200126e929190620014f0565b5060408201518160020190805190602001906200128d929190620014f0565b506060820151816003019080519060200190620012ac929190620014f0565b506080820151816004015560a0820151816005015560c08201518160060160006101000a81548160ff02191690831515021790555060e08201518160060160016101000a81548173ffffffffffffffffffffffffffffffffffffffff021916908373ffffffffffffffffffffffffffffffffffffffff160217905550610100820151816007016000820151816000015560208201518160010190805190602001906200135a929190620014f0565b50604082015181600201908051906020019062001379929190620014f0565b50606082015181600301556080820151816004015560a0820151816005015560c08201518160060160006101000a81548160ff02191690831515021790555060e08201518160060160016101000a81548173ffffffffffffffffffffffffffffffffffffffff021916908373ffffffffffffffffffffffffffffffffffffffff16021790555050505050600360008154809291906200141890620017db565b91905055508060200151604051620014319190620018ab565b60405180910390208160e0015173ffffffffffffffffffffffffffffffffffffffff1682600001517f5b2493258cbc7169ad9389516998320ce25dc27637cea28ddd0d033af122bfa660405160405180910390a4600192505050949350505050565b604051806101000160405280600081526020016060815260200160608152602001600081526020016000815260200160008152602001600015158152602001600073ffffffffffffffffffffffffffffffffffffffff1681525090565b828054620014fe90620019f2565b90600052602060002090601f0160209004810192826200152257600085556200156e565b82601f106200153d57805160ff19168380011785556200156e565b828001600101855582156200156e579182015b828111156200156d57825182559160200191906001019062001550565b5b5090506200157d9190620015ed565b5090565b604051806101200160405280600081526020016060815260200160608152602001606081526020016000815260200160008152602001600015158152602001600073ffffffffffffffffffffffffffffffffffffffff168152602001620015e762001493565b81525090565b5b8082111562001608576000816000905550600101620015ee565b5090565b600082825260208201905092915050565b7f57726f6e6720636c69656e742064617461000000000000000000000000000000600082015250565b6000620016556011836200160c565b915062001662826200161d565b602082019050919050565b60006020820190508181036000830152620016888162001646565b9050919050565b7f57726f6e67206e756d626572206f662061737365747300000000000000000000600082015250565b6000620016c76016836200160c565b9150620016d4826200168f565b602082019050919050565b60006020820190508181036000830152620016fa81620016b8565b9050919050565b7f4e487b7100000000000000000000000000000000000000000000000000000000600052603260045260246000fd5b7f57726f6e67206e756d626572206f66207461736b730000000000000000000000600082015250565b6000620017686015836200160c565b9150620017758262001730565b602082019050919050565b600060208201905081810360008301526200179b8162001759565b9050919050565b7f4e487b7100000000000000000000000000000000000000000000000000000000600052601160045260246000fd5b6000819050919050565b6000620017e882620017d1565b91507fffffffffffffffffffffffffffffffffffffffffffffffffffffffffffffffff82036200181d576200181c620017a2565b5b600182019050919050565b600081519050919050565b600081905092915050565b60005b838110156200185e57808201518184015260208101905062001841565b838111156200186e576000848401525b50505050565b6000620018818262001828565b6200188d818562001833565b93506200189f8185602086016200183e565b80840191505092915050565b6000620018b9828462001874565b915081905092915050565b6000601f19601f8301169050919050565b6000620018e28262001828565b620018ee81856200160c565b9350620019008185602086016200183e565b6200190b81620018c4565b840191505092915050565b6200192181620017d1565b82525050565b60008115159050919050565b6200193e8162001927565b82525050565b60006060820190508181036000830152620019608186620018d5565b905062001971602083018562001916565b62001980604083018462001933565b949350505050565b60006200199582620017d1565b9150620019a283620017d1565b925082821015620019b857620019b7620017a2565b5b828203905092915050565b7f4e487b7100000000000000000000000000000000000000000000000000000000600052602260045260246000fd5b6000600282049050600182168062001a0b57607f821691505b60208210810362001a215762001a20620019c3565b5b50919050565b7f546869732066756e6374696f6e206973207265737472696374656420746f207460008201527f68652061737365742063726561746f7200000000000000000000000000000000602082015250565b600062001a856030836200160c565b915062001a928262001a27565b604082019050919050565b6000602082019050818103600083015262001ab88162001a76565b9050919050565b614f0b8062001acf6000396000f3fe608060405234801561001057600080fd5b50600436106100f55760003560e01c80638d97767211610097578063c5c28d9a11610066578063c5c28d9a1461030f578063cf35bdd01461033f578063eafe7a7414610376578063f2bdc03514610394576100f5565b80638d9776721461025157806390902da514610289578063b51f79e3146102c1578063b6cb58a5146102f1576100f5565b80634e1347a7116100d35780634e1347a7146101915780636140dd60146101c1578063765ff061146101f15780637c6d372614610221576100f5565b80631a55cc48146100fa5780631c0034a61461012a5780631f69a00914610161575b600080fd5b610114600480360381019061010f9190613ba6565b6103c4565b6040516101219190613c60565b60405180910390f35b610144600480360381019061013f9190613c7b565b610d06565b604051610158989796959493929190613d61565b60405180910390f35b61017b60048036038101906101769190613ded565b610ea8565b60405161018891906140e4565b60405180910390f35b6101ab60048036038101906101a69190613ded565b611344565b6040516101b89190613c60565b60405180910390f35b6101db60048036038101906101d69190613ded565b6116cf565b6040516101e89190613c60565b60405180910390f35b61020b60048036038101906102069190614106565b611fce565b60405161021891906141f5565b60405180910390f35b61023b600480360381019061023691906143d6565b61222f565b6040516102489190613c60565b60405180910390f35b61026b60048036038101906102669190613ded565b612340565b60405161028099989796959493929190614518565b60405180910390f35b6102a3600480360381019061029e91906145c1565b61272b565b6040516102b899989796959493929190614518565b60405180910390f35b6102db60048036038101906102d69190614601565b612b23565b6040516102e89190613c60565b60405180910390f35b6102f9613240565b604051610306919061465d565b60405180910390f35b610329600480360381019061032491906148e2565b613246565b6040516103369190613c60565b60405180910390f35b61035960048036038101906103549190613ded565b613372565b60405161036d989796959493929190613d61565b60405180910390f35b61037e613507565b60405161038b919061465d565b60405180910390f35b6103ae60048036038101906103a99190614982565b61350d565b6040516103bb9190613c60565b60405180910390f35b60006103ce61384e565b600180856103dc9190614a3c565b815481106103ed576103ec614a70565b5b9060005260206000209060070201604051806101000160405290816000820154815260200160018201805461042190614ace565b80601f016020809104026020016040519081016040528092919081815260200182805461044d90614ace565b801561049a5780601f1061046f5761010080835404028352916020019161049a565b820191906000526020600020905b81548152906001019060200180831161047d57829003601f168201915b505050505081526020016002820180546104b390614ace565b80601f01602080910402602001604051908101604052809291908181526020018280546104df90614ace565b801561052c5780601f106105015761010080835404028352916020019161052c565b820191906000526020600020905b81548152906001019060200180831161050f57829003601f168201915b505050505081526020016003820154815260200160048201548152602001600582015481526020016006820160009054906101000a900460ff161515151581526020016006820160019054906101000a900473ffffffffffffffffffffffffffffffffffffffff1673ffffffffffffffffffffffffffffffffffffffff1673ffffffffffffffffffffffffffffffffffffffff168152505090508060e0015173ffffffffffffffffffffffffffffffffffffffff163373ffffffffffffffffffffffffffffffffffffffff1614610638576040517f08c379a000000000000000000000000000000000000000000000000000000000815260040161062f90614b71565b60405180910390fd5b6106406138ab565b60035481600001818152505086816020018190525085816040018190525042816080018181525050838160e0019073ffffffffffffffffffffffffffffffffffffffff16908173ffffffffffffffffffffffffffffffffffffffff1681525050600180866106ae9190614a3c565b815481106106bf576106be614a70565b5b906000526020600020906007020160405180610100016040529081600082015481526020016001820180546106f390614ace565b80601f016020809104026020016040519081016040528092919081815260200182805461071f90614ace565b801561076c5780601f106107415761010080835404028352916020019161076c565b820191906000526020600020905b81548152906001019060200180831161074f57829003601f168201915b5050505050815260200160028201805461078590614ace565b80601f01602080910402602001604051908101604052809291908181526020018280546107b190614ace565b80156107fe5780601f106107d3576101008083540402835291602001916107fe565b820191906000526020600020905b8154815290600101906020018083116107e157829003601f168201915b505050505081526020016003820154815260200160048201548152602001600582015481526020016006820160009054906101000a900460ff161515151581526020016006820160019054906101000a900473ffffffffffffffffffffffffffffffffffffffff1673ffffffffffffffffffffffffffffffffffffffff1673ffffffffffffffffffffffffffffffffffffffff168152505081610100018190525060048190806001815401808255809150506001900390600052602060002090600e02016000909190919091506000820151816000015560208201518160010190805190602001906108f1929190613915565b50604082015181600201908051906020019061090e929190613915565b50606082015181600301908051906020019061092b929190613915565b506080820151816004015560a0820151816005015560c08201518160060160006101000a81548160ff02191690831515021790555060e08201518160060160016101000a81548173ffffffffffffffffffffffffffffffffffffffff021916908373ffffffffffffffffffffffffffffffffffffffff160217905550610100820151816007016000820151816000015560208201518160010190805190602001906109d7929190613915565b5060408201518160020190805190602001906109f4929190613915565b50606082015181600301556080820151816004015560a0820151816005015560c08201518160060160006101000a81548160ff02191690831515021790555060e08201518160060160016101000a81548173ffffffffffffffffffffffffffffffffffffffff021916908373ffffffffffffffffffffffffffffffffffffffff1602179055505050505060056000600187610a8f9190614a3c565b81526020019081526020016000208190806001815401808255809150506001900390600052602060002090600e0201600090919091909150600082015181600001556020820151816001019080519060200190610aed929190613915565b506040820151816002019080519060200190610b0a929190613915565b506060820151816003019080519060200190610b27929190613915565b506080820151816004015560a0820151816005015560c08201518160060160006101000a81548160ff02191690831515021790555060e08201518160060160016101000a81548173ffffffffffffffffffffffffffffffffffffffff021916908373ffffffffffffffffffffffffffffffffffffffff16021790555061010082015181600701600082015181600001556020820151816001019080519060200190610bd3929190613915565b506040820151816002019080519060200190610bf0929190613915565b50606082015181600301556080820151816004015560a0820151816005015560c08201518160060160006101000a81548160ff02191690831515021790555060e08201518160060160016101000a81548173ffffffffffffffffffffffffffffffffffffffff021916908373ffffffffffffffffffffffffffffffffffffffff1602179055505050505060036000815480929190610c8d90614b91565b91905055508060200151604051610ca49190614c15565b60405180910390208160e0015173ffffffffffffffffffffffffffffffffffffffff1682600001517f5b2493258cbc7169ad9389516998320ce25dc27637cea28ddd0d033af122bfa660405160405180910390a4600192505050949350505050565b60026020528160005260406000208181548110610d2257600080fd5b906000526020600020906007020160009150915050806000015490806001018054610d4c90614ace565b80601f0160208091040260200160405190810160405280929190818152602001828054610d7890614ace565b8015610dc55780601f10610d9a57610100808354040283529160200191610dc5565b820191906000526020600020905b815481529060010190602001808311610da857829003601f168201915b505050505090806002018054610dda90614ace565b80601f0160208091040260200160405190810160405280929190818152602001828054610e0690614ace565b8015610e535780601f10610e2857610100808354040283529160200191610e53565b820191906000526020600020905b815481529060010190602001808311610e3657829003601f168201915b5050505050908060030154908060040154908060050154908060060160009054906101000a900460ff16908060060160019054906101000a900473ffffffffffffffffffffffffffffffffffffffff16905088565b6060600060056000600185610ebd9190614a3c565b8152602001908152602001600020805480602002602001604051908101604052809291908181526020016000905b8282101561133557838290600052602060002090600e02016040518061012001604052908160008201548152602001600182018054610f2990614ace565b80601f0160208091040260200160405190810160405280929190818152602001828054610f5590614ace565b8015610fa25780601f10610f7757610100808354040283529160200191610fa2565b820191906000526020600020905b815481529060010190602001808311610f8557829003601f168201915b50505050508152602001600282018054610fbb90614ace565b80601f0160208091040260200160405190810160405280929190818152602001828054610fe790614ace565b80156110345780601f1061100957610100808354040283529160200191611034565b820191906000526020600020905b81548152906001019060200180831161101757829003601f168201915b5050505050815260200160038201805461104d90614ace565b80601f016020809104026020016040519081016040528092919081815260200182805461107990614ace565b80156110c65780601f1061109b576101008083540402835291602001916110c6565b820191906000526020600020905b8154815290600101906020018083116110a957829003601f168201915b5050505050815260200160048201548152602001600582015481526020016006820160009054906101000a900460ff161515151581526020016006820160019054906101000a900473ffffffffffffffffffffffffffffffffffffffff1673ffffffffffffffffffffffffffffffffffffffff1673ffffffffffffffffffffffffffffffffffffffff16815260200160078201604051806101000160405290816000820154815260200160018201805461117f90614ace565b80601f01602080910402602001604051908101604052809291908181526020018280546111ab90614ace565b80156111f85780601f106111cd576101008083540402835291602001916111f8565b820191906000526020600020905b8154815290600101906020018083116111db57829003601f168201915b5050505050815260200160028201805461121190614ace565b80601f016020809104026020016040519081016040528092919081815260200182805461123d90614ace565b801561128a5780601f1061125f5761010080835404028352916020019161128a565b820191906000526020600020905b81548152906001019060200180831161126d57829003601f168201915b505050505081526020016003820154815260200160048201548152602001600582015481526020016006820160009054906101000a900460ff161515151581526020016006820160019054906101000a900473ffffffffffffffffffffffffffffffffffffffff1673ffffffffffffffffffffffffffffffffffffffff1673ffffffffffffffffffffffffffffffffffffffff16815250508152505081526020019060010190610eeb565b50505050905080915050919050565b600081600180549050101561138e576040517f08c379a000000000000000000000000000000000000000000000000000000000815260040161138590614c78565b60405180910390fd5b60006001808461139e9190614a3c565b815481106113af576113ae614a70565b5b906000526020600020906007020160405180610100016040529081600082015481526020016001820180546113e390614ace565b80601f016020809104026020016040519081016040528092919081815260200182805461140f90614ace565b801561145c5780601f106114315761010080835404028352916020019161145c565b820191906000526020600020905b81548152906001019060200180831161143f57829003601f168201915b5050505050815260200160028201805461147590614ace565b80601f01602080910402602001604051908101604052809291908181526020018280546114a190614ace565b80156114ee5780601f106114c3576101008083540402835291602001916114ee565b820191906000526020600020905b8154815290600101906020018083116114d157829003601f168201915b505050505081526020016003820154815260200160048201548152602001600582015481526020016006820160009054906101000a900460ff161515151581526020016006820160019054906101000a900473ffffffffffffffffffffffffffffffffffffffff1673ffffffffffffffffffffffffffffffffffffffff1673ffffffffffffffffffffffffffffffffffffffff168152505090508060c00151159150818160c001901515908115158152505080600180856115af9190614a3c565b815481106115c0576115bf614a70565b5b90600052602060002090600702016000820151816000015560208201518160010190805190602001906115f4929190613915565b506040820151816002019080519060200190611611929190613915565b50606082015181600301556080820151816004015560a0820151816005015560c08201518160060160006101000a81548160ff02191690831515021790555060e08201518160060160016101000a81548173ffffffffffffffffffffffffffffffffffffffff021916908373ffffffffffffffffffffffffffffffffffffffff1602179055509050508115157ff22cbfb622d75dcf8b8a0f945daa607fe2e0c01b5938db80499d4daf538ac1e460405160405180910390a250919050565b60008060046001846116e19190614a3c565b815481106116f2576116f1614a70565b5b90600052602060002090600e0201604051806101200160405290816000820154815260200160018201805461172690614ace565b80601f016020809104026020016040519081016040528092919081815260200182805461175290614ace565b801561179f5780601f106117745761010080835404028352916020019161179f565b820191906000526020600020905b81548152906001019060200180831161178257829003601f168201915b505050505081526020016002820180546117b890614ace565b80601f01602080910402602001604051908101604052809291908181526020018280546117e490614ace565b80156118315780601f1061180657610100808354040283529160200191611831565b820191906000526020600020905b81548152906001019060200180831161181457829003601f168201915b5050505050815260200160038201805461184a90614ace565b80601f016020809104026020016040519081016040528092919081815260200182805461187690614ace565b80156118c35780601f10611898576101008083540402835291602001916118c3565b820191906000526020600020905b8154815290600101906020018083116118a657829003601f168201915b5050505050815260200160048201548152602001600582015481526020016006820160009054906101000a900460ff161515151581526020016006820160019054906101000a900473ffffffffffffffffffffffffffffffffffffffff1673ffffffffffffffffffffffffffffffffffffffff1673ffffffffffffffffffffffffffffffffffffffff16815260200160078201604051806101000160405290816000820154815260200160018201805461197c90614ace565b80601f01602080910402602001604051908101604052809291908181526020018280546119a890614ace565b80156119f55780601f106119ca576101008083540402835291602001916119f5565b820191906000526020600020905b8154815290600101906020018083116119d857829003601f168201915b50505050508152602001600282018054611a0e90614ace565b80601f0160208091040260200160405190810160405280929190818152602001828054611a3a90614ace565b8015611a875780601f10611a5c57610100808354040283529160200191611a87565b820191906000526020600020905b815481529060010190602001808311611a6a57829003601f168201915b505050505081526020016003820154815260200160048201548152602001600582015481526020016006820160009054906101000a900460ff161515151581526020016006820160019054906101000a900473ffffffffffffffffffffffffffffffffffffffff1673ffffffffffffffffffffffffffffffffffffffff1673ffffffffffffffffffffffffffffffffffffffff16815250508152505090508060c00151158160c0019015159081151581525050806004600185611b4a9190614a3c565b81548110611b5b57611b5a614a70565b5b90600052602060002090600e0201600082015181600001556020820151816001019080519060200190611b8f929190613915565b506040820151816002019080519060200190611bac929190613915565b506060820151816003019080519060200190611bc9929190613915565b506080820151816004015560a0820151816005015560c08201518160060160006101000a81548160ff02191690831515021790555060e08201518160060160016101000a81548173ffffffffffffffffffffffffffffffffffffffff021916908373ffffffffffffffffffffffffffffffffffffffff16021790555061010082015181600701600082015181600001556020820151816001019080519060200190611c75929190613915565b506040820151816002019080519060200190611c92929190613915565b50606082015181600301556080820151816004015560a0820151816005015560c08201518160060160006101000a81548160ff02191690831515021790555060e08201518160060160016101000a81548173ffffffffffffffffffffffffffffffffffffffff021916908373ffffffffffffffffffffffffffffffffffffffff16021790555050509050506000611d3182610100015160000151610ea8565b905060005b60018251611d449190614a3c565b8160ff161015611d8a5784828260ff1681518110611d6557611d64614a70565b5b6020026020010151600001510315611d8a578080611d8290614c98565b915050611d36565b8260056000600186610100015160000151611da59190614a3c565b81526020019081526020016000208260ff1681548110611dc857611dc7614a70565b5b90600052602060002090600e0201600082015181600001556020820151816001019080519060200190611dfc929190613915565b506040820151816002019080519060200190611e19929190613915565b506060820151816003019080519060200190611e36929190613915565b506080820151816004015560a0820151816005015560c08201518160060160006101000a81548160ff02191690831515021790555060e08201518160060160016101000a81548173ffffffffffffffffffffffffffffffffffffffff021916908373ffffffffffffffffffffffffffffffffffffffff16021790555061010082015181600701600082015181600001556020820151816001019080519060200190611ee2929190613915565b506040820151816002019080519060200190611eff929190613915565b50606082015181600301556080820151816004015560a0820151816005015560c08201518160060160006101000a81548160ff02191690831515021790555060e08201518160060160016101000a81548173ffffffffffffffffffffffffffffffffffffffff021916908373ffffffffffffffffffffffffffffffffffffffff16021790555050509050508260c001511515157fdc3b9f81fbc5ccc1135e0011003cd9da4e4edd29dc106ca34c8d3724b9eb4a3e60405160405180910390a28260c00151159350505050919050565b606080600260008473ffffffffffffffffffffffffffffffffffffffff1673ffffffffffffffffffffffffffffffffffffffff168152602001908152602001600020805480602002602001604051908101604052809291908181526020016000905b828210156122205783829060005260206000209060070201604051806101000160405290816000820154815260200160018201805461206e90614ace565b80601f016020809104026020016040519081016040528092919081815260200182805461209a90614ace565b80156120e75780601f106120bc576101008083540402835291602001916120e7565b820191906000526020600020905b8154815290600101906020018083116120ca57829003601f168201915b5050505050815260200160028201805461210090614ace565b80601f016020809104026020016040519081016040528092919081815260200182805461212c90614ace565b80156121795780601f1061214e57610100808354040283529160200191612179565b820191906000526020600020905b81548152906001019060200180831161215c57829003601f168201915b505050505081526020016003820154815260200160048201548152602001600582015481526020016006820160009054906101000a900460ff161515151581526020016006820160019054906101000a900473ffffffffffffffffffffffffffffffffffffffff1673ffffffffffffffffffffffffffffffffffffffff1673ffffffffffffffffffffffffffffffffffffffff168152505081526020019060010190612030565b50505050905080915050919050565b6000806005905060058114612279576040517f08c379a000000000000000000000000000000000000000000000000000000000815260040161227090614d0d565b60405180910390fd5b600a81106122bc576040517f08c379a00000000000000000000000000000000000000000000000000000000081526004016122b390614d79565b60405180910390fd5b60005b818160ff16101561233357612327868260ff16600581106122e3576122e2614a70565b5b6020020151868360ff16600581106122fe576122fd614a70565b5b6020020151868460ff166005811061231957612318614a70565b5b602002015161ffff1661350d565b508060010190506122bf565b5060019150509392505050565b6004818154811061235057600080fd5b90600052602060002090600e020160009150905080600001549080600101805461237990614ace565b80601f01602080910402602001604051908101604052809291908181526020018280546123a590614ace565b80156123f25780601f106123c7576101008083540402835291602001916123f2565b820191906000526020600020905b8154815290600101906020018083116123d557829003601f168201915b50505050509080600201805461240790614ace565b80601f016020809104026020016040519081016040528092919081815260200182805461243390614ace565b80156124805780601f1061245557610100808354040283529160200191612480565b820191906000526020600020905b81548152906001019060200180831161246357829003601f168201915b50505050509080600301805461249590614ace565b80601f01602080910402602001604051908101604052809291908181526020018280546124c190614ace565b801561250e5780601f106124e35761010080835404028352916020019161250e565b820191906000526020600020905b8154815290600101906020018083116124f157829003601f168201915b5050505050908060040154908060050154908060060160009054906101000a900460ff16908060060160019054906101000a900473ffffffffffffffffffffffffffffffffffffffff169080600701604051806101000160405290816000820154815260200160018201805461258390614ace565b80601f01602080910402602001604051908101604052809291908181526020018280546125af90614ace565b80156125fc5780601f106125d1576101008083540402835291602001916125fc565b820191906000526020600020905b8154815290600101906020018083116125df57829003601f168201915b5050505050815260200160028201805461261590614ace565b80601f016020809104026020016040519081016040528092919081815260200182805461264190614ace565b801561268e5780601f106126635761010080835404028352916020019161268e565b820191906000526020600020905b81548152906001019060200180831161267157829003601f168201915b505050505081526020016003820154815260200160048201548152602001600582015481526020016006820160009054906101000a900460ff161515151581526020016006820160019054906101000a900473ffffffffffffffffffffffffffffffffffffffff1673ffffffffffffffffffffffffffffffffffffffff1673ffffffffffffffffffffffffffffffffffffffff1681525050905089565b6005602052816000526040600020818154811061274757600080fd5b90600052602060002090600e02016000915091505080600001549080600101805461277190614ace565b80601f016020809104026020016040519081016040528092919081815260200182805461279d90614ace565b80156127ea5780601f106127bf576101008083540402835291602001916127ea565b820191906000526020600020905b8154815290600101906020018083116127cd57829003601f168201915b5050505050908060020180546127ff90614ace565b80601f016020809104026020016040519081016040528092919081815260200182805461282b90614ace565b80156128785780601f1061284d57610100808354040283529160200191612878565b820191906000526020600020905b81548152906001019060200180831161285b57829003601f168201915b50505050509080600301805461288d90614ace565b80601f01602080910402602001604051908101604052809291908181526020018280546128b990614ace565b80156129065780601f106128db57610100808354040283529160200191612906565b820191906000526020600020905b8154815290600101906020018083116128e957829003601f168201915b5050505050908060040154908060050154908060060160009054906101000a900460ff16908060060160019054906101000a900473ffffffffffffffffffffffffffffffffffffffff169080600701604051806101000160405290816000820154815260200160018201805461297b90614ace565b80601f01602080910402602001604051908101604052809291908181526020018280546129a790614ace565b80156129f45780601f106129c9576101008083540402835291602001916129f4565b820191906000526020600020905b8154815290600101906020018083116129d757829003601f168201915b50505050508152602001600282018054612a0d90614ace565b80601f0160208091040260200160405190810160405280929190818152602001828054612a3990614ace565b8015612a865780601f10612a5b57610100808354040283529160200191612a86565b820191906000526020600020905b815481529060010190602001808311612a6957829003601f168201915b505050505081526020016003820154815260200160048201548152602001600582015481526020016006820160009054906101000a900460ff161515151581526020016006820160019054906101000a900473ffffffffffffffffffffffffffffffffffffffff1673ffffffffffffffffffffffffffffffffffffffff1673ffffffffffffffffffffffffffffffffffffffff1681525050905089565b6000806004600185612b359190614a3c565b81548110612b4657612b45614a70565b5b90600052602060002090600e02016040518061012001604052908160008201548152602001600182018054612b7a90614ace565b80601f0160208091040260200160405190810160405280929190818152602001828054612ba690614ace565b8015612bf35780601f10612bc857610100808354040283529160200191612bf3565b820191906000526020600020905b815481529060010190602001808311612bd657829003601f168201915b50505050508152602001600282018054612c0c90614ace565b80601f0160208091040260200160405190810160405280929190818152602001828054612c3890614ace565b8015612c855780601f10612c5a57610100808354040283529160200191612c85565b820191906000526020600020905b815481529060010190602001808311612c6857829003601f168201915b50505050508152602001600382018054612c9e90614ace565b80601f0160208091040260200160405190810160405280929190818152602001828054612cca90614ace565b8015612d175780601f10612cec57610100808354040283529160200191612d17565b820191906000526020600020905b815481529060010190602001808311612cfa57829003601f168201915b5050505050815260200160048201548152602001600582015481526020016006820160009054906101000a900460ff161515151581526020016006820160019054906101000a900473ffffffffffffffffffffffffffffffffffffffff1673ffffffffffffffffffffffffffffffffffffffff1673ffffffffffffffffffffffffffffffffffffffff168152602001600782016040518061010001604052908160008201548152602001600182018054612dd090614ace565b80601f0160208091040260200160405190810160405280929190818152602001828054612dfc90614ace565b8015612e495780601f10612e1e57610100808354040283529160200191612e49565b820191906000526020600020905b815481529060010190602001808311612e2c57829003601f168201915b50505050508152602001600282018054612e6290614ace565b80601f0160208091040260200160405190810160405280929190818152602001828054612e8e90614ace565b8015612edb5780601f10612eb057610100808354040283529160200191612edb565b820191906000526020600020905b815481529060010190602001808311612ebe57829003601f168201915b505050505081526020016003820154815260200160048201548152602001600582015481526020016006820160009054906101000a900460ff161515151581526020016006820160019054906101000a900473ffffffffffffffffffffffffffffffffffffffff1673ffffffffffffffffffffffffffffffffffffffff1673ffffffffffffffffffffffffffffffffffffffff16815250508152505090508060e0015173ffffffffffffffffffffffffffffffffffffffff163373ffffffffffffffffffffffffffffffffffffffff167f2960695afa2609b7591ca0b79d5586f853e610ce0515852f7a5ced78fd32ade960405160405180910390a38060e0015173ffffffffffffffffffffffffffffffffffffffff163373ffffffffffffffffffffffffffffffffffffffff1614613049576040517f08c379a000000000000000000000000000000000000000000000000000000000815260040161304090614e0b565b60405180910390fd5b8281606001819052508060046001866130629190614a3c565b8154811061307357613072614a70565b5b90600052602060002090600e02016000820151816000015560208201518160010190805190602001906130a7929190613915565b5060408201518160020190805190602001906130c4929190613915565b5060608201518160030190805190602001906130e1929190613915565b506080820151816004015560a0820151816005015560c08201518160060160006101000a81548160ff02191690831515021790555060e08201518160060160016101000a81548173ffffffffffffffffffffffffffffffffffffffff021916908373ffffffffffffffffffffffffffffffffffffffff1602179055506101008201518160070160008201518160000155602082015181600101908051906020019061318d929190613915565b5060408201518160020190805190602001906131aa929190613915565b50606082015181600301556080820151816004015560a0820151816005015560c08201518160060160006101000a81548160ff02191690831515021790555060e08201518160060160016101000a81548173ffffffffffffffffffffffffffffffffffffffff021916908373ffffffffffffffffffffffffffffffffffffffff1602179055505050905050600191505092915050565b60035481565b6000806003905060038114613290576040517f08c379a000000000000000000000000000000000000000000000000000000000815260040161328790614d0d565b60405180910390fd5b600a81106132d3576040517f08c379a00000000000000000000000000000000000000000000000000000000081526004016132ca90614e77565b60405180910390fd5b60005b818160ff16101561336457613358878260ff16600381106132fa576132f9614a70565b5b6020020151878360ff166003811061331557613314614a70565b5b6020020151878460ff16600381106133305761332f614a70565b5b602002015160ff16878560ff166003811061334e5761334d614a70565b5b60200201516103c4565b508060010190506132d6565b506001915050949350505050565b6001818154811061338257600080fd5b90600052602060002090600702016000915090508060000154908060010180546133ab90614ace565b80601f01602080910402602001604051908101604052809291908181526020018280546133d790614ace565b80156134245780601f106133f957610100808354040283529160200191613424565b820191906000526020600020905b81548152906001019060200180831161340757829003601f168201915b50505050509080600201805461343990614ace565b80601f016020809104026020016040519081016040528092919081815260200182805461346590614ace565b80156134b25780601f10613487576101008083540402835291602001916134b2565b820191906000526020600020905b81548152906001019060200180831161349557829003601f168201915b5050505050908060030154908060040154908060050154908060060160009054906101000a900460ff16908060060160019054906101000a900473ffffffffffffffffffffffffffffffffffffffff16905088565b60005481565b600061351761384e565b60005481600001818152505084816020018190525083816040018190525042816060018181525050828160a0018181525050338160e0019073ffffffffffffffffffffffffffffffffffffffff16908173ffffffffffffffffffffffffffffffffffffffff168152505060018190806001815401808255809150506001900390600052602060002090600702016000909190919091506000820151816000015560208201518160010190805190602001906135d3929190613915565b5060408201518160020190805190602001906135f0929190613915565b50606082015181600301556080820151816004015560a0820151816005015560c08201518160060160006101000a81548160ff02191690831515021790555060e08201518160060160016101000a81548173ffffffffffffffffffffffffffffffffffffffff021916908373ffffffffffffffffffffffffffffffffffffffff1602179055505050600260003373ffffffffffffffffffffffffffffffffffffffff1673ffffffffffffffffffffffffffffffffffffffff168152602001908152602001600020819080600181540180825580915050600190039060005260206000209060070201600090919091909150600082015181600001556020820151816001019080519060200190613707929190613915565b506040820151816002019080519060200190613724929190613915565b50606082015181600301556080820151816004015560a0820151816005015560c08201518160060160006101000a81548160ff02191690831515021790555060e08201518160060160016101000a81548173ffffffffffffffffffffffffffffffffffffffff021916908373ffffffffffffffffffffffffffffffffffffffff160217905550505060008081546137ba90614b91565b919050819055508060e0015173ffffffffffffffffffffffffffffffffffffffff1681602001516040516137ee9190614c15565b604051809103902082600001517fc332eb430b0efd9f7423746a02f070eff066ac3b735eb56a3b502e5dd2039d4f84604001518560a001518660c0015160405161383a93929190614e97565b60405180910390a460019150509392505050565b604051806101000160405280600081526020016060815260200160608152602001600081526020016000815260200160008152602001600015158152602001600073ffffffffffffffffffffffffffffffffffffffff1681525090565b604051806101200160405280600081526020016060815260200160608152602001606081526020016000815260200160008152602001600015158152602001600073ffffffffffffffffffffffffffffffffffffffff16815260200161390f61384e565b81525090565b82805461392190614ace565b90600052602060002090601f016020900481019282613943576000855561398a565b82601f1061395c57805160ff191683800117855561398a565b8280016001018555821561398a579182015b8281111561398957825182559160200191906001019061396e565b5b509050613997919061399b565b5090565b5b808211156139b457600081600090555060010161399c565b5090565b6000604051905090565b600080fd5b600080fd5b600080fd5b600080fd5b6000601f19601f8301169050919050565b7f4e487b7100000000000000000000000000000000000000000000000000000000600052604160045260246000fd5b613a1f826139d6565b810181811067ffffffffffffffff82111715613a3e57613a3d6139e7565b5b80604052505050565b6000613a516139b8565b9050613a5d8282613a16565b919050565b600067ffffffffffffffff821115613a7d57613a7c6139e7565b5b613a86826139d6565b9050602081019050919050565b82818337600083830152505050565b6000613ab5613ab084613a62565b613a47565b905082815260208101848484011115613ad157613ad06139d1565b5b613adc848285613a93565b509392505050565b600082601f830112613af957613af86139cc565b5b8135613b09848260208601613aa2565b91505092915050565b6000819050919050565b613b2581613b12565b8114613b3057600080fd5b50565b600081359050613b4281613b1c565b92915050565b600073ffffffffffffffffffffffffffffffffffffffff82169050919050565b6000613b7382613b48565b9050919050565b613b8381613b68565b8114613b8e57600080fd5b50565b600081359050613ba081613b7a565b92915050565b60008060008060808587031215613bc057613bbf6139c2565b5b600085013567ffffffffffffffff811115613bde57613bdd6139c7565b5b613bea87828801613ae4565b945050602085013567ffffffffffffffff811115613c0b57613c0a6139c7565b5b613c1787828801613ae4565b9350506040613c2887828801613b33565b9250506060613c3987828801613b91565b91505092959194509250565b60008115159050919050565b613c5a81613c45565b82525050565b6000602082019050613c756000830184613c51565b92915050565b60008060408385031215613c9257613c916139c2565b5b6000613ca085828601613b91565b9250506020613cb185828601613b33565b9150509250929050565b613cc481613b12565b82525050565b600081519050919050565b600082825260208201905092915050565b60005b83811015613d04578082015181840152602081019050613ce9565b83811115613d13576000848401525b50505050565b6000613d2482613cca565b613d2e8185613cd5565b9350613d3e818560208601613ce6565b613d47816139d6565b840191505092915050565b613d5b81613b68565b82525050565b600061010082019050613d77600083018b613cbb565b8181036020830152613d89818a613d19565b90508181036040830152613d9d8189613d19565b9050613dac6060830188613cbb565b613db96080830187613cbb565b613dc660a0830186613cbb565b613dd360c0830185613c51565b613de060e0830184613d52565b9998505050505050505050565b600060208284031215613e0357613e026139c2565b5b6000613e1184828501613b33565b91505092915050565b600081519050919050565b600082825260208201905092915050565b6000819050602082019050919050565b613e4f81613b12565b82525050565b600082825260208201905092915050565b6000613e7182613cca565b613e7b8185613e55565b9350613e8b818560208601613ce6565b613e94816139d6565b840191505092915050565b613ea881613c45565b82525050565b613eb781613b68565b82525050565b600061010083016000830151613ed66000860182613e46565b5060208301518482036020860152613eee8282613e66565b91505060408301518482036040860152613f088282613e66565b9150506060830151613f1d6060860182613e46565b506080830151613f306080860182613e46565b5060a0830151613f4360a0860182613e46565b5060c0830151613f5660c0860182613e9f565b5060e0830151613f6960e0860182613eae565b508091505092915050565b600061012083016000830151613f8d6000860182613e46565b5060208301518482036020860152613fa58282613e66565b91505060408301518482036040860152613fbf8282613e66565b91505060608301518482036060860152613fd98282613e66565b9150506080830151613fee6080860182613e46565b5060a083015161400160a0860182613e46565b5060c083015161401460c0860182613e9f565b5060e083015161402760e0860182613eae565b506101008301518482036101008601526140418282613ebd565b9150508091505092915050565b600061405a8383613f74565b905092915050565b6000602082019050919050565b600061407a82613e1a565b6140848185613e25565b93508360208202850161409685613e36565b8060005b858110156140d257848403895281516140b3858261404e565b94506140be83614062565b925060208a0199505060018101905061409a565b50829750879550505050505092915050565b600060208201905081810360008301526140fe818461406f565b905092915050565b60006020828403121561411c5761411b6139c2565b5b600061412a84828501613b91565b91505092915050565b600081519050919050565b600082825260208201905092915050565b6000819050602082019050919050565b600061416b8383613ebd565b905092915050565b6000602082019050919050565b600061418b82614133565b614195818561413e565b9350836020820285016141a78561414f565b8060005b858110156141e357848403895281516141c4858261415f565b94506141cf83614173565b925060208a019950506001810190506141ab565b50829750879550505050505092915050565b6000602082019050818103600083015261420f8184614180565b905092915050565b600067ffffffffffffffff821115614232576142316139e7565b5b602082029050919050565b600080fd5b600061425561425084614217565b613a47565b9050806020840283018581111561426f5761426e61423d565b5b835b818110156142b657803567ffffffffffffffff811115614294576142936139cc565b5b8086016142a18982613ae4565b85526020850194505050602081019050614271565b5050509392505050565b600082601f8301126142d5576142d46139cc565b5b60056142e2848285614242565b91505092915050565b600067ffffffffffffffff821115614306576143056139e7565b5b602082029050919050565b600061ffff82169050919050565b61432881614311565b811461433357600080fd5b50565b6000813590506143458161431f565b92915050565b600061435e614359846142eb565b613a47565b905080602084028301858111156143785761437761423d565b5b835b818110156143a1578061438d8882614336565b84526020840193505060208101905061437a565b5050509392505050565b600082601f8301126143c0576143bf6139cc565b5b60056143cd84828561434b565b91505092915050565b600080600060e084860312156143ef576143ee6139c2565b5b600084013567ffffffffffffffff81111561440d5761440c6139c7565b5b614419868287016142c0565b935050602084013567ffffffffffffffff81111561443a576144396139c7565b5b614446868287016142c0565b9250506040614457868287016143ab565b9150509250925092565b60006101008301600083015161447a6000860182613e46565b50602083015184820360208601526144928282613e66565b915050604083015184820360408601526144ac8282613e66565b91505060608301516144c16060860182613e46565b5060808301516144d46080860182613e46565b5060a08301516144e760a0860182613e46565b5060c08301516144fa60c0860182613e9f565b5060e083015161450d60e0860182613eae565b508091505092915050565b60006101208201905061452e600083018c613cbb565b8181036020830152614540818b613d19565b90508181036040830152614554818a613d19565b905081810360608301526145688189613d19565b90506145776080830188613cbb565b61458460a0830187613cbb565b61459160c0830186613c51565b61459e60e0830185613d52565b8181036101008301526145b18184614461565b90509a9950505050505050505050565b600080604083850312156145d8576145d76139c2565b5b60006145e685828601613b33565b92505060206145f785828601613b33565b9150509250929050565b60008060408385031215614618576146176139c2565b5b600061462685828601613b33565b925050602083013567ffffffffffffffff811115614647576146466139c7565b5b61465385828601613ae4565b9150509250929050565b60006020820190506146726000830184613cbb565b92915050565b600067ffffffffffffffff821115614693576146926139e7565b5b602082029050919050565b60006146b16146ac84614678565b613a47565b905080602084028301858111156146cb576146ca61423d565b5b835b8181101561471257803567ffffffffffffffff8111156146f0576146ef6139cc565b5b8086016146fd8982613ae4565b855260208501945050506020810190506146cd565b5050509392505050565b600082601f830112614731576147306139cc565b5b600361473e84828561469e565b91505092915050565b600067ffffffffffffffff821115614762576147616139e7565b5b602082029050919050565b600060ff82169050919050565b6147838161476d565b811461478e57600080fd5b50565b6000813590506147a08161477a565b92915050565b60006147b96147b484614747565b613a47565b905080602084028301858111156147d3576147d261423d565b5b835b818110156147fc57806147e88882614791565b8452602084019350506020810190506147d5565b5050509392505050565b600082601f83011261481b5761481a6139cc565b5b60036148288482856147a6565b91505092915050565b600067ffffffffffffffff82111561484c5761484b6139e7565b5b602082029050919050565b600061486a61486584614831565b613a47565b905080602084028301858111156148845761488361423d565b5b835b818110156148ad57806148998882613b91565b845260208401935050602081019050614886565b5050509392505050565b600082601f8301126148cc576148cb6139cc565b5b60036148d9848285614857565b91505092915050565b60008060008061010085870312156148fd576148fc6139c2565b5b600085013567ffffffffffffffff81111561491b5761491a6139c7565b5b6149278782880161471c565b945050602085013567ffffffffffffffff811115614948576149476139c7565b5b6149548782880161471c565b935050604061496587828801614806565b92505060a0614976878288016148b7565b91505092959194509250565b60008060006060848603121561499b5761499a6139c2565b5b600084013567ffffffffffffffff8111156149b9576149b86139c7565b5b6149c586828701613ae4565b935050602084013567ffffffffffffffff8111156149e6576149e56139c7565b5b6149f286828701613ae4565b9250506040614a0386828701613b33565b9150509250925092565b7f4e487b7100000000000000000000000000000000000000000000000000000000600052601160045260246000fd5b6000614a4782613b12565b9150614a5283613b12565b925082821015614a6557614a64614a0d565b5b828203905092915050565b7f4e487b7100000000000000000000000000000000000000000000000000000000600052603260045260246000fd5b7f4e487b7100000000000000000000000000000000000000000000000000000000600052602260045260246000fd5b60006002820490506001821680614ae657607f821691505b602082108103614af957614af8614a9f565b5b50919050565b7f546869732066756e6374696f6e206973207265737472696374656420746f207460008201527f68652061737365742063726561746f7200000000000000000000000000000000602082015250565b6000614b5b603083613cd5565b9150614b6682614aff565b604082019050919050565b60006020820190508181036000830152614b8a81614b4e565b9050919050565b6000614b9c82613b12565b91507fffffffffffffffffffffffffffffffffffffffffffffffffffffffffffffffff8203614bce57614bcd614a0d565b5b600182019050919050565b600081905092915050565b6000614bef82613cca565b614bf98185614bd9565b9350614c09818560208601613ce6565b80840191505092915050565b6000614c218284614be4565b915081905092915050565b7f4964206e6f742063726561746564000000000000000000000000000000000000600082015250565b6000614c62600e83613cd5565b9150614c6d82614c2c565b602082019050919050565b60006020820190508181036000830152614c9181614c55565b9050919050565b6000614ca38261476d565b915060ff8203614cb657614cb5614a0d565b5b600182019050919050565b7f57726f6e6720636c69656e742064617461000000000000000000000000000000600082015250565b6000614cf7601183613cd5565b9150614d0282614cc1565b602082019050919050565b60006020820190508181036000830152614d2681614cea565b9050919050565b7f57726f6e67206e756d626572206f662061737365747300000000000000000000600082015250565b6000614d63601683613cd5565b9150614d6e82614d2d565b602082019050919050565b60006020820190508181036000830152614d9281614d56565b9050919050565b7f546869732066756e6374696f6e206973207265737472696374656420746f207460008201527f6865207369676e61746f72000000000000000000000000000000000000000000602082015250565b6000614df5602b83613cd5565b9150614e0082614d99565b604082019050919050565b60006020820190508181036000830152614e2481614de8565b9050919050565b7f57726f6e67206e756d626572206f66207461736b730000000000000000000000600082015250565b6000614e61601583613cd5565b9150614e6c82614e2b565b602082019050919050565b60006020820190508181036000830152614e9081614e54565b9050919050565b60006060820190508181036000830152614eb18186613d19565b9050614ec06020830185613cbb565b614ecd6040830184613c51565b94935050505056fea26469706673582212204fb549d5016e347678d97951bb8250163c6ccf21822d75c073774782a9c98ce164736f6c634300080d00334d616b652073757265206974206973207468652062657374207175616c697479206d757368726f6f6d206c656174686572",
  "immutableReferences": {},
  "source": "// SPDX-License-Identifier: GPL-3.0\npragma solidity >=0.8.7;\n// pragma experimental ABIEncoderV2;\n\n//This is an asset contract.\ncontract Assets{\n    uint256 public assetCount = 1; //state variable to keep track of the number of assets.\n    Asset[] public assets; //allows to use id as key to find assets (basically search asset by id)\n    \n    // //mappping each address  with an array of assets (assets each user has created)\n    mapping(address => Asset[]) public userAssetMap;\n\n    //constructor - executed once when a contract is created and it initialises contract state.\n    constructor () payable { \n        createAssets(\n            [\"Berken Bag\", \"PS4\", \"Iphone 6\",\"Xbox 1\",\"Issey Miyake Top\"],\n            [\"Pink Bag\", \"Blue Ps4\", \"Pink Iphone\", \"500GB\", \"Home Plissee jacket\"],\n            [1000, 4500, 6500,1500,19000]);\n    }\n\n    //definition of a data type of Asset using structs\n    struct Asset {\n        //attributes of the struct\n        uint256 id;\n        string assetName; \n        string description; \n        uint256 creationTime;\n        uint256 compltionTime;\n        // enum Status; \n        uint256 quantity;\n        bool completed;\n        address creator;\n    }\n   \n    //creation of events\n    event AssetCreated(uint256 indexed id,string indexed _assetName, string _description,uint256 _quantity, bool completed,address indexed creator);\n    event CompletedAssetValueChanged(bool indexed newValue); \n\n\n    //create multiple assets at once. \n    //Used inn constructor but cann also be implemnted onn front end, \n    //this is one call and saves gas rather than using 5 seperate calls to create asset\n   function createAssets(string[5] memory _assetNames,string[5] memory _description ,uint16[5] memory _quantities) public returns (bool) {\n        uint256  assetLength = _assetNames.length;\n        require(assetLength == _quantities.length, \"Wrong client data\");\n        require(assetLength < 10, \"Wrong number of assets\");\n\n        for(uint8 i=0; i < assetLength;) {\n            \n        createAsset(_assetNames[i],_description[i], _quantities[i]);\n        unchecked {\n            // There is neve going where it underflows \n            // There is never going to be where it overflow \n            ++i;\n        }\n\n        }\n        return true;\n    }\n\n    //create an asset\n    function createAsset(string memory _assetName,string memory _description, uint256 _quantity) public returns (bool){\n        // Checks\n        // Effects \n        Asset memory newAsset; //an empty temporary Asset object\n        // adding the function paramenter values to it then\n        newAsset.id = assetCount;\n        newAsset.assetName = _assetName;\n        newAsset.description = _description;\n        newAsset.creationTime = block.timestamp; //store the unix timestamp of when this function was called\n        newAsset.quantity = _quantity;\n        // newAsset.completed = false; // using solidity language default value for primitives to my advantage\n        newAsset.creator = msg.sender;\n        assets.push(newAsset); // Push the newAsset struct into the asset array\n        userAssetMap[msg.sender].push(newAsset);  // Push the newAsset struct into the asset array related to an eth address\n        // Interaction\n        ++assetCount;\n\n        //emit event to stack\n        emit AssetCreated(\n            newAsset.id,\n            newAsset.assetName,\n            newAsset.description,\n            newAsset.quantity,\n            newAsset.completed,\n            newAsset.creator\n            );\n\n        return true;\n    }\n\n        // try calling userAssetMap on it own in front end and see if each idnex is needed!!\n      function getUserAssets(address _userAddress) public view returns (Asset[] memory){\n        Asset[] memory tempAsset;\n        tempAsset = userAssetMap[_userAddress];\n\n        return tempAsset;\n    }\n\n    //change the toggle completed variable to the opposide of current value\n    // should only works if all tasks associated with the asset are completed (need to work on this!)\n    function toggleAssetCompleted(uint256 _id) public returns (bool newCompletionStatus){\n        require(assets.length >= _id, \"Id not created\");\n        Asset memory _asset = assets[ _id - 1];\n        newCompletionStatus = !_asset.completed;\n        _asset.completed = newCompletionStatus;\n        assets[_id - 1] = _asset;\n        emit CompletedAssetValueChanged(newCompletionStatus);\n    }\n\n}\n\n//This is just a task contract.\n// Tasks which inherts from Assets (all functions and variables from Assets can be accessed int Tasks)\ncontract Tasks is Assets{ //make assets the parent contract\n    uint256 public taskCount = 1;//state variable to keep track of the number of assets.\n    Task[] public tasks;//allows to use id as key to find tasks (basically search task by id)\n\n    //mappping each asset (id) with an array of Tasks it is made up of\n    mapping(uint256 => Task[]) public assetTaskMap;\n\n    //constructor - executed once when a contract is created and it initialises contract state.\n\n      constructor () payable { \n        createTasks(\n            [\"Source Leather\", \"Transport to Factory\", \"Assemble the plastic\"],\n            [\"Make sure it is the best quality mushroom leather\", \"Make to deliver before 2/03/2022\", \"Make sure to use blue plastic!\"],\n            [1, 1, 3],\n            [0x5E7b2Bbb14B8a9097A26A93982624067A1dB11dE, 0x5E7b2Bbb14B8a9097A26A93982624067A1dB11dE,0x5B38Da6a701c568545dCfcB03FcB875f56beddC4]);\n    }\n\n    //definition of a data type of Task using structs\n    struct Task {\n        //attributes of the struct\n        uint256 id;\n        string content;\n        string creator_note; //the task creators message \n        string intermediary_note; // the signators message (e.g message on why things are behind schedule)\n        uint256 creationTime;\n        uint256 compltionTime;\n        bool completed;\n        address signator;\n        Asset asset; //an Asset object/struct what is associated with the task\n    }\n\n    event Sender(address indexed who, address indexed signator );\n    event TaskCreated(uint indexed id,address indexed who, string indexed content);\n    event CompletedTaskValueChanged(bool indexed newValue);\n\n    //create multiple assets at once. \n    //Used inn constructor but cann also be implemnted onn front end, \n    //this is one call and saves gas rather than using 5 seperate calls to create asset\n    function createTasks(string[3] memory _taskContents,string[3] memory _notes ,uint8[3] memory _assetIds, address[3] memory _adresses) public returns (bool) {\n        uint256  taskLength = _taskContents.length;\n        require(taskLength == _assetIds.length, \"Wrong client data\");\n        require(taskLength < 10, \"Wrong number of tasks\");\n\n        for(uint8 i=0; i < taskLength;) {\n            createTask(_taskContents[i],_notes[i], _assetIds[i], _adresses[i]);\n            unchecked {\n                // There is neve going where it underflows \n                // There is never going to be where it overflow \n                ++i;\n            }\n\n        }\n    return true;\n    }\n\n    //create a task\n    function createTask(string memory _taskContent,string memory _note, uint256 _assetId, address _signator) public returns (bool){        \n        \n        //get asset assoicated with current task and make sure \n        //the function is being called by the asset creator\n        Asset memory currAsset;  //create empty temporary Asset\n        currAsset = assets[_assetId-1]; //get the associated asset value to store temporary asset\n        require(msg.sender == currAsset.creator, \"This function is restricted to the asset creator\"); \n\n        //create an empty temporary Task object adding the function paramenter values to it then\n        //it is pushed into the the array of assets\n        Task memory newTask; \n        newTask.id = taskCount;\n        newTask.content = _taskContent;\n        newTask.creator_note = _note;\n        // newTask.intermediary_note = '';\n        newTask.creationTime = block.timestamp;\n        // newTask.completed = false;\n        newTask.signator = _signator;\n        newTask.asset = assets[_assetId-1];\n        tasks.push(newTask); // Push the newTask struct into the task array\n        // map newly created task to its associated assed based on the \"_assedID\"\n        assetTaskMap[_assetId-1].push(newTask); // each assetid maps to a task[]\n        taskCount++;\n\n        emit TaskCreated(\n            newTask.id,\n            newTask.signator,\n            newTask.content\n            );\n        return true;\n    }\n\n    // //get all tasks \n    // function getAllTasks() public view returns (Task[] memory){\n    //     return tasks;\n    // }\n\n    //get all tasks associated with a certain asset (by using assetID)\n   function getAssetTasks( uint256 _assetID) public view returns (Task[] memory){\n        Task[] memory _tasks = assetTaskMap[_assetID-1];\n        return _tasks;\n    }\n\n    // add a message for a task being perfromed (signators message)\n    function addDescription(uint _TaskId,string memory _note ) public returns (bool){\n        Task memory _task = tasks[_TaskId-1];\n        emit Sender(\n            msg.sender,\n            _task.signator\n            );\n        require(msg.sender == _task.signator, \"This function is restricted to the signator\");\n\n        _task.intermediary_note = _note;\n        tasks[_TaskId-1] = _task;\n        \n        return true;\n    }\n\n    //change the toggle completed variable to the opposide of current value\n    function toggleTaskCompleted(uint _id) public returns (bool){\n        Task memory _task = tasks[_id-1];\n        // require(msg.sender == _task.signator, \"This function is restricted to the signator\");\n        _task.completed = !_task.completed;\n        tasks[_id-1] = _task;\n\n\n        // find the index of the task in the assetTaskMap\n        Task[] memory _allTasks = getAssetTasks(_task.asset.id);\n        uint8 index = 0;\n        for (index; index < _allTasks.length-1; index++) {\n            if (_allTasks[index].id == _id) {\n                index = index;\n                break;\n            } \n        }\n        //make these changes in the asset task map\n        // assetTaskMap[_task.asset.id][0] = _task;\n        assetTaskMap[_task.asset.id-1][index] = _task;\n\n      \n        // // Task[] memory _allTasks = getAssetTasks(_task.asset.id);\n        \n        \n\n        emit CompletedTaskValueChanged(!_task.completed);\n        return !_task.completed;  // retruns the new value \n    }\n}\n\n//when a contract inherits from these two only 1 contract is created on the blockchain which is this one\ncontract UnboltV2 is Tasks{  //inheritance\n\n}\n\n",
  "sourcePath": "/Users/tobiadewunmi/Desktop/unbolt/src/truffle/contracts/UnBoltV2.sol",
  "compiler": {
    "name": "solc",
    "version": "0.8.13+commit.abaa5c0e.Emscripten.clang"
  },
  "schemaVersion": "3.4.6",
  "updatedAt": "2022-05-13T09:18:02.696Z",
  "devdoc": {
    "kind": "dev",
    "methods": {},
    "version": 1
  },
  "userdoc": {
    "kind": "user",
    "methods": {},
    "version": 1
  }
}